:020000040800F2
:10000000A89400204D03000855030008570300087A
:10001000590300085B0300085D03000800000000AE
:100020000000000000000000000000008D03000838
:1000300061030008000000002704000837040008DE
:1000400067030008670300086703000867030008E8
:1000500067030008670300086703000867030008D8
:1000600067030008670300086703000867030008C8
:1000700067030008670300086703000867030008B8
:1000800067030008670300086703000867030008A8
:100090006703000867030008670300086703000898
:1000A0006703000867030008670300086703000888
:1000B00067030008670300086703000889640008F5
:1000C000796400086703000867030008757D00086D
:1000D000670300086703000867030008198F00081A
:1000E000E94D00086703000867030008670300087C
:1000F0006703000867030008670300086703000838
:100100006703000867030008670300086703000827
:100110006703000867030008670300086703000817
:100120006703000867030008670300086703000807
:1001300067030008670300086703000867030008F7
:1001400067030008670300086703000867030008E7
:1001500067030008670300086703000867030008D7
:1001600067030008670300086703000867030008C7
:100170006703000867030008670300080000000029
:1001800067030008670300086703000867030008A7
:100190006703000867030008670300086703000897
:1001A00067030008670300086703000800F002F80F
:1001B00000F0B8F80AA090E8000C82448344AAF149
:1001C0000107DA4501D100F0ADF8AFF2090EBAE847
:1001D0000F0013F0010F18BFFB1A43F0010318477B
:1001E00038E2000058E200000A444FF0000C10F81A
:1001F000013B13F0070408BF10F8014B1D1108BFA5
:1002000010F8015B641E05D010F8016B641E01F844
:10021000016BF9D113F0080F1EBF10F8014BAD1C94
:100220000C1B09D16D1E58BF01F801CBFAD505E0B2
:1002300014F8016B01F8016B6D1EF9D59142D6D30C
:10024000704700000023002400250026103A28BF34
:1002500078C1FBD8520728BF30C148BF0B60704738
:100260006E2900F07785702901F0F18066290CF085
:10027000858565290CF0828567290CF07F856129C9
:100280000CF07E8503681B0A28BF41F080016929B4
:1002900000F06E82642900F06B82752900F068829C
:1002A0006F2901F07E80782901F0BD80E92901F0F5
:1002B0001980E42901F01680F52901F01380EF2957
:1002C00001F07B80F82901F0BC800368DB0928BFBE
:1002D00041F08001632900F08887732900F08D8741
:1002E000E32901F08F83F32901F094830020704704
:1002F0001FB504F083FC9DE8030000F07DFC01F0D5
:1003000047F90400002000210CF0B2FA401C6060A4
:10031000002000210CF096FAE0601FBD10B501F03E
:10032000BBFC10BD01F093FC114603B40AF0FAFACD
:1003300003BCFFF7DDFF0CF047F801F03FFF03B40B
:10034000FFF7ECFF03BC01F0AFFF00000948804756
:1003500009480047FEE7FEE7FEE7FEE7FEE7FEE7A7
:10036000FEE7FEE7FEE7FEE704480549054A064BBF
:10037000704700003D8D0008AD010008A88E0020E8
:10038000A8940020A8900020A89000201EF0040F40
:100390000CBFEFF30880EFF30980816911F8021CAC
:1003A000002932D101B590E80F10E047BDE80050B8
:1003B000CCF80000244B93E80600914208BF704738
:1003C0001A6041B91EF0100F10D1204B186820F0B0
:1003D000010018600AE02CE9F00F1EF0100F08BFB2
:1003E0002CED108A81F822E0C1F838C0906B92F8A9
:1003F000221061F0FF0E1EF0100F08BFB0EC108A43
:10040000B0E8F00F80F309887047114A13689942E9
:10041000FAD801B552F821C00FC8E047BDE8005036
:10042000CCF80000704701B502F082FDBDE8014044
:10043000EFF3098CBEE701B502F0F4FFBDE801401F
:10044000EFF3098CB6E700BF4888002034EF00E0E6
:10045000D0DF000870B5A0FB0140B4F1805170F10D
:10046000000024BF002070BD204600F04CF80500BD
:100470001CBF214600F055FB284670BD0B3020F014
:10048000070070472DE9F04117460E460446FFF776
:10049000F5FFA042054633D9002F1CBF06F10C0022
:1004A0000AF015FA30467468F4B12168A94217D3EE
:1004B00005F1080291423CBF6168416007D3626860
:1004C00061194A602268521B0A6041602560002F52
:1004D0001CBF06F10C000AF01CFA201DBDE8F081DB
:1004E00020466468002CE0D12946304600F070FBBD
:1004F0000028D7D1002F1CBF06F10C000AF009FA22
:100500000020BDE8F08110B5044600F056FB0168FC
:100510002046BDE810400122B4E770B516460D46EE
:10052000041F002808BF70BD002E1CBF05F10C0081
:100530000AF0CDF92B465868002818BFA04238BFF2
:100540000346F8D31968CA18A24218BF5C6003D1E9
:1005500022681C461144196021680A19824218BF9A
:10056000606004D142686260006808442060002E28
:100570001CBF05F10C000AF0CCF970BD10B50446A3
:1005800000F01BFB01682046BDE810400122C4E7D3
:1005900053EA020C00F069802DE9F04B4FF00006A1
:1005A000002B1FBFB3FA83F503FA05F424FA05F60E
:1005B0005E4012BF1643B2FA82F502FA05F4C5F1A5
:1005C00020051EBF22FA05FC44EA0C04203556EA39
:1005D000044C4FEA144418BF641C4FF000084FF05D
:1005E0000009904271EB030C39D3002919BFB1FA0D
:1005F00081F701FA07F6B0FA80F700FA07F6C7F1BB
:1006000020071EBF20FA07FC46EA0C062037B6FB7F
:10061000F4FCA7EB0507103F07F01F0BCBF12006FA
:100620000CFA0BFB2CFA06F644BFB3460026202F2B
:10063000A4BF5E464FF0000B5BEA060C08BF4FF00C
:10064000010B19EB0B09ABFB027C48EB0608C01B46
:1006500006FB02CC0BFB03CC71EB0C01C1E70B4694
:10066000024641464846BDE8F08B13B54FF0000006
:100670004FF00001AFF30080BDE81C407047000060
:100680000A46014900F0BEBDB08700200FB40449FE
:1006900010B503AA029800F0B5FD10BC5DF814FB7C
:1006A000B08700200FB41CB5084B06AA7B446946EE
:1006B0000090059800F077FD04460020694600F0A0
:1006C00085FD20461CBC5DF814FB00001D0B0000DE
:1006D00070B5044685690068C10601D5302600E082
:1006E0002026C00707D070BDD4E9012130469047CD
:1006F000206A401C20626D1EF6D570BD70B50446A0
:1007000085690078C00707D170BDD4E90121202098
:100710009047206A401C20626D1EF6D570BD70B5F2
:100720000C460546012A05D02878800600D5EA69DE
:10073000002302E0012305E05B1C934202D2E05C4F
:100740000028F9D1A869E618C01AA861286A1844D7
:1007500028622846FFF7BCFF04E0D5E9012114F820
:10076000010B9047B442F8D32846FFF7C7FF70BD8E
:100770002DE9F0410646002410687529314616A57A
:1007800010D000F07CFA002802DA404213A507E0FE
:1007900031688A0701D512A502E0490704D511A5E1
:1007A000012401E000F074FA00210A2206F1240776
:1007B00009E0B0FBF2FCB0FBF2F302FB1C003030AE
:1007C00078541846491C0028F3D123462A4630465F
:1007D000BDE8F04100F065BA000000002D00000007
:1007E0002B000000200000002DE9F05F8946044640
:1007F0004FF0000ADFF874B1FB44C0F820A0204697
:10080000E1688847002874D0252806D0D4E9012162
:100810009047206A401C2062F1E700265F46204690
:10082000E16888472028054607DB312D05D2781975
:1008300010F8200C08B10643F1E7B00701D526F007
:100840000406C4F81CA00027C4F818A02A2D09D05B
:1008500028460AF035F838B304EB8708303DC8F86D
:10086000185019E059F8041B204604EB87029161E7
:10087000E1688847012F054618D1E069002820DA91
:1008800026F020061DE0D8F8180000EB800005EBEC
:1008900040003038C8F818002046E168884705460F
:1008A0000AF00EF80028EED1012F0AD02E2D08D123
:1008B0002046E16888477F1C0546022F46F0200647
:1008C000C4DBA069002803DA404246F00106A061BB
:1008D000F00701D026F010066C2D0BD0682D09D042
:1008E0004C2D39D06A2D35D0742D35D07A2D33D09A
:1008F00016E038E0E1682F4620468847B8420546B2
:1009000009D16C2F26D04FF48060E1680643204661
:100910008847054604E06C2F1AD04FF480700643D8
:100920000DB3A5F14100192802D8203546F4006620
:100930004A462946204626604E46FFF791FC80B184
:1009400001280BD0F61D26F0070000F1080956E734
:100950004020E4E78020D8E70020D6E706F104092C
:100960004DE7284652E7206ABDE8F09F68D90000AD
:1009700070B5064600F026F90468054630460A229E
:10098000002100F0C1FD2C6070BD401ECAB210F8FD
:10099000011F8A4202D00029F9D10020704740EAA5
:1009A000010310B59B070FD1042A0DD310C808C945
:1009B000121F9C42F8D020BA19BA884201D90120EE
:1009C00010BD4FF0FF3010BD1AB1D30703D0521C39
:1009D00007E0002010BD10F8013B11F8014B1B1B74
:1009E00007D110F8013B11F8014B1B1B01D1921EDE
:1009F000F1D1184610BD10B5431C02E010F8011BE0
:100A000071B18107FAD14FF0013202C88C1A8C43C0
:100A100014EAC211F9D0C01A0A0603D0C01E10BDD4
:100A2000C01A10BD0A0401D0801E10BD0902FCD0FE
:100A3000401E10BD032A40F2308010F0030C00F07D
:100A4000158011F8013BBCF1020F624498BF11F808
:100A500001CB00F8013B38BF11F8013BA2F10402C1
:100A600098BF00F801CB38BF00F8013B11F0030339
:100A700000F02580083AC0F0088051F8043B083A9D
:100A800051F804CBA0E80810F5E7121D5CBF51F83F
:100A9000043B40F8043BAFF30080D20724BF11F8B9
:100AA000013B11F801CB48BF11F8012B24BF00F81E
:100AB000013B00F801CB48BF00F8012B704710B58F
:100AC000203AC0F00B80B1E81850203AA0E8185046
:100AD000B1E81850A0E81850BFF4F5AF5FEA027C07
:100AE00024BFB1E81850A0E8185044BF18C918C076
:100AF000BDE810405FEA827C24BF51F8043B40F817
:100B0000043B08BF7047D20728BF31F8023B48BFFB
:100B100011F8012B28BF20F8023B48BF00F8012B39
:100B200070474FF000020429C0F0128010F0030C4F
:100B300000F01B80CCF1040CBCF1020F18BF00F8D0
:100B4000012BA8BF20F8022BA1EB0C0100F00DB87F
:100B50005FEAC17C24BF00F8012B00F8012B48BFDD
:100B600000F8012B70474FF0000200B51346944681
:100B70009646203922BFA0E80C50A0E80C50B1F1F5
:100B80002001BFF4F7AF090728BFA0E80C5048BF09
:100B90000CC05DF804EB890028BF40F8042B08BFA7
:100BA000704748BF20F8022B11F0804F18BF00F8A3
:100BB000012B704770477047704710B500F0DCFCA0
:100BC000083010BD09F050BE70477047704770473D
:100BD00038B504460A4600206946AFF30080002875
:100BE00008BF38BD02460099204600F0D6FC01201F
:100BF00038BD012001F023B8F8B5AFF300800546F9
:100C000000200C46102000BF0646A819A0420DD9AE
:100C1000324669460020AFF30080070008BF01F0AC
:100C20000EF80098A04218BF0546C419FFF7C5FF8B
:100C300005600746F01D20F007004619284600F021
:100C40000AF8B44208BFF8BDA21B31463868BDE8B7
:100C5000F84000F0A2BC00210160C0E901100C3096
:100C600009F046BE1020704710B5FFF7ABFF0068D3
:100C700010BD10B50446FFF7A5FF046010BD09685C
:100C80004A0501D540B27047C905FCD500B270478E
:100C900009684A0501D5C0B27047C905FCD580B2C4
:100CA00070472DE9F0470D4699469246044600F1FB
:100CB00024080168880604D5E06921F0100121604C
:100CC00000E00120A84201DD471B00E00027A169E8
:100CD0007A1902EB0900081AA0612078C00602D434
:100CE0002046FFF7F5FC002608E0D4E901211AF8B8
:100CF00006009047206A401C761C20624E45F4DBBB
:100D00002078C0060AD52046FFF7E2FC06E0D4E9C9
:100D1000012130209047206A401C2062381EA7F134
:100D20000107F4DC07E0D4E9012118F80500904739
:100D3000206A401C2062281EA5F10105F3DC204634
:100D4000FFF7DCFC2078000602D50220BDE8F08722
:100D50000120FBE711680268006A530501D508709D
:100D60000AE0D30501D5088006E0130603D5C217B3
:100D7000C1E9000200E008600120704770472DE9DA
:100D8000FF4F0C461E464FF0FF378BB0D2E90001F3
:100D9000DDF860800A908A46C1F30A5505B93D46E0
:100DA000002108464FF00000BAF1000F00F44000A7
:100DB00005DA00EB80004FF4400101EA50004FEAF1
:100DC0009059B9F1010F00DDB9460A9850EA4A007E
:100DD0000ED044F61050A5F2FF3545432F14B8F15C
:100DE000000F1ED07542291E1EDDC9F100021CE055
:100DF000B8F1010F4FF0000001D0302103E0F243C1
:100E000005E02154401CB042FBDB304600220021AB
:100E100021540B99C1F80880C1E900200FB0BDE84A
:100E2000F08FBD1B6D1CDEE74A4600DA694206A85A
:100E300000F064FE06AB93E8070003AB83E807000D
:100E400050460A9903F0A6FA8DE80700A0F5005075
:100E50001F3800900398002D0ADD42F21F014A4618
:100E60000844002303A90390684603F051FD09E0FC
:100E7000A0F500504A461F38002303A90390684696
:100E800003F070FD8DE807000004000C03D04FF064
:100E9000FF30410800E01046B8F1000F03D00022F7
:100EA000009215461EE0751E05D400F095FB303209
:100EB00062556D1EF9D5B3460122084302D00022C7
:100EC0007F1C04E02078302801D100227F1E002AF8
:100ED000099784D01DE0112D07DA00F07DFB303238
:100EE00062556D1C50EA0102F5D1084302D000980A
:100EF000C8B10EE00021681E05E0235C625C63540B
:100F00002254401E491C8142F7DBAB46A81B401E01
:100F10000990002004F80B000B98099AC0F808808B
:100F2000C0E9002B7AE711264FF0000857E72DE9BA
:100F3000F04F88460446D21D22F0070191B0D1E956
:100F40000001CDE90A0109F035FB02460B98C00FFC
:100F500001D02D2007E02068810701D52B2002E079
:100F6000202101EAC000032A099001D0072A05DBED
:100F700003464146204600F0FBFC0BE1207880064A
:100F800001D5E06900E00620B8F1650F814606D082
:100F9000B8F1660F18D0B8F1670F70D131E00020BA
:100FA000B9F1110F009001DB112301E009F10103F8
:100FB0000AAA01A90CA8FFF7E2FEDDE90C700026E1
:100FC00009F10105834647E001204B4600904FF0B0
:100FD00000470AAA01A90CA8FFF7D1FEDDE90DB070
:100FE0000C995D46002610B909F101000D18B9EB06
:100FF000050003D4C0F1FF3609F10105A5EB090096
:101000002BE0B9F1010F01DA4FF001090020B9F12D
:10101000110F0090484601DD112300E003460AAAA3
:1010200001A90CA8FFF7ABFEDDE90C704D460026C8
:101030008346207800070AD4AB4500DA5D4601A854
:10104000012D04DD411911F8011C302907D04F454D
:1010500002DA17F1040F04DA012082460FE06D1E58
:10106000EEE7002F02DCED1B3E4403E0781CA842B3
:1010700000DD7D1CB81B00F1010A4FF0004720780D
:10108000000703D4AA4501DB4FF0FF3A0021B7F176
:10109000004F0DF143088DF8431024D002202B237C
:1010A000002F01DA7F422D230A21021EA0F1010048
:1010B00000DC5FB197FBF1FC97FBF1F201FB1C7CBC
:1010C00017460CF1300C08F801CDEEE7A8F101004D
:1010D00003702188090501D5452100E06521A0F1B3
:1010E000010800F8011C09980FA9A1EB0807FF1DD2
:1010F00000B10120411901EBEA70A1693844081AD6
:10110000401EA0612078C00602D42046FFF7E0FA16
:10111000099828B1D4E901219047206A401C206237
:101120002078C00622D52046FFF7D2FA1EE0002E16
:1011300004DBB34502DD01A8805D00E03020D4E986
:1011400001219047206A401C2062761CAAF1010010
:101150005FEA000A0AD100F01BFAC0680168405C2F
:10116000D4E901219047206A401C2062281EA5F185
:101170000105DCDC07E0D4E9012118F8010B9047F8
:10118000206A401C2062381EA7F10107F3DC2046CC
:10119000FFF7B4FA032011B041E6000001694A1CD0
:1011A00002610878704700B58FB0CDE901310021A8
:1011B000059105497944CDE9031011466846FFF7CA
:1011C00013FB0FB000BD0000E5FFFFFF0A6802F847
:1011D000010B0A60704710B5436913B1AFF300808B
:1011E00001E0FFF79CFA012010BD127800F1240104
:1011F0000A7000224A700122EDE711684FF0FF32B9
:10120000E9E70000074B70B50D467B44FFF7CBFFC5
:101210000446284600F0E4FC10B14FF0FF3070BDEA
:10122000204670BD2BA700002DE9FF5F15468A46BA
:101230000446DFF8AC80F8440027D8E900103E46A9
:10124000CDE9001010E03AF816106A4602A800F046
:10125000D6FC411C07D02178890603D5E2693918EC
:1012600091420DD80744761C2078800602D5E069AB
:10127000B84205DDAE42E6DB3AF816000028E2D1BE
:10128000A069C01BA0612046FFF722FAD8E9001030
:10129000CDE90010002017E03AF818106A4602A8BD
:1012A00000F0ADFCB0F1FF3F81460BD000250DF101
:1012B000080B05E0D4E901211BF8050090476D1CDF
:1012C0004D45F7D308F10100B0428046E4DB206AC7
:1012D000384420622046FFF711FABDE8FF9F000066
:1012E0003ECF00002DE9F0418046D21D22F00702DA
:1012F0000025D2E90002F52915A614D0011E72F1CD
:10130000000106DA0023D0EB030063EB020211A612
:1013100008E0D8F800108B0701D50FA602E04907B6
:1013200001D50EA601251146002408F1240704E08A
:1013300000F052F930323A55641C50EA0102F7D1FC
:101340002B46324621464046BDE8F041FFF7A9BC96
:10135000000000002D0000002B0000002000000015
:1013600030B4002100F1240408E002F00705D2089F
:10137000303542EA4372DB086554491C52EA0305E2
:10138000F3D10468002310A2250707D5A40600D4D2
:1013900021B1C46901230DA2641EC46130BCFFF7F2
:1013A00080BC10B5044621461068FFF771FC024668
:1013B0002046BDE810400023D2E7D21D22F00701ED
:1013C000D1E90023CCE7000000000000300000005D
:1013D000F0B40D460188090502D5214C7C4402E099
:1013E0001F4C7C440E34002100F1240608E002F07A
:1013F0000F071209E75D42EA03721B097754491C83
:1014000052EA0307F3D102780023120704D5702DA6
:1014100006D009B1022311342246F0BCFFF741BCCB
:1014200001231034F8E770B504460D4621461068D4
:10143000FFF72EFC024629462046BDE870400023F7
:10144000C6E7D21D22F00703D3E90023C0E70368F3
:10145000126843F0200303600823C3610023B7E749
:10146000A0CD00000FB4002300B589B00CA90091F5
:101470000B99CB60214B7B440693214B7B44079314
:1014800004236FF00042CDE901321E4A7A446B46D4
:101490000892024600200BF0D5FC09B05DF814FB61
:1014A00070B506464FF0FF3015460C46324686B002
:1014B0000091CDE9010169460020049004A8FFF7DE
:1014C000D1FF02460498211825B108B1084600E072
:1014D00020462860049800280DD0002A02DD0098DC
:1014E000884208D03246081B69460094CDE90104C1
:1014F00004A8FFF7B7FF06B070BD0000A305000009
:10150000BB050000D30100002DE9F04791460F46CE
:1015100080460446002614F8015B2DB100F030F837
:101520000068405DC007F6D12B2D02D02D2D18D0BC
:10153000641E4A463946204600F090FA27B13968C1
:10154000A14201D1C7F800804FF0020471050BD50C
:101550004042002803DDFFF735FB0460A007BDE82B
:10156000F08746F48066E4E70028F8DAFFF72AFB04
:1015700004606FF00040F2E700487047448E00209E
:1015800010B500F005F8001D10BD00BFE5B2000069
:1015900010B5FFF7F1FF203010BD30B404468C4683
:1015A0004368002B18BF634538BF1846F8D303685B
:1015B0001844604507D0C81C20F0070000F1040C57
:1015C000ACEB0100121A2146CCF8002030BC0022FE
:1015D0000CF10400FEF7A1BF30B5B0F10A024FEAEA
:1015E000900E71F100034EEA817EB0EB0E0061EBCC
:1015F00091014FEA101E4EEA017E10EB0E0041EB06
:1016000011114FEA102E4EEA016E10EB0E0041EB65
:1016100011214FEA104E4EEA014E10EB0E0041EB45
:101620001141401841F100014FEAD00040EA4170F9
:101630004FEAD10110EB80054FEA810444EA90742F
:1016400044EB01046D1944EB0404521BA3414FF019
:10165000000348BF0A3200D530BD401C41F10001F3
:1016600030BD10B50446FFF78BFF0068005D00F049
:10167000010010BD2DE9F04F04460D46D21D22F0A9
:10168000070089B0D0E900974846394608F092FF34
:101690000246F80F01D02D2307E02068810701D50D
:1016A0002B2302E0202101EAC0038DF820300BB18A
:1016B000012000E00020032A824601D0072A04DB33
:1016C0002946204600F054F93FE12078800601D4F5
:1016D0000D2500E0E569C7F30A560D2D49DA002112
:1016E0004FEA175B08464FF00000002F00F440005F
:1016F00007DA00EB80004FF4400100EBD07001EA04
:1017000060008115012901DD4FF0FF3100224FEA11
:10171000850CBCF1180F06D31346ACF118004FF03E
:101720008052C24003E04FF4801323FA0CF30CF113
:101730000C0CBCF1200F04D3ACF1200C09FA0CF016
:1017400001E007FA0CF000294FF0004801DD18B95C
:101750000FE00ED140450CD319EB02095F4121B9CE
:10176000404502D19F4329EA0209BBEB175F00D035
:10177000761C2088000502D57B48784402E07A4830
:101780007844193808AA302302F80A30037C0AF199
:101790000101002E0AF1020A53546A4602DC4FF09E
:1017A000300101E04FF031014FF001088DF80010D9
:1017B00002D0A6F2FF3603E059EA470100D06B4E93
:1017C000002D02DC2178090704D54FF002082E21F4
:1017D0008DF80110C44600210BE0C7F303433F011D
:1017E000C35C491C6D1E02F80830052908F1010888
:1017F00001DA002DF1DC00210CE000EB1973491C2B
:101800001B786D1E082902F808304FEA091908F103
:10181000010801DA002DF0DC21688B0602D516E004
:10182000A8F10108E04505DD02EB080313F8013CCF
:10183000302BF5D0B8F1000F09DD02EB080313F8E7
:10184000013C2E2B03D1090701D4A8F10108002D7A
:1018500005DD3E2102F808106D1E08F10108407CEC
:10186000002E02F8080008F1010804DA2D20764263
:1018700002F8080002E02B2002F808000A214FF4C9
:101880007A70864208F101080BDB96FBF0F33033E7
:1018900002F8083096FBF0F308F1010800FB13662C
:1018A00001E0642E0CDB642096FBF0F3303302F889
:1018B000083096FBF0F308F1010800FB136601E025
:1018C0000A2E06DB96FBF1F0303002F8080008F132
:1018D000010896FBF1F001FB1060303002F80800BF
:1018E000A16908F1010808EB050202EB0A00081AD9
:1018F000A0612078C00602D42046FEF7E9FE216AE6
:1019000008AE01EB0A00206204E0D4E9012116F8D8
:10191000010B9047BAF1010AF7D22078C00602D530
:101920002046FEF7D5FE6E4609E016F8010B3E286C
:101930000FD0D4E901219047206A401C2062B8F101
:101940000108F2D22046FEF7D9FE09B00320BDE817
:10195000F08F206A2844206203E0D4E9012130207E
:1019600090476D1EEBD3F8E73DCA000002FCFFFF75
:101970002DE9F0411F46044603260168072A01F4B9
:10198000006004DB08B116A505E016A503E008B168
:1019900015A500E015A521F010002060A069C01E6B
:1019A000A0610FB1401EA0612046FEF791FE4FB12D
:1019B000D4E9012138469047206A401C2062C01CAF
:1019C000206206E0206AFAE7D4E9012115F8010B4C
:1019D0009047761EF8D22046FEF790FEBDE8F081D3
:1019E0004E414E006E616E00494E4600696E6600C3
:1019F00010B5436913B1AFF3008001E0FFF714FCA9
:101A0000012010BD128800F1240182840022C284CA
:101A10000122EDE711684FF0FF32E9E7426842B179
:101A2000016811F8013B23B1521EC0E900121846AB
:101A300070470121C160881E704742685AB1C3686F
:101A4000016843B983688B4205D0491E521CC0E926
:101A50000012002070474FF0FF3070472DE9F05F13
:101A6000824615468B4600270AF10104B9460078E4
:101A7000302801D09DB113E014F8010B012778281C
:101A800003D0582801D045B10AE00DB1102D07D17F
:101A9000002714F8010B102502E0082500E00A25B4
:101AA0000026B0460EE005FB080005FB06F1012705
:101AB0001FFA80F801EB1046B6F5803F00D3B94617
:101AC00014F8010B294600F0EFF80028EBDABBF11F
:101AD000000F05D00FB1641E00E05446CBF8004063
:101AE000B9F1000F06D0FFF76DF802210160C81EA2
:101AF000BDE8F09F48EA0640FAE700002DE9F0470C
:101B0000814616468AB0354878440DC88DE80D00E8
:101B100032487844801C03AC0DC884E80D0041F6BF
:101B20009B300844372190FBF1F290FBF1F5A5F1D1
:101B3000800501FB12041B3C02D56442012000E039
:101B40000020DFF898A080460027FA44AAF1BE0AD8
:101B50000EE0E0070AD03246684607EB4701012352
:101B60000AEB810102F0FEFE8DE8070064107F1C85
:101B7000002CEED1194F7F44AE3F19E0E80715D095
:101B800007EB04100DF1180A90E80E008AE80E0029
:101B9000C068F04201D1981908903246012306A985
:101BA00003A802F0DFFE03AB83E807006D10641C9E
:101BB000002DE3D14FF0010332466946B8F1000F22
:101BC00003A802D002F0A4FE01E002F0CBFEC9E9B6
:101BD0000001C9F808200AB0BDE8F08740C700003E
:101BE00070B5044600F14C05284608F070FE207BD5
:101BF00000F08004284608F08CFE204670BD70B5C9
:101C000016460C460546FFF7BBFC036893F8010136
:101C1000012806D0FF2C0FD8185D68B101202C7068
:101C200070BDD3F807013246214603F2071303447F
:101C30002846BDE8704018474FF0FF3070BD10B522
:101C400000F0CAFABDE8104000F0C1BA704775460E
:101C5000FFF792FCAE4605006946534620F00700A8
:101C6000854618B020B5FEF77FFBBDE820404FF059
:101C700000064FF000074FF000084FF0000B21F076
:101C80000701AC46ACE8C009ACE8C009ACE8C00943
:101C9000ACE8C0098D46704710B5FEF78EFF0068AE
:101CA000BDE8104000F006BB3A2800D2303820F0E2
:101CB0002002412A01D3A2F13700884201D34FF01C
:101CC000FF3070472DE9FF4F06468BB00878FF289C
:101CD00006D0491C2D2805D000244FF0000908E04B
:101CE00000200CE00124F8E709EB8903491C00EB14
:101CF00043090878FF28F7D114B1C9F100008146E3
:101D0000107800252C46AA4629462D2801D02B28DC
:101D100004D1521C2D2813D0002082468B46107807
:101D2000FF280FD04FF0000C0A21521CA5FB0178B0
:101D300004FB018105FB0C11C5194BEB0104EEE717
:101D40000120EAE7002108464FF00000BAF1000F39
:101D500002D000EB80004008C0F38157012F01DD65
:101D60004FF0FF370E9955EA040009EB01080BD03C
:101D70004FF0020918F5FA7F16DA4FEACA70002F01
:101D8000706008DD012007E04FEACA70C6E900B0C4
:101D90000FB0BDE8F08F00203060FEF713FFC0F8F1
:101DA00000901821084616E0B8F5FA7F18DD002FDC
:101DB00002DAF748784401E0F6487844D0E90010A8
:101DC000C6E9001040EACA707060FEF7FBFEC0F87A
:101DD0000090142108460FB0BDE8F04F0AF0CBBFC9
:101DE000002108464FF00000B8F10001099002DA26
:101DF000C7F1000200E03A4601DAC8F1000106A886
:101E0000FFF77CFE06AB93E8070003AB83E807000F
:101E100044F23E005BEA04010090584604D144F2CB
:101E20001E012C465D460091210C0904014306D198
:101E30000099240444EA15442D041039009104F05B
:101E40007F41014306D10099240244EA15642D0222
:101E50000839009104F07041014306D10099240132
:101E600044EA15742D01091F009104F0404101431B
:101E700006D10099A40044EA9574AD00891E009132
:101E800004F00041084304D100986D196441401EDC
:101E900000904FF001033A466846B8F1000FCDE9D3
:101EA000014503A902DD02F072FD01E002F045FDEB
:101EB000BAF1000F04460D4601D084F00044002121
:101EC00008464FF00000099940F2FF77484010F0B3
:101ED0000C0F07D124F00040284303D0C4F30A506C
:101EE000B84212D1FEF76EFEC0F80090C4F30A505B
:101EF000B8420AD1A8487844D0E90010C6E90010D9
:101F000004F000410843706042E7C6E900543FE72F
:101F10002DE9FF4F1F464FF0000A4FF0FF384546AE
:101F200091B0D7E90146CDF83CA0FFF731FBC0687E
:101F30000168405C1090B96912986D1C8847396A35
:101F4000814688470028F6D1B9F1FF3F0AD0002E1C
:101F500024F4D06411DDB9F12B0F08D0B9F12D0FA5
:101F60000BD102E0404615B013E744F48064B96930
:101F700012986D1C8847761E8146600504A901D51C
:101F80002D2000E02B20002E01F1010B0DF1300877
:101F90008DF810003FDDB9F1690F08D0B9F1490F94
:101FA00005D0B9F16E0F02D0B9F14E0F1CD13B46EE
:101FB00001A8009580E85002DDE912126FF00200DE
:101FC0000AF044FFC11CCED10EE0B96912986D1C15
:101FD000884781461398761E44F4007405600F9874
:101FE000401C002E0F9016DDB9F1300FEDD0B9F185
:101FF000780F02D0B9F1580F0DD10F9801280AD1EE
:102000003B46CDE90054DDE91212001F02960AF0AA
:102010001BFFC11CA7D1109989453ED144F0800413
:1020200006E01399681CAAF1010A44F400740860E0
:10203000B9696D1C1298761E884730288146F0D009
:102040002BE01099894505D1200603D4761E44F073
:10205000800418E0484608F033FC08B3761E0DF102
:1020600023018B4544F4007408D2A9F130000BF829
:10207000010B200607D5AAF1010003E0200602D4D7
:102080000AF101008246A00502D51399681C086078
:10209000B96912986D1C88478146002ED1DC53E047
:1020A000002E51DDB9F1650F02D0B9F1450F4BD1CA
:1020B000A00549D5B9696D1C1298761E24F44074A8
:1020C0008847002E81460CDD2B2804D0B9F12D0F56
:1020D00007D144F48074B96912986D1C8847761E44
:1020E0008146E00501D52D2100E02B2108F8011BD8
:1020F000CDF8008021E0761E0DF13901884544F4C9
:1021000000740CD2A9F1300010F0FF0088F8000034
:1021100002D10099884509D908F1010806E0E005D7
:1021200001D51E4801E042F20F708246B96912984B
:102130006D1C8847814613980560002E04DD4846D3
:1021400008F0BEFB0028D6D1F96912988847FF2015
:1021500053468BF8000088F8000000200A900B908E
:1021600004AA0CA90AA8FFF7ADFDA00502D46FF0E0
:102170000100F8E614F0240F12D0E0071CD13868F3
:10218000DDE90A12031D3B600068C0E9001213E09C
:1021900088C600007AC600003EC50000F1D8FFFFE7
:1021A0000AA9684608F04CFBE00705D13868009A98
:1021B000011D3960006802602846D4E610B5044667
:1021C000AFF300802046BDE81040FEF7B8B8002805
:1021D00001D000F069B8704710B5012805D0002182
:1021E00003A000F06CF8012010BD09A1F8E7000081
:1021F00053494752544D454D3A204F7574206F66F0
:102200002068656170206D656D6F72790000000057
:102210003A2048656170206D656D6F727920636F3B
:1022200072727570746564004FF0013C50F8042BB5
:1022300051F8043B9A4221D1A2EB0C03934313EAD9
:10224000CC1317D150F8042B51F8043B9A4215D106
:10225000A2EB0C03934313EACC130BD150F8042BDD
:1022600051F8043B9A4209D1A2EB0C03934313EAC1
:10227000CC13DBD04FF00000704700BFD01A01BA7A
:10228000B1FA81F101F0180122FA01F0CB40C1F15D
:102290002001DBB2C0B2C01A2CFA01F3D11A91436B
:1022A00011EAC311E6D1704701491820ABBEFEE721
:1022B0002600020010B50C3008F014FB10BD70B5FC
:1022C00005460C460A2000E06D1C00F011F835B1FF
:1022D00028780028F8D102E0641C00F009F814B155
:1022E00020780028F8D1BDE870400A20AFF30080C4
:1022F00008B569468DF800000320ABBE08BD00009C
:102300002DE9FF4F1F464FF03C0987B04FF00042C8
:10231000DDE9141001F10108DDF858A002EA40508F
:102320000390002005908346054604460490B96951
:10233000461E08988847AAF1010A0290BAF1000FD8
:102340003BDD02982E2815D01021FFF7ADFC0028A8
:102350002EDB4FF0010B0599014317D0B9F1000FA7
:102360000BDB4A46C11700F0F5F905430C43A9F110
:10237000040905E0012004900BE008B145F00105D7
:1023800001200590049820B9361D02E0049800B1A0
:10239000361FB969089808F101088847BBF1000F9A
:1023A000AAF1010A0290C9D00999C1F80080C5E7D5
:1023B0000298702808D0502806D0F96908988847F4
:1023C000BBF1000F14D04FE0002002900120BBF1C0
:1023D000000F049009D0B969089808F101088847EE
:1023E000AAF10109B9F1000F07DCF96908988847DB
:1023F0006FF001000BB0BDE8F08F2B2804D02D2822
:102400000CD14FF0FF300490B969089808F1010829
:102410008847A9F10109B9F1000FE6DD411CE4D0BC
:102420000A21FFF741FC0028DFDB029908F10108CF
:1024300001EB810100EB41000290B96908988847DF
:102440000A21FFF731FC099AA9F10109B9F1000F3E
:10245000C2F8008001DD0028E7DAF96908988847AA
:102460000499029800FB016655EA040004D004F0C8
:102470004041090002D006E0039898E0A40044EA35
:102480009574AD00B61E04F00041080002D16D192C
:102490006441761E159810F0240F03D04FF00B09FD
:1024A0005C4803E04FF028096FF07D0082465645F6
:1024B00007DAAAEB06018944B9F1410F01DD4FF0BB
:1024C000410901200021A9F1010200F043F902466F
:1024D00028400B462140084301D0012100E00021A3
:1024E000501E029143F1FF3128402140084301D0A2
:1024F000012000E000200299834651EA0B014FD0F1
:10250000002108464FF00000039900F4400039B163
:1025100000EB80004FF4400100EBD07001EA600056
:102520008015012802DD4FF0FF3000E013D0401C81
:1025300036D0029860B3BBF1000F0CD14A4601209F
:10254000002100F007F928402140084301D0012074
:1025500000E00020E0B101204A46002100F0FAF836
:10256000034640190A4661412D1A8C4111D3B9F135
:10257000400F09DD159810F0240F02D0AAF134069F
:1025800003E0AAF1170600E0761C00254FF0004496
:1025900006E05B1E42F1FF3220EA030521EA020455
:1025A000CAF10100B04206DA1B49039808430190C2
:1025B000002000900EE0039AC4F3D321E80A0A43F6
:1025C000164940EA44500A433146CDE900026846C4
:1025D00008F03FF9159810F0240F0BD01598C0079C
:1025E00015D13868DDE90012031D3B600068C0E9C1
:1025F00000120CE002A8694608F022F91598C007FD
:1026000005D13868029A011D3960006802604046B1
:10261000F0E6000002FCFFFF0000F07F0000F03F4A
:102620002DE9FF4F92461D4685B04FF00041DDE990
:10263000124BDDE914727F1E01EA4B50414940F014
:10264000FF4940EA0108002122F0200049280491B6
:1026500002D04E2828D04CE03BA0012607C88DE8C8
:102660000700A9690698641C88477F1E014606D4A6
:102670001DF8060018B121F0200181420BD0E96954
:1026800006988847032E34D0082E32D06FF0010010
:1026900009B0BDE8F08F761C032E01D0082EE0D1E2
:1026A000601CCAF80000DCE7A9690698641C88472A
:1026B0007F1E2AD420F02000412826D1A96906983F
:1026C000641C88477F1E20D420F020004E281CD197
:1026D000A9690698641C88477F1E48F4002849F4BD
:1026E0008009CAF8004001D4282806D0E969069874
:1026F00088475FEACB7012D022E0A9690698641C73
:1027000088477F1E01D4002803DAE96906988847C4
:10271000BCE72928F1D1641CCAF80040E9E71BF0A6
:10272000240F07D028680499031D2B600068C0E9B6
:10273000001805E02868021D2A600068C0F80090B3
:102740002046A5E70000F07F494E46494E495459BE
:1027500000000000B2F120030AD5C2F1200301FA03
:1027600002F120FA03F300FA02F041EA0301704794
:1027700000FA03F14FF00000704710B500F1280196
:1027800051E8002F12B9BFF32F8F04E0531E41E828
:10279000003404B1F4E772B12C300121006850B16B
:1027A000821CD2E84F3FC2E8441F04B1F9E71A0681
:1027B00002D00830F2E7002010BD70B5024652F892
:1027C000305F4DB1CC7800235DB12E46ED78A54247
:1027D0000DD275683346F7E70023C162C1E90133C2
:1027E0000DE00024C1E9014300F12C0403E0C1E93C
:1027F000016306F108042160002B18BF1A1D116047
:10280000283050E8001F4A1C40E8002303B1F8E7D5
:1028100070BDD1E9012312B193608B6800E0C362FF
:10282000191D002B08BF00F130010A60704700003D
:1028300001480068704700BF10E000E007480178D9
:10284000012905D106494FF080620A60002101701C
:102850000448016841F0010101607047A48E002026
:1028600004ED00E010E000E04FF0FF3070470000A2
:1028700040B10B490968B1FBF0F0411E0020B0EBFC
:10288000116F02D04FF0FF307047064AFF231370DC
:10289000054A062313605160044908709060704730
:1028A0003088002023ED00E010E000E0A48E00203E
:1028B0002168D4E90223204600F06DBA6FF00500CC
:1028C0007047002100220646002700F093BD6FF0FC
:1028D00005007047204600F0E4BCB0B500F10C01E3
:1028E000C289D1E85F3F9A4202D8BFF32F8F04E03C
:1028F0005C1CC1E8554F05B1F3E7C28999B20020CD
:10290000914238BF0120B0BD10B5930712D400F139
:102910002803D00715D153E8000F084203D1BFF3B5
:102920002F8F002005E020EA010243E8002404B1D3
:10293000F1E710BD806AD20700EA010312D1A3B902
:1029400012E053E8000F00EA01028A4203D0BFF30D
:102950002F8F002005E020EA010243E8002404B1A3
:10296000EFE710BD8B4200D0002010BDB0B5104A7B
:102970000023443215462C683CB12569A94209D38D
:10298000491B04F10C052346F5E700240161C0E969
:10299000023406E00161C0E90234A0602569691AC9
:1029A0002161002B18BF03F10C021060B0BD00BF05
:1029B00034880020C16829B1826803698A600A6985
:1029C0001A440A618068044A00F10C03002808BF19
:1029D00002F144031960704734880020EFF305804A
:1029E00048B9EFF3108030B9EFF3118018B9EFF365
:1029F0001480C00702D10448007A7047DFF804C091
:102A000000DF70479937000834880020EFF3058015
:102A100028B9EFF3108010B9EFF3118010B103481B
:102A2000C0687047DFF808C000DF704734880020B6
:102A3000A537000880B500F0F9F8EFF3058028B954
:102A4000EFF3108010B9EFF3118010B16FF00500B3
:102A500080BDDFF808C000DF80BD00BFB1370008CF
:102A6000EFF3058028B9EFF3108010B9EFF3118070
:102A700008B1FFF72CBFDFF808C000DF704700BFC8
:102A8000B1380008F8B50546EFF3058014460E4648
:102A900028B9EFF3108010B9EFF31180F0B1D5B180
:102AA0002878FA2817D16FF00300EEB1E3B9284671
:102AB000FFF763FEC8B16A6A074600F10C013046B1
:102AC000FDF7B8FF0CB1F87820703846FD6000F0D3
:102AD00075FA0020F8BD6FF00300F8BD2846DFF856
:102AE00010C03146224600DFF8BD6FF00200F8BD8D
:102AF0003D390008EFF305832BB9EFF3108313B9C9
:102B0000EFF311830BB100207047DFF808C000DF3E
:102B1000704700BF093A00082DE9F0410646EFF37F
:102B2000058090460D4628B9EFF3108010B9EFF3F9
:102B3000118018B3EEB13078FA281AD16FF003077C
:102B4000CDB1C3B906F10C0000F0E3F8F0B1726A40
:102B500004460C302946FDF76DFFF9200027C4E933
:102B6000015684F8038020702046A77000F026FAF2
:102B700001E06FF003073846BDE8F0813046DFF82A
:102B800014C02946424600DFBDE8F0816FF002071D
:102B9000F1E700BF213B0008EFF305822AB9EFF30C
:102BA000108212B9EFF3118212B16FF00500704775
:102BB000DFF804C000DF7047CD3B0008EFF305816C
:102BC00029B9EFF3108111B9EFF3118111B16FF051
:102BD00005007047DFF804C000DF70475D3C000867
:102BE000EFF3058129B9EFF3108111B9EFF31181EA
:102BF00009B100207047DFF808C000DF704700BF50
:102C00000D3D0008EFF3058129B9EFF3108111B9EB
:102C1000EFF3118111B16FF005007047DFF804C0C8
:102C200000DF7047753D000809F0DFBB7047F0B565
:102C3000A8B1002379B3032A2DD803460F3153F8E6
:102C4000085F21F007012C46EE1A5D6825F00307A6
:102C5000F61B8E4205D225682346002DF3D10023B2
:102C600019E0D0E900760E444660384450F8047C00
:102C7000B74202D2083846605D6845B125F00300CE
:102C80001143C450184418600346416002E041EA11
:102C90000200586008331846F0BDB0B560B159B1B4
:102CA00000F10804A1F108020023944206D0254651
:102CB00024682B46002CF8D10020B0BD51F8045CEC
:102CC000446825F00305641B446013B11068186064
:102CD00002E0002041F8040C0120B0BD18B102460A
:102CE0000843400701D000207047002018290FD367
:102CF00010B58B18A3F10804946043F8080C102455
:102D00009368C2E900145C60D0600120BDE8104007
:102D1000704710B5002817D0014600F1140252E8A0
:102D2000000F10B9BFF32F8F04E0036842E80034AE
:102D300004B1F4E740B1043151E8002F531C41E8DD
:102D4000003404B1F8E710BD002010BDB0B5002874
:102D50001ED0C2688A421BD802698A4218D900F183
:102D6000140213680B60BFF35F8F52E8003F0C68DA
:102D70009C42F6D142E8001505B1F2E7043050E874
:102D8000001F4A1E40E8002303B1F8E70020B0BD51
:102D90006FF00300B0BDB0B598B191B18AB10446EF
:102DA00000209BB1C4E9001004F1080002FB0135CA
:102DB00063612CC0481E30B19918013819600B4668
:102DC000F9E70020B0BD002018600120B0BDF8B5C3
:102DD0000446807848B3E56821462846FFF719FD88
:102DE000002005F10C06214620703046FFF7AEFFAB
:102DF000A868C8B13046FFF78CFFA8B10446284642
:102E000000F04FFAFFF75DFD304600F0A5FA41688B
:102E10006A6A064604F10C00FDF70CFEF920A77063
:102E20002070B068E07021E0F8BDA568A868E8B13E
:102E3000407883281AD1284600F033FAFFF741FD85
:102E4000304600F089FA064640686A6A04F10C01CF
:102E5000FDF7F0FDB06808B1E1780170277005F169
:102E60000C002146BDE8F840FFF770BF2846214618
:102E7000BDE8F840FFF7A1BC80B507480821D0E9BC
:102E80001A2000F0C1FD0549C8640021002808BFD0
:102E90004FF0FF31084680BD60E300083488002011
:102EA0002DE9F041044600274FF00108D4B1254632
:102EB0006469E8780007F9D5A8682F760028F5D06E
:102EC000284600F0EEF900210022064600F092FAB2
:102ED000F06AC5E90367686100B1056185F818808B
:102EE000F562E3E7BDE8F081B0B5C278920718D586
:102EF000C068C36A90F82120DC78A4070AD59C68D2
:102F00008C4208BF8C682CB194F9204055B2AC4279
:102F1000C8BFE2B25B69002BEED190F8201091425D
:102F200000D1B0BD80F82020BDE8B04000F0E2B98B
:102F300070B5214C04F1560504F15A06B4F854005A
:102F4000D5E85F1F11B9BFF32F8F04E04A1EC5E813
:102F5000532F03B1F4E7090429D0D6E85F1F4A1CB8
:102F6000904200D80022C6E8532F03B1F5E788B29B
:102F7000E16D51F82000D0B10178F1390829DDD890
:102F8000DFE801F006050905050C0F051200D5E77D
:102F9000216E8847D2E7616E8847CFE7A16E8847E8
:102FA000CCE7E16E8847C9E7216F8847C6E7002074
:102FB000BDE8704000F010B93488002070B50146BB
:102FC000194800F15603B0F85420D3E85F4FA242ED
:102FD00002D8BFF32F8F04E0651CC3E8565F06B12B
:102FE000F3E7A3B2934214D200F15803D3E85F4F42
:102FF000651CAA4200D80025C3E8565F06B1F5E774
:10300000A2B2C36D43F82210417A39B10121817215
:1030100070BD0220BDE87040FFF706BE03484FF0C8
:103020008051016070BD00BF3488002004ED00E0D5
:1030300010B58168B1B100F10C01D1E85F2F12B970
:10304000BFF32F8F04E0531EC1E8543F04B1F4E7EF
:10305000110407D000F025F900210022BDE810403E
:1030600000F0C8B910BD000010B5012190F9203062
:1030700041700A491C310A46896841B191F92040E2
:103080009C42F8DCC0E9021290600C3104E000219F
:10309000C0E9021202F10801086010BD3488002066
:1030A000B0B54A1C0DD01D4A00232C3215462C68A1
:1030B000E4B1E569A94221D3491B04F11005234677
:1030C000F5E71649002301F130021446194623683A
:1030D00003F11004002BF9D14FF0FF33C36100233B
:1030E000C0E90431C1B101F1100215E0C161C0E9CC
:1030F0000443002B18BF03F110020DE0002BC0E9C0
:103100000443C16118BF03F1100210602CB1E269E1
:10311000511A04F11402E1611060B0BD348800203E
:10312000C2690169531C0AD021B143694B61CB6963
:103130001A44CA6142693AB9084AD16207E009B142
:1031400042694A6142692AB1002311614361002149
:10315000C1617047014A1163F9E700BF348800205C
:1031600070B5134DEC6A1CB1E0690138E06100D024
:1031700070BD042660781338B6EB301F08D12046A6
:103180000178F12901D1C068FAE72146FFF7ACFECA
:10319000204600F0A5F8204600F0D4F8246924B1B8
:1031A000E0690028E6D000206061EC6270BD00BFDD
:1031B00034880020C178C90708BF00F037B8002163
:1031C000C1600421417003494A6B826002B1D06042
:1031D000486370473488002070B5134E0546746903
:1031E000307A65B1022805D194F9200095F92010B4
:1031F000814211DC2846BDE8704000F0A3B80228E7
:1032000010D1756A75B194F9200095F920108142AA
:1032100008DD284600F064F82046FFF725FF02206D
:10322000B561687070BD00BF3488002010B50446D9
:1032300000202080A07881070DD5C00605D4104855
:10324000216B406FFFF729FD05E00D48216BD0F899
:103250008400FFF77BFDA078C00708BF10BD0849B8
:10326000D1F8880020B12146BDE81040FFF76EBDBF
:10327000D1F880002146BDE81040FFF70EBD00BF29
:103280003488002010B50446806918B1002100225E
:1032900000F0B0F86078232802D1A0680021816195
:1032A00010BD0146806882688A6002B1D160002149
:1032B000C160704710B591F920300246806840B176
:1032C00090F920409C42F8DAC1E9020291600C308A
:1032D00004E00020C1E9020202F10800016010BD13
:1032E000C16831B182688A60826802B1D160002110
:1032F000C1607047B0B50446054625B12878F1286D
:1033000002D1ED68F9E7B0BD2046FFF7E9FF284696
:103310002146BDE8B040FFF7CDBF10B50446407868
:1033200033280DD194F82320616A2046FFF7ECFA88
:1033300030B1014620460022BDE8104000F05AB8E6
:1033400010BD000001460120487002481C30FFF704
:10335000B1BF00BF3488002090F82210C9064FF09A
:10336000200158BF6021806B0844704770B50B4C3A
:103370000B480021A26D666E00F062FE094DA86246
:1033800046B1B04740B9E96CD4E9172000F058FEC7
:10339000A86408B1012070BD002070BD60E3000882
:1033A0000BC4000834880020024988610221417062
:1033B000704700BF3488002010B50D4C227A022AD5
:1033C00014D1626A92B1626950701046FFF768FECC
:1033D000606A8168616211B104F11C02CA60022155
:1033E000A06141700021C160012010BD002010BD0E
:1033F00034880020B0B5044690F822001546C00677
:103400004FF0200058BF6020A26B81502046FFF78C
:1034100087FE2046002DBDE8B04008BFFFF792BFF1
:10342000FFF7DABEB0B5FFF703FA1B4DE8680130CD
:10343000E860FFF795FE0020FFF7CEFE286D00B193
:103440008047296C71B1A869EA6B904205D0C269C6
:10345000E86322B9C1610A4601E0C2691AB1511E8E
:10346000C16100D0B0BD297A0229FBD16C6A002C61
:10347000F8D090F8200094F820108142F2D1204634
:10348000FFF72EFFE86BFFF75DFF2046FFF78CFF8D
:10349000286CEC63E061B0BD3488002080B5FFF794
:1034A000EBFC10B14FF0FF3080BD024802490165CE
:1034B000002080BD34880020DD34000882B004463E
:1034C0006D462046294600224FF0FF33FFF7DAFA17
:1034D0000028F6D1DDE900108847F2E72DE9F04138
:1034E000194D6C6C74B320696E694FF00108013896
:1034F000206134B3206920BBE06808B1A168816015
:103500006864E86C04F1180100220023FFF704FB53
:1035100060B1D5E90570214668610320FFF784FB9F
:10352000696986EA0700084308BF0646E078012873
:1035300011BF84F8018061692046FFF717FA6C6CAF
:10354000D7E76E61BDE8F08134880020EFF3058293
:103550002AB9EFF3108212B9EFF31182CAB16FF0FA
:103560000302A0B199B90178F62910D10C30D0E846
:103570005F1F11B9BFF32F8F04E04A1EC0E8532F1D
:1035800003B1F4E70022080408BF6FF002021046FE
:103590007047DFF808C000DF704700BF293E000811
:1035A000EFF305832BB9EFF3108313B9EFF3118316
:1035B0000BB100207047DFF808C000DF704700BF84
:1035C000813E000810B50446EFF3058028B9EFF3FB
:1035D000108010B9EFF3118090B15CB12078F6281B
:1035E00008D12046FFF779F938B12046FFF7E6FC0D
:1035F000002010BD6FF0030010BD6FF0020010BD81
:103600002046DFF808C000DF10BD00BFFD3E000807
:10361000DFF804C000DFFEE7353F0008B0B5EFF388
:1036200005822AB9EFF3108212B9EFF31182DAB1F1
:103630006FF00304B0B1002914D40278F12A11D13B
:103640004278042A02D16FF002040BE000F1280254
:1036500052E8003F43EA010442E8004505B1F7E7BC
:10366000FFF7ACFC2046B0BDDFF804C000DFB0BD02
:10367000813F0008EFF305832BB9EFF3108313B9F3
:10368000EFF311830BB1FFF719B9DFF808C000DFC2
:10369000704700BFE93F0008EFF3058028B9EFF35A
:1036A000108010B9EFF3118010B1034840697047E2
:1036B000DFF808C000DF704734880020354000087C
:1036C000EFF305832BB9EFF3108313B9EFF31183F5
:1036D0000BB100207047DFF808C000DF704700BF63
:1036E00041400008EFF305822AB9EFF3108212B9C6
:1036F000EFF311820AB1FFF7E1B8DFF808C000DF8D
:10370000704700BF2D420008EFF3058028B9EFF3A2
:10371000108010B9EFF3118008B1FFF7CFB8DFF8D0
:1037200008C000DF704700BF7542000810B5EFF316
:1037300005842CB9EFF3108414B9EFF311840CB1A4
:10374000002010BDDFF804C000DF10BDAD4200084E
:10375000EFF305822AB9EFF3108212B9EFF3118269
:1037600012B16FF005007047DFF804C000DF70474A
:1037700025430008EFF3058129B9EFF3108111B952
:10378000EFF3118111B16FF005007047DFF804C04D
:1037900000DF70476D4300080148007A704700BFA2
:1037A000348800200148C068704700BF348800207A
:1037B0002DE9F843DFF8EC8098F8080028B10128DB
:1037C0006CD04FF0FF30BDE8F883374F388AD7E927
:1037D0000B41A8F85400D7E90202C8F8400020467F
:1037E000C8F85C20FFF77AFA08B1C8F88040D7E93A
:1037F0000541DFF8B890D7E907562046C847D8F802
:1038000080100028284618BF2146C8F87410314699
:10381000C847D8F88010002818BF2946C8F8781083
:10382000D7E909412046C847D8F88010002818BFBA
:1038300021467C6BC8F87C101CB1FFF739F8C8F83A
:103840008440BC6B1CB1FFF733F8C8F88840FC6BB0
:103850001CB1FFF72DF8C8F88C403C6C1CB1FFF789
:1038600027F8C8F890407C6C1CB1FFF721F8C8F825
:103870009440BC6C1CB1FFF71BF8C8F89840FC6C76
:103880001CB1FFF715F8C8F89C403C6D1CB1FFF760
:103890000FF8C8F8A040012088F808000020BDE813
:1038A000F88300BF3488002060E30008DD2C0008A6
:1038B000B0B51E4C207A01281CD1FFF757FDC8B1C6
:1038C0001B48FF211B4D8175817D026881F0FF013E
:1038D000C2F30222B1FA81F1C1F120018A4228BF6C
:1038E000511CFE2202FA01F1C17468681249FEF708
:1038F000BFFF10B14FF0FF30B0BDFEF7B5FF206144
:10390000FEF79CFF04F11C00FFF7CBFCFFF74CFD1A
:103910002878C0070CBF0320022080F314880220FF
:10392000BFF36F8F20720020B0BD00BF348800202D
:103930000CED00E060E30008370400082DE9F041D9
:10394000002848D004460078FA2844D10F460029C0
:1039500041D020461E461546FEF70FFF00283FD0F7
:10396000804620464146FEF754FF626A08F10C018A
:103970003846FDF75FF815B198F80300287004F198
:103980000C0600254146304688F80050FFF7DEF966
:10399000A06810B33046FFF7BCF90025E8B1064631
:1039A000FEF798FF002101220746FFF723FD384666
:1039B000FFF7D2FC4168626A074606F10C00FDF78A
:1039C00039F8F9203146B5703070B868F07020468B
:1039D000FEF7F3FE01E06FF003052846BDE8F08135
:1039E00066B183203146FFF7E7FC20B10548416905
:1039F0002046FFF75FFC6FF00105EEE76FF0020570
:103A0000EBE700BF348800202DE9F84F48B10D46A0
:103A100039B10446B0FA80F0B5FA85F1084420289F
:103A200003D200263046BDE8F88F05F10F0020F0E4
:103A3000030808FB04F95AB19668D2F800A0D2E94D
:103A400004707EB1B107ECD1D1683429E9D30CE020
:103A50004FF0000A00273049D1F8A00058B1FFF715
:103A600058F90EE0D1680029DBD157B3B907D8D196
:103A70004845D6D327E0D1F8800034210122FFF752
:103A8000D6F806464FF0010B67BB5EB3CDF800A039
:103A9000DFF884A049460022DAF87C00FFF7C7F877
:103AA000074620B138464946FDF73BF816E0BBF122
:103AB000000F12D0DAF8A00050B13146FFF746F9F6
:103AC0000BE00028ADD1002EC5D04FF0000BDBE796
:103AD000DAF880003146FFF7E0F80026DDF800A0B4
:103AE0000BF1020B002E3FF49DAF00202146424611
:103AF0003B4686F802B0C6E90950C6E90B00C6E9A4
:103B000001A0FA20307006F10C00FFF744F90248DA
:103B10000249016786E700BF34880020CF2D0008E6
:103B20002DE9F04118B304460078FA281FD10F465A
:103B3000E9B1A0681E469046F0B1407883281BD1B9
:103B4000FEF7C8FE0021012205460026FFF752FCC1
:103B50002846FFF701FC05464068626A3946FCF7D3
:103B600069FFA86828B180F80080002601E06FF0A6
:103B700003063046BDE8F08104F10C00FFF7C9F8F8
:103B800080B1626A05460C303946FCF753FFF920D4
:103B90000026294685F8038028702046AE70FEF77F
:103BA0000CFEE6E766B193203146FFF705FC20B135
:103BB000054841692046FFF77DFB6FF00106D8E715
:103BC0006FF00206D5E700BF3488002070B50446C8
:103BD000214845694DB32CB32078F52822D1207EA9
:103BE00030B30E46E178CA0702D0E268AA422BD071
:103BF00066B388070AD5E06895F9201090F920206F
:103C00008A4203DA80F82010FFF774FB5320314614
:103C1000FFF7D2FB18B120462946FFF74BFB6FF0A8
:103C2000010070BD6FF0030070BD4FF0FF3070BD3C
:103C30000020C4E90350E86A606100B1046101201A
:103C4000EC622076002070BDFF2802D16FF00200E8
:103C500070BD0130F5E700BF34880020B0B520B357
:103C600004460078F52820D1207EC0B36169E06861
:103C700009B122690A6100F12C0223691546002B63
:103C800018BF03F11405296090F8211012687AB169
:103C9000D3789B0707D593682BB193F920304DB2A9
:103CA000AB42C8BFD9B21432F0E76FF00300B0BD29
:103CB00090F820208A420CD080F82010FFF71AFBE1
:103CC00007E02046FFF7EDFA6FF002010022FFF750
:103CD00091FBA0680028F4D10020FFF77DFAA178BD
:103CE00000202070C9070DD00749D1F8940018B101
:103CF0002146FFF72BF804E0D1F880002146FEF7BB
:103D0000CCFF0020B0BD00BF3488002070B550B19A
:103D10008468D0E900657CB1A10710D1C16800209A
:103D20001C2917D270BD002500261149D1F8940036
:103D300038B1FEF7EEFF0AE0C0680028F5D0002099
:103D400070BDD1F880001C210122FEF770FF0446EF
:103D500058B10120A070F52011216660E570207037
:103D600004F10800FCF7FFFE00E00024204670BDCF
:103D70003488002070B504462A48406970B154B1B7
:103D80002178F52907D1217E11B1E268824209D05C
:103D90006FF0020404E06FF0030401E04FF0FF3421
:103DA000204670BD01392176090601D00024F7E7CD
:103DB000616909B122690A6100F12C022369154683
:103DC000002B18BF03F11405296090F82110126828
:103DD00062B1D3789B0707D593682BB193F9203054
:103DE0004DB2AB42C8BF19461432F0E780F820103C
:103DF000A06888B12046FFF754FA0021002205464A
:103E00000026FFF7F7FAE86AC4E90356606100B1DB
:103E100004610120EC62207600200024FFF7DCF929
:103E2000BEE700BF34880020B0B508B30446007870
:103E3000F6281DD104F10C00D0E85F2F12B9BFF3B2
:103E40002F8F04E0531EC0E8553F05B1F4E710047E
:103E50001CBF0020B0BD71B16320FFF7ADFA20B1E7
:103E6000064841692046FFF725FA6FF00100B0BD12
:103E70006FF00300B0BD6FF00200B0BD34880020C9
:103E800070B50C46002198B30546B1EB104F2FD109
:103E9000AC4215D84AB19068166870B181070FD14D
:103EA000D2680021102A15D222E000261149D1F84B
:103EB000980038B1FEF72DFF0AE0D0680028F5D051
:103EC000002115E0D1F8800010210122FEF7AFFE9D
:103ED00060B1012100228170F621C5818481C0E991
:103EE000016201700349044A8A6600E0002001462D
:103EF000084670BD348800203130000810B560B12C
:103F00000178F62909D1816859B1FFF7CAF9002172
:103F100001220024FFF76EFA01E06FF0030420464F
:103F200010BDFEF7DAFC0021002808BF6FF0020187
:103F3000084610BDB0B5114D287A02281DD1686A17
:103F4000D8B16C69E06AFEF7ABFF2046FFF79AF93B
:103F5000686A8168696211B105F11C02CA600221B8
:103F6000A86141700021C160EFF30980A06369611D
:103F70002046BDE8B040FFF71DB9B0BD3488002031
:103F8000B0B56FF0030460B300292AD40546007869
:103F9000F12826D16878042802D16FF0020420E0CD
:103FA00005F1280050E8002F42EA010440E80043F0
:103FB00003B1F7E76878332813D195F82320696AAD
:103FC0002846FEF7A1FC60B1014695F823000C4697
:103FD00080075CBF686A21EA000428460122FFF7D7
:103FE00009FA2046B0BD0000F8B5054610484769FB
:103FF00057B1002D0BD40E4614463846294632469A
:10400000FEF782FC30B1F8BD4FF0FF30F8BD6FF025
:104010000300F8BD4CB13320214687F823607D6250
:10402000FFF7CAF96FF00100F8BD6FF00200F8BDAC
:104030003488002001484069704700BF3488002060
:104040002DE9FE4F002800F0878005466AB102F195
:1040500010099668D2E9007399E81003C6B1B00759
:104060007AD1D068442816D276E04FF0010B4FF099
:104070001809002300244FF000080027664A029325
:10408000CDE90017D2F88800A8B1FEF742FE18E08B
:10409000D068002860D124B160075DD1B8F1000F6D
:1040A0005AD0B9F1000F3BD0B9F1010F54DBB9F18F
:1040B000380F37DD50E0D2F8800044210122FEF7AE
:1040C000B6FD06464FF0010A0027002C53D1002E02
:1040D00051D0BBF1000F0DD04F485049D0F88400AB
:1040E000D1F8548030B1FEF714FE60B104460AF1F5
:1040F000100A3EE0484841460022406FFEF797FD17
:1041000008B1044635E01FB14FF0000A00242FE04B
:104110004149D1F8880018B33146FEF717FE24E074
:104120004FF01809B8F1000F08D05FEA487013D1BA
:10413000B8F1480F10D3B8F1000F0DD4B8FA88F0D9
:10414000002E4FEA501B3FF499AFCDE900170293C0
:104150004FF0000A0127B8E700263046BDE8FE8F81
:10416000D1F880003146FEF798FD00244FF0010A97
:1041700000264AF0020A002EEFD00198182186F896
:1041800002A070600298F07040F2F110308006F1E9
:104190000800FCF7E8FC04EB08010020C6E90C4825
:1041A000FD22009F86F8219086F820904039C6F8BD
:1041B0002300C6F82700C6F82B0086F82F0086F8E3
:1041C0002220C6E90E1516492160144909784907CD
:1041D00015D4B16B00220D2A03D041F82200013220
:1041E000F9E7104A4FF080700F62C8630A48C1E9CE
:1041F0000D250D4901663046FEF7EEFFADE76FF085
:104200001001221D4FF0CC3301EB98010029E0D0C2
:1042100008C20139FAE700BF3488002060E30008D3
:10422000A52E5AE2113600081B33000810B530B134
:104230000278F12A03D1012901DB382903DD6FF06F
:104240000304204610BD4278042A02D16FF0020414
:10425000F7E790F920208A4201D10024F1E780F8A5
:10426000211080F82010FFF745F800200024FEF709
:10427000B3FFE6E770B50C4E307A022811D1746AAC
:104280007CB1756994F8201095F82000814208D11E
:104290002046FFF725F82846FFF754F80220B461BE
:1042A0006070002070BD00BF34880020F8B50E4655
:1042B000002198B3012E31D8144605464BB19868B9
:1042C0001F6870B181070FD1DA680021202A15D24A
:1042D00024E000271249D1F88C0038B1FEF719FD0F
:1042E0000AE0D8680028F5D0002117E0D1F8800056
:1042F00020210122FEF79BFC70B101210022817078
:104300004FF4F971C670C4610180C0E90172C0E95F
:104310000322C0E9052500E0002001460846F8BD5B
:1043200034880020B0B568B105460078F22809D17C
:104330000C4639B16878022807D128466C61FEF72F
:1043400039FB08E06FF00300B0BD0748006D40B1D5
:1043500002206C61687028462146FEF707FB0020AA
:10436000B0BD6FF00200B0BD3488002080B570B1E0
:104370000178F2290BD1417802291CBF6FF00200AD
:1043800080BD01214170FEF715FB002080BD6FF05C
:10439000030080BD5FEA400C08BF91F0000F4FEAB8
:1043A0008C234FEAC12243EA51514FEA1C5018BFF7
:1043B00000F5F0404FEA300018BF41F000415FEADD
:1043C0006C5C00F02980BCF1FF3F08BF40F08040EA
:1043D0007047130C06BF12044FF0100C4FF0000C86
:1043E000130E04BF12020CF1080C130F04BF1201CC
:1043F0000CF1040C930F04BF92000CF1020CD30FCC
:1044000004BF52000CF1010C11464FF00002A0F164
:104410001F00A0EB0C00704711F0004F08BF704761
:1044200031F000413FF4D5AF0B0C06BF09044FF04B
:10443000100C4FF0000C0B0E04BF09020CF1080C1D
:104440000B0F04BF09010CF1040C8B0F04BF890092
:104450000CF1020CCB0F04BF49000CF1010CCCF1A4
:104460002003A0EB0C0022FA03F302FA0CF241EA5B
:10447000030100F10100704720F07F4C80EA030047
:1044800023F07F47ACEB070303F57C5300F00040BB
:1044900003F1FF032DE980494FEA154B09B44FEAB8
:1044A000144325EA0B4E24EA03480FF2042606EBD8
:1044B000132749083E785FEA320203FB0667C7F517
:1044C000000707FB06F64FEA54374FEAD64606F1D7
:1044D000020607FB066CCCF1005C4FEA1C472CEA95
:1044E000074C07FB06F40CFB06F504EB15464FEAF8
:1044F000961634BF00204FF000404FEAD13706FB3C
:1045000007FC4FEA1C4C0CFB0BF7D21B03FB0CF710
:1045100061EB07010CFB0EF7B0EB074072EB1742A3
:104520000CFB08F734BFA2EB0742B2EB074261EB8A
:1045300017414FEA0C444FEA910706FB07FC4FEA8C
:104540001C4C0CFB0BF7B0EBC74072EB573203FB74
:104550000CF734BFA2EBC742B2EBC74261EB573155
:104560000CFB0EF7B0EBC70072EB57720CFB08F7B1
:1045700034BFA2EBC702B2EBC70261EB5771039FD6
:104580004FEA816141EA921104EBCC044FEAD13742
:104590004FEA826206FB07FC42EA90124FEA806013
:1045A0004FEA1C4C0CFB0BF7D21B03FB0CF761EB27
:1045B00007010CFB0EF7B0EB074072EB17420CFB48
:1045C00008F734BFA2EB0742B2EB074261EB174199
:1045D0004FEA8C554FEA910704EB9C2406FB07FC3D
:1045E0004FEA1C4C0CFB0BF7B0EBC74072EB573299
:1045F00003FB0CF734BFA2EBC742B2EBC74261EB3F
:1046000057310CFB0EF7B0EBC70072EB57720CFB87
:1046100008F734BFA2EBC702B2EBC70261EB5771D8
:1046200015EB4C254FEA816141EA92114FEA826213
:104630004FEAD13742EA901206FB07FC44F100042E
:104640004FEA80604FEA1C4C0CFB0BF7D21B03FBBC
:104650000CF761EB07010CFB0EF7B0EB074072EBB8
:1046600017420CFB08F734BFA2EB0742B2EB07423C
:1046700061EB174115EB1C154FEA813141EA92417C
:104680004FEA823242EA90424FEA80304FEA0C769B
:1046900044F1000448EA03434EEA0B484FF0000E91
:1046A000B2EB080C71EB030724BF624639464EEBB0
:1046B0000E0E4FF0000B0018524149414BEB0B0B13
:1046C000B2EB080C71EB03077BF1000B24BF6246D1
:1046D00039464EEB0E0E4FF0000B00185241494187
:1046E0004BEB0B0BB2EB080C71EB03077BF1000BF0
:1046F00024BF624639464EEB0E0E51EA020718BF40
:1047000046F0010616EB0E7655F1000254F1000159
:1047100003D5BDE88901BDE80088BDE88901BDE891
:104720000048B619524141EB0101A3F10103704762
:1047300080807F7E7D7C7B7A7978777676757473DE
:10474000727171706F6E6E6D6C6C6B6A6A6968689D
:10475000676666656464636362616160605F5F5E33
:104760005E5D5D5C5C5B5B5A5A59595858575756A9
:10477000565555555454535352525251515050500E
:104780004F4F4F4E4E4D4D4D4C4C4C4B4B4B4A4A60
:104790004A494949484848474747474646464545A4
:1047A00045444444444343434342424242414141DD
:1047B00046EA0646A3F570534FEA164646EA4256C5
:1047C0004FEAD22242EA415210B54FEAD121A3F179
:1047D000010300F02FF820F0004000F1020C00F07F
:1047E000004701EB00501146BCF5006F40EA07009E
:1047F00000D210BDBAF1000F0AD01CB503B44FF0BF
:1048000004004FF004014FF000000FBCBDE8104061
:104810004FF00001BBF1010FB9BF04484FF0FF3169
:104820000348002140EA070010BD00BFFFFFEF7FF3
:104830000000F07F002B9C4630D477002BD01CB5B5
:104840004FEA370703B44FF010004FF01001BAF1F0
:10485000000F06D0BCF1000FDCBF40F0080040F0B4
:1048600008014FF000000FBCBDE810400BF1010B38
:10487000BBF1010F08BF5FEA170722BF12F1010267
:1048800011F101014FF0004143F1000300F000403D
:1048900043EA00007047F9D35708D0E746EA0646D6
:1048A00013F1400F4FEA16461FDD13F1200FDFBF53
:1048B00016430A46002120335B42BED0C3F12007D5
:1048C00046EA064602FA07F74FEA164646EA0706A0
:1048D000C3F1200722FA03F201FA07F721FA03F1E4
:1048E0004FF0000342EA0702A7E746EA020646EA5B
:1048F00006464FEA164646EA0106BCBF46EA0646A9
:10490000360C4FF000034FF000024FF0000194E727
:104910002DE9804C9A46934670B491E8380007C858
:1049200031EA400C48BF34EA430C03D5FFF7A4FD3D
:10493000FFF780FFF0BCBDE8008C2DE9804C9A4663
:10494000934670B491E8380007C831EA400C48BF7C
:1049500034EA430C03D5FFF78FFDFFF729FFF0BCC6
:10496000BDE8008C2DE9804C9A46934670B491E8DE
:10497000380007C810F0804F08BF13F0804F03D1F4
:1049800000F01AF8FFF756FFF0BCBDE8008C2DE9E7
:10499000804C9A46934670B491E8380007C810F0EE
:1049A000804F08BF13F0804F03D100F005F8FFF7E8
:1049B000FFFEF0BCBDE8008C20F07F4780EA0300DA
:1049C00023F07F4C07EB0C03A3F57C5300F0004071
:1049D000A3F1FE0392F0000F00F0B38095F0000FFA
:1049E00000F077802DE901494FEA11404FEA144663
:1049F00021EA004800FB06FC24EA064708FB06F60D
:104A000007FB08F800FB07F718EB06484CEB164CC1
:104A10004FEA124B18EB07484FEA15464CEB17408C
:104A200022EA0B4E0BFB06FC25EA06470EFB06F6B8
:104A300007FB0EFE0BFB07F71EEB064E4CEB164C6E
:104A40004FF000061EEB074E4CEB174B18EB0B0814
:104A500040F1000018EB0E0B58EB000840F100008D
:104A60008F1A4FF000013CBFC943661B14BFB5EB62
:104A7000040C00213CBFC943F61B4FEA17444EEA21
:104A80008E0E27EA04454FEA1C4704FB07622CEA16
:104A9000074C05FB07F70CFB05F604FB0CFC16EBBB
:104AA000074642EB174216EB0C4642EB1C421BEB4F
:104AB000060658EB0202414146EA9E0601D5BDE8D2
:104AC0000189B619524141EB0101A3F10103BDE88F
:104AD00001894FEA14454FEA114724EA054621EAC5
:104AE000074C05FB07F406FB07F70CFB06F105FB7B
:104AF0000CFC11EB074144EB17444FEA124711EB52
:104B00000C4144EB1C4422EA074C05FB07F206FB70
:104B100007F70CFB06F605FB0CFC16EB074642EB11
:104B2000174216EB0C4642EB1C456A1854F1000183
:104B300048BF7047B619524141EB0101A3F101038F
:104B4000704795F0000F37D04FEA11424FEA1447F3
:104B500021EA024624EA074C02FB07F106FB07F7AD
:104B60000CFB06F402FB0CFC14EB074441EB174171
:104B70004FEA154714EB0C4441EB1C4125EA074C66
:104B800002FB07F506FB07F70CFB06F602FB0CFC25
:104B900016EB074645EB174516EB0C4645EB1C425A
:104BA000121951F1000148BF7047B619524141EB4B
:104BB0000101A3F1010370474FEA14454FEA114781
:104BC00024EA054621EA074C05FB07F106FB07F737
:104BD0000CFB06F24FF0000605FB0CFC12EB074243
:104BE00041EB174112EB0C4251EB1C4148BF70479F
:104BF000921841EB0101A3F10103704710B508F0D1
:104C0000B0F800BFF1EE100A0149086010BD0000C5
:104C10003CEF00E000231A4601210748FEF786FD1D
:104C2000064908604FF47A7104480068FEF790FD69
:104C300001E0FEF769FDFCE76D8E00087C8700202F
:104C40000146087810381823B0FBF3F20848805C5E
:104C5000C865032A05D908686FF30900001D886537
:104C600003E008686FF309008865886D70470000ED
:104C700044E10008014600208A6A8B69CBB932B151
:104C8000012A0DD0022A03D0032A10D10EE000BF62
:104C9000CB6A03F08073B3F1807F00D1012007E07D
:104CA000CB6AB3F1C07F00D1012001E000E000BF7A
:104CB00034E08B69B3F5005F1AD132B1012A07D015
:104CC000022A03D0032A11D10AE000BF01200EE01E
:104CD000CB6A03F08073B3F1807F00D1012006E03E
:104CE000CB6AB3F1C07F00D1012000E000BF15E026
:104CF00032B1012A05D0022A04D0032A0CD103E0E4
:104D000000BF00BF012008E0CB6A03F08073B3F15D
:104D1000807F00D1012000E000BF00BF704730B5A8
:104D20000468246824F4802405682C6004686360A7
:104D30008468402C04D10468A2600468E16003E048
:104D40000468A1600468E26030BD00001F49884229
:104D500006D11F49096821F480511D4A116034E0D1
:104D60001C49884208D11A49091F096821F4804169
:104D7000174A121F116028E01749884208D11449C8
:104D8000091F096821F40041114A121F11601CE03B
:104D90001249884206D10E49096821F400510C4A93
:104DA000116012E00E49884206D10949096821F4D0
:104DB0008011074A116008E00A49884205D1044978
:104DC000096821F40011024A116070470030014067
:104DD0004438024000380040003C004000340140AC
:104DE000005001400054014010B507F01FF910BDFC
:104DF00008B5694988420FD100BF00210091674979
:104E0000096841F00101654A11601146096801F025
:104E10000101009100BFBDE0614988420FD100BF90
:104E2000002100915D49096841F002015B4A11606F
:104E30001146096801F00201009100BFAAE059493A
:104E400088420FD100BF002100915449096841F008
:104E50000401524A11601146096801F004010091F1
:104E600000BF97E0504988420FD100BF0021009158
:104E70004A49096841F00801484A11601146096829
:104E800001F00801009100BF84E0484988420FD139
:104E900000BF002100914149096841F010013F4ADB
:104EA00011601146096801F01001009100BF71E026
:104EB0003F4988420FD100BF00210091374909685E
:104EC00041F02001354A11601146096801F02001C6
:104ED000009100BF5EE0374988420FD100BF00213A
:104EE00000912E49096841F040012C4A1160114699
:104EF000096801F04001009100BF4BE02E49884253
:104F00000FD100BF002100912449096841F08001C0
:104F1000224A11601146096801F08001009100BF2A
:104F200038E0264988420FD100BF002100911B497B
:104F3000096841F48071194A11601146096801F449
:104F40008071009100BF25E01D4988420FD100BF4C
:104F5000002100911149096841F400710F4A116064
:104F60001146096801F40071009100BF12E0154973
:104F700088420FD100BF002100910849096841F41F
:104F80008061064A11601146096801F48061009150
:104F900000BF00BF08BD00000000024030380240E2
:104FA0000004024000080240000C024000100240D1
:104FB0000014024000180240001C02400020024081
:104FC000002402400028024008B5694988420FD1F8
:104FD00000BF002100916749096841F00101654A5D
:104FE00011601146096801F00101009100BFBDE0A8
:104FF000614988420FD100BF002100915D490968D5
:1050000041F002015B4A11601146096801F002019A
:10501000009100BFAAE0594988420FD100BF00218A
:1050200000915449096841F00401524A1160114647
:10503000096801F00401009100BF97E050498842DF
:105040000FD100BF002100914A49096841F00801D1
:10505000484A11601146096801F00801009100BF3B
:1050600084E0484988420FD100BF002100914149A6
:10507000096841F010013F4A11601146096801F0CA
:105080001001009100BF71E03F4988420FD100BF7D
:10509000002100913749096841F02001354A11602B
:1050A0001146096801F02001009100BF5EE0374918
:1050B00088420FD100BF002100912E49096841F0BC
:1050C00040012C4A11601146096801F0400100912D
:1050D00000BF4BE02E4988420FD100BF0021009154
:1050E0002449096841F08001224A1160114609688B
:1050F00001F08001009100BF38E0264988420FD1BD
:1051000000BF002100911B49096841F48071194AD0
:1051100011601146096801F48071009100BF25E01B
:105120001D4988420FD100BF002100911149096833
:1051300041F400710F4A11601146096801F40071D1
:10514000009100BF12E0154988420FD100BF002135
:1051500000910849096841F48061064A11601146CE
:10516000096801F48061009100BF00BF08BD000024
:1051700000000240303802400004024000080240B3
:10518000000C0240001002400014024000180240CF
:10519000001C02400020024000240240002802407F
:1051A00008B5564988420FD100BF002100915449EB
:1051B000096841F00101524A11601146096801F085
:1051C0000101009100BF00BF4E4988420FD100BFCE
:1051D000002100914A49096841F00201484A1160E2
:1051E0001146096801F00201009100BF00BF464965
:1051F00088420FD100BF002100914149096841F068
:1052000004013F4A11601146096801F00401009150
:1052100000BF00BF3D4988420FD100BF002100916F
:105220003749096841F00801354A1160114609689B
:1052300001F00801009100BF00BF354988420FD13D
:1052400000BF002100912E49096841F010012C4A4D
:1052500011601146096801F01001009100BF00BF04
:105260002C4988420FD100BF0021009124490968D0
:1052700041F02001224A11601146096801F0200125
:10528000009100BF00BF244988420FD100BF002118
:1052900000911B49096841F04001194A116011460B
:1052A000096801F04001009100BF00BF1B4988421E
:1052B0000FD100BF002100911149096841F0800120
:1052C0000F4A11601146096801F08001009100BF8A
:1052D00000BF134988420FD100BF00210091084947
:1052E000096841F48071064A11601146096801F4A9
:1052F0008071009100BF00BF08BD000000000240A7
:10530000303802400004024000080240000C024015
:10531000001002400014024000180240001C02402D
:105320000020024008B53B4988420FD100BF002150
:1053300000913949096841F48051374A116011469A
:10534000096801F48051009100BF62E0334988424E
:1053500011D100BF002100912F49091F096841F4B4
:1053600080412D4A121F11601146096801F48041E5
:10537000009100BF4DE02A49884211D100BF0021B1
:1053800000912549091F096841F40041224A121F72
:1053900011601146096801F40041009100BF38E036
:1053A000204988420FD100BF002100911A490968A5
:1053B00041F40051184A11601146096801F4005186
:1053C000009100BF25E0184988420FD100BF00219D
:1053D00000911149096841F480110F4A116011468A
:1053E000096801F48011009100BF12E00F49884262
:1053F0000FD100BF002100910749096841F4001155
:10540000054A11601146096801F40011009100BFBE
:1054100000BF08BD00300140443802400038004061
:10542000003C004000340140005001400054014065
:1054300000BFFEE770B50446A56D00F017FB0646F9
:1054400094F83500022808D08020606500BF002055
:1054500084F8340000BF012070BD2068006820F08F
:105460001600216808602068406920F080002168EB
:105470004861206C08B9A06C28B12068006820F051
:105480000800216808602068006820F00100216899
:10549000086010E000F0EAFA801B05280BD92020F4
:1054A0006065032084F8350000BF002084F83400D4
:1054B00000BF0320D0E72068006800F0010000284A
:1054C000E8D194F85C103F208840A860012084F85F
:1054D000350000BF002084F8340000BF00BFBBE7E8
:1054E000014691F83500022803D08020486501204C
:1054F0007047052081F835000868006820F0010039
:105500000A6810600020F3E72DE9F0410446002509
:1055100000F0ACFA074614B90120BDE8F081606ADA
:1055200000B100BF022084F8350000BF002084F8DD
:10553000340000BF2068006820F001002168086086
:105540000AE000F093FAC01B052805D92020606509
:10555000032084F83500E0E72068006800F00100CF
:105560000028EED12068056821480540D4E90101F2
:105570000843E16808432169084361690843A16958
:105580000843E1690843216A08430543606A042827
:1055900003D1D4E90B010843054320680560206866
:1055A000456925F00705606A0543606A04280DD146
:1055B000A06A0543E06A48B12046FFF75BFB28B1CB
:1055C00040206065012084F83500A6E72068456129
:1055D0002046FFF735FB064694F85C103F208840D4
:1055E000B06000206065012084F83500002094E759
:1055F0003F8010F02DE9F04704460D4616461F4641
:105600004FF00008D4F8589000BF94F834000128F7
:1056100002D10220BDE8F087012084F8340000BFE9
:1056200094F83500012825D1022084F835000020A7
:1056300060653B46324629462046FFF770FB94F8EA
:105640005C103F208840C9F808002068006840F0DE
:10565000160021680860206C28B12068006840F0BE
:105660000800216808602068006840F00100216897
:10567000086006E000BF002084F8340000BF4FF04F
:1056800002084046C6E7000070B5044600F0EEF997
:1056900006462546681C10B104480078054400BF42
:1056A00000F0E4F9801BA842FAD370BD2C880020DA
:1056B000F0B50C4600250022002300219EE00126C3
:1056C00006FA01F504EA0502AA427CD14D4E8F0884
:1056D00056F827308E07370F0F26BE4033404A4E0C
:1056E000B04201D100262DE0484EB04201D1012642
:1056F00028E0474EB04201D1022623E0454EB04299
:1057000001D103261EE0444EB04201D1042619E027
:10571000424EB04201D1052614E0414EB04201D1C3
:1057200006260FE03F4EB04201D107260AE03E4E6A
:10573000B04201D1082605E03C4EB04201D1092615
:1057400000E00A268F073F0FBE409E4224D1384E0C
:1057500036689643364F3E603E1D366896433F1D81
:105760003E60334E0C3636689643314F0C373E6000
:105770003E1F366896433F1F3E608E07370F0F2649
:1057800006FA07F31F4E8F0856F827609E431D4FF9
:105790004FEA910C47F82C6006684FEA410C03274A
:1057A00007FA0CF7BE430660CF0800F1200656F852
:1057B00027604F074FEAD76C0F2707FA0CF7BE4355
:1057C0004FEAD10C00E018E000F1200747F82C6008
:1057D000C6684FEA410C032707FA0CF7BE43C660C0
:1057E000476801268E40B743476086684FEA410C00
:1057F000032707FA0CF7BE438660491C1029FFF403
:105800005EAFF0BD083801400000024000040240D5
:1058100000080240000C0240001002400014024048
:1058200000180240001C02400020024000240240F8
:10583000003C0140F8B502460B460025002400203C
:105840000021E0E0012606FA01F51E6806EA0504DB
:10585000AC4274D11E7906F00306012E04D01E79E5
:1058600006F00306022E13D190684F000326BE40B7
:10587000B0434F00DE68BE40304390605068012660
:105880008E40B0431E79C6F300168E403043506000
:105890001E7906F00306032E09D0D0684F000326B8
:1058A000BE40B0434F009E68BE403043D0601E797A
:1058B00006F00306022E13D1CF0802F1200656F897
:1058C00027004E07F70E0F26BE40B0434F07FF0ECE
:1058D0001E69BE403043CF0802F1200646F827007B
:1058E00010684F000326BE40B0431E7906F0030641
:1058F0004F00BE40304310605E6806F44036002E14
:105900001DD000BF00260096414E366846F4804602
:105910003F4F3E603E46366806F48046009600BF24
:1059200000BF3C4E8F0856F827008E07370F0F2612
:10593000BE40B043384EB24202D100262EE061E0B4
:10594000364EB24201D1012628E0354EB24201D195
:10595000022623E0334EB24201D103261EE0324E2E
:10596000B24201D1042619E0304EB24201D10526DF
:1059700014E02F4EB24201D106260FE02D4EB24266
:1059800001D107260AE02C4EB24201D1082605E0DB
:105990002A4EB24201D1092600E00A268F073F0FA6
:1059A000BE4030431B4E8F0846F82700244E306817
:1059B000A0435E6806F4801606B12043204E306096
:1059C000361D3068A0435E6806F4001606B1204319
:1059D0001B4E361D30601A4E361F3068A0435E687D
:1059E00006F4003606B12043154E361F3060361FD0
:1059F0003068A0435E6806F4803606B12043104E3E
:105A0000083E3060491C1029FFF41CAFF8BD0000AF
:105A100044380240083801400000024000040240BF
:105A200000080240000C0240001002400014024036
:105A300000180240001C02400020024000240240E6
:105A4000083C0140024613690B400BB1012000E005
:105A5000002070470AB1816101E00B048361704747
:105A600001480068000C7047002004E010B5FCF706
:105A7000B5FF022802D1FCF7C9FF10BD0C48006831
:105A8000840B0CE000BF00BF00BF00BF00BF00BF21
:105A900000BF00BF00BF00BF00BF00BF641E002CDE
:105AA000F0D104480068401C02490860E5E70000A6
:105AB00030880020A887002010B50A48006840F40C
:105AC0000070084908600846006840F4806008607B
:105AD000032000F049F80F2000F006F800F007F866
