:020000040800F2
:10000000D89500204D030008550300085703000849
:10001000590300085B0300085D03000800000000AE
:100020000000000000000000000000008D03000838
:1000300061030008000000002704000837040008DE
:1000400067030008670300086703000867030008E8
:1000500067030008670300086703000867030008D8
:1000600067030008670300086703000867030008C8
:1000700067030008670300086703000867030008B8
:1000800067030008670300086703000867030008A8
:100090006703000867030008670300086703000898
:1000A0006703000867030008670300086703000888
:1000B000670300086703000867030008D1620008AF
:1000C000C16200086703000867030008E17B0008BD
:1000D00067030008670300086703000875900008BD
:1000E00075450008670300086703000867030008F8
:1000F0006703000867030008670300086703000838
:100100006703000867030008670300086703000827
:100110006703000867030008670300086703000817
:100120006703000867030008670300086703000807
:1001300067030008670300086703000867030008F7
:1001400067030008670300086703000867030008E7
:1001500067030008670300086703000867030008D7
:1001600067030008670300086703000867030008C7
:100170006703000867030008670300080000000029
:1001800067030008670300086703000867030008A7
:100190006703000867030008670300086703000897
:1001A00067030008670300086703000800F002F80F
:1001B00000F0B8F80AA090E8000C82448344AAF149
:1001C0000107DA4501D100F0ADF8AFF2090EBAE847
:1001D0000F0013F0010F18BFFB1A43F0010318477B
:1001E000BCDD0000DCDD00000A444FF0000C10F81C
:1001F000013B13F0070408BF10F8014B1D1108BFA5
:1002000010F8015B641E05D010F8016B641E01F844
:10021000016BF9D113F0080F1EBF10F8014BAD1C94
:100220000C1B09D16D1E58BF01F801CBFAD505E0B2
:1002300014F8016B01F8016B6D1EF9D59142D6D30C
:10024000704700000023002400250026103A28BF34
:1002500078C1FBD8520728BF30C148BF0B60704738
:100260006E2900F0B785702900F0218766290CF00F
:10027000CE8365290CF0CB8367290CF0C8836129F4
:100280000CF0C78303681B0A28BF41F0800169296D
:1002900000F03282642900F02F82752900F02C8250
:1002A0006F2900F0AE86782900F0ED86E92900F08C
:1002B0004986E42900F04686F52900F04386EF29B7
:1002C00000F0AB86F82900F0EC860368DB0928BF54
:1002D00041F08001632900F0B885732900F0BD85E5
:1002E000E32901F05983F32901F05E830020704770
:1002F0001FB503F099FF9DE8030000F082FC01F0B8
:1003000009FC0400002000210CF050FB401C606040
:10031000002000210CF060FBE0601FBD10B501F073
:10032000FEFB10BD01F0D1FB114603B40AF066FAE2
:1003300003BCFFF7DDFF0BF075FF01F0B9FC03B460
:10034000FFF7ECFF03BC00F011FF000009488047F5
:1003500009480047FEE7FEE7FEE7FEE7FEE7FEE7A7
:10036000FEE7FEE7FEE7FEE704480549054A064BBF
:10037000704700008D8B0008AD010008D88F002069
:10038000D8950020D8910020D89100201EF0040FAD
:100390000CBFEFF30880EFF30980816911F8021CAC
:1003A000002932D101B590E80F10E047BDE80050B8
:1003B000CCF80000244B93E80600914208BF704738
:1003C0001A6041B91EF0100F10D1204B186820F0B0
:1003D000010018600AE02CE9F00F1EF0100F08BFB2
:1003E0002CED108A81F822E0C1F838C0906B92F8A9
:1003F000221061F0FF0E1EF0100F08BFB0EC108A43
:10040000B0E8F00F80F309887047114A13689942E9
:10041000FAD801B552F821C00FC8E047BDE8005036
:10042000CCF80000704701B502F0DAF8BDE80140F1
:10043000EFF3098CBEE701B502F04CFBBDE80140CB
:10044000EFF3098CB6E700BFA088002034EF00E08E
:1004500054DB000870B5A0FB0140B4F1805170F18D
:10046000000024BF002070BD204600F03EFC0500C7
:100470001CBF214600F05AFB284670BD70B51646D9
:100480000D46041F002808BF70BD002E1CBF05F1DB
:100490000C000AF088F92B465868002818BFA042C3
:1004A00038BF0346F8D31968CA18A24218BF5C6067
:1004B00003D122681C461144196021680A1982423E
:1004C00018BF606004D14268626000680844206020
:1004D000002E1CBF05F10C000AF087F970BD10B5A5
:1004E000044600F06FFB01682046BDE81040012281
:1004F000C4E753EA020C00F069802DE9F04B4FF09D
:100500000006002B1FBFB3FA83F503FA05F424FAA3
:1005100005F65E4012BF1643B2FA82F502FA05F400
:10052000C5F120051EBF22FA05FC44EA0C04203563
:1005300056EA044C4FEA144418BF641C4FF00008FC
:100540004FF00009904271EB030C39D3002919BF19
:10055000B1FA81F701FA07F6B0FA80F700FA07F668
:10056000C7F120071EBF20FA07FC46EA0C06203719
:10057000B6FBF4FCA7EB0507103F07F01F0BCBF110
:1005800020060CFA0BFB2CFA06F644BFB3460026F5
:10059000202FA4BF5E464FF0000B5BEA060C08BF9D
:1005A0004FF0010B19EB0B09ABFB027C48EB060883
:1005B000C01B06FB02CC0BFB03CC71EB0C01C1E7AB
:1005C0000B46024641464846BDE8F08B13B54FF056
:1005D00000004FF00001AFF30080BDE81C40704701
:1005E000B2F120030AD5C2F1200301FA02F120FA88
:1005F00003F300FA02F041EA0301704700FA03F145
:100600004FF00000704700000A46014900F02ABC84
:100610006C8800200FB4044910B503AA029800F0BA
:1006200021FC10BC5DF814FB6C8800200FB41CB5D5
:10063000084B06AA7B4469460090059800F0E3FB4E
:1006400004460020694600F0F1FB20461CBC5DF822
:1006500014FB0000F507000070B5044685690068CA
:10066000C10601D5302600E02026C00707D070BDA6
:10067000D4E9012130469047206A401C20626D1E5B
:10068000F6D570BD70B5044685690078C00707D1FE
:1006900070BDD4E9012120209047206A401C2062CF
:1006A0006D1EF6D570BD70B50C460546012A05D005
:1006B0002878800600D5EA69002302E0012305E0DE
:1006C0005B1C934202D2E05C0028F9D1A869E618CD
:1006D000C01AA861286A184428622846FFF7BCFFA0
:1006E00004E0D5E9012114F8010B9047B442F8D396
:1006F0002846FFF7C7FF70BD2DE9F04106460024EC
:1007000010687529314616A510D000F0F8FA0028B7
:1007100002DA404213A507E031688A0701D512A525
:1007200002E0490704D511A5012401E000F0F0FA28
:1007300000210A2206F1240709E0B0FBF2FCB0FB1D
:10074000F2F302FB1C00303078541846491C002894
:10075000F3D123462A463046BDE8F04100F0E1BA25
:10076000000000002D0000002B0000002000000011
:100770002DE9F05F894604464FF0000ADFF874B1B6
:10078000FB44C0F820A02046E1688847002874D0C8
:10079000252806D0D4E901219047206A401C206218
:1007A000F1E700265F462046E16888472028054695
:1007B00007DB312D05D2781910F8200C08B106435B
:1007C000F1E7B00701D526F00406C4F81CA0002705
:1007D000C4F818A02A2D09D0284609F0DDFF38B347
:1007E00004EB8708303DC8F8185019E059F8041B8D
:1007F000204604EB87029161E1688847012F054696
:1008000018D1E069002820DA26F020061DE0D8F88B
:10081000180000EB800005EB40003038C8F81800E5
:100820002046E1688847054609F0B6FF0028EED16A
:10083000012F0AD02E2D08D12046E16888477F1C61
:100840000546022F46F02006C4DBA069002803DA23
:10085000404246F00106A061F00701D026F01006E4
:100860006C2D0BD0682D09D04C2D39D06A2D35D088
:10087000742D35D07A2D33D016E038E0E1682F465C
:1008800020468847B842054609D16C2F26D04FF440
:100890008060E168064320468847054604E06C2FE7
:1008A0001AD04FF4807006430DB3A5F1410019280A
:1008B00002D8203546F400664A462946204626607E
:1008C0004E46FFF7CDFC80B101280BD0F61D26F077
:1008D000070000F1080956E74020E4E78020D8E748
:1008E0000020D6E706F104094DE7284652E7206AC2
:1008F000BDE8F09F64D5000070B5064600F067F9CA
:100900000468054630460A22002100F0DBFB2C601B
:1009100070BD00000EB5054614460E4613A000F04B
:1009200014FC284600F011FC16A000F00EFC304626
:1009300000F00BFC15A000F008FC00218DF80B1056
:100940000A210DF10A008DF80A1008E094FBF1F27B
:1009500001FB124294FBF1F4303200F8012D002C1F
:10096000F4DC00F0F2FB00F0E5FB00002A2A2A206C
:10097000617373657274696F6E206661696C65641A
:100980003A2000002C2066696C6520002C206C69E0
:100990006E652000401ECAB210F8011F8A4202D0C4
:1009A0000029F9D10020704740EA010310B59B07E8
:1009B0000FD1042A0DD310C808C9121F9C42F8D0C9
:1009C00020BA19BA884201D9012010BD4FF0FF307A
:1009D00010BD1AB1D30703D0521C07E0002010BD90
:1009E00010F8013B11F8014B1B1B07D110F8013B1C
:1009F00011F8014B1B1B01D1921EF1D1184610BDFD
:100A000010B5431C02E010F8011B71B18107FAD147
:100A10004FF0013202C88C1A8C4314EAC211F9D08B
:100A2000C01A0A0603D0C01E10BDC01A10BD0A04A9
:100A300001D0801E10BD0902FCD0401E10BD032A4B
:100A400040F2308010F0030C00F0158011F8013BEB
:100A5000BCF1020F624498BF11F801CB00F8013BD2
:100A600038BF11F8013BA2F1040298BF00F801CB96
:100A700038BF00F8013B11F0030300F02580083A6D
:100A8000C0F0088051F8043B083A51F804CBA0E8C4
:100A90000810F5E7121D5CBF51F8043B40F8043B19
:100AA000AFF30080D20724BF11F8013B11F801CB4E
:100AB00048BF11F8012B24BF00F8013B00F801CB1F
:100AC00048BF00F8012B704710B5203AC0F00B80EA
:100AD000B1E81850203AA0E81850B1E81850A0E842
:100AE0001850BFF4F5AF5FEA027C24BFB1E818509C
:100AF000A0E8185044BF18C918C0BDE810405FEA0C
:100B0000827C24BF51F8043B40F8043B08BF704787
:100B1000D20728BF31F8023B48BF11F8012B28BF8C
:100B200020F8023B48BF00F8012B70474FF000024D
:100B30000429C0F0128010F0030C00F01B80CCF1EF
:100B4000040CBCF1020F18BF00F8012BA8BF20F85D
:100B5000022BA1EB0C0100F00DB85FEAC17C24BFB1
:100B600000F8012B00F8012B48BF00F8012B70475B
:100B70004FF0000200B5134694469646203922BF36
:100B8000A0E80C50A0E80C50B1F12001BFF4F7AF81
:100B9000090728BFA0E80C5048BF0CC05DF804EB63
:100BA000890028BF40F8042B08BF704748BF20F8D1
:100BB000022B11F0804F18BF00F8012B70477047CF
:100BC0007047704710B500F0D7FA083010BD09F033
:100BD000B7BD704770477047704738B504460A463E
:100BE00000206946AFF30080002808BF38BD0246E8
:100BF0000099204600F0D5FA012038BD012000F010
:100C00005CBFF8B5AFF30080054600200C4610200D
:100C100000BF0646A819A0420DD9324669460020F9
:100C2000AFF30080070008BF00F047FF0098A04224
:100C300018BF0546C419FFF7C5FF05600746F01D3C
:100C400020F007004619284600F0A2FAB44208BF77
:100C5000F8BDA21B31463868BDE8F84000F0A1BAE3
:100C60000B3020F0070070472DE9F04117460E4683
:100C70000446FFF7F5FFA042054633D9002F1CBFFD
:100C800006F10C0009F08FFD30467468F4B121685C
:100C9000A94217D305F1080291423CBF6168416047
:100CA00007D3626861194A602268521B0A6041607A
:100CB0002560002F1CBF06F10C0009F096FD201DD9
:100CC000BDE8F08120466468002CE0D1294630461A
:100CD000FFF783FF0028D7D1002F1CBF06F10C00BF
:100CE00009F083FD0020BDE8F08110B50446FFF750
:100CF00069FF01682046BDE810400122B4E7096899
:100D00004A0501D540B27047C905FCD500B270470D
:100D100009684A0501D5C0B27047C905FCD580B243
:100D200070472DE9F0470D4699469246044600F17A
:100D300024080168880604D5E06921F010012160CB
:100D400000E00120A84201DD471B00E00027A16967
:100D50007A1902EB0900081AA0612078C00602D4B3
:100D60002046FFF779FC002608E0D4E901211AF8B3
:100D700006009047206A401C761C20624E45F4DB3A
:100D80002078C0060AD52046FFF766FC06E0D4E9C5
:100D9000012130209047206A401C2062381EA7F1B4
:100DA0000107F4DC07E0D4E9012118F805009047B9
:100DB000206A401C2062281EA5F10105F3DC2046B4
:100DC000FFF760FC2078000602D50220BDE8F0871E
:100DD0000120FBE711680268006A530501D508701D
:100DE0000AE0D30501D5088006E0130603D5C21733
:100DF000C1E9000200E008600120704701694A1C57
:100E000002610878704700B58FB0CDE9013100214B
:100E1000059105497944CDE9031011466846FFF76D
:100E2000A7FC0FB000BD0000E5FFFFFF0A6802F855
:100E3000010B0A60704710B5436913B1AFF300802E
:100E400001E0FFF730FC012010BD127800F1240111
:100E50000A7000224A700122EDE711684FF0FF325C
:100E6000E9E70000074B70B50D467B44FFF7CBFF69
:100E70000446284600F0EBFD10B14FF0FF3070BD86
:100E8000204670BDC7A700002DE9FF5F15468A46C2
:100E90000446DFF8AC80F8440027D8E900103E464D
:100EA000CDE9001010E03AF816106A4602A800F0EA
:100EB000DDFD411C07D02178890603D5E269391888
:100EC00091420DD80744761C2078800602D5E0694F
:100ED000B84205DDAE42E6DB3AF816000028E2D162
:100EE000A069C01BA0612046FFF7B6FBD8E900103F
:100EF000CDE90010002017E03AF818106A4602A861
:100F000000F0B4FDB0F1FF3F81460BD000250DF19C
:100F1000080B05E0D4E901211BF8050090476D1C82
:100F20004D45F7D308F10100B0428046E4DB206A6A
:100F3000384420622046FFF7A5FBBDE8FF9F000074
:100F400062CE00002DE9F0418046D21D22F007025A
:100F50000025D2E90002F52915A614D0011E72F170
:100F6000000106DA0023D0EB030063EB020211A6B6
:100F700008E0D8F800108B0701D50FA602E049075A
:100F800001D50EA601251146002408F1240704E02E
:100F900000F026F930323A55641C50EA0102F7D1CC
:100FA0002B46324621464046BDE8F041FFF7B9BE28
:100FB000000000002D0000002B00000020000000B9
:100FC00030B4002100F1240408E002F00705D20843
:100FD000303542EA4372DB086554491C52EA030586
:100FE000F3D10468002310A2250707D5A40600D476
:100FF00021B1C46901230DA2641EC46130BCFFF796
:1010000090BE10B5044621461068FFF781FE0246E7
:101010002046BDE810400023D2E7D21D22F0070190
:10102000D1E90023CCE70000000000003000000000
:10103000F0B40D460188090502D5214C7C4402E03C
:101040001F4C7C440E34002100F1240608E002F01D
:101050000F071209E75D42EA03721B097754491C26
:1010600052EA0307F3D102780023120704D5702D4A
:1010700006D009B1022311342246F0BCFFF751BE5D
:1010800001231034F8E770B504460D462146106878
:10109000FFF73EFE024629462046BDE87040002389
:1010A000C6E7D21D22F00703D3E90023C0E7036897
:1010B000126843F0200303600823C3610023B7E7ED
:1010C000C4CC00002DE9F04791460F468046044607
:1010D000002614F8015B2DB100F052F80068405D65
:1010E000C007F6D12B2D02D02D2D18D0641E4A46F4
:1010F0003946204600F05CFC27B13968A14201D195
:10110000C7F800804FF0020471050BD5404200285B
:1011100003DDFFF75CFD0460A007BDE8F08746F43F
:101120008066E4E70028F8DAFFF751FD04606FF00D
:101130000040F2E710B5002000F0B8FCFFF7EEF831
:10114000BDE81040012000F011B810B5044602E0DF
:10115000641C00F004F820780028F9D110BD08B50F
:1011600069468DF800000320ABBE08BD0149182078
:10117000ABBEFEE72600020000487047708F0020DB
:1011800010B500F0C7FC001D10BD00BF21B8000065
:1011900000210160C0E901100C3009F015BB1020DE
:1011A000704730B404468C464368002B18BF634533
:1011B00038BF1846F8D303681844604507D0C81CE8
:1011C00020F0070000F1040CACEB0100121A2146DC
:1011D000CCF8002030BC00220CF10400FFF74EB91F
:1011E00030B5B0F10A024FEA900E71F100034EEAF9
:1011F000817EB0EB0E0061EB91014FEA101E4EEACA
:10120000017E10EB0E0041EB11114FEA102E4EEA59
:10121000016E10EB0E0041EB11214FEA104E4EEA29
:10122000014E10EB0E0041EB1141401841F100015D
:101230004FEAD00040EA41704FEAD10110EB80053F
:101240004FEA810444EA907444EB01046D1944EBC5
:101250000404521BA3414FF0000348BF0A3200D5DB
:1012600030BD401C41F1000130BD70472DE9FF4FFA
:101270000C461E464FF0FF378BB0D2E90001DDF877
:1012800060800A908A46C1F30A5505B93D4600219F
:1012900008464FF00000BAF1000F00F4400005DAF4
:1012A00000EB80004FF4400101EA50004FEA9059F2
:1012B000B9F1010F00DDB9460A9850EA4A000ED094
:1012C00044F61050A5F2FF3545432F14B8F1000F36
:1012D0001ED07542291E1EDDC9F100021CE0B8F1C6
:1012E000010F4FF0000001D0302103E0F24305E090
:1012F0002154401CB042FBDB304600220021215427
:101300000B99C1F80880C1E900200FB0BDE8F08F4B
:10131000BD1B6D1CDEE74A4600DA694206A800F0F4
:1013200055FC06AB93E8070003AB83E80700504683
:101330000A9902F0B1FB8DE80700A0F500501F38B4
:1013400000900398002D0ADD42F21F014A4608442E
:10135000002303A90390684602F01AFE09E0A0F5F5
:1013600000504A461F38002303A90390684602F044
:1013700024FE8DE807000004000C03D04FF0FF307E
:10138000410800E01046B8F1000F03D0002200929F
:1013900015461EE0751E05D4FFF722FF3032625558
:1013A0006D1EF9D5B3460122084302D000227F1CEE
:1013B00004E02078302801D100227F1E002A0997FE
:1013C00084D01DE0112D07DAFFF70AFF3032625595
:1013D0006D1C50EA0102F5D1084302D00098C8B153
:1013E0000EE00021681E05E0235C625C6354225419
:1013F000401E491C8142F7DBAB46A81B401E0990EA
:10140000002004F80B000B98099AC0F80880C0E986
:10141000002B7AE711264FF0000857E72DE9F04F2F
:1014200088460446D21D22F0070191B0D1E900019F
:10143000CDE90A0109F06CF902460B98C00F01D002
:101440002D2007E02068810701D52B2002E0202114
:1014500001EAC000032A099001D0072A05DB0346F0
:101460004146204600F064FB0BE12078800601D560
:10147000E06900E00620B8F1650F814606D0B8F1BA
:10148000660F18D0B8F1670F70D131E00020B9F1C4
:10149000110F009001DB112301E009F101030AAAF9
:1014A00001A90CA8FFF7E2FEDDE90C70002609F1A6
:1014B0000105834647E001204B4600904FF000476E
:1014C0000AAA01A90CA8FFF7D1FEDDE90DB00C991D
:1014D0005D46002610B909F101000D18B9EB0500B1
:1014E00003D4C0F1FF3609F10105A5EB09002BE09B
:1014F000B9F1010F01DA4FF001090020B9F1110F24
:101500000090484601DD112300E003460AAA01A924
:101510000CA8FFF7ABFEDDE90C704D4600268346B4
:10152000207800070AD4AB4500DA5D4601A8012DFA
:1015300004DD411911F8011C302907D04F4502DAAA
:1015400017F1040F04DA012082460FE06D1EEEE76A
:10155000002F02DCED1B3E4403E0781CA84200DDB6
:101560007D1CB81B00F1010A4FF0004720780007EE
:1015700003D4AA4501DB4FF0FF3A0021B7F1004F39
:101580000DF143088DF8431024D002202B23002FA7
:1015900001DA7F422D230A21021EA0F1010000DCA6
:1015A0005FB197FBF1FC97FBF1F201FB1C7C174646
:1015B0000CF1300C08F801CDEEE7A8F10100037042
:1015C0002188090501D5452100E06521A0F1010828
:1015D00000F8011C09980FA9A1EB0807FF1D00B135
:1015E0000120411901EBEA70A1693844081A401E34
:1015F000A0612078C00602D42046FFF72DF8099894
:1016000028B1D4E901219047206A401C206220784B
:10161000C00622D52046FFF71FF81EE0002E04DB8F
:10162000B34502DD01A8805D00E03020D4E901214E
:101630009047206A401C2062761CAAF101005FEAF4
:10164000000A0AD100F066FAC0680168405CD4E97B
:1016500001219047206A401C2062281EA5F1010547
:10166000DCDC07E0D4E9012118F8010B9047206A7F
:10167000401C2062381EA7F10107F3DC2046FFF76B
:1016800001F8032011B041E62DE9F04F04460D4664
:10169000D21D22F0070089B0D0E9009748463946AC
:1016A00009F036F80246F80F01D02D2307E0206834
:1016B000810701D52B2302E0202101EAC0038DF828
:1016C00020300BB1012000E00020032A824601D027
:1016D000072A04DB2946204600F02AFA3FE1207859
:1016E000800601D40D2500E0E569C7F30A560D2DEB
:1016F00049DA00214FEA175B08464FF00000002F3F
:1017000000F4400007DA00EB80004FF4400100EBEA
:10171000D07001EA60008115012901DD4FF0FF3131
:1017200000224FEA850CBCF1180F06D31346ACF12A
:1017300018004FF08052C24003E04FF4801323FAA8
:101740000CF30CF10C0CBCF1200F04D3ACF1200C09
:1017500009FA0CF001E007FA0CF000294FF00048FC
:1017600001DD18B90FE00ED140450CD319EB020989
:101770005F4121B9404502D19F4329EA0209BBEBF1
:10178000175F00D0761C2088000502D57B4878447E
:1017900002E07A487844193808AA302302F80A305F
:1017A000037C0AF10101002E0AF1020A53546A4631
:1017B00002DC4FF0300101E04FF031014FF0010841
:1017C0008DF8001002D0A6F2FF3603E059EA470177
:1017D00000D06B4E002D02DC2178090704D54FF0B4
:1017E00002082E218DF80110C44600210BE0C7F33A
:1017F00003433F01C35C491C6D1E02F808300529F4
:1018000008F1010801DA002DF1DC00210CE000EB09
:101810001973491C1B786D1E082902F808304FEA1D
:10182000091908F1010801DA002DF0DC21688B06A6
:1018300002D516E0A8F10108E04505DD02EB08033A
:1018400013F8013C302BF5D0B8F1000F09DD02EBA5
:10185000080313F8013C2E2B03D1090701D4A8F18A
:101860000108002D05DD3E2102F808106D1E08F16B
:101870000108407C002E02F8080008F1010804DA93
:101880002D20764202F8080002E02B2002F8080022
:101890000A214FF47A70864208F101080BDB96FBAF
:1018A000F0F3303302F8083096FBF0F308F101084A
:1018B00000FB136601E0642E0CDB642096FBF0F362
:1018C000303302F8083096FBF0F308F1010800FB12
:1018D000136601E00A2E06DB96FBF1F0303002F8C9
:1018E000080008F1010896FBF1F001FB10603030B0
:1018F00002F80800A16908F1010808EB050202EBF3
:101900000A00081AA0612078C00602D42046FEF71B
:10191000A3FE216A08AE01EB0A00206204E0D4E9CC
:10192000012116F8010B9047BAF1010AF7D220788D
:10193000C00602D52046FEF78FFE6E4609E016F877
:10194000010B3E280FD0D4E901219047206A401CAA
:101950002062B8F10108F2D22046FEF793FE09B0EA
:101960000320BDE8F08F206A2844206203E0D4E918
:101970000121302090476D1EEBD3F8E7ADC5000084
:1019800002FCFFFF10B5436913B1AFF3008001E023
:10199000FFF77AFA012010BD128800F12401828439
:1019A0000022C2840122EDE711684FF0FF32E9E71F
:1019B0002DE9F05F824615468B4600270AF10104A7
:1019C000B9460078302801D09DB113E014F8010B1E
:1019D0000127782803D0582801D045B10AE00DB17D
:1019E000102D07D1002714F8010B102502E008255F
:1019F00000E00A250026B0460EE005FB080005FBC6
:101A000006F101271FFA80F801EB1046B6F5803F7A
:101A100000D3B94614F8010B294600F0C9F8002894
:101A2000EBDABBF1000F05D00FB1641E00E05446A5
:101A3000CBF80040B9F1000F06D0FFF7C8F802213B
:101A40000160C81EBDE8F09F48EA0640FAE770B59D
:101A5000044600F14C05284608F0A5FE207B00F066
:101A60008004284608F0C1FE204670BD70B51646B9
:101A70000C460546FFF784FB036893F80101012833
:101A800006D0FF2C0FD8185D68B101202C7070BDF6
:101A9000D3F807013246214603F2071303442846D0
:101AA000BDE8704018474FF0FF3070BD10B500F032
:101AB0000DF9BDE8104000F004B910B500F01EF9B2
:101AC000BDE8104000F0FDB870477546FFF754FBC5
:101AD000AE4605006946534620F00700854618B01B
:101AE00020B5FEF741FCBDE820404FF000064FF066
:101AF00000074FF000084FF0000B21F00701AC4643
:101B0000ACE8C009ACE8C009ACE8C009ACE8C00961
:101B10008D46704710B5FFF72FFB203010BD10B574
:101B2000FFF750F80068BDE8104000F00FB9000062
:101B30002DE9F0411F46044603260168072A01F4F7
:101B4000006004DB08B116A505E016A503E008B1A6
:101B500015A500E015A521F010002060A069C01EA9
:101B6000A0610FB1401EA0612046FEF775FD4FB188
:101B7000D4E9012138469047206A401C2062C01CED
:101B8000206206E0206AFAE7D4E9012115F8010B8A
:101B90009047761EF8D22046FEF774FDBDE8F0812E
:101BA0004E414E006E616E00494E4600696E660001
:101BB0003A2800D2303820F02002412A01D3A2F185
:101BC0003700884201D34FF0FF3070472DE9F047CE
:101BD000814616468AB0354878440DC88DE80D0018
:101BE00032487844801C03AC0DC884E80D0041F6EF
:101BF0009B300844372190FBF1F290FBF1F5A5F101
:101C0000800501FB12041B3C02D56442012000E068
:101C10000020DFF898A080460027FA44AAF1BE0A07
:101C20000EE0E0070AD03246684607EB4701012381
:101C30000AEB810102F0C1F98DE8070064107F1CF6
:101C4000002CEED1194F7F44AE3F19E0E80715D0C4
:101C500007EB04100DF1180A90E80E008AE80E0058
:101C6000C068F04201D1981908903246012306A9B4
:101C700003A802F0A2F903AB83E807006D10641C0F
:101C8000002DE3D14FF0010332466946B8F1000F51
:101C900003A802D002F07CF901E002F08EF9C9E954
:101CA0000001C9F808200AB0BDE8F087F4C10000BF
:101CB00010B50446AFF300802046BDE81040FEF7A3
:101CC0003EBB002801D0FFF751BA704710B5002184
:101CD00002A000F040F8012010BD00005349474128
:101CE0004252543A2041626E6F726D616C2074658D
:101CF000726D696E6174696F6E00000010B5012825
:101D000005D0002103A000F026F8012010BD09A194
:101D1000F8E7000053494752544D454D3A204F755E
:101D200074206F662068656170206D656D6F7279D3
:101D3000000000003A2048656170206D656D6F728B
:101D40007920636F727275707465640010B50C3021
:101D500008F034FD10BD70B505460C460A2000E0C1
:101D60006D1CFFF7FCF935B128780028F8D102E0A6
:101D7000641CFFF7F4F914B120780028F8D1BDE80D
:101D800070400A20FFF7EBB94FF0013C50F8042BEC
:101D900051F8043B9A4221D1A2EB0C03934313EA7E
:101DA000CC1317D150F8042B51F8043B9A4215D1AB
:101DB000A2EB0C03934313EACC130BD150F8042B82
:101DC00051F8043B9A4209D1A2EB0C03934313EA66
:101DD000CC13DBD04FF00000704700BFD01A01BA1F
:101DE000B1FA81F101F0180122FA01F0CB40C1F102
:101DF0002001DBB2C0B2C01A2CFA01F3D11A914310
:101E000011EAC311E6D1704710B500F1280151E87D
:101E1000002F12B9BFF32F8F04E0531E41E80034A6
:101E200004B1F4E772B12C300121006850B1821C7A
:101E3000D2E84F3FC2E8441F04B1F9E71A0602D0C6
:101E40000830F2E7002010BD70B5024652F8305F4E
:101E50004DB1CC7800235DB12E46ED78A5420DD270
:101E600075683346F7E70023C162C1E901330DE02D
:101E70000024C1E9014300F12C0403E0C1E901633E
:101E800006F108042160002B18BF1A1D11602830CC
:101E900050E8001F4A1C40E8002303B1F8E770BD7A
:101EA000D1E9012312B193608B6800E0C362191D70
:101EB000002B08BF00F130010A607047014800683C
:101EC000704700BF10E000E007480178012905D104
:101ED00006494FF080620A600021017004480168E1
:101EE00041F0010101607047D08F002004ED00E057
:101EF00010E000E04FF0FF307047000040B10B49A8
:101F00000968B1FBF0F0411E0020B0EB116F02D068
:101F10004FF0FF307047064AFF231370054A06232F
:101F200013605160044908709060704788880020F1
:101F300023ED00E010E000E0D08F00202168D4E91C
:101F40000223204600F07FBA6FF0050070470021A1
:101F500000220646002700F0A5BD6FF0050070477F
:101F6000204600F0F6BCB0B500F10C01C289D1E802
:101F70005F3F9A4202D8BFF32F8F04E05C1CC1E898
:101F8000554F05B1F3E7C28999B20020914238BF9D
:101F90000120B0BD10B5930712D400F12803D0077B
:101FA00015D153E8000F084203D1BFF32F8F002053
:101FB00005E020EA010243E8002404B1F1E710BD86
:101FC000806AD20700EA010312D1A3B912E053E8F4
:101FD000000F00EA01028A4203D0BFF32F8F0020D6
:101FE00005E020EA010243E8002404B1EFE710BD58
:101FF0008B4200D0002010BDB0B5104A00234432FF
:1020000015462C683CB12569A94209D3491B04F146
:102010000C052346F5E700240161C0E9023406E01F
:102020000161C0E90234A0602569691A2161002BB1
:1020300018BF03F10C021060B0BD00BF8C880020F7
:10204000C16829B1826803698A600A691A440A6111
:102050008068044A00F10C03002808BF02F1440321
:10206000196070478C880020EFF3058129B9EFF3E0
:10207000108111B9EFF3118111B16FF005007047B4
:10208000DFF804C000DF70476D2E0008EFF3058015
:1020900048B9EFF3108030B9EFF3118018B9EFF3BE
:1020A0001480C00702D10448007A7047DFF804C0EA
:1020B00000DF7047852E00088C880020EFF3058034
:1020C00028B9EFF3108010B9EFF3118010B1034875
:1020D000C0687047DFF808C000DF70478C880020B8
:1020E000912E000880B500F0F9F8EFF3058028B9CB
:1020F000EFF3108010B9EFF3118010B16FF005000D
:1021000080BDDFF808C000DF80BD00BF9D2E000845
:10211000EFF3058028B9EFF3108010B9EFF31180C9
:1021200008B1FFF71ABFDFF808C000DF704700BF33
:102130009D2F0008F8B50546EFF3058014460E46BE
:1021400028B9EFF3108010B9EFF31180F0B1D5B1D9
:102150002878FA2817D16FF00300EEB1E3B92846CA
:10216000FFF752FEC8B16A6A074600F10C0130461B
:10217000FEF765FC0CB1F87820703846FD6000F081
:1021800075FA0020F8BD6FF00300F8BD2846DFF8AF
:1021900010C03146224600DFF8BD6FF00200F8BDE6
:1021A00029300008EFF305832BB9EFF3108313B93F
:1021B000EFF311830BB100207047DFF808C000DF98
:1021C000704700BFF53000082DE9F0410646EFF3F7
:1021D000058090460D4628B9EFF3108010B9EFF353
:1021E000118018B3EEB13078FA281AD16FF00307D6
:1021F000CDB1C3B906F10C0000F0E3F8F0B1726A9A
:1022000004460C302946FEF71AFCF9200027C4E9E1
:10221000015684F8038020702046A77000F026FA4B
:1022200001E06FF003073846BDE8F0813046DFF883
:1022300014C02946424600DFBDE8F0816FF0020776
:10224000F1E700BF0D320008EFF305822AB9EFF382
:10225000108212B9EFF3118212B16FF005007047CE
:10226000DFF804C000DF7047B9320008EFF30581E2
:1022700029B9EFF3108111B9EFF3118111B16FF0AA
:1022800005007047DFF804C000DF704749330008DD
:10229000EFF3058129B9EFF3108111B9EFF3118143
:1022A00009B100207047DFF808C000DF704700BFA9
:1022B000F9330008EFF3058129B9EFF3108111B963
:1022C000EFF3118111B16FF005007047DFF804C022
:1022D00000DF70476134000809F0B5BF7047F0B502
:1022E000A8B1002379B3032A2DD803460F3153F840
:1022F000085F21F007012C46EE1A5D6825F0030700
:10230000F61B8E4205D225682346002DF3D100230B
:1023100019E0D0E900760E444660384450F8047C59
:10232000B74202D2083846605D6845B125F0030027
:102330001143C450184418600346416002E041EA6A
:102340000200586008331846F0BDB0B560B159B10D
:1023500000F10804A1F108020023944206D02546AA
:1023600024682B46002CF8D10020B0BD51F8045C45
:10237000446825F00305641B446013B110681860BD
:1023800002E0002041F8040C0120B0BD18B1024663
:102390000843400701D000207047002018290FD3C0
:1023A00010B58B18A3F10804946043F8080C1024AE
:1023B0009368C2E900145C60D0600120BDE8104061
:1023C000704710B5002817D0014600F1140252E8FA
:1023D000000F10B9BFF32F8F04E0036842E8003408
:1023E00004B1F4E740B1043151E8002F531C41E837
:1023F000003404B1F8E710BD002010BDB0B50028CE
:102400001ED0C2688A421BD802698A4218D900F1DC
:10241000140213680B60BFF35F8F52E8003F0C6833
:102420009C42F6D142E8001505B1F2E7043050E8CD
:10243000001F4A1E40E8002303B1F8E70020B0BDAA
:102440006FF00300B0BDB0B598B191B18AB1044648
:1024500000209BB1C4E9001004F1080002FB013523
:1024600063612CC0481E30B19918013819600B46C1
:10247000F9E70020B0BD002018600120B0BDF8B51C
:102480000446807848B3E56821462846FFF708FDF2
:10249000002005F10C06214620703046FFF7AEFF04
:1024A000A868C8B13046FFF78CFFA8B1044628469B
:1024B00000F04FFAFFF74BFD304600F0A5FA4168F7
:1024C0006A6A064604F10C00FEF7B9FAF920A77013
:1024D0002070B068E07021E0F8BDA568A868E8B198
:1024E000407883281AD1284600F033FAFFF72FFDF1
:1024F000304600F089FA064640686A6A04F10C0129
:10250000FEF79DFAB06808B1E1780170277005F117
:102510000C002146BDE8F840FFF770BF2846214671
:10252000BDE8F840FFF790BC80B507480821D0E926
:102530001A2000F0DFFD0549C8640021002808BF0B
:102540004FF0FF31084680BDE4DE00088C88002093
:102550002DE9F041044600274FF00108D4B125468B
:102560006469E8780007F9D5A8682F760028F5D0C7
:10257000284600F0EEF900210022064600F092FA0B
:10258000F06AC5E90367686100B1056185F81880E4
:10259000F562E3E7BDE8F081B0B5C278920718D5DF
:1025A000C068C36A90F82120DC78A4070AD59C682B
:1025B0008C4208BF8C682CB194F9204055B2AC42D3
:1025C000C8BFE2B25B69002BEED190F820109142B7
:1025D00000D1B0BD80F82020BDE8B04000F0E2B9E5
:1025E00070B5214C04F1560504F15A06B4F85400B4
:1025F000D5E85F1F11B9BFF32F8F04E04A1EC5E86D
:10260000532F03B1F4E7090429D0D6E85F1F4A1C11
:10261000904200D80022C6E8532F03B1F5E788B2F4
:10262000E16D51F82000D0B10178F1390829DDD8E9
:10263000DFE801F006050905050C0F051200D5E7D6
:10264000216E8847D2E7616E8847CFE7A16E884741
:10265000CCE7E16E8847C9E7216F8847C6E70020CD
:10266000BDE8704000F010B98C88002070B50146BC
:10267000194800F15603B0F85420D3E85F4FA24246
:1026800002D8BFF32F8F04E0651CC3E8565F06B184
:10269000F3E7A3B2934214D200F15803D3E85F4F9B
:1026A000651CAA4200D80025C3E8565F06B1F5E7CD
:1026B000A2B2C36D43F82210417A39B1012181726F
:1026C00070BD0220BDE87040FFF706BE03484FF022
:1026D0008051016070BD00BF8C88002004ED00E0D7
:1026E00010B58168B1B100F10C01D1E85F2F12B9CA
:1026F000BFF32F8F04E0531EC1E8543F04B1F4E749
:10270000110407D000F025F900210022BDE8104097
:1027100000F0C8B910BD000010B5012190F92030BB
:1027200041700A491C310A46896841B191F920403B
:102730009C42F8DCC0E9021290600C3104E00021F8
:10274000C0E9021202F10801086010BD8C88002067
:10275000B0B54A1C0DD01D4A00232C3215462C68FA
:10276000E4B1E569A94221D3491B04F110052346D0
:10277000F5E71649002301F1300214461946236893
:1027800003F11004002BF9D14FF0FF33C361002394
:10279000C0E90431C1B101F1100215E0C161C0E925
:1027A0000443002B18BF03F110020DE0002BC0E919
:1027B0000443C16118BF03F1100210602CB1E2693B
:1027C000511A04F11402E1611060B0BD8C88002040
:1027D000C2690169531C0AD021B143694B61CB69BD
:1027E0001A44CA6142693AB9084AD16207E009B19C
:1027F00042694A6142692AB10023116143610021A3
:10280000C1617047014A1163F9E700BF8C8800205D
:1028100070B5134DEC6A1CB1E0690138E06100D07D
:1028200070BD042660781338B6EB301F08D12046FF
:102830000178F12901D1C068FAE72146FFF7ACFE23
:10284000204600F0A5F8204600F0D4F8246924B111
:10285000E0690028E6D000206061EC6270BD00BF36
:102860008C880020C178C90708BF00F037B8002164
:10287000C1600421417003494A6B826002B1D0609B
:10288000486370478C88002070B5134E0546746904
:10289000307A65B1022805D194F9200095F920100D
:1028A000814211DC2846BDE8704000F0A3B8022840
:1028B00010D1756A75B194F9200095F92010814204
:1028C00008DD284600F064F82046FFF725FF0220C7
:1028D000B561687070BD00BF8C88002010B50446DB
:1028E00000202080A07881070DD5C00605D41048AF
:1028F000216B406FFFF729FD05E00D48216BD0F8F3
:102900008400FFF77BFDA078C00708BF10BD084911
:10291000D1F8880020B12146BDE81040FFF76EBD18
:10292000D1F880002146BDE81040FFF70EBD00BF82
:102930008C88002010B50446806918B1002100225F
:1029400000F0B0F86078232802D1A06800218161EE
:1029500010BD0146806882688A6002B1D1600021A2
:10296000C160704710B591F920300246806840B1CF
:1029700090F920409C42F8DAC1E9020291600C30E3
:1029800004E00020C1E9020202F10800016010BD6C
:10299000C16831B182688A60826802B1D160002169
:1029A000C1607047B0B50446054625B12878F128C6
:1029B00002D1ED68F9E7B0BD2046FFF7E9FF2846F0
:1029C0002146BDE8B040FFF7CDBF10B504464078C2
:1029D00033280DD194F82320616A2046FFF7DAFAF4
:1029E00030B1014620460022BDE8104000F05AB840
:1029F00010BD000001460120487002481C30FFF75E
:102A0000B1BF00BF8C88002090F82210C9064FF09B
:102A1000200158BF6021806B0844704770B50B4C93
:102A20000B480021A26D666E00F080FE094DA86281
:102A300046B1B04740B9E96CD4E9172000F076FE02
:102A4000A86408B1012070BD002070BDE4DE00085C
:102A500067C200088C880020024988610221417009
:102A6000704700BF8C88002010B50D4C227A022AD6
:102A700014D1626A92B1626950701046FFF768FE25
:102A8000606A8168616211B104F11C02CA600221AE
:102A9000A06141700021C160012010BD002010BD67
:102AA0008C880020B0B5044690F822001546C00678
:102AB0004FF0200058BF6020A26B81502046FFF7E6
:102AC00087FE2046002DBDE8B04008BFFFF792BF4B
:102AD000FFF7DABEB0B5FFF7F1F91B4DE86801303A
:102AE000E860FFF795FE0020FFF7CEFE286D00B1ED
:102AF0008047296C71B1A869EA6B904205D0C26920
:102B0000E86322B9C1610A4601E0C2691AB1511EE7
:102B1000C16100D0B0BD297A0229FBD16C6A002CBA
:102B2000F8D090F8200094F820108142F2D120468D
:102B3000FFF72EFFE86BFFF75DFF2046FFF78CFFE6
:102B4000286CEC63E061B0BD8C88002080B5FFF795
:102B5000EBFC10B14FF0FF3080BD02480249016527
:102B6000002080BD8C8800208D2B000882B0044698
:102B70006D462046294600224FF0FF33FFF7DAFA70
:102B80000028F6D1DDE900108847F2E72DE9F04191
:102B9000194D6C6C74B320696E694FF001080138EF
:102BA000206134B3206920BBE06808B1A16881606E
:102BB0006864E86C04F1180100220023FFF704FBAD
:102BC00060B1D5E90570214668610320FFF784FBF9
:102BD000696986EA0700084308BF0646E0780128CD
:102BE00011BF84F8018061692046FFF705FA6C6C1B
:102BF000D7E76E61BDE8F0818C880020EFF3058295
:102C00002AB9EFF3108212B9EFF31182CAB16FF053
:102C10000302A0B199B90178F62910D10C30D0E89F
:102C20005F1F11B9BFF32F8F04E04A1EC0E8532F76
:102C300003B1F4E70022080408BF6FF00202104657
:102C40007047DFF808C000DF704700BF1535000887
:102C5000EFF305832BB9EFF3108313B9EFF311836F
:102C60000BB100207047DFF808C000DF704700BFDD
:102C70006D35000810B50446EFF3058028B9EFF371
:102C8000108010B9EFF3118090B15CB12078F62874
:102C900008D12046FFF767F938B12046FFF7E6FC78
:102CA000002010BD6FF0030010BD6FF0020010BDDA
:102CB0002046DFF808C000DF10BD00BFE93500087E
:102CC000DFF804C000DFFEE721360008B0B5EFF3FF
:102CD00005822AB9EFF3108212B9EFF31182DAB14B
:102CE0006FF00304B0B1002914D40278F12A11D195
:102CF0004278042A02D16FF002040BE000F12802AE
:102D000052E8003F43EA010442E8004505B1F7E715
:102D1000FFF7ACFC2046B0BDDFF804C000DFB0BD5B
:102D20006D360008EFF305832BB9EFF3108313B969
:102D3000EFF311830BB1FFF707B9DFF808C000DF2D
:102D4000704700BFD5360008EFF3058028B9EFF3D0
:102D5000108010B9EFF3118010B10348406970473B
:102D6000DFF808C000DF70478C880020213700089A
:102D7000EFF305832BB9EFF3108313B9EFF311834E
:102D80000BB100207047DFF808C000DF704700BFBC
:102D90002D370008EFF305822AB9EFF3108212B93C
:102DA000EFF311820AB1FFF7CFB8DFF808C000DFF8
:102DB000704700BF19390008EFF3058028B9EFF319
:102DC000108010B9EFF3118008B1FFF7BDB8DFF83C
:102DD00008C000DF704700BF61390008EFF30581CC
:102DE00029B9EFF3108111B9EFF3118109B1002076
:102DF0007047DFF808C000DF704700BF993900084E
:102E000010B5EFF305842CB9EFF3108414B9EFF388
:102E100011840CB1002010BDDFF804C000DF10BD2C
:102E2000B1390008EFF305822AB9EFF3108212B925
:102E3000EFF3118212B16FF005007047DFF804C0A4
:102E400000DF7047293A0008EFF3058129B9EFF355
:102E5000108111B9EFF3118111B16FF005007047C6
:102E6000DFF804C000DF7047713A000830B180B568
:102E700001461320FFF7F8FD013880BD6FF0030015
:102E8000704700000148007A704700BF8C8800201E
:102E90000148C068704700BF8C8800202DE9F843C6
:102EA000DFF8EC8098F8080028B101286CD04FF0CA
:102EB000FF30BDE8F883374F388AD7E90B41A8F8CF
:102EC0005400D7E90202C8F840002046C8F85C2048
:102ED000FFF75CFA08B1C8F88040D7E90541DFF890
:102EE000B890D7E907562046C847D8F88010002880
:102EF000284618BF2146C8F874103146C847D8F88C
:102F00008010002818BF2946C8F87810D7E9094171
:102F10002046C847D8F88010002818BF21467C6B8F
:102F2000C8F87C101CB1FFF709F8C8F88440BC6BE6
:102F30001CB1FFF703F8C8F88840FC6B1CB1FEF722
:102F4000FDFFC8F88C403C6C1CB1FEF7F7FFC8F8D9
:102F500090407C6C1CB1FEF7F1FFC8F89440BC6C4B
:102F60001CB1FEF7EBFFC8F89840FC6C1CB1FEF7F3
:102F7000E5FFC8F89C403C6D1CB1FEF7DFFFC8F8C8
:102F8000A040012088F808000020BDE8F88300BFB9
:102F90008C880020E4DE00088D230008B0B51E4CAC
:102FA000207A01281CD1FFF739FDC8B11B48FF2149
:102FB0001B4D8175817D026881F0FF01C2F3022201
:102FC000B1FA81F1C1F120018A4228BF511CFE22D1
:102FD00002FA01F1C17468681249FEF78FFF10B15F
:102FE0004FF0FF30B0BDFEF785FF2061FEF76CFFAC
:102FF00004F11C00FFF7ADFCFFF72EFD2878C00799
:103000000CBF0320022080F314880220BFF36F8FCF
:1030100020720020B0BD00BF8C8800200CED00E0C5
:10302000E4DE0008370400082DE9F041002848D00C
:1030300004460078FA2844D10F46002941D02046A2
:103040001E461546FEF7E0FE00283FD0804620468B
:103050004146FEF725FF626A08F10C013846FDF78C
:10306000EEFC15B198F80300287004F10C06002559
:103070004146304688F80050FFF7C0F9A06810B309
:103080003046FFF79EF90025E8B10646FEF768FFD7
:10309000002101220746FFF705FD3846FFF7B4FC83
:1030A0004168626A074606F10C00FDF7C8FCF9208A
:1030B0003146B5703070B868F0702046FEF7C4FE37
:1030C00001E06FF003052846BDE8F08166B183207A
:1030D0003146FFF7C9FC20B1054841692046FFF79A
:1030E00041FC6FF00105EEE76FF00205EBE700BF72
:1030F0008C8800202DE9F84F48B10D4639B10446BF
:10310000B0FA80F0B5FA85F10844202803D20026F1
:103110003046BDE8F88F05F10F0020F0030808FBEA
:1031200004F95AB19668D2F800A0D2E904707EB1D1
:10313000B107ECD1D1683429E9D30CE04FF0000A93
:1031400000273049D1F8A00058B1FFF73AF90EE056
:10315000D1680029DBD157B3B907D8D14845D6D3B8
:1031600027E0D1F8800034210122FFF7B8F80646A5
:103170004FF0010B67BB5EB3CDF800A0DFF884A071
:1031800049460022DAF87C00FFF7A9F8074620B18B
:1031900038464946FDF7CAFC16E0BBF1000F12D0D5
:1031A000DAF8A00050B13146FFF728F90BE000280B
:1031B000ADD1002EC5D04FF0000BDBE7DAF8800070
:1031C0003146FFF7C2F80026DDF800A00BF1020B34
:1031D000002E3FF49DAF0020214642463B4686F834
:1031E00002B0C6E90950C6E90B00C6E901A0FA2001
:1031F000307006F10C00FFF726F90248024901671A
:1032000086E700BF8C8800207F2400082DE9F0416C
:1032100018B304460078FA281FD10F46E9B1A06818
:103220001E469046F0B1407883281BD1FEF798FEE9
:103230000021012205460026FFF734FC2846FFF74F
:10324000E3FB05464068626A3946FDF7F8FBA8686B
:1032500028B180F80080002601E06FF003063046B8
:10326000BDE8F08104F10C00FFF7ABF880B1626AB1
:1032700005460C303946FDF7E2FBF92000262946C9
:1032800085F8038028702046AE70FEF7DDFDE6E786
:1032900066B193203146FFF7E7FB20B1054841694D
:1032A0002046FFF75FFB6FF00106D8E76FF00206DC
:1032B000D5E700BF8C88002070B5044621484569D9
:1032C0004DB32CB32078F52822D1207E30B30E46A2
:1032D000E178CA0702D0E268AA422BD066B3880719
:1032E0000AD5E06895F9201090F920208A4203DA87
:1032F00080F82010FFF756FB53203146FFF7B4FB50
:1033000018B120462946FFF72DFB6FF0010070BD74
:103310006FF0030070BD4FF0FF3070BD0020C4E9B6
:103320000350E86A606100B104610120EC6220761C
:10333000002070BDFF2802D16FF0020070BD013087
:10334000F5E700BF8C880020B0B520B304460078B4
:10335000F52820D1207EC0B36169E06809B12269F7
:103360000A6100F12C0223691546002B18BF03F1F6
:103370001405296090F8211012687AB1D3789B0760
:1033800007D593682BB193F920304DB2AB42C8BF3B
:10339000D9B21432F0E76FF00300B0BD90F82020EE
:1033A0008A420CD080F82010FFF7FCFA07E0204694
:1033B000FFF7CFFA6FF002010022FFF773FBA0685E
:1033C0000028F4D10020FFF75FFAA17800202070D8
:1033D000C9070DD00749D1F8940018B12146FFF76D
:1033E0000DF804E0D1F880002146FEF7AEFF002082
:1033F000B0BD00BF8C88002070B550B18468D0E9A2
:1034000000657CB1A10710D1C16800201C2917D22A
:1034100070BD002500261149D1F8940038B1FEF79F
:10342000D0FF0AE0C0680028F5D0002070BDD1F8B8
:1034300080001C210122FEF752FF044658B10120F2
:10344000A070F52011216660E570207004F108007D
:10345000FDF78EFB00E00024204670BD8C88002024
:1034600070B504462A48406970B154B12178F529F5
:1034700007D1217E11B1E268824209D06FF00204C7
:1034800004E06FF0030401E04FF0FF34204670BD0C
:1034900001392176090601D00024F7E7616909B1F5
:1034A00022690A6100F12C0223691546002B18BF1E
:1034B00003F11405296090F82110126862B1D378E5
:1034C0009B0707D593682BB193F920304DB2AB42DF
:1034D000C8BF19461432F0E780F82010A06888B100
:1034E0002046FFF736FA0021002205460026FFF7A6
:1034F000D9FAE86AC4E90356606100B104610120A9
:10350000EC62207600200024FFF7BEF9BEE700BF82
:103510008C880020B0B508B304460078F6281DD189
:1035200004F10C00D0E85F2F12B9BFF32F8F04E035
:10353000531EC0E8553F05B1F4E710041CBF00203E
:10354000B0BD71B16320FFF78FFA20B10648416921
:103550002046FFF707FA6FF00100B0BD6FF00300DF
:10356000B0BD6FF00200B0BD8C88002070B50C4675
:10357000002198B30546B1EB104F2FD1AC4215D8BE
:103580004AB19068166870B181070FD1D2680021E6
:10359000102A15D222E000261149D1F8980038B13E
:1035A000FEF70FFF0AE0D0680028F5D0002115E0F3
:1035B000D1F8800010210122FEF791FE60B10121B7
:1035C00000228170F621C5818481C0E90162017009
:1035D0000349044A8A6600E000200146084670BD9F
:1035E0008C880020E126000810B560B10178F6292A
:1035F00009D1816859B1FFF7ACF9002101220024FB
:10360000FFF750FA01E06FF00304204610BDFEF70B
:10361000AAFC0021002808BF6FF00201084610BD77
:10362000B0B5114D287A02281DD1686AD8B16C69ED
:10363000E06AFEF78DFF2046FFF77CF9686A816833
:10364000696211B105F11C02CA600221A8614170D2
:103650000021C160EFF30980A06369612046BDE8E5
:10366000B040FFF7FFB8B0BD8C880020B0B56FF058
:10367000030460B300292AD405460078F12826D136
:103680006878042802D16FF0020420E005F12800D8
:1036900050E8002F42EA010440E8004303B1F7E795
:1036A0006878332813D195F82320696A2846FEF7F5
:1036B00071FC60B1014695F823000C4680075CBFA1
:1036C000686A21EA000428460122FFF7EBF9204648
:1036D000B0BD0000F8B505461048476957B1002D48
:1036E0000BD40E461446384629463246FEF752FCA5
:1036F00030B1F8BD4FF0FF30F8BD6FF00300F8BDFA
:103700004CB13320214687F823607D62FFF7ACF986
:103710006FF00100F8BD6FF00200F8BD8C8800204A
:1037200001484069704700BF8C8800202DE9FE4F9A
:10373000002800F0878005466AB102F110099668FA
:10374000D2E9007399E81003C6B1B0077AD1D06806
:10375000442816D276E04FF0010B4FF018090023F1
:1037600000244FF000080027664A0293CDE90017B5
:10377000D2F88800A8B1FEF724FE18E0D06800282F
:1037800060D124B160075DD1B8F1000F5AD0B9F112
:10379000000F3BD0B9F1010F54DBB9F1380F37DD21
:1037A00050E0D2F8800044210122FEF798FD064641
:1037B0004FF0010A0027002C53D1002E51D0BBF14D
:1037C000000F0DD04F485049D0F88400D1F85480F4
:1037D00030B1FEF7F6FD60B104460AF1100A3EE092
:1037E000484841460022406FFEF779FD08B1044683
:1037F00035E01FB14FF0000A00242FE04149D1F815
:10380000880018B33146FEF7F9FD24E04FF018099F
:10381000B8F1000F08D05FEA487013D1B8F1480F33
:1038200010D3B8F1000F0DD4B8FA88F0002E4FEA8B
:10383000501B3FF499AFCDE9001702934FF0000AF7
:103840000127B8E700263046BDE8FE8FD1F880009A
:103850003146FEF77AFD00244FF0010A00264AF0B7
:10386000020A002EEFD00198182186F802A070609D
:103870000298F07040F2F110308006F10800FDF778
:1038800077F904EB08010020C6E90C48FD22009FEF
:1038900086F8219086F820904039C6F82300C6F8B3
:1038A0002700C6F82B0086F82F0086F82220C6E9EC
:1038B0000E151649216014490978490715D4B16BD2
:1038C00000220D2A03D041F822000132F9E7104A04
:1038D0004FF080700F62C8630A48C1E90D250D4999
:1038E00001663046FEF7D0FFADE76FF01001221DF4
:1038F0004FF0CC3301EB98010029E0D008C2013928
:10390000FAE700BF8C880020E4DE0008A52E5AE20A
:10391000C12C0008CB29000810B530B10278F12A7B
:1039200003D1012901DB382903DD6FF003042046B0
:1039300010BD4278042A02D16FF00204F7E790F933
:1039400020208A4201D10024F1E780F8211080F87C
:103950002010FFF727F800200024FEF795FFE6E788
:1039600070B50C4E307A022811D1746A7CB1756939
:1039700094F8201095F82000814208D12046FFF7E6
:1039800007F82846FFF736F80220B461607000207F
:1039900070BD00BF8C88002040B10178F22905D1AC
:1039A00040780238B0FA80F0400970470020704734
:1039B000F8B50E46002198B3012E31D814460546BD
:1039C0004BB198681F6870B181070FD1DA68002188
:1039D000202A15D224E000271249D1F88C0038B1F2
:1039E000FEF7EFFC0AE0D8680028F5D0002117E0C8
:1039F000D1F8800020210122FEF771FC70B1012175
:103A0000002281704FF4F971C670C4610180C0E971
:103A10000172C0E90322C0E9052500E0002001464B
:103A20000846F8BD8C880020B0B568B1054600781E
:103A3000F22809D10C4639B16878022807D1284606
:103A40006C61FEF7FDFA08E06FF00300B0BD0748B7
:103A5000006D40B102206C61687028462146FEF777
:103A6000CBFA0020B0BD6FF00200B0BD8C88002002
:103A700080B570B10178F2290BD1417802291CBFC1
:103A80006FF0020080BD01214170FEF7D9FA0020DD
:103A900080BD6FF0030080BD5FEA400C08BF91F06D
:103AA000000F4FEA8C234FEAC12243EA51514FEAFB
:103AB0001C5018BF00F5F0404FEA300018BF41F02D
:103AC00000415FEA6C5C00F02980BCF1FF3F08BF59
:103AD00040F080407047130C06BF12044FF0100CEA
:103AE0004FF0000C130E04BF12020CF1080C130F60
:103AF00004BF12010CF1040C930F04BF92000CF1EF
:103B0000020CD30F04BF52000CF1010C11464FF010
:103B10000002A0F11F00A0EB0C00704711F0004F55
:103B200008BF704731F000413FF4D5AF0B0C06BF22
:103B300009044FF0100C4FF0000C0B0E04BF0902EB
:103B40000CF1080C0B0F04BF09010CF1040C8B0FD6
:103B500004BF89000CF1020CCB0F04BF49000CF12B
:103B6000010CCCF12003A0EB0C0022FA03F302FAC3
:103B70000CF241EA030100F10100704720F07F4C94
:103B800080EA030023F07F47ACEB070303F57C5387
:103B900000F0004003F1FF032DE980494FEA154B87
:103BA00009B44FEA144325EA0B4E24EA03480FF206
:103BB000042606EB132749083E785FEA320203FB2E
:103BC0000667C7F5000707FB06F64FEA54374FEACA
:103BD000D64606F1020607FB066CCCF1005C4FEA04
:103BE0001C472CEA074C07FB06F40CFB06F504EB1C
:103BF00015464FEA961634BF00204FF000404FEABA
:103C0000D13706FB07FC4FEA1C4C0CFB0BF7D21B11
:103C100003FB0CF761EB07010CFB0EF7B0EB074061
:103C200072EB17420CFB08F734BFA2EB0742B2EB72
:103C3000074261EB17414FEA0C444FEA910706FB3C
:103C400007FC4FEA1C4C0CFB0BF7B0EBC74072EBC8
:103C5000573203FB0CF734BFA2EBC742B2EBC742AB
:103C600061EB57310CFB0EF7B0EBC70072EB5772EC
:103C70000CFB08F734BFA2EBC702B2EBC70261EB43
:103C80005771039F4FEA816141EA921104EBCC0422
:103C90004FEAD1374FEA826206FB07FC42EA9012F4
:103CA0004FEA80604FEA1C4C0CFB0BF7D21B03FB66
:103CB0000CF761EB07010CFB0EF7B0EB074072EB62
:103CC00017420CFB08F734BFA2EB0742B2EB0742E6
:103CD00061EB17414FEA8C554FEA910704EB9C24A6
:103CE00006FB07FC4FEA1C4C0CFB0BF7B0EBC74084
:103CF00072EB573203FB0CF734BFA2EBC742B2EBB7
:103D0000C74261EB57310CFB0EF7B0EBC70072EB0B
:103D100057720CFB08F734BFA2EBC702B2EBC70225
:103D200061EB577115EB4C254FEA816141EA921125
:103D30004FEA82624FEAD13742EA901206FB07FC53
:103D400044F100044FEA80604FEA1C4C0CFB0BF777
:103D5000D21B03FB0CF761EB07010CFB0EF7B0EB7A
:103D6000074072EB17420CFB08F734BFA2EB074287
:103D7000B2EB074261EB174115EB1C154FEA81319D
:103D800041EA92414FEA823242EA90424FEA803061
:103D90004FEA0C7644F1000448EA03434EEA0B482C
:103DA0004FF0000EB2EB080C71EB030724BF624624
:103DB00039464EEB0E0E4FF0000B001852414941B0
:103DC0004BEB0B0BB2EB080C71EB03077BF1000B19
:103DD00024BF624639464EEB0E0E4FF0000B001822
:103DE000524149414BEB0B0BB2EB080C71EB030753
:103DF0007BF1000B24BF624639464EEB0E0E51EAB2
:103E0000020718BF46F0010616EB0E7655F10002C8
:103E100054F1000103D5BDE88901BDE80088BDE883
:103E20008901BDE80048B619524141EB0101A3F1F7
:103E30000103704780807F7E7D7C7B7A79787776FE
:103E400076757473727171706F6E6E6D6C6C6B6A77
:103E50006A69686867666665646463636261616015
:103E6000605F5F5E5E5D5D5C5C5B5B5A5A59595892
:103E700058575756565555555454535352525251FC
:103E8000515050504F4F4F4E4E4D4D4D4C4C4C4B52
:103E90004B4B4A4A4A494949484848474747474699
:103EA00046464545454444444443434343424242D5
:103EB00042414141002B9C4630D477002BD01CB5A9
:103EC0004FEA370703B44FF010004FF01001BAF17A
:103ED000000F06D0BCF1000FDCBF40F0080040F03E
:103EE00008014FF000000FBCBDE810400BF1010BC2
:103EF000BBF1010F08BF5FEA170722BF12F10102F1
:103F000011F101014FF0004143F1000300F00040C6
:103F100043EA00007047F9D35708D0E746EA06465F
:103F200013F1400F4FEA16461FDD13F1200FDFBFDC
:103F300016430A46002120335B42BED0C3F120075E
:103F400046EA064602FA07F74FEA164646EA070629
:103F5000C3F1200722FA03F201FA07F721FA03F16D
:103F60004FF0000342EA0702A7E746EA020646EAE4
:103F700006464FEA164646EA0106BCBF46EA064632
:103F8000360C4FF000034FF000024FF0000194E7B1
:103F90002DE9804C9A46934670B491E8380007C8E2
:103FA00031EA400C48BF34EA430C03D5FFF7E6FD85
:103FB000FFF780FFF0BCBDE8008C2DE9804C9A46ED
:103FC000934670B491E8380007C810F0804F08BFDE
:103FD00013F0804F03D100F005F8FFF76BFFF0BC42
:103FE000BDE8008C20F07F4780EA030023F07F4C7F
:103FF00007EB0C03A3F57C5300F00040A3F1FE0394
:1040000092F0000F00F0B38095F0000F00F0778081
:104010002DE901494FEA11404FEA144621EA0048D0
:1040200000FB06FC24EA064708FB06F607FB08F837
:1040300000FB07F718EB06484CEB164C4FEA124B07
:1040400018EB07484FEA15464CEB174022EA0B4E97
:104050000BFB06FC25EA06470EFB06F607FB0EFEE9
:104060000BFB07F71EEB064E4CEB164C4FF0000611
:104070001EEB074E4CEB174B18EB0B0840F1000002
:1040800018EB0E0B58EB000840F100008F1A4FF0B0
:1040900000013CBFC943661B14BFB5EB040C0021F3
:1040A0003CBFC943F61B4FEA17444EEA8E0E27EA7F
:1040B00004454FEA1C4704FB07622CEA074C05FB4A
:1040C00007F70CFB05F604FB0CFC16EB074642EB6E
:1040D000174216EB0C4642EB1C421BEB060658EB54
:1040E0000202414146EA9E0601D5BDE80189B619A2
:1040F000524141EB0101A3F10103BDE801894FEAFF
:1041000014454FEA114724EA054621EA074C05FB0E
:1041100007F406FB07F70CFB06F105FB0CFC11EBA3
:10412000074144EB17444FEA124711EB0C4144EBB3
:104130001C4422EA074C05FB07F206FB07F70CFBC1
:1041400006F605FB0CFC16EB074642EB174216EB96
:104150000C4642EB1C456A1854F1000148BF7047F9
:10416000B619524141EB0101A3F10103704795F0EB
:10417000000F37D04FEA11424FEA144721EA0246B6
:1041800024EA074C02FB07F106FB07F70CFB06F4D9
:1041900002FB0CFC14EB074441EB17414FEA1547B7
:1041A00014EB0C4441EB1C4125EA074C02FB07F5DC
:1041B00006FB07F70CFB06F602FB0CFC16EB0746AA
:1041C00045EB174516EB0C4645EB1C42121951F115
:1041D000000148BF7047B619524141EB0101A3F1FC
:1041E000010370474FEA14454FEA114724EA054698
:1041F00021EA074C05FB07F106FB07F70CFB06F26B
:104200004FF0000605FB0CFC12EB074241EB174197
:1042100012EB0C4251EB1C4148BF7047921841EB26
:104220000101A3F10103704710B508F0EBFB00BFDB
:10423000F1EE100A0149086010BD00003CEF00E0FB
:1042400055494A6822F440324A604A6843681A4332
:104250004A600268526822F4807203685A600268F9
:104260005368026943EA022203685A60026852688E
:1042700022F0407203685A600268526883681A43E9
:1042800003685A600268926822F4006203689A60C8
:1042900002689268C3681A4303689A603F4B826A57
:1042A0009A4218D00268926822F0706203689A609D
:1042B00002689268836A1A4303689A600268926887
:1042C00022F0405203689A6002689268C36A1A43F7
:1042D00003689A600BE00268926822F070620368DB
:1042E0009A600268926822F0405203689A600268FD
:1042F000926822F0020203689A6002689368027E64
:1043000043EA420203689A602022125CA2B102686A
:10431000526842F4006203685A600268526822F4EC
:10432000604203685A6002685368426A521E43EA58
:10433000423203685A6005E00268526822F4006263
:1043400003685A600268D26A22F470020368DA6273
:104350000268D36A828B521E43EA02520368DA6211
:104360000268926822F4007203689A600268936897
:1043700090F8302043EA422203689A60026892680B
:1043800022F4806203689A6002689368426943EA93
:10439000822203689A607047002301400100000FE9
:1043A00000231A4601210748FEF72AFD0649086046
:1043B0004FF47A7104480068FEF734FD01E0FEF71F
:1043C000FBFCFCE7C98F0008408800200146087804
:1043D00010381823B0FBF3F20848805CC865032A44
:1043E00005D908686FF30900001D886503E00868B7
:1043F0006FF309008865886D70470000C8DC00080D
:10440000014600208A6A8B69CBB932B1012A0DD0EE
:10441000022A03D0032A10D10EE000BFCB6A03F0BA
:104420008073B3F1807F00D1012007E0CB6AB3F144
:10443000C07F00D1012001E000E000BF34E08B69C3
:10444000B3F5005F1AD132B1012A07D0022A03D096
:10445000032A11D10AE000BF01200EE0CB6A03F06D
:104460008073B3F1807F00D1012006E0CB6AB3F105
:10447000C07F00D1012000E000BF15E032B1012A69
:1044800005D0022A04D0032A0CD103E000BF00BFEC
:10449000012008E0CB6A03F08073B3F1807F00D184
:1044A000012000E000BF00BF704730B504682468F9
:1044B00024F4802405682C60046863608468402CC0
:1044C00004D10468A2600468E16003E00468A160AC
:1044D0000468E26030BD00001F49884206D11F49D0
:1044E000096821F480511D4A116034E01C4988425A
:1044F00008D11A49091F096821F48041174A121F7F
:10450000116028E01749884208D11449091F096839
:1045100021F40041114A121F11601CE01249884227
:1045200006D10E49096821F400510C4A116012E0CD
:104530000E49884206D10949096821F48011074AC9
:10454000116008E00A49884205D10449096821F44C
:104550000011024A116070470030014044380240A7
:1045600000380040003C0040003401400050014051
:104570000054014010B507F087FC10BD08B569492B
:1045800088420FD100BF002100916749096841F0BE
:104590000101654A11601146096801F001010091AD
:1045A00000BFBDE0614988420FD100BF00210091EA
:1045B0005D49096841F002015B4A116011460968D2
:1045C00001F00201009100BFAAE0594988420FD1D1
:1045D00000BF002100915449096841F00401524A8A
:1045E00011601146096801F00401009100BF97E0D5
:1045F000504988420FD100BF002100914A49096803
:1046000041F00801484A11601146096801F00801AB
:10461000009100BF84E0484988420FD100BF0021CB
:1046200000914149096841F010013F4A116011466B
:10463000096801F01001009100BF71E03F49884214
:104640000FD100BF002100913749096841F02001D6
:10465000354A11601146096801F02001009100BF40
:104660005EE0374988420FD100BF002100912E49FA
:10467000096841F040012C4A11601146096801F0B7
:104680004001009100BF4BE02E4988420FD100BF8E
:10469000002100912449096841F08001224A1160FB
:1046A0001146096801F08001009100BF38E02649F9
:1046B00088420FD100BF002100911B49096841F4D5
:1046C0008071194A11601146096801F480710091E6
:1046D00000BF25E01D4988420FD100BF0021009195
:1046E0001149096841F400710F4A116011460968C7
:1046F00001F40071009100BF12E0154988420FD10A
:1047000000BF002100910849096841F48061064A10
:1047100011601146096801F48061009100BF00BF7B
:1047200008BD000000000240303802400004024092
:1047300000080240000C0240001002400014024039
:1047400000180240001C02400020024000240240E9
:104750000028024008B5694988420FD100BF0021F6
:1047600000916749096841F00101654A11601146ED
:10477000096801F00101009100BFBDE06149884274
:104780000FD100BF002100915D49096841F002018D
:104790005B4A11601146096801F00201009100BFF7
:1047A000AAE0594988420FD100BF00210091544925
:1047B000096841F00401524A11601146096801F08C
:1047C0000401009100BF97E0504988420FD100BF1B
:1047D000002100914A49096841F00801484A1160E6
:1047E0001146096801F00801009100BF84E04849C2
:1047F00088420FD100BF002100914149096841F072
:1048000010013F4A11601146096801F01001009142
:1048100000BF71E03F4988420FD100BF00210091E5
:104820003749096841F02001354A1160114609688D
:1048300001F02001009100BF5EE0374988420FD1AE
:1048400000BF002100912E49096841F040012C4A27
:1048500011601146096801F04001009100BF4BE072
:104860002E4988420FD100BF0021009124490968D8
:1048700041F08001224A11601146096801F080016F
:10488000009100BF38E0264988420FD100BF0021C7
:1048900000911B49096841F48071194A1160114661
:1048A000096801F48071009100BF25E01D4988422C
:1048B0000FD100BF002100911149096841F4007136
:1048C0000F4A11601146096801F40071009100BFA0
:1048D00012E0154988420FD100BF0021009108491C
:1048E000096841F48061064A11601146096801F4C3
:1048F0008061009100BF00BF08BD000000000240C1
:10490000303802400004024000080240000C02401F
:10491000001002400014024000180240001C024037
:1049200000200240002402400028024008B55649F9
:1049300088420FD100BF002100915449096841F01D
:104940000101524A11601146096801F0010100910C
:1049500000BF00BF4E4988420FD100BF0021009127
:104960004A49096841F00201484A11601146096844
:1049700001F00201009100BF00BF464988420FD1FB
:1049800000BF002100914149096841F004013F4AFC
:1049900011601146096801F00401009100BF00BFD9
:1049A0003D4988420FD100BF002100913749096875
:1049B00041F00801354A11601146096801F008010B
:1049C000009100BF00BF354988420FD100BF0021D0
:1049D00000912E49096841F010012C4A11601146DE
:1049E000096801F01001009100BF00BF2C49884206
:1049F0000FD100BF002100912449096841F0200136
:104A0000224A11601146096801F02001009100BF9F
:104A100000BF244988420FD100BF002100911B49EB
:104A2000096841F04001194A11601146096801F016
:104A30004001009100BF00BF1B4988420FD100BF59
:104A4000002100911149096841F080010F4A11606D
:104A50001146096801F08001009100BF00BF1349B1
:104A600088420FD100BF002100910849096841F434
:104A70008071064A11601146096801F48071009145
:104A800000BF00BF08BD00000000024030380240F7
:104A90000004024000080240000C024000100240E6
:104AA0000014024000180240001C02400020024096
:104AB00008B53B4988420FD100BF00210091394918
:104AC000096841F48051374A11601146096801F4C0
:104AD0008051009100BF62E03349884211D100BF8C
:104AE000002100912F49091F096841F480412D4A96
:104AF000121F11601146096801F48041009100BF46
:104B00004DE02A49884211D100BF0021009125497A
:104B1000091F096841F40041224A121F1160114621
:104B2000096801F40041009100BF38E02049884243
:104B30000FD100BF002100911A49096841F40051CA
:104B4000184A11601146096801F40051009100BF34
:104B500025E0184988420FD100BF0021009111497A
:104B6000096841F480110F4A11601146096801F487
:104B70008011009100BF12E00F4988420FD100BFA1
:104B8000002100910749096841F40011054A1160AC
:104B90001146096801F40011009100BF00BF08BD73
:104BA000003001404438024000380040003C0040E2
:104BB00000340140005001400054014000BFFEE7B6
:104BC00038B502460020009000BF92F83C00012852
:104BD00001D1022038BD012082F83C0000BF0868E6
:104BE000092816D91068C0680C780A3C04EB440503
:104BF0000724AC40A0431468E0600C780A3C04EB46
:104C000044048868A0401468E46820431468E060A5
:104C100013E0106800690C7804EB44050724AC40ED
:104C2000A043146820610C7804EB44048868A04019
:104C3000146824692043146820614868072817D243
:104C40001068406B0C79641E04EB84051F24AC4093
:104C5000A04314686063088880B20C79641E04EB7A
:104C60008404A0401468646B20431468606331E0DE
:104C700048680D2817D21068006B0C79E41F04EB0C
:104C800084051F24AC40A04314682063088880B2C8
:104C90000C79E41F04EB8404A0401468246B2043C7
:104CA0001468206316E01068C06A0C790D3C04EBB0
:104CB00084051F24AC40A0431468E062088880B2D9
:104CC0000C790D3C04EB8404A0401468E46A204392
:104CD0001468E0621E4B1F4C1068A0420AD108689D
:104CE000122807D1586820F400005860586840F432
:104CF00080005860174C1068A04222D1164C0868FA
:104D0000A04202D0086811281BD1586820F4800006
:104D10005860586840F4000058600F4C0868A04282
:104D20000FD10E4800680E4CB0FBF4F000EB800091
:104D30004000009002E00098401E0090009800287B
:104D4000F9D100BF002082F83C0000BF00BF41E75E
:104D5000002301400020014012000010888800203C
:104D600040420F0001460868C06C704770B50446A9
:104D700000250CB9012070BD1549A06A884200D0F9
:104D800000BF206C30B9204600F024F80020606499
:104D900084F83C00206C00F0100088B9206C20F4EE
:104DA000885040F0020020642046FFF749FA0020B6
:104DB0006064206C20F0020040F00100206400E0FC
:104DC000012500BF002084F83C0000BF2846D2E740
:104DD0000100000F704770B504460D46002620689C
:104DE000806800F48060B0F5806F11D12068806821
:104DF00000F48070B0F5807F0AD1206C40F0200074
:104E0000206400BF002084F83C0000BF012070BD7A
:104E100000F014FC064618E0681CB0B125B100F0A3
:104E20000DFC801BA84210D92068006800F0020029
:104E300002280AD0206C40F00400206400BF00204B
:104E400084F83C0000BF0320E1E72068006800F020
:104E500002000228E0D16FF0120021680860206C87
:104E600040F4007020642068806800F04050B8B9B9
:104E7000207EA8B92068C06A00F4700020B12068C4
:104E8000806800F4806058B9206C20F48070206441
:104E9000206C00F4805018B9206C40F001002064B0
:104EA0000020B4E708B501460020009000BF91F84B
:104EB0003C00012801D1022008BD012081F83C00FE
:104EC00000BF0868806800F00100A0B90868806829
:104ED00040F001000B6898603F4800683F4BB0FB12
:104EE000F3F000EB4000009002E00098401E0090BC
:104EF00000980028F9D10868806800F001000028B7
:104F000060D0086C40F20163984340F480700864FC
:104F10000868406800F4806028B1086C20F40050F4
:104F200040F480500864086C00F48050B0F5805F55
:104F300004D1486C20F00600486401E00020486479
:104F400000BF002081F83C0000BF254A6FF022001E
:104F50000B681860506800F01F0018BB214B0868F0
:104F6000984213D0204B0868984204D1101D006865
:104F700000F01F0050B11D4B086898422AD1184814
:104F8000001D006800F01F00102823D20868806808
:104F900000F04050F0B90868806840F080400B682D
:104FA000986017E00F4B0868984213D10868806832
:104FB00000F0405070B90868806840F080400B688D
:104FC000986007E0086C40F010000864486C40F0FE
:104FD0000100486400206FE78888002040420F00ED
:104FE0000023014000200140002101400022014037
:104FF00070B50446A56D00F021FB064694F8350017
:10500000022808D08020606500BF002084F83400AA
:1050100000BF012070BD2068006820F016002168E4
:1050200008602068406920F0800021684861206C99
:1050300008B9A06C28B12068006820F00800216839
:1050400008602068006820F001002168086010E016
:1050500000F0F4FA801B05280BD92020606503209E
:1050600084F8350000BF002084F8340000BF03201E
:10507000D0E72068006800F001000028E8D194F82B
:105080005C103F208840A860012084F8350000BFF4
:10509000002084F8340000BF00BFBBE7014691F850
:1050A0003500022803D08020486501207047052084
:1050B00081F835000868006820F001000A68106077
:1050C0000020F3E72DE9F0410446002500F0B6FA90
:1050D000074614B90120BDE8F081606A00B100BF45
:1050E000022084F8350000BF002084F8340000BF9F
:1050F0002068006820F00100216808600AE000F0E4
:105100009DFAC01B052805D920206065032084F87E
:105110003500E0E72068006800F001000028EED1CB
:105120002068056821480540D4E901010843E16889
:1051300008432169084361690843A1690843E1699B
:105140000843216A08430543606A042803D1D4E96F
:105150000B0108430543206805602068456925F078
:105160000705606A0543606A04280DD1A06A0543FB
:10517000E06A48B12046FFF743F928B14020606556
:10518000012084F83500A6E7206845612046FFF736
:105190001DF9064694F85C103F208840B06000205E
:1051A0006065012084F83500002094E73F8010F00E
:1051B0002DE9F04704460D4616461F464FF00008FD
:1051C000D4F8589000BF94F83400012802D102208E
:1051D000BDE8F087012084F8340000BF94F8350062
:1051E000012825D1022084F83500002060653B4667
:1051F000324629462046FFF758F994F85C103F20C4
:105200008840C9F808002068006840F0160021684E
:105210000860206C28B12068006840F00800216810
:1052200008602068006840F001002168086006E01E
:1052300000BF002084F8340000BF4FF00208404651
:10524000C6E7000070B5044600F0F8F906462546AA
:10525000681C10B104480078054400BF00F0EEF966
:10526000801BA842FAD370BD84880020F0B50C469C
:1052700000250022002300219EE0012606FA01F508
:1052800004EA0502AA427CD14D4E8F0856F8273019
:105290008E07370F0F26BE4033404A4EB04201D131
:1052A00000262DE0484EB04201D1012628E0474EAD
:1052B000B04201D1022623E0454EB04201D103267F
:1052C0001EE0444EB04201D1042619E0424EB042E5
:1052D00001D1052614E0414EB04201D106260FE06F
:1052E0003F4EB04201D107260AE03E4EB04201D106
:1052F000082605E03C4EB04201D1092600E00A260E
:105300008F073F0FBE409E4224D1384E36689643E9
:10531000364F3E603E1D366896433F1D3E60334E1D
:105320000C3636689643314F0C373E603E1F366868
:1053300096433F1F3E608E07370F0F2606FA07F38E
:105340001F4E8F0856F827609E431D4F4FEA910C61
:1053500047F82C6006684FEA410C032707FA0CF760
:10536000BE430660CF0800F1200656F827604F07BD
:105370004FEAD76C0F2707FA0CF7BE434FEAD10C60
:1053800000E018E000F1200747F82C60C6684FEAFB
:10539000410C032707FA0CF7BE43C6604768012695
:1053A0008E40B743476086684FEA410C032707FAEF
:1053B0000CF7BE438660491C1029FFF45EAFF0BDB8
:1053C000083801400000024000040240000802408A
:1053D000000C02400010024000140240001802407D
:1053E000001C02400020024000240240003C01401A
:1053F000F8B502460B460025002400200021E0E01D
:10540000012606FA01F51E6806EA0504AC4274D1CD
:105410001E7906F00306012E04D01E7906F003065D
:10542000022E13D190684F000326BE40B0434F00B8
:10543000DE68BE4030439060506801268E40B04325
:105440001E79C6F300168E40304350601E7906F078
:105450000306032E09D0D0684F000326BE40B04398
:105460004F009E68BE403043D0601E7906F00306B0
:10547000022E13D1CF0802F1200656F827004E075E
:10548000F70E0F26BE40B0434F07FF0E1E69BE4009
:105490003043CF0802F1200646F8270010684F007D
:1054A0000326BE40B0431E7906F003064F00BE40FF
:1054B000304310605E6806F44036002E1DD000BFF9
:1054C00000260096414E366846F480463F4F3E60C7
:1054D0003E46366806F48046009600BF00BF3C4E4C
:1054E0008F0856F827008E07370F0F26BE40B043AF
:1054F000384EB24202D100262EE061E0364EB24272
:1055000001D1012628E0354EB24201D1022623E026
:10551000334EB24201D103261EE0324EB24201D1D7
:10552000042619E0304EB24201D1052614E02F4E78
:10553000B24201D106260FE02D4EB24201D107261C
:105540000AE02C4EB24201D1082605E02A4EB242B2
:1055500001D1092600E00A268F073F0FBE403043E5
:105560001B4E8F0846F82700244E3068A0435E6823
:1055700006F4801606B12043204E3060361D306898
:10558000A0435E6806F4001606B120431B4E361D8C
:1055900030601A4E361F3068A0435E6806F400364D
:1055A00006B12043154E361F3060361F3068A043C9
:1055B0005E6806F4803606B12043104E083E306027
:1055C000491C1029FFF41CAFF8BD0000443802400C
:1055D0000838014000000240000402400008024078
:1055E000000C02400010024000140240001802406B
:1055F000001C02400020024000240240083C014000
:10560000024613690B400BB1012000E000207047F7
:1056100010B5426921EA020302EA010443EA0443A5
:10562000836110BD0AB1816101E00B0483617047A1
:1056300001480068000C7047002004E010B5FCF73A
:1056400025FD022802D1FCF739FD10BD0C48006889
:10565000840B0CE000BF00BF00BF00BF00BF00BF55
:1056600000BF00BF00BF00BF00BF00BF641E002C12
:10567000F0D104480068401C02490860E5E70000DA
:10568000888800207487002010B50A48006840F41C
:105690000070084908600846006840F480600860AF
:1056A000032000F049F80F2000F006F800F007F89A
:1056B000002010BD003C02400146002070477047AA
:1056C00010B501460846002807DB00F01F03012241
:1056D0009A40034B440943F8242000BF10BD00004A
:1056E00080E200E010B50146084600280BDB00F020
:1056F0001F0301229A40054B440943F82420BFF3BD
:105700004F8FBFF36F8F00BF10BD000080E100E03E
:105710000146084600280DDB00BF00BF00F01F0354
:1057200001229A4043099B0003F1E023C3F80021C2
:1057300000BF00BF00BF704700BF00F00702064B6C
:1057400019684FF6FF031940044B0B4343EA02214B
:10575000014B196000BF70470CED00E00000FA0536
:1057600070B504460D460CB9012070BD584800685C
:1057700000F00F00A84209D255490D700846006894
:1057800000F00F00A84201D00120EEE7207800F0E1
:10579000020002281DD1207800F00400042805D161
:1057A0004C48006840F4E0504A490860207800F016
:1057B0000800082805D14748006840F46040454982
:1057C00008604448006820F0F000A168084341499F
:1057D0000860207800F00100A8B36068012807D1B4
:1057E0003C4808380068C0F34040B8B90120BCE725
:1057F0006068022802D06068032807D1354808385D
:105800000068C0F3406048B90120AEE7314808386D
:105810000068C0F3400008B90120A6E72D480068E1
:1058200020F00300616808432A490860FFF706FF7B
:10583000064609E0FFF702FF801B41F288318842EB
:1058400002D9032091E707E02248006800F00C002D
:105850006168B0EB810FEDD11D48006800F00F00CA
:10586000A84209D91A490D700846006800F00F00D7
:10587000A84201D0012078E7207800F00400042835
:1058800007D11448006820F4E050E168084311494A
:105890000860207800F00800082808D10D4800684A
:1058A00020F46040216940EAC1000A49086000F024
:1058B0003FF808490968C1F30311074A515CC84021
:1058C0000649086006480068FFF7F6FE00204CE72E
:1058D000003C024008380240D0DC000888880020E4
:1058E00080880020014800687047000088880020F8
:1058F00000B5FFF7F7FF04490968C1F38221034AA5
:10590000515CC84000BD000008380240E0DC0008DF
:1059100000B5FFF7E7FF04490968C1F34231034AC4
:10592000515CC84000BD000008380240E0DC0008BF
:105930002DE9F047002400250026A14625480068EF
:1059400000F00C0020B1042805D008283AD105E069
:10595000DFF8849039E0DFF8849036E01D48001FBE
:10596000006800F03F041B48001F006800F480003E
:1059700078B11A481749091F0968C1F38811A0FBBB
:1059800001700146224600233846FAF7B2FD05466B
:105990000EE011480F49091F0968C1F38811A0FBE7
:1059A00001700146224600233846FAF7A2FD05465B
:1059B0000848001F0068C0F30140401C4600B5FBCA
:1059C000F6F902E0DFF8109000BF00BF4846BDE8DE
:1059D000F0870000083802400024F40000127A002A
:1059E000F8B504460CB90120F8BD207800F001009C
:1059F000002874D0F948006800F00C0004280DD08D
:105A0000F648006800F00C00082813D1F348001F86
:105A1000006800F48000B0F5800F0BD1EF48083823
:105A20000068C0F34040002859D06068002856D173
:105A30000120D9E700BF6068B0F5803F08D1E74892
:105A40000838006840F48030E449083908601EE0F6
:105A50006068B0F5A02F0DD1E0480838006840F428
:105A60008020DE49083908600846006840F480302C
:105A700008600CE0D9480838006820F48030D74925
:105A8000083908600846006820F48020086000BFDC
:105A9000606890B1FFF7D2FD054606E0FFF7CEFD46
:105AA000401B642801D903209EE7CC4808380068D1
:105AB000C0F340400028F1D011E0FFF7BFFD0546DC
:105AC00006E0FFF7BBFD401B642801D903208BE7EC
:105AD000C24808380068C0F340400028F1D120785F
