:020000040800F2
:10000000588F0020950200083F330008373300085E
:100010003B3300080D1F0008894300080000000062
:10002000000000000000000000000000D5020008F1
:10003000111F0008000000006F0300087F03000884
:10004000AF020008AF020008AF020008AF020008CC
:10005000AF020008AF020008AF020008AF020008BC
:10006000AF020008AF020008AF020008AF020008AC
:10007000AF020008AF020008AF020008AF0200089C
:10008000AF020008AF020008AF020008AF0200088C
:10009000AF020008AF020008AF020008AF0200087C
:1000A000AF020008AF020008AF020008AF0200086C
:1000B000AF020008AF020008A1420008AF0200082A
:1000C000AF020008AF020008AF0200087933000851
:1000D000AF020008AF020008AF020008AF0200083C
:1000E000B11F0008AF020008AF020008AF0200080D
:1000F000AF020008AF020008AF020008AF0200081C
:10010000AF020008AF020008AF020008AF0200080B
:10011000AF020008AF020008AF020008AF020008FB
:10012000AF020008AF020008AF020008AF020008EB
:10013000AF020008AF020008AF020008AF020008DB
:10014000AF020008AF020008AF020008AF020008CB
:10015000AF020008AF020008AF020008AF020008BB
:10016000AF020008AF020008AF020008AF020008AB
:10017000AF020008AF020008AF0200080000000054
:10018000AF020008AF020008AF020008AF0200088B
:10019000AF020008AF020008AF020008AF0200087B
:1001A000AF020008AF020008AF02000800F002F83A
:1001B00000F05CF80AA090E8000C82448344AAF1A5
:1001C0000107DA4501D100F051F8AFF2090EBAE8A3
:1001D0000F0013F0010F18BFFB1A43F0010318477B
:1001E00068490000884900000A444FF0000C10F8EC
:1001F000013B13F0070408BF10F8014B1D1108BFA5
:1002000010F8015B641E05D010F8016B641E01F844
:10021000016BF9D113F0080F1EBF10F8014BAD1C94
:100220000C1B09D16D1E58BF01F801CBFAD505E0B2
:1002300014F8016B01F8016B6D1EF9D59142D6D30C
:10024000704700000023002400250026103A28BF34
:1002500078C1FBD8520728BF30C148BF0B60704738
:100260001FB501F01BFE1FBD10B510BD00F0D0F989
:10027000114603B404F0B5F803BCFFF7F1FF04F036
:10028000BDFA00F0EAF903B4FFF7EEFF03BC00F09B
:10029000F1F900000948804709480047FEE7FEE7FA
:1002A000FEE7FEE7FEE7FEE7FEE7FEE7FEE7FEE726
:1002B00004480549054A064B704700008D42000876
:1002C000AD01000858890020588F0020588B00206D
:1002D000588B00201EF0040F0CBFEFF30880EFF3E3
:1002E0000980816911F8021C002932D101B590E81A
:1002F0000F10E047BDE80050CCF80000244B93E815
:100300000600914208BF70471A6041B91EF0100FF5
:1003100010D1204B186820F0010018600AE02CE989
:10032000F00F1EF0100F08BF2CED108A81F822E0AC
:10033000C1F838C0906B92F8221061F0FF0E1EF0E9
:10034000100F08BFB0EC108AB0E8F00F80F30988F6
:100350007047114A13689942FAD801B552F821C082
:100360000FC8E047BDE80050CCF80000704701B569
:1003700000F03AFDBDE80140EFF3098CBEE701B59E
:1003800000F090FFBDE80140EFF3098CB6E700BF35
:100390009485002034EF00E0F449000853EA020C91
:1003A00000F069802DE9F04B4FF00006002B1FBFD5
:1003B000B3FA83F503FA05F424FA05F65E4012BF9A
:1003C0001643B2FA82F502FA05F4C5F120051EBF04
:1003D00022FA05FC44EA0C04203556EA044C4FEAA4
:1003E000144418BF641C4FF000084FF000099042FD
:1003F00071EB030C39D3002919BFB1FA81F701FA67
:1004000007F6B0FA80F700FA07F6C7F120071EBF1B
:1004100020FA07FC46EA0C062037B6FBF4FCA7EBF3
:100420000507103F07F01F0BCBF120060CFA0BFB62
:100430002CFA06F644BFB3460026202FA4BF5E4622
:100440004FF0000B5BEA060C08BF4FF0010B19EBF5
:100450000B09ABFB027C48EB0608C01B06FB02CC79
:100460000BFB03CC71EB0C01C1E70B460246414686
:100470004846BDE8F08B13B54FF000004FF0000187
:10048000AFF30080BDE81C407047032A40F2308083
:1004900010F0030C00F0158011F8013BBCF1020FC5
:1004A000624498BF11F801CB00F8013B38BF11F846
:1004B000013BA2F1040298BF00F801CB38BF00F85D
:1004C000013B11F0030300F07180083AC0F008808E
:1004D00051F8043B083A51F804CBA0E80810F5E7BE
:1004E000121D5CBF51F8043B40F8043BAFF30080A1
:1004F000D20724BF11F8013B11F801CB48BF11F816
:10050000012B24BF00F8013B00F801CB48BF00F8E5
:10051000012B70474FF000020429C0F0128010F048
:10052000030C00F01B80CCF1040CBCF1020F18BFCF
:1005300000F8012BA8BF20F8022BA1EB0C0100F062
:100540000DB85FEAC17C24BF00F8012B00F8012B35
:1005500048BF00F8012B70474FF0000200B513466A
:1005600094469646203922BFA0E80C50A0E80C50D3
:10057000B1F12001BFF4F7AF090728BFA0E80C5084
:1005800048BF0CC05DF804EB890028BF40F8042B7D
:1005900008BF704748BF20F8022B11F0804F18BFEA
:1005A00000F8012B704770477047704710B5203A2C
:1005B000C0F00B80B1E81850203AA0E81850B1E81C
:1005C0001850A0E81850BFF4F5AF5FEA027C24BFD2
:1005D000B1E81850A0E8185044BF18C918C0BDE8C9
:1005E00010405FEA827C24BF51F8043B40F8043B92
:1005F00008BF7047D20728BF31F8023B48BF11F847
:10060000012B28BF20F8023B48BF00F8012B7047A0
:10061000754600F02BF8AE4605006946534620F0BB
:100620000700854618B020B5FFF742FEBDE8204020
:100630004FF000064FF000074FF000084FF0000B9E
:1006400021F00701AC46ACE8C009ACE8C009ACE851
:10065000C009ACE8C0098D46704710B50446AFF339
:1006600000802046BDE81040FFF70DBE00487047EF
:10067000F488002001491820ABBEFEE726000200E6
:10068000704710B500F1280151E8002F12B9BFF3EF
:100690002F8F04E0531E41E8003404B1F4E772B137
:1006A0002C300121006850B1821CD2E84F3FC2E8D3
:1006B000441F04B1F9E71A0602D00830F2E700201F
:1006C00010BD70B5024652F8305F4DB1CC780023B2
:1006D0005DB12E46ED78A5420DD275683346F7E739
:1006E0000023C162C1E901330DE00024C1E90143E7
:1006F00000F12C0403E0C1E9016306F10804216064
:10070000002B18BF1A1D1160283050E8001F4A1C2A
:1007100040E8002303B1F8E770BDD1E9012312B12D
:1007200093608B6800E0C362191D002B08BF00F1C5
:1007300030010A607047000001480068704700BF40
:1007400010E000E007480178012905D106494FF083
:1007500080620A60002101700448016841F00101D3
:10076000016070475489002004ED00E010E000E0D3
:100770004FF0FF307047000040B10B490968B1FBF2
:10078000F0F0411E0020B0EB116F02D04FF0FF30AF
:100790007047064AFF231370054A06231360516011
:1007A00004490870906070477C85002023ED00E0CC
:1007B00010E000E0548900202168D4E9022320469B
:1007C00000F045BA6FF00500704700210022064690
:1007D000002700F04FBD6FF0050070476FF0030079
:1007E00010BD204600F09DBC10B5930712D400F157
:1007F0002803D00715D153E8000F084203D1BFF3F7
:100800002F8F002005E020EA010243E8002404B114
:10081000F1E710BD806AD20700EA010312D1A3B943
:1008200012E053E8000F00EA01028A4203D0BFF34E
:100830002F8F002005E020EA010243E8002404B1E4
:10084000EFE710BD8B4200D0002010BDB0B5104ABC
:100850000023443215462C683CB12569A94209D3CE
:10086000491B04F10C052346F5E700240161C0E9AA
:10087000023406E00161C0E90234A0602569691A0A
:100880002161002B18BF03F10C021060B0BD00BF46
:1008900080850020EFF3058129B9EFF3108111B9AC
:1008A000EFF3118111B16FF005007047DFF804C05C
:1008B00000DF7047C1140008EFF3058048B9EFF37B
:1008C000108030B9EFF3118018B9EFF31480C0072E
:1008D00002D10448007A7047DFF804C000DF704797
:1008E000D914000880850020EFF3058028B9EFF3C4
:1008F000108010B9EFF3118010B10348C068704741
:10090000DFF808C000DF704780850020E51400088C
:1009100080B500F0E7F8EFF3058028B9EFF3108019
:1009200010B9EFF3118010B16FF0050080BDDFF852
:1009300008C000DF80BD00BFF1140008EFF30580A0
:1009400028B9EFF3108010B9EFF3118008B1FFF769
:1009500042BFDFF808C000DF704700BFF115000894
:10096000F8B50546EFF3058014460E4628B9EFF3B7
:10097000108010B9EFF31180F0B1D5B12878FA28C2
:1009800017D16FF00300EEB1E3B92846FFF779FE07
:10099000C8B16A6A074600F10C013046FFF775FDE1
:1009A0000CB1F87820703846FD6000F063FA002042
:1009B000F8BD6FF00300F8BD2846DFF810C03146DF
:1009C000224600DFF8BD6FF00200F8BD7D1600087A
:1009D0002DE9F0410646EFF3058090460D4628B913
:1009E000EFF3108010B9EFF3118018B3EEB1307847
:1009F000FA281AD16FF00307CDB1C3B906F10C0084
:100A000000F0E3F8F0B1726A04460C302946FFF7B3
:100A10003CFDF9200027C4E9015684F803802070CA
:100A20002046A77000F026FA01E06FF00307384671
:100A3000BDE8F0813046DFF814C02946424600DFA9
:100A4000BDE8F0816FF00207F1E700BF6118000810
:100A5000EFF305822AB9EFF3108212B9EFF3118296
:100A600012B16FF005007047DFF804C000DF704777
:100A70000D190008EFF3058129B9EFF3108111B9C1
:100A8000EFF3118111B16FF005007047DFF804C07A
:100A900000DF70479D190008EFF3058129B9EFF3D6
:100AA000108111B9EFF3118109B100207047DFF80F
:100AB00008C000DF704700BF4D1A0008EFF3058142
:100AC00029B9EFF3108111B9EFF3118111B16FF072
:100AD00005007047DFF804C000DF7047B51A000852
:100AE00003F09ABE7047F0B5A8B1002379B3032A8A
:100AF0002DD803460F3153F8085F21F007012C462B
:100B0000EE1A5D6825F00307F61B8E4205D22568B4
:100B10002346002DF3D1002319E0D0E900760E44DE
:100B20004660384450F8047CB74202D20838466028
:100B30005D6845B125F003001143C45018441860A6
:100B40000346416002E041EA02005860083318465B
:100B5000F0BDB0B560B159B100F10804A1F10802CF
:100B60000023944206D0254624682B46002CF8D159
:100B70000020B0BD51F8045C446825F00305641BF7
:100B8000446013B11068186002E0002041F8040CC2
:100B90000120B0BD18B102460843400701D0002033
:100BA0007047002018290FD310B58B18A3F1080443
:100BB000946043F8080C10249368C2E900145C6048
:100BC000D0600120BDE81040704710B5002817D054
:100BD000014600F1140252E8000F10B9BFF32F8F45
:100BE00004E0036842E8003404B1F4E740B10431A2
:100BF00051E8002F531C41E8003404B1F8E710BD60
:100C0000002010BDB0B500281ED0C2688A421BD893
:100C100002698A4218D900F1140213680B60BFF30D
:100C20005F8F52E8003F0C689C42F6D142E8001505
:100C300005B1F2E7043050E8001F4A1E40E80023E7
:100C400003B1F8E70020B0BD6FF00300B0BDB0B550
:100C500098B191B18AB1044600209BB1C4E900105B
:100C600004F1080002FB013563612CC0481E30B15D
:100C70009918013819600B46F9E70020B0BD002033
:100C800018600120B0BDF8B50446807848B3E56827
:100C900021462846FFF741FD002005F10C062146BC
:100CA00020703046FFF7AEFFA868C8B13046FFF7A6
:100CB0008CFFA8B10446284600F033FAFFF785FD03
:100CC000304600F089FA41686A6A064604F10C0071
:100CD000FFF7DBFBF920A7702070B068E07021E01F
:100CE000F8BDA568A868E8B1407883281AD12846DD
:100CF00000F017FAFFF769FD304600F06DFA06467E
:100D000040686A6A04F10C01FFF7BFFBB06808B1E4
:100D1000E1780170277005F10C002146BDE8F8402C
:100D2000FFF770BF28462146BDE8F840FFF7C9BC71
:100D300080B507480821D0E91A2000F005FD0549D3
:100D4000C8640021002808BF4FF0FF31084680BD6D
:100D5000904A0008808500202DE9F04104460027D4
:100D60004FF00108D4B125466469E8780007F9D549
:100D7000A8682F760028F5D0284600F0D2F9002187
:100D80000022064600F076FAF06AC5E9036768615A
:100D900000B1056185F81880F562E3E7BDE8F081F0
:100DA000B0B5C278920718D5C068C36A90F8212000
:100DB000DC78A4070AD59C688C4208BF8C682CB1EB
:100DC00094F9204055B2AC42C8BFE2B25B69002B37
:100DD000EED190F82010914200D1B0BD80F82020D3
:100DE000BDE8B04000F0C6B970B5214C04F156051D
:100DF00004F15A06B4F85400D5E85F1F11B9BFF3E7
:100E00002F8F04E04A1EC5E8532F03B1F4E709040D
:100E100029D0D6E85F1F4A1C904200D80022C6E8BD
:100E2000532F03B1F5E788B2E16D51F82000D0B13E
:100E30000178F1390829DDD8DFE801F00605090558
:100E4000050C0F051200D5E7216E8847D2E7616EC9
:100E50008847CFE7A16E8847CCE7E16E8847C9E7AE
:100E6000216F8847C6E70020BDE8704000F0F4B865
:100E70008085002070B50146194800F15603B0F88E
:100E80005420D3E85F4FA24202D8BFF32F8F04E073
:100E9000651CC3E8565F06B1F3E7A3B2934214D2D0
:100EA00000F15803D3E85F4F651CAA4200D8002523
:100EB000C3E8565F06B1F5E7A2B2C36D43F822104E
:100EC000417A39B10121817270BD0220BDE87040C4
:100ED000FFF706BE03484FF08051016070BD00BFB0
:100EE0008085002004ED00E010B5012190F920304C
:100EF00041700A491C310A46896841B191F9204084
:100F00009C42F8DCC0E9021290600C3104E0002140
:100F1000C0E9021202F10801086010BD80850020BE
:100F2000B0B54A1C0DD01D4A00232C3215462C6842
:100F3000E4B1E569A94221D3491B04F11005234618
:100F4000F5E71649002301F13002144619462368DB
:100F500003F11004002BF9D14FF0FF33C3610023DC
:100F6000C0E90431C1B101F1100215E0C161C0E96D
:100F70000443002B18BF03F110020DE0002BC0E961
:100F80000443C16118BF03F1100210602CB1E26983
:100F9000511A04F11402E1611060B0BD8085002097
:100FA000C2690169531C0AD021B143694B61CB6905
:100FB0001A44CA6142693AB9084AD16207E009B1E4
:100FC00042694A6142692AB10023116143610021EB
:100FD000C1617047014A1163F9E700BF80850020B5
:100FE00070B5134DEC6A1CB1E0690138E06100D0C6
:100FF00070BD042660781338B6EB301F08D1204648
:101000000178F12901D1C068FAE72146FFF7C8FE4F
:10101000204600F0A5F8204600F0D4F8246924B159
:10102000E0690028E6D000206061EC6270BD00BF7E
:1010300080850020C178C90708BF00F037B80021BB
:10104000C1600421417003494A6B826002B1D060E3
:10105000486370478085002070B5134E054674695B
:10106000307A65B1022805D194F9200095F9201055
:10107000814211DC2846BDE8704000F0A3B8022888
:1010800010D1756A75B194F9200095F9201081424C
:1010900008DD284600F064F82046FFF725FF02200F
:1010A000B561687070BD00BF8085002010B5044632
:1010B00000202080A07881070DD5C00605D41048F7
:1010C000216B406FFFF745FD05E00D48216BD0F81F
:1010D0008400FFF797FDA078C00708BF10BD08493E
:1010E000D1F8880020B12146BDE81040FFF78ABD45
:1010F000D1F880002146BDE81040FFF72ABD00BFAF
:101100008085002010B50446806918B100210022B6
:1011100000F0B0F86078232802D1A0680021816136
:1011200010BD0146806882688A6002B1D1600021EA
:10113000C160704710B591F920300246806840B117
:1011400090F920409C42F8DAC1E9020291600C302B
:1011500004E00020C1E9020202F10800016010BDB4
:10116000C16831B182688A60826802B1D1600021B1
:10117000C1607047B0B50446054625B12878F1280E
:1011800002D1ED68F9E7B0BD2046FFF7E9FF284638
:101190002146BDE8B040FFF7CDBF10B5044640780A
:1011A00033280DD194F82320616A2046FFF71CFBF9
:1011B00030B1014620460022BDE8104000F05AB888
:1011C00010BD000001460120487002481C30FFF7A6
:1011D000B1BF00BF8085002090F82210C9064FF0F3
:1011E000200158BF6021806B0844704770B50B4CDC
:1011F0000B480021A26D666E00F05AFD094DA862F1
:1012000046B1B04740B9E96CD4E9172000F050FD71
:10121000A86408B1012070BD002070BD904A00088C
:101220003948000880850020024988610221417008
:10123000704700BF8085002010B50D4C227A022A2D
:1012400014D1626A92B1626950701046FFF768FE6D
:10125000606A8168616211B104F11C02CA600221F6
:10126000A06141700021C160012010BD002010BDAF
:1012700080850020B0B5044690F822001546C006CF
:101280004FF0200058BF6020A26B81502046FFF72E
:1012900087FE2046002DBDE8B04008BFFFF792BF93
:1012A000FFF7DABEB0B5FFF747FA1B4DE86801302B
:1012B000E860FFF795FE0020FFF7CEFE286D00B135
:1012C0008047296C71B1A869EA6B904205D0C26968
:1012D000E86322B9C1610A4601E0C2691AB1511E30
:1012E000C16100D0B0BD297A0229FBD16C6A002C03
:1012F000F8D090F8200094F820108142F2D12046D6
:10130000FFF72EFFE86BFFF75DFF2046FFF78CFF2E
:10131000286CEC63E061B0BD8085002080B5FFF7EC
:1013200007FD10B14FF0FF3080BD02480249016552
:10133000002080BD808500205D13000882B0044637
:101340006D462046294600224FF0FF33FFF708FB89
:101350000028F6D1DDE900108847F2E72DE9F041D9
:10136000194D6C6C74B320696E694FF00108013837
:10137000206134B3206920BBE06808B1A1688160B6
:101380006864E86C04F1180100220023FFF720FBD9
:1013900060B1D5E90570214668610320FFF7A0FB25
:1013A000696986EA0700084308BF0646E078012815
:1013B00011BF84F8018061692046FFF747FA6C6C21
:1013C000D7E76E61BDE8F08180850020DFF804C0BA
:1013D00000DFFEE7691B0008EFF3058129B9EFF391
:1013E000108111B9EFF3118109B1FFF7EBB9DFF803
:1013F00008C000DF704700BFB51B0008EFF3058091
:1014000028B9EFF3108010B9EFF3118008B1002074
:101410007047DFF808C000DF704700BFE91B000815
:10142000B0B5EFF305822AB9EFF3108212B9EFF3EA
:101430001182DAB16FF00304B0B1002914D402783C
:10144000F12A11D14278042A02D16FF002040BE094
:1014500000F1280252E8003F43EA010442E8004557
:1014600005B1F7E7FFF706FD2046B0BDDFF804C081
:1014700000DFB0BDFD1B0008EFF305832BB9EFF3D0
:10148000108313B9EFF311830BB1FFF79BB9DFF8AA
:1014900008C000DF704700BF651C0008EFF305833C
:1014A0002BB9EFF3108313B9EFF311830BB10020C5
:1014B0007047DFF808C000DF704700BFB11C0008AC
:1014C00030B180B501461320FFF7B6FE013880BD6C
:1014D0006FF00300704700000148007A704700BFBA
:1014E000808500200148C068704700BF80850020CB
:1014F0002DE9F843DFF8EC8098F8080028B10128BE
:101500006CD04FF0FF30BDE8F883374F388AD7E909
:101510000B41A8F85400D7E90202C8F84000204661
:10152000C8F85C20FFF736FB08B1C8F88040D7E95F
:101530000541DFF8B890D7E907562046C847D8F8E4
:1015400080100028284618BF2146C8F8741031467C
:10155000C847D8F88010002818BF2946C8F8781066
:10156000D7E909412046C847D8F88010002818BF9D
:1015700021467C6BC8F87C101CB1FFF71DF9C8F838
:101580008440BC6B1CB1FFF717F9C8F88840FC6BAE
:101590001CB1FFF711F9C8F88C403C6C1CB1FFF787
:1015A0000BF9C8F890407C6C1CB1FFF705F9C8F83E
:1015B0009440BC6C1CB1FFF7FFF8C8F89840FC6C75
:1015C0001CB1FFF7F9F8C8F89C403C6D1CB1FFF75F
:1015D000F3F8C8F8A040012088F808000020BDE812
:1015E000F88300BF80850020904A0008950B000812
:1015F000B0B51E4C207A01281CD1FFF7F7FDC8B109
:101600001B48FF211B4D8175817D026881F0FF0120
:10161000C2F30222B1FA81F1C1F120018A4228BF4E
:10162000511CFE2202FA01F1C17468681249FFF7E9
:10163000A3F810B14FF0FF30B0BDFFF799F820616B
:10164000FFF780F804F11C00FFF76BFDFFF7ECFDDE
:101650002878C0070CBF0320022080F314880220E2
:10166000BFF36F8F20720020B0BD00BF80850020C7
:101670000CED00E0904A00087F0300082DE9F041DE
:10168000002848D004460078FA2844D10F460029A3
:1016900041D020461E461546FEF7F3FF00283FD0F6
:1016A000804620464146FFF738F8626A08F10C018F
:1016B0003846FEF7EAFE15B198F80300287004F1E9
:1016C0000C0600254146304688F80050FFF79AFA8C
:1016D000A06810B33046FFF778FA0025E8B1064657
:1016E000FFF77FF8002101220746FFF7C3FD3846C8
:1016F000FFF772FD4168626A074606F10C00FEF7CB
:10170000C4FEF9203146B5703070B868F0702046DC
:10171000FEF7D7FF01E06FF003052846BDE8F08132
:1017200066B183203146FFF787FD20B10548416946
:101730002046FFF7FFFC6FF00105EEE76FF00205B2
:10174000EBE700BF808500202DE9F84F48B10D463A
:1017500039B10446B0FA80F0B5FA85F10844202882
:1017600003D200263046BDE8F88F05F10F0020F0C7
:10177000030808FB04F95AB19668D2F800A0D2E930
:1017800004707EB1B107ECD1D1683429E9D30CE003
:101790004FF0000A00273049D1F8A00058B1FFF7F8
:1017A00014FA0EE0D1680029DBD157B3B907D8D1BC
:1017B0004845D6D327E0D1F8800034210122FFF735
:1017C00092F906464FF0010B67BB5EB3CDF800A05F
:1017D000DFF884A049460022DAF87C00FFF783F99D
:1017E000074620B138464946FEF794FE16E0BBF1A5
:1017F000000F12D0DAF8A00050B13146FFF702FA1C
:101800000BE00028ADD1002EC5D04FF0000BDBE778
:10181000DAF880003146FFF79CF90026DDF800A0D9
:101820000BF1020B002E3FF49DAF002021464246F3
:101830003B4686F802B0C6E90950C6E90B00C6E986
:1018400001A0FA20307006F10C00FFF700FA024800
:101850000249016786E700BF80850020870C0008E9
:101860002DE9F04118B304460078FA281FD10F463D
:10187000E9B1A0681E469046F0B1407883281BD19C
:10188000FEF7AFFF0021012205460026FFF7F2FC1C
:101890002846FFF7A1FC05464068626A3946FEF714
:1018A000F4FDA86828B180F80080002601E06FF000
:1018B00003063046BDE8F08104F10C00FFF785F91E
:1018C00080B1626A05460C303946FEF7DEFDF9202C
:1018D0000026294685F8038028702046AE70FEF762
:1018E000F0FEE6E766B193203146FFF7A5FC20B194
:1018F000054841692046FFF71DFC6FF00106D8E757
:101900006FF00206D5E700BF8085002070B5044661
:10191000214845694DB32CB32078F52822D1207E8B
:1019200030B30E46E178CA0702D0E268AA422BD053
:1019300066B388070AD5E06895F9201090F9202051
:101940008A4203DA80F82010FFF714FC5320314656
:10195000FFF772FC18B120462946FFF7EBFB6FF04A
:10196000010070BD6FF0030070BD4FF0FF3070BD1F
:101970000020C4E90350E86A606100B104610120FD
:10198000EC622076002070BDFF2802D16FF00200CB
:1019900070BD0130F5E700BF80850020B0B520B3F1
:1019A00004460078F52820D1207EC0B36169E06844
:1019B00009B122690A6100F12C0223691546002B46
:1019C00018BF03F11405296090F8211012687AB14C
:1019D000D3789B0707D593682BB193F920304DB28C
:1019E000AB42C8BFD9B21432F0E76FF00300B0BD0C
:1019F00090F820208A420CD080F82010FFF7BAFB24
:101A000007E02046FFF78DFB6FF002010022FFF791
:101A100031FCA0680028F4D10020FFF71DFBA1785D
:101A200000202070C9070DD00749D1F8940018B1E3
:101A30002146FFF7E7F804E0D1F880002146FFF7E0
:101A400088F80020B0BD00BF8085002070B550B17F
:101A50008468D0E900657CB1A10710D1C16800207D
:101A60001C2917D270BD002500261149D1F8940019
:101A700038B1FFF7AAF80AE0C0680028F5D00020C6
:101A800070BDD1F880001C210122FFF72CF804461C
:101A900058B10120A070F52011216660E57020701A
:101AA00004F10800FEF758FD00E00024204670BD58
:101AB0008085002070B504462A48406970B154B151
:101AC0002178F52907D1217E11B1E268824209D03F
:101AD0006FF0020404E06FF0030401E04FF0FF3404
:101AE000204670BD01392176090601D00024F7E7B0
:101AF000616909B122690A6100F12C022369154666
:101B0000002B18BF03F11405296090F8211012680A
:101B100062B1D3789B0707D593682BB193F9203036
:101B20004DB2AB42C8BF19461432F0E780F820101E
:101B3000A06888B12046FFF7F4FA0021002205468C
:101B40000026FFF797FBE86AC4E90356606100B11D
:101B500004610120EC62207600200024FFF77CFA6B
:101B6000BEE700BF80850020B0B5114D287A02285D
:101B70001DD1686AD8B16C69E06AFFF7EDF82046BC
:101B8000FFF7C0FA686A8168696211B105F11C0249
:101B9000CA600221A86141700021C160EFF3098091
:101BA000A06369612046BDE8B040FFF743BAB0BD0D
:101BB0008085002010B501460A48406960B10029BF
:101BC0000DD400F1280252E8000F20EA010342E898
:101BD000003404B1F7E710BD4FF0FF3010BDFEF741
:101BE000FDBD00BF808500200348406908B1806AC0
:101BF00070470020704700BF80850020B0B56FF0AF
:101C0000030460B300292AD405460078F12826D1C0
:101C10006878042802D16FF0020420E005F1280062
:101C200050E8002F42EA010440E8004303B1F7E71F
:101C30006878332813D195F82320696A2846FEF77F
:101C4000D3FD60B1014695F823000C4680075CBFC8
:101C5000686A21EA000428460122FFF70BFB2046B0
:101C6000B0BD0000F8B505461048476957B1002DD2
:101C70000BD40E461446384629463246FEF7B4FDCC
:101C800030B1F8BD4FF0FF30F8BD6FF00300F8BD84
:101C90004CB13320214687F823607D62FFF7CCFAF0
:101CA0006FF00100F8BD6FF00200F8BD80850020E4
:101CB0002DE9FE4F002800F0878005466AB102F149
:101CC00010099668D2E9007399E81003C6B1B0070D
:101CD0007AD1D068442816D276E04FF0010B4FF04D
:101CE0001809002300244FF000080027664A0293D9
:101CF000CDE90017D2F88800A8B1FEF766FF18E01A
:101D0000D068002860D124B160075DD1B8F1000F20
:101D10005AD0B9F1000F3BD0B9F1010F54DBB9F142
:101D2000380F37DD50E0D2F8800044210122FEF761
:101D3000DAFE06464FF0010A0027002C53D1002E90
:101D400051D0BBF1000F0DD04F485049D0F884005E
:101D5000D1F8548030B1FEF738FF60B104460AF183
:101D6000100A3EE0484841460022406FFEF7BBFEA5
:101D700008B1044635E01FB14FF0000A00242FE0FF
:101D80004149D1F8880018B33146FEF73BFF24E003
:101D90004FF01809B8F1000F08D05FEA487013D16E
:101DA000B8F1480F10D3B8F1000F0DD4B8FA88F08D
:101DB000002E4FEA501B3FF499AFCDE90017029374
:101DC0004FF0000A0127B8E700263046BDE8FE8F35
:101DD000D1F880003146FEF7BCFE00244FF0010A26
:101DE00000264AF0020A002EEFD00198182186F84A
:101DF00002A070600298F07040F2F110308006F19D
:101E00000800FEF7A9FB04EB08010020C6E90C4816
:101E1000FD22009F86F8219086F820904039C6F870
:101E20002300C6F82700C6F82B0086F82F0086F896
:101E30002220C6E90E151649216014490978490780
:101E400015D4B16B00220D2A03D041F822000132D3
:101E5000F9E7104A4FF080700F62C8630A48C1E981
:101E60000D250D4901663046FFF7F6F8ADE76FF036
:101E70001001221D4FF0CC3301EB98010029E0D076
:101E800008C20139FAE700BF80850020904A0008A7
:101E9000A52E5AE2CD1300089B11000810B502F0E0
:101EA00071FD00BFF1EE100A0149086010BD00008D
:101EB0003CEF00E000B587B0142102A8FEF74CFB10
:101EC000282000F051FC00BF002001900D48006860
:101ED00040F004000B4908600846006800F0040068
:101EE000019000BF00BF4FF4005002904FF48810E3
:101EF00003900220049002A9034800F0C9FA07B039
:101F000000BD0000303802400008024000BFFEE77C
:101F1000704700001F49884206D11F49096821F413
:101F200080511D4A116034E01C49884208D11A4989
:101F3000091F096821F48041174A121F116028E027
:101F40001749884208D11449091F096821F4004142
:101F5000114A121F11601CE01249884206D10E4935
:101F6000096821F400510C4A116012E00E498842C0
:101F700006D10949096821F48011074A116008E077
:101F80000A49884205D10449096821F40011024A2E
:101F90001160704700300140443802400038004072
:101FA000003C00400034014000500140005401401A
:101FB00010B54FF4005000F05DFA10BD08B5694946
:101FC00088420FD100BF002100916749096841F0A4
:101FD0000101654A11601146096801F00101009193
:101FE00000BFBDE0614988420FD100BF00210091D0
:101FF0005D49096841F002015B4A116011460968B8
:1020000001F00201009100BFAAE0594988420FD1B6
:1020100000BF002100915449096841F00401524A6F
:1020200011601146096801F00401009100BF97E0BA
:10203000504988420FD100BF002100914A490968E8
:1020400041F00801484A11601146096801F0080191
:10205000009100BF84E0484988420FD100BF0021B1
:1020600000914149096841F010013F4A1160114651
:10207000096801F01001009100BF71E03F498842FA
:102080000FD100BF002100913749096841F02001BC
:10209000354A11601146096801F02001009100BF26
:1020A0005EE0374988420FD100BF002100912E49E0
:1020B000096841F040012C4A11601146096801F09D
:1020C0004001009100BF4BE02E4988420FD100BF74
:1020D000002100912449096841F08001224A1160E1
:1020E0001146096801F08001009100BF38E02649DF
:1020F00088420FD100BF002100911B49096841F4BB
:102100008071194A11601146096801F480710091CB
:1021100000BF25E01D4988420FD100BF002100917A
:102120001149096841F400710F4A116011460968AC
:1021300001F40071009100BF12E0154988420FD1EF
:1021400000BF002100910849096841F48061064AF6
:1021500011601146096801F48061009100BF00BF61
:1021600008BD000000000240303802400004024078
:1021700000080240000C024000100240001402401F
:1021800000180240001C02400020024000240240CF
:102190000028024008B53B4988420FD100BF00210A
:1021A00000913949096841F48051374A116011465C
:1021B000096801F48051009100BF62E03349884210
:1021C00011D100BF002100912F49091F096841F476
:1021D00080412D4A121F11601146096801F48041A7
:1021E000009100BF4DE02A49884211D100BF002173
:1021F00000912549091F096841F40041224A121F34
:1022000011601146096801F40041009100BF38E0F7
:10221000204988420FD100BF002100911A49096866
:1022200041F40051184A11601146096801F4005147
:10223000009100BF25E0184988420FD100BF00215E
:1022400000911149096841F480110F4A116011464B
:10225000096801F48011009100BF12E00F49884223
:102260000FD100BF002100910749096841F4001116
:10227000054A11601146096801F40011009100BF80
:1022800000BF08BD00300140443802400038004023
:10229000003C004000340140005001400054014027
:1022A00000BFFEE7014691F83500022803D08020E8
:1022B000486501207047052081F8350008680068EE
:1022C00020F001000A6810600020F3E7F0B50C462A
:1022D00000250022002300219EE0012606FA01F5D8
:1022E00004EA0502AA427CD14D4E8F0856F82730E9
:1022F0008E07370F0F26BE4033404A4EB04201D101
:1023000000262DE0484EB04201D1012628E0474E7C
:10231000B04201D1022623E0454EB04201D103264E
:102320001EE0444EB04201D1042619E0424EB042B4
:1023300001D1052614E0414EB04201D106260FE03E
:102340003F4EB04201D107260AE03E4EB04201D1D5
:10235000082605E03C4EB04201D1092600E00A26DD
:102360008F073F0FBE409E4224D1384E36689643B9
:10237000364F3E603E1D366896433F1D3E60334EED
:102380000C3636689643314F0C373E603E1F366838
:1023900096433F1F3E608E07370F0F2606FA07F35E
:1023A0001F4E8F0856F827609E431D4F4FEA910C31
:1023B00047F82C6006684FEA410C032707FA0CF730
:1023C000BE430660CF0800F1200656F827604F078D
:1023D0004FEAD76C0F2707FA0CF7BE434FEAD10C30
:1023E00000E018E000F1200747F82C60C6684FEACB
:1023F000410C032707FA0CF7BE43C6604768012665
:102400008E40B743476086684FEA410C032707FABE
:102410000CF7BE438660491C1029FFF45EAFF0BD87
:102420000838014000000240000402400008024059
:10243000000C02400010024000140240001802404C
:10244000001C02400020024000240240003C0140E9
:1024500010B50446B4F5005F07D10448006820B900
:10246000022103480068FEF7DBFF10BD60850020F5
:102470005C85002010B5044604480068204020B167
:10248000024804602046FFF7E3FF10BD143C014002
:10249000F8B502460B460025002400200021E0E0AC
:1024A000012606FA01F51E6806EA0504AC4274D15D
:1024B0001E7906F00306012E04D01E7906F00306ED
:1024C000022E13D190684F000326BE40B0434F0048
:1024D000DE68BE4030439060506801268E40B043B5
:1024E0001E79C6F300168E40304350601E7906F008
:1024F0000306032E09D0D0684F000326BE40B04328
:102500004F009E68BE403043D0601E7906F003063F
:10251000022E13D1CF0802F1200656F827004E07ED
:10252000F70E0F26BE40B0434F07FF0E1E69BE4098
:102530003043CF0802F1200646F8270010684F000C
:102540000326BE40B0431E7906F003064F00BE408E
:10255000304310605E6806F44036002E1DD000BF88
:1025600000260096414E366846F480463F4F3E6056
:102570003E46366806F48046009600BF00BF3C4EDB
:102580008F0856F827008E07370F0F26BE40B0433E
:10259000384EB24202D100262EE061E0364EB24201
:1025A00001D1012628E0354EB24201D1022623E0B6
:1025B000334EB24201D103261EE0324EB24201D167
:1025C000042619E0304EB24201D1052614E02F4E08
:1025D000B24201D106260FE02D4EB24201D10726AC
:1025E0000AE02C4EB24201D1082605E02A4EB24242
:1025F00001D1092600E00A268F073F0FBE40304375
:102600001B4E8F0846F82700244E3068A0435E68B2
:1026100006F4801606B12043204E3060361D306827
:10262000A0435E6806F4001606B120431B4E361D1B
:1026300030601A4E361F3068A0435E6806F40036DC
:1026400006B12043154E361F3060361F3068A04358
:102650005E6806F4803606B12043104E083E3060B6
:10266000491C1029FFF41CAFF8BD0000443802409B
:102670000838014000000240000402400008024007
:10268000000C0240001002400014024000180240FA
:10269000001C02400020024000240240083C01408F
:1026A0000AB1816101E00B04836170470148006851
:1026B000000C7047002004E010B5FEF7FDF802287A
:1026C00002D1FEF711F910BD0C480068840B0CE034
:1026D00000BF00BF00BF00BF00BF00BF00BF00BF02
:1026E00000BF00BF00BF00BF641E002CF0D1044833
:1026F0000068401C02490860E5E700007C85002076
:102700005085002010B50A48006840F40070084960
:1027100008600846006840F480600860032000F00C
:1027200037F80F2000F006F800F007F8002010BD81
:10273000003C0240014600207047704710B501463A
:10274000084600280BDB00F01F0301229A40054BCE
:10275000440943F82420BFF34F8FBFF36F8F00BFAE
:1027600010BD000080E100E00146084600280DDBB6
:1027700000BF00BF00F01F0301229A4043099B00E5
:1027800003F1E023C3F8002100BF00BF00BF704782
:1027900000BF00F00702064B19684FF6FF0319400F
:1027A000044B0B4343EA0221014B196000BF704701
:1027B0000CED00E00000FA0570B504460D460CB9BA
:1027C000012070BD5848006800F00F00A84209D2EF
:1027D00055490D700846006800F00F00A84201D06E
:1027E0000120EEE7207800F0020002281DD12078B9
:1027F00000F00400042805D14C48006840F4E05083
:102800004A490860207800F00800082805D14748A8
:10281000006840F46040454908604448006820F082
:10282000F000A168084341490860207800F00100E9
:10283000A8B36068012807D13C4808380068C0F395
:102840004040B8B90120BCE76068022802D0606847
:10285000032807D1354808380068C0F3406048B9FC
:102860000120AEE7314808380068C0F3400008B9DD
:102870000120A6E72D48006820F0030061680843A6
:102880002A490860FFF718FF064609E0FFF714FF22
:10289000801B41F28831884202D9032091E707E08A
:1028A0002248006800F00C006168B0EB810FEDD1A8
:1028B0001D48006800F00F00A84209D91A490D70A0
:1028C0000846006800F00F00A84201D0012078E718
:1028D000207800F00400042807D11448006820F490
:1028E000E050E168084311490860207800F00800D2
:1028F000082808D10D48006820F46040216940EAAA
:10290000C1000A49086000F061F808490968C1F38C
:102910000311074A515CC840064908600648006830
:10292000FFF708FF00204CE7003C02400838024057
:10293000784A00087C850020748500200F22026000
:102940000D4A126802F0030242600B4A126802F05C
:10295000F0028260084A126802F4E052C260064A3D
:10296000126802F46042D2080261044A126802F05E
:102970000F020A607047000008380240003C024025
:1029800001480068704700007C85002000B5FFF713
:10299000F7FF04490968C1F38221034A515CC8402A
:1029A00000BD000008380240884A000800B5FFF763
:1029B000E7FF04490968C1F34231034A515CC8404A
:1029C00000BD000008380240884A00082DE9F047A1
:1029D000002400250026A1462548006800F00C00D0
:1029E00020B1042805D008283AD105E0DFF884900A
:1029F00039E0DFF8849036E01D48001F006800F0E1
:102A00003F041B48001F006800F4800078B11A489A
:102A10001749091F0968C1F38811A0FB017001461D
:102A2000224600233846FDF7B9FC05460EE0114862
:102A30000F49091F0968C1F38811A0FB0170014605
:102A4000224600233846FDF7A9FC05460848001F2A
:102A50000068C0F30140401C4600B5FBF6F902E0F7
:102A6000DFF8109000BF00BF4846BDE8F0870000C7
:102A7000083802400024F40000127A00F8B5044639
:102A80000CB90120F8BD207800F00100002874D0B6
:102A9000F948006800F00C0004280DD0F6480068E2
:102AA00000F00C00082813D1F348001F006800F460
:102AB0008000B0F5800F0BD1EF4808380068C0F3F4
:102AC0004040002859D06068002856D10120D9E73D
:102AD00000BF6068B0F5803F08D1E748083800685B
:102AE00040F48030E449083908601EE06068B0F5C1
:102AF000A02F0DD1E0480838006840F48020DE495E
:102B0000083908600846006840F4803008600CE02E
:102B1000D9480838006820F48030D749083908605F
:102B20000846006820F48020086000BF606890B10B
:102B3000FFF7C2FD054606E0FFF7BEFD401B642817
:102B400001D903209EE7CC4808380068C0F3404014
:102B50000028F1D011E0FFF7AFFD054606E0FFF7D2
:102B6000ABFD401B642801D903208BE7C24808381D
:102B70000068C0F340400028F1D1207800F0020046
:102B800002285FD1BC48006800F00C0058B1BA4878
:102B9000006800F00C0008281CD1B748001F00682E
:102BA00000F48000B0B9B44808380068C0F34000B1
:102BB00020B1E068012801D0012063E7AE48083861
:102BC000006820F0F800216940EAC100AA490839EC
:102BD000086037E0E06800B30120A8490860FFF70B
:102BE0006BFD054606E0FFF767FD401B022801D993
:102BF000032047E7A04808380068C0F340000028D9
:102C0000F1D09D480838006820F0F800216940EABA
:102C1000C10099490839086014E00020974908600C
:102C2000FFF74AFD054606E0FFF746FD401B022878
:102C300001D9032026E7904808380068C0F3400017
:102C40000028F1D1207800F0080008282CD1606914
:102C5000A8B101208A490860FFF72EFD054606E06D
:102C6000FFF72AFD401B022801D903200AE782480A
:102C70006C300068C0F340000028F1D014E0002060
:102C80007F490860FFF718FD054606E0FFF714FDD1
:102C9000401B022801D90320F4E677486C30006815
:102CA000C0F340000028F1D1207800F0040004288F
:102CB00070D1002770483830006800F0805090B91B
:102CC00000BF002000906C483830006840F0805011
:102CD0006949383108600846006800F0805000906B
:102CE00000BF00BF01276748006800F48070B0B9DA
:102CF0006448006840F4807062490860FFF7DCFCBB
:102D0000054606E0FFF7D8FC401B022801D9032046
:102D1000B8E65C48006800F480700028F2D000BF7C
:102D2000A068012808D154486830006840F00100CC
:102D30005149683108601DE0A06805280DD14E4852
:102D40006830006840F004004B496831086008466C
:102D5000006840F0010008600CE0474868300068F7
:102D600020F001004449683108600846006820F0FE
:102D70000400086000BFA068A8B1FFF79DFC0546ED
:102D800009E0FFF799FC401B41F28831884202D9E3
:102D9000032077E626E0384868300068C0F340003A
:102DA0000028EED013E0FFF787FC054608E0FFF7A8
:102DB00083FC401B41F28831884201D9032061E63F
:102DC0002D4868300068C0F340000028EFD1012F83
:102DD00007D129483830006820F080502649383122
:102DE000086000BFA069002845D02348006800F0B3
:102DF0000C0008285DD0A069022845D100201F4999
:102E00000866FFF759FC054606E0FFF755FC401B36
:102E1000022801D9032035E6174808380068C0F3B6
:102E200040600028F1D1D4E907010843616A40EA13
:102E300081110122A06AC2EB500041EA00412C201E
:102E4000005D41EA00600C49091F086001200B4940
:102E50000866FFF731FC054606E0FFF72DFC401B36
:102E6000022801D903200DE6034808380068C0F3A2
:102E700040600028F1D049E0083802400000474295
:102E8000800E474200700040002021490866FFF78D
:102E900013FC054606E0FFF70FFC401B022801D992
:102EA0000320EFE51B480068C0F340600028F2D122
:102EB0002CE0A069012800D1E4E51648001D066851
:102EC000A069012820D006F48001E06981421BD16D
:102ED00006F03F01206A814216D147F6C0703040AB
:102EE000616AB0EB811F0FD106F440310122A06A64
:102EF000C2EB5000B1EB004F06D106F070612C2000
:102F0000005DB1EB006F01D00120BBE50020B9E509
:102F100000004742003802407047704710B5044631
:102F2000022084F83D0000BF2068006A41F21111C0
:102F3000084050B92068006A8910084028B9206804
:102F4000006820F001002168086000BF204600F002
:102F500054F8002084F8460000BF84F83E000021A9
:102F60003F200155402001554120015500BF00BFC1
:102F7000002084F84200432001554420015545209B
:102F8000015500BF002084F83D0000BF84F83C00DC
:102F900000BF10BD10B504460CB9012010BD94F857
:102FA0003D0028B9002084F83C00204600F026F8B7
:102FB000022084F83D00211D206801F079F90120EC
:102FC00084F8460000BF84F83E0001213F200155EF
:102FD000402001554120015500BF00BF012084F869
:102FE000420043200155442001554520015500BFB2
:102FF000012084F83D000020D0E7704770470000B2
:10300000014691F83D00012801D0012070470220BF
:1030100081F83D001A4B086898421BD00868B0F14F
:10302000804F17D0174B0868984213D0164B08688A
:1030300098420FD0154B086898420BD0144B086883
:10304000984207D0134B0868984203D0124B086887
:1030500098420CD10868806800F00702062A0CD05C
:103060000868006840F001000B68186005E0086817
:10307000006840F001000B6818600020C6E70000FF
:10308000000001400004004000080040000C004027
:10309000000401400040014000180040014691F842
:1030A0003D00012801D001207047022081F83D0039
:1030B0000868C06840F001000B68D8601A4B0868C7
:1030C00098421BD00868B0F1804F17D0174B0868A2
:1030D000984213D0164B086898420FD0154B0868D9
:1030E00098420BD0144B0868984207D0134B0868DD
:1030F000984203D0124B086898420CD10868806847
:1031000000F00702062A0CD00868006840F00100B1
:103110000B68186005E00868006840F001000B6863
:1031200018600020C0E700000000014000040040DB
:1031300000080040000C0040000401400040014035
:1031400000180040014600BF0868006A41F21112F1
:10315000104050B90868006A9210104028B90868F9
:10316000006820F001000A68106000BF012081F8AB
:103170003D0000207047704710B504462068006984
:10318000C0F34000D8B12068C068C0F34000B0B1BF
:103190006FF00200216808610120207720688069B3
:1031A00000F0030018B12046FFF7E5FF05E02046D8
:1031B00000F0ADF8204600F0ABF800202077206842
:1031C0000069C0F38000D8B12068C068C0F38000F7
:1031D000B0B16FF0040021680861022020772068F8
:1031E000806900F4407018B12046FFF7C4FF05E085
:1031F000204600F08CF8204600F08AF80020207766
:1032000020680069C0F3C000D8B12068C068C0F36E
:10321000C000B0B16FF00800216808610420207779
:103220002068C06900F0030018B12046FFF7A3FF33
:1032300005E0204600F06BF8204600F069F8002019
:10324000207720680069C0F30010D8B12068C068FA
:10325000C0F30010B0B16FF01000216808610820C1
:1032600020772068C06900F4407018B12046FFF74D
:1032700082FF05E0204600F04AF8204600F048F8BA
:10328000002020772068006900F0010058B1206814
:10329000C06800F0010030B16FF0010021680861E2
:1032A000204600F037F820680069C0F3C01058B11C
:1032B0002068C068C0F3C01030B16FF08000216892
:1032C00008612046FFF728FE20680069C0F38010DF
:1032D00058B12068C068C0F3801030B16FF0400072
:1032E00021680861204600F025F820680069C0F3D5
:1032F000401058B12068C068C0F3401030B16FF082
:103300002000216808612046FFF707FE10BD7047C6
:103310007047000010B5044604492068884204D173
:10332000042103480068FEF77BF810BD0008004048
:103330005C850020704700BFFEE700BFFEE77047D6
:1033400070B504460D46034A2946204600F06CF845
:1033500070BD0000204A000810B5024800F053FB81
:1033600010BD0000204A000808B5024800F04FFBDD
:10337000009008BD204A000810B5024800F05DFB2F
:1033800010BD0000204A000810B50446024920463E
:1033900000F0DCFB10BD0000204A000810B5044618
:1033A0000249204600F0CEFC10BD0000204A000873
:1033B00070B504460D46034A2946204600F048FDF4
:1033C00070BD0000204A000870B504460D46034A4F
:1033D0002946204600F0B2FD70BD0000204A0008DA
:1033E00070B504460D461646034B32462946204624
:1033F00000F0EEFD70BD0000204A000810B5024844
:1034000000F051FE10BD0000204A0008014800688D
:1034100070470000FC49000808B5024800680090A9
:1034200008BD0000F84900082DE9F04F87B080463C
:103430008946144600250026002700200690606A71
:10344000007A00F0020018B9681E07B0BDE8F08FDE
:1034500008F0FF00142871D1206A48B12068406844
:1034600020F0020021684860216A0868FEF71AFF10
:10347000E06950B12068406820F001002168486090
:10348000E1690868FEF70EFF05E02068406820F05B
:1034900040002168486020680768206840680690FE
:1034A0004FF0000B07E02068806800F0010000B1D9
:1034B00005E00BF1010B42F210708345F3D300BF1E
:1034C0004FF0000B07E02068806800F0020000B1B8
:1034D00005E00BF1010B42F210708345F3D300BFFE
:1034E0004FF0000B07E02068806800F0800000B912
:1034F00005E00BF1010B42F210708345F3D300BFDE
:103500002068006820F0400021680860206800F012
:1035100087FB069840F040002168486027F0400093
:10352000216808601C21A06AFDF716F80020616A76
:10353000087120680760002087E7FFE7606A00796C
:1035400010B16FF0010080E708F0FF0004282BD0D5
:1035500007DC78B101281CD002281FD003287CD1B9
:103560001FE0102823D0112850D0122857D013283C
:10357000F5D159E000BF2068006820F040002168C4
:103580000860606918B1626903CAFEF79FFE0020F7
:103590005BE745F0010547F0040791E045F00205BF
:1035A0008EE06FF0060050E76FF006004DE76068B0
:1035B00080478246002606E0701C2AFA00F0484543
:1035C00000D802E0761C082EF6D300BF082E04D0E7
:1035D000701C2AFA00F0484502D94FF0FF3034E75A
:1035E0002068006820F040002168086020680068BA
:1035F00020F0380040EAC6002168086020680068B2
:1036000040F040002168086000201EE760688047A5
:1036100021680968C1F3C201491CC84015E7A16AC5
:10362000A1F81890002010E7606A067B012E23D1D4
:10363000606AC06800F4C0166069C0B1B6F5002FBA
:1036400015D1B9F1000F09D16269928891B262690E
:1036500010680122FFF724F80CE02EE062699288DE
:1036600091B2626910680022FFF71AF802E04FF089
:10367000FF30EAE60020E8E6022E1BD1606AC0684F
:1036800000F40016B6F5001F11D1B9F1010F06D1F3
:103690002068006820F480702168086005E02068D8
:1036A000006840F48070216808600020CDE64FF08B
:1036B000FF30CAE64FF0FF30C7E66FF00300C4E604
:1036C00000BF08F4E060B0F5407F4CD007DC68B183
:1036D000B0F5807F1DD0B0F5007F74D12EE0B0F53D
:1036E000806F55D0B0F5A06F6DD169E0206940685A
:1036F0000190022002902069407B0490206980683C
:103700000590022003902169086801A9FEF7C0FE18
:103710005CE047F0010720694068019002200290B8
:103720002069407B04902069806805900220039006
:103730002169086801A9FEF7ABFE47E047F00207E0
:10374000206940680190022002902069407B04902B
:10375000206980680590012003902169086801A90B
:10376000FEF796FE32E047F00307206940680190BB
:10377000022002902069407B0490206980680590B7
:10378000012003902169086801A9FEF781FE1DE070
:10379000069840F0100006902069406801900220D1
:1037A00002902069407B0490206980680590022087
:1037B00003902169086801A9FEF76AFE06E002E0AD
:1037C0006FF0070041E66FF007003EE600BF08F427
:1037D0007C30B0F5004F03D0B0F5803F04D100E05D
:1037E00005E047F4006702E06FF008002DE600BF37
:1037F00008F48020B0F5802F01D147F08007012D1B
:103800007DD108F4C01048B1B0F5002F30D0B0F52C
:10381000801F54D0B0F5C01F77D109E0606918B19E
:10382000626903CAFEF752FD47F4407700BF6FE0BC
:103830006069B8B161690868FEF7C0FB60694068FB
:103840000190022002906069007B03906069407BD8
:1038500004906069806805906169086801A9FEF7B5
:1038600017FE02E06FF00A00EFE545F4C0154FE0E7
:10387000606900B361690868FEF7A0FB6069406891
:103880000190012002906069007B03906069407B99
:1038900004906169086801A9FEF7FAFD62699288DF
:1038A00091B2626910680122FEF7FAFE47F4407790
:1038B00045F4002502E06FF00A00C6E528E06069E3
:1038C000F8B161690868FEF779FB606940680190AA
:1038D000022002906069007B03906069407B049045
:1038E0006069806805906169086801A9FEF7D0FDEC
:1038F000069840F00400069045F4801504E008E0C6
:1039000003E06FF00A00A0E502E06FF00A009CE51A
:1039100000BF022D33D108F4001018B1B0F5001F1C
:1039200029D11DE06069B8B161690868FEF746FBFE
:10393000606940680190022002906069007B0390FA
:103940006069407B049060698068059061690868DF
:1039500001A9FEF79DFD02E06FF00A0075E50DE09C
:10396000606918B1626903CAFEF7B0FC47F440779A
:1039700045F4001502E06FF00A0066E500BF05F0AF
:103980000100D0B1606880478246002606E0701CC6
:103990002AFA00F0484500D802E0761C082EF6D33B
:1039A00000BF082E04D0701C2AFA00F0484502D946
:1039B0004FF0FF3049E547EAC607606AC5602068F6
:1039C000006820F0400021680860069840F0600020
:1039D0002168486020680760E8B230B9606A806892
:1039E00020F00400616A886005E0606A806840F049
:1039F0000400616A88602068006840F04000216827
:103A00000860002021E50146886AC068704708B553
:103A10000146486A0279009862F300000090486A03
:103A20004279009862F341000090486A82790098D8
:103A300062F382000090009808BD2DE9F041044631
:103A400000252068866806F06800002855D006F03A
:103A5000400000283CD02068006800F4006098B95D
:103A6000206890F80C80A06AC068A16A0968884242
:103A700022D2A06A4068F8B1A06A4168481CA26AD4
:103A8000506081F8008017E020688789A06AC068CC
:103A9000A16A096888420FD2A06A406860B1A06A32
:103AA0004268501CA36A586017703912A06A4268B5
:103AB000501CA36A58601170A06AC068401CA16ABB
:103AC000C860206886680121606A417145F002057E
:103AD00006F0080020B10121606A417145F002053D
:103AE00006F0200040B30121606A817120680068FF
:103AF0002168086045F004051EE006F00100D8B119
:103B00002068406800F04000B0B1A16A206800F071
:103B1000E9F905462DB9A16A206800F09AFA054630
:103B200004E0012D02D10020616A087105F0020055
:103B300010B10121606A417135B1606A006818B145
:103B4000606A016828468847BDE8F08130B585B0D5
:103B500005460C46606A007A00F0010010B10020B2
:103B600005B030BD606A05600020616A08710021FF
:103B7000606A4171606A81711C21A06AFCF7ECFCEB
:103B80002069B0B121690868FEF718FA2069406819
:103B90000090022001902069007B02902069407B08
:103BA0000390206980680490216908686946FEF7DF
:103BB0006FFCA068B0B1A1680868FEF7FFF9A068C3
:103BC0004068009002200190A068007B0290A068ED
:103BD000407B0390A06880680490A16808686946EB
:103BE000FEF756FCE068B0B1E1680868FEF7E6F958
:103BF000E0684068009002200190E068007B02903D
:103C0000E068407B0390E06880680490E1680868A1
:103C10006946FEF73DFC0120616A886000209FE74D
:103C20004149884206D14149096841F480513F4ADF
:103C3000116034E03E49884208D13C49091F0968B7
:103C400041F48041394A121F116028E03949884205
:103C500008D13649091F096841F40041334A121F4F
:103C600011601CE03449884206D13049096841F4AA
:103C700000512E4A116012E03049884206D12B498A
:103C8000096841F48011294A116008E02C498842F2
:103C900005D12649096841F40011244A116000BF8A
:103CA00000BF00BF00BF2049884206D11F490968F4
:103CB00021F480511D4A116034E01D49884208D129
:103CC0001A49091F096821F48041184A121F11601E
:103CD00028E01849884208D11449091F096821F4CD
:103CE0000041124A121F11601CE01349884206D19C
:103CF0000E49096821F400510C4A116012E00F4985
:103D0000884206D10949096821F48011074A1160E7
:103D100008E00B49884205D10449096821F40011E3
:103D2000024A116070470000003001402438024010
:103D300000380040003C0040003401400050014089
:103D40000054014070B505460C46606A007A00F0E8
:103D5000010010B94FF0FF3070BD35B1022D04D015
:103D6000012D02D06FF00400F6E725B1012D67D0D8
:103D7000022D68D124E0606A007920B1224600213A
:103D80001420FFF751FB2068FFF74AFF94F9180051
:103D9000FEF7D4FC2068FEF7BDF80020616A0871C8
:103DA0000021606A4171606A81711C21A06AFCF780
:103DB000D3FB606A806820F00200616A886042E09C
:103DC000606A007A00F0020008B10020C4E7002019
:103DD000616A08710021606A4171606A81711C2109
:103DE000A06AFCF7B9FB606A806840F00200616A73
:103DF00088602068FEF7CEF994F91800002807DBE8
:103E000000F01F0201219140104A430942F823109B
:103E100000BF94F9180000280DDB00BF00BF00F0C0
:103E20001F02012191404209920002F1E022C2F8F2
:103E3000001100BF00BF00BF2068FFF7F1FE02E0E5
:103E40006FF0030088E700BF002085E780E200E014
:103E500070B505460E46144605B116B96FF004005C
:103E600070BD606A007A00F0040010B94FF0FF30B6
:103E7000F6E7606A007910B16FF00100F0E7E068E2
:103E800018B1606A007B012805D0A06828B1606A7B
:103E9000007B022801D1012000E0002010B94FF082
:103EA000FF30DDE70120616A08710021606A41711D
:103EB000606A8171A06A45600020A16A8860A06A7A
:103EC00006600020A16AC860A16A08612068406895
:103ED00040F0400021684860A16A206800F0B9F80D
:103EE0000020BDE7F0B50246CD680E68B54222D28B
:103EF000156805F400653DB9147B4D6885B14E68C1
:103F0000751C4D6034700BE093894D6845B14F6866
:103F10007D1C4D603B701E124F687D1C4D603E70D5
:103F2000CD686D1CCD60CD680E68B54201D1012011
:103F300003E0002001E0157B0220F0BD70B50546CE
:103F40000E46144605B116B96FF0040070BD606AE4
:103F5000007A00F0040010B94FF0FF30F6E7606A15
:103F6000007910B16FF00100F0E7A06818B1606A45
:103F7000007B012805D0E06828B1606A007B022838
:103F800001D1012000E0002010B94FF0FF30DDE743
:103F90000120616A08710021606A4171606A817163
:103FA0000020A16A4860A06A8560A06A06600020BF
:103FB000A16AC860A16A08612068406840F04000BA
:103FC00021684860A16A206800F043F80020BDE73E
:103FD0002DE9F04105460E4617461C460DB106B1C7
:103FE0001FB96FF00400BDE8F081606A007A00F04C
:103FF000040010B94FF0FF30F5E7606A007910B1A6
:104000006FF00100EFE7E06808B1A06810B94FF069
:10401000FF30E8E70120616A08710021606A4171A0
:10402000606A8171A06A4660A06A8560A06A0760C4
:104030000020A16AC860A16A08612068406840F059
:10404000400021684860A16A206800F002F8002062
:10405000C9E770B502460D690E68B54221D21568F0
:1040600005F400654DB98D6825B18E68751C8D60AD
:10407000347800E00C7E14730EE08D6855B18E68C4
:10408000751C8D6033788E68751C8D60357843EAB9
:10409000052300E00B8B93810D696D1C0D610020E1
:1040A00000E0022070BD10B50446606A007A00F09E
:1040B000020018B121460020FFF744FEA06818B1A5
:1040C000A26803CAFEF702F9E06818B1E26803CA01
:1040D000FEF7FCF8206918B1226903CAFEF7F6F86A
:1040E000606918B1626903CAFEF7F0F8E06918B1B7
:1040F0000020E16909680860206A18B10020216A7F
:10410000096808600020616A886010BD00B593B03E
:1041100000BF002001902A48006840F080502849E4
:1041200008600846006800F08050019000BF00BFA2
:1041300000BF002001902348006840F4404021491E
:1041400008600846006800F44040019000BF00BFCE
:10415000012002900004039002200890410509917B
:1041600004210A91A8210B9102210C9107210D91A4
:1041700002A8FEF783FC08B1FEF792F80F200E901C
:1041800002200F90002010904FF4A05011904FF497
:104190008050129005210EA8FEF70EFB08B1FEF725
:1041A0007FF8FEF783FA41F20101884205D1064803
:1041B000006840F480700449086013B000BD00003E
:1041C0004038024000700040003C024070B50020C2
:1041D0000022022300240221274D2D6805F00C0047
:1041E00020B1042806D0082834D107E0234D244EFE
:1041F000356033E0234D224E35602FE01E4D2D1FDC
:104200002D68C5F380541C4D2D1F2D6805F03F010E
:1042100054B11C4DB5FBF1F5174E361F3668C6F389
:10422000881605FB06F209E0144DB5FBF1F5124EB8
:10423000361F3668C6F3881605FB06F20E4D2D1F95
:104240002D68C5F301456D1C6B00B2FBF3F50C4EF8
:10425000356003E0094D0A4E356000BF00BF064DD2
:104260002D68C5F30315084E705D054D2D68C540DA
:10427000034E356070BD0000083802400024F40091
:104280007C85002000127A00784A00080348006804
:1042900040F47000014908607047000088ED00E0BC
:1042A00010B50248FEF768FF10BD000080860020B0
:1042B00010B50268294B98420ED0B0F1804F0BD058
:1042C000274B984208D0274B984205D0264B98425E
:1042D00002D0264B984203D122F070024B681A4359
:1042E0001E4B984220D0B0F1804F1DD01C4B9842FD
:1042F0001AD01C4B984217D01B4B984214D01B4B22
:10430000984211D01A4B98420ED01A4B98420BD0BB
:10431000194B984208D0194B984205D0184B984237
:1043200002D0184B984203D122F44072CB681A4352
:1043300022F080034C6943EA040202608B68C36286
:104340000B688362054B984202D0084B984201D11A
:104350000B6903630123436110BD000000000140AD
:104360000004004000080040000C00400004014030
:104370000040014000440140004801400018004056
:10438000001C00400020004000BFFEE710B50446BE
:1043900000F054FA20B14FF0FF312068FCF758FBD1
:1043A00010BD10B504462068FCF764FB10BD70B565
:1043B00004460020FCF770FB2060206808B101254E
:1043C00004E0002521460520FCF78AFB284670BD45
:1043D00010B5044600F032FA10B12068FCF76EFB0D
:1043E00010BD10B5FCF794FA10BD000010B50446DE
:1043F0000349096808680121FDF712F810BD0000A3
:104400005885002038B5044600BF002000901A48A7
:10441000006840F02000184908600846006800F075
:104420002000009000BF00BF1448154908605320C9
:104430004860601EC8600846FEF7ACFD1048FEF7F5
:10444000DFFD00BF0E480068006900F00100002891
:10445000F8D06FF001000A49096808610848FEF7C2
:1044600071FE0748FEF75AFD0348006820F020005F
:104470000149086038BD0000403802400014004087
:104480002486002030B50022002109E00023154CCD
:1044900063540024134D01F18003EC544B1C99B27A
:1044A0008142F3DB81B209E0FF230E4C63540F24F9
:1044B0000C4D01F18003EC544B1C99B200F1080340
:1044C0009942F1DB99B209E00023064C63540024C1
:1044D000044D01F18003EC544B1C99B28029F3DBAD
:1044E00030BD0000C886002010B580240C4800882C
:1044F000FFF7C8FF0B4800F067F9C820FCF7CAF9BE
:1045000007480088401C064908800888C11700EB4E
:104510005161C911A0EBC111014A118010BD000009
:104520006A850020C886002010B5FDF7C3FC00F0A6
:1045300001F810BD10B5002211460648FCF7AEFF89
:10454000054908600846006810B94FF0FF3010BDFB
:104550000020FCE75D4800085C85002070B58026DF
:104560000024002500BF0DE0E0B200F0D3F8E50123
:1045700003E0002000F004F96D1C601CC001A8429B
:10458000F7DC641C042CEFDB70BD000010B50446A2
:104590001548046000F02AF8AE2000F0CBF8A22005
:1045A00000F0C8F8A02000F0C5F8C82000F0C2F85C
:1045B000222000F0BFF82F2000F0BCF8402000F0CF
:1045C000B9F8AF2000F0B6F8812000F0B3F817205A
:1045D00000F0B0F8A42000F0ADF8A62000F0AAF892
:1045E000FFF7BCFF10BD00005885002008B500BFD4
:1045F000002000903F48006840F008003D490860F6
:104600000846006800F00800009000BF00BF0120CD
:104610003949486088600220C86040030860374814
:10462000FDF736FF012291033448FEF739F800BF49
:10463000002000902F48006840F020002D490860BD
:104640000846006800F02000009000BF00BF012075
:104650002949486088600220C86000030860284833
:10466000FDF716FF012251032548FEF719F800BF98
:10467000002000901F48006840F001001D490860BC
:104680000846006800F00100009000BF00BF012054
:104690001949486088600220C860402008601948B5
:1046A000FDF7F6FE012240211648FDF7F9FF1648F6
:1046B000006881681548884713480068016902202E
:1046C0008847114800681249426A48F20130904711
:1046D000002240210B48FDF7E3FF0120FFF792FE87
:1046E000012240210748FDF7DBFF4FF47A70FFF706
:1046F00089FE08BD303802406C860020000C024064
:10470000001402400000024054850020ED430008E0
:10471000002D310110B50446002000F00BF81020E8
:1047200000F008F804F0030141F0B00000F002F8D6
:1047300010BD000001B500224FF480410D48FDF787
:10474000AFFF00224FF400510B48FDF7A9FF0B48C3
:10475000006801214269684690474FF0FF3201210D
:104760000846FCF789FE012291030248FDF798FFF5
:1047700008BD0000000C02400014024054850020D7
:1047800001B500224FF480410C48FDF789FF01225A
:1047900051030B48FDF784FF0A4800680121426974
:1047A000684690474FF0FF3201210846FCF764FE4F
:1047B000012291030148FDF773FF08BD000C024080
:1047C00000140240548500202DE9F0410646802760
:1047D0000024002500BF0DE0E0B2FFF79BFFE501DC
:1047E00003E0705DFFF7CCFF6D1C601CC001A842A8
:1047F000F7DC641C042CEFDBBDE8F081FDF782FFE1
:10480000FFF784FCFFF7E2FCFCF782F8FFF78CFE71
:10481000FCF794F800BFFEE7062809D2DFE800F0B5
:1048200008030405060704E003E002E001E000E0FD
:1048300000BF00BF00BFFEE700BFFEE710B506489F
:10484000007830B9FCF738F8012802DD0120024970
:1048500008700148007810BD6C8500200C48FFF7F7
:1048600095FE41F288314FF47A7000F015F84FF45C
:1048700000710848FBF770FE00BF0620FCF7ACFD96
:1048800004E0FCF7BBFDFFF72FFE00BFF9E70000D7
:104890005C850020C886002038B504460D462B46AE
:1048A00022460F490F4800F021F81E20FDF75CFF5B
:1048B00000BF002000900C48006840F004000A4946
:1048C00008600846006800F00400009000BF00BFC8
:1048D0000448FEF75FFB0348FEF7E0FB38BD00002D
:1048E0000008004080860020403802402DE9F04753
:1048F00086B006460C46924698463460694601A842
:10490000FEF71CF81A4884420BD01A48844208D09B
:104910001948844205D01948844202D0184884427C
:1049200006D1FEF743F80546059838B16D0005E05D
:10493000FEF72CF80546049800B16D00B5FBFAF7B8
:104940004FF0000908E07F084FF6FF7000EA4808C2
:1049500009F102001FFA80F9B7F5803FF3D2781E03
:104960007060A8F10100F060484606B0BDE8F0872D
:1049700000000140000401400040014000440140AB
:10498000004801404FF04070E1EE100A704700000F
:104990000000000000000000C4800020440000006F
:1049A0005081002000020000010000000000000013
:1049B000000000000000000000000000088100204E
:1049C0004400000050830020000200002800000086
:1049D00000000000000000000000000000000000D7
:1049E000408000203400000074800020500000004F
:1049F000384B000800000000030212020A00000009
:104A000000000240800000000500000000020000DD
:104A1000000002402000000005000000000200002D
:104A200000300140AD290008004A000800000000E5
:104A3000104A0008000000002300000000000000F1
:104A400000000000C8880020D88800201934000821
:104A50000D34000889330008FD3300089D33000839
:104A6000C9330008B1330008E133000859330008A6
:104A70004133000869330008000000000000000016
:104A800001020304060708090000000001020304F4
:104A900001000000E8030000050000000080002085
:104AA00010000000000000000000000000000000F6
:104AB00000000000000000000000000000000020D6
:104AC0000080000000000000000000000000000066
:104AD00000000000000000000000000000000000D6
:104AE00000000000000C000090490008B4490008D4
:104AF0003D1300081D130008D849000804000000F9
:104B0000C48000204C810020000000000000000054
:104B10000000000000000000000000000000000095
:104B20000000000000000000000000000000000085
:104B30004080002074800020000000005254582063
:104B400056352E352E340000684B0008000000203A
:104B500024860000E80100088C4C00082486002010
:104B6000340900004402000801FF01FF01FF01FFBA
:104B700001FF01FF01FF01FF01FF01FF01FF01FF35
:104B800001FF01FF01FF01FF01FF01FF01FF01FF25
:104B900001FF01FF01FF01FF01FF01FF01FF01FF15
:104BA00001FF01FF01FF01FF01FF01FF01FF01FF05
:104BB00001FF01FF01FF01FF01FF01FF01FF01FFF5
:104BC00001FF01FF01FF01FF01FF01FF01FF01FFE5
:104BD00001FF01FF01FF01FF01FF01FF01FF01FFD5
:104BE00001FF01FF01FF01FF01FF01FF01FF01FFC5
:104BF00001FF01FF01FF01FF01FF01FF01FF01FFB5
:104C000001FF01FF01FF01FF01FF01FF01FF01FFA4
:104C100001FF01FF01FF01FF01FF01FF01FF01FF94
:104C200001FF01FF01FF01FF01FF01FF01FF01FF84
:104C300001FF01FF01FF01FF01FF01FF01FF01FF74
:104C400001FF01FF01FF01FF01FF01FF01FF01FF64
:104C500001FF01FF01FF01FF01FF01FF01FF01FF54
:104C600001FF01FF01FF01FF01FF01FF01FF01FF44
:104C700001FF01D9134C4A021C08321042011324CF
:0C4C8000F4133C4B069C08D4B3FB02006C
:04000005080001AD41
:00000001FF
