:020000040800F2
:10000000B08F00209D0200085B36000853360008C0
:10001000573600087923000809470008000000004F
:10002000000000000000000000000000DD020008E9
:100030007D23000800000000770300088703000804
:10004000B7020008B7020008B7020008B7020008AC
:10005000B7020008B7020008B7020008B70200089C
:10006000B7020008B7020008B7020008B70200088C
:10007000B7020008B7020008B7020008B70200087C
:10008000B7020008B7020008B7020008B70200086C
:10009000B7020008B7020008B7020008B70200085C
:1000A000B7020008B7020008B7020008B70200084C
:1000B000B7020008B702000821460008B70200088E
:1000C000B7020008B7020008B7020008953600081A
:1000D000B7020008B7020008B7020008B70200081C
:1000E0001D240008B7020008B7020008B702000884
:1000F000B7020008B7020008B7020008B7020008FC
:10010000B7020008B7020008B7020008B7020008EB
:10011000B7020008B7020008B7020008B7020008DB
:10012000B7020008B7020008B7020008B7020008CB
:10013000B7020008B7020008B7020008B7020008BB
:10014000B7020008B7020008B7020008B7020008AB
:10015000B7020008B7020008B7020008B70200089B
:10016000B7020008B7020008B7020008B70200088B
:10017000B7020008B7020008B7020008000000003C
:10018000B7020008B7020008B7020008B70200086B
:10019000B7020008B7020008B7020008B70200085B
:1001A000B7020008B7020008B702000800F002F822
:1001B00000F061F80AA090E8000C82448344AAF1A0
:1001C0000107DA4501D100F056F8AFF2090EBAE89E
:1001D0000F0013F0010F18BFFB1A43F0010318477B
:1001E00060600000806000000A444FF0000C10F8CE
:1001F000013B13F0070408BF10F8014B1D1108BFA5
:1002000010F8015B641E05D010F8016B641E01F844
:10021000016BF9D113F0080F1EBF10F8014BAD1C94
:100220000C1B09D16D1E58BF01F801CBFAD505E0B2
:1002300014F8016B01F8016B6D1EF9D59142D6D30C
:10024000704700000023002400250026103A28BF34
:1002500078C1FBD8520728BF30C148BF0B60704738
:10026000752900F03381002070471FB502F04CF86B
:100270001FBD10B510BD00F06AFB114603B404F0B9
:1002800077FA03BCFFF7F1FF04F060FE00F084FB97
:1002900003B4FFF7EEFF03BC00F08CFB0948804776
:1002A00009480047FEE7FEE7FEE7FEE7FEE7FEE758
:1002B000FEE7FEE7FEE7FEE704480549054A064B70
:1002C000704700000D460008AD010008B08900200D
:1002D000B08F0020B08B0020B08B00201EF0040FE8
:1002E0000CBFEFF30880EFF30980816911F8021C5D
:1002F000002932D101B590E80F10E047BDE8005069
:10030000CCF80000244B93E80600914208BF7047E8
:100310001A6041B91EF0100F10D1204B186820F060
:10032000010018600AE02CE9F00F1EF0100F08BF62
:100330002CED108A81F822E0C1F838C0906B92F859
:10034000221061F0FF0E1EF0100F08BFB0EC108AF3
:10035000B0E8F00F80F309887047114A136899429A
:10036000FAD801B552F821C00FC8E047BDE80050E7
:10037000CCF80000704701B500F0EAFEBDE801408E
:10038000EFF3098CBEE701B501F040F9BDE801408B
:10039000EFF3098CB6E700BFA885002034EF00E03A
:1003A000D860000853EA020C00F069802DE9F04B98
:1003B0004FF00006002B1FBFB3FA83F503FA05F4D4
:1003C00024FA05F65E4012BF1643B2FA82F502FA2D
:1003D00005F4C5F120051EBF22FA05FC44EA0C0411
:1003E000203556EA044C4FEA144418BF641C4FF001
:1003F00000084FF00009904271EB030C39D300293B
:1004000019BFB1FA81F701FA07F6B0FA80F700FADE
:1004100007F6C7F120071EBF20FA07FC46EA0C06C4
:100420002037B6FBF4FCA7EB0507103F07F01F0BC6
:10043000CBF120060CFA0BFB2CFA06F644BFB346B0
:100440000026202FA4BF5E464FF0000B5BEA060C8F
:1004500008BF4FF0010B19EB0B09ABFB027C48EB1B
:100460000608C01B06FB02CC0BFB03CC71EB0C0196
:10047000C1E70B46024641464846BDE8F08B13B53E
:100480004FF000004FF00001AFF30080BDE81C40CA
:10049000704700000FB47CB50C0009AA009001D091
:1004A0002044401E084B7B4469460190089800F0A8
:1004B0002EFA05461CB10020694600F03BFA28469A
:1004C0007CBC5DF814FB0000950400002DE9F041B0
:1004D0000646002410687529314616A510D0AFF3E2
:1004E0000080002802DA404213A507E031688A073D
:1004F00001D512A502E0490704D511A5012401E0A8
:10050000AFF3008000210A2206F1240709E0B0FBC6
:10051000F2FCB0FBF2F302FB1C00303078541846BA
:10052000491C0028F3D123462A463046BDE8F04155
:1005300000F08FB9000000002D0000002B0000002B
:10054000200000002DE9F05F894604464FF0000AC4
:10055000DFF874B1FB44C0F820A02046E16888476A
:10056000002874D0252806D0D4E901219047206ABC
:10057000401C2062F1E700265F462046E16888477C
:100580002028054607DB312D05D2781910F8200CFC
:1005900008B10643F1E7B00701D526F00406C4F818
:1005A0001CA00027C4F818A02A2D09D0284604F062
:1005B000ADF838B304EB8708303DC8F8185019E09F
:1005C00059F8041B204604EB87029161E1688847D3
:1005D000012F054618D1E069002820DA26F0200610
:1005E0001DE0D8F8180000EB800005EB4000303823
:1005F000C8F818002046E1688847054604F086F8E8
:100600000028EED1012F0AD02E2D08D12046E16816
:1006100088477F1C0546022F46F02006C4DBA069F0
:10062000002803DA404246F00106A061F00701D03D
:1006300026F010066C2D0BD0682D09D04C2D39D02A
:100640006A2D35D0742D35D07A2D33D016E038E0B0
:10065000E1682F4620468847B842054609D16C2FED
:1006600026D04FF48060E16806432046884705465F
:1006700004E06C2F1AD04FF4807006430DB3A5F13F
:100680004100192802D8203546F400664A4629461A
:10069000204626604E46FFF7E3FD80B101280BD0CF
:1006A000F61D26F0070000F1080956E74020E4E7B0
:1006B0008020D8E70020D6E706F104094DE7284658
:1006C00052E7206ABDE8F09F1C5C0000032A40F25C
:1006D000308010F0030C00F0158011F8013BBCF1E4
:1006E000020F624498BF11F801CB00F8013B38BFFC
:1006F00011F8013BA2F1040298BF00F801CB38BF0A
:1007000000F8013B11F0030300F02580083AC0F027
:10071000088051F8043B083A51F804CBA0E80810CF
:10072000F5E7121D5CBF51F8043B40F8043BAFF302
:100730000080D20724BF11F8013B11F801CB48BF5C
:1007400011F8012B24BF00F8013B00F801CB48BF92
:1007500000F8012B704710B5203AC0F00B80B1E8CB
:100760001850203AA0E81850B1E81850A0E81850E6
:10077000BFF4F5AF5FEA027C24BFB1E81850A0E8EF
:10078000185044BF18C918C0BDE810405FEA827C09
:1007900024BF51F8043B40F8043B08BF7047D20720
:1007A00028BF31F8023B48BF11F8012B28BF20F8C1
:1007B000023B48BF00F8012B70474FF000020429AC
:1007C000C0F0128010F0030C00F01B80CCF1040C80
:1007D000BCF1020F18BF00F8012BA8BF20F8022BB4
:1007E000A1EB0C0100F00DB85FEAC17C24BF00F85A
:1007F000012B00F8012B48BF00F8012B70474FF088
:10080000000200B5134694469646203922BFA0E860
:100810000C50A0E80C50B1F12001BFF4F7AF09076C
:1008200028BFA0E80C5048BF0CC05DF804EB89005D
:1008300028BF40F8042B08BF704748BF20F8022BA0
:1008400011F0804F18BF00F8012B704770477047B8
:1008500070472DE9F0470D4699469246044600F14F
:1008600024080168880604D5E06921F010012160A0
:1008700000E00120A84201DD471B00E00027A1693C
:100880007A1902EB0900081AA0612078C00602D488
:100890002046AFF30080002608E0D4E901211AF8D1
:1008A00006009047206A401C761C20624E45F4DB0F
:1008B0002078C0060AD52046AFF3008006E0D4E9D0
:1008C000012130209047206A401C2062381EA7F189
:1008D0000107F4DC07E0D4E9012118F8050090478E
:1008E000206A401C2062281EA5F10105F3DC204689
:1008F000AFF300802078000602D50220BDE8F08723
:100900000120FBE701694A1C02610878704700B5C5
:100910008FB0CDE901310021059105497944CDE938
:10092000031011466846FFF70DFE0FB000BD000032
:10093000E5FFFFFF0A6802F8010B0A607047D1E982
:1009400000239A4202D2531C0B6010707047754608
:1009500000F02CF8AE4605006946534620F007002B
:10096000854618B020B5FFF7A7FCBDE820404FF042
:1009700000064FF000074FF000084FF0000B21F089
:100980000701AC46ACE8C009ACE8C009ACE8C00956
:10099000ACE8C0098D46704710B50446AFF300803F
:1009A0002046BDE81040FFF773BC000000487047C8
:1009B0004889002001491820ABBEFEE7260002004E
:1009C000704710B500F1280151E8002F12B9BFF3AC
:1009D0002F8F04E0531E41E8003404B1F4E772B1F4
:1009E0002C300121006850B1821CD2E84F3FC2E890
:1009F000441F04B1F9E71A0602D00830F2E70020DC
:100A000010BD70B5024652F8305F4DB1CC7800236E
:100A10005DB12E46ED78A5420DD275683346F7E7F5
:100A20000023C162C1E901330DE00024C1E90143A3
:100A300000F12C0403E0C1E9016306F10804216020
:100A4000002B18BF1A1D1160283050E8001F4A1CE7
:100A500040E8002303B1F8E770BDD1E9012312B1EA
:100A600093608B6800E0C362191D002B08BF00F182
:100A700030010A607047000001480068704700BFFD
:100A800010E000E007480178012905D106494FF040
:100A900080620A60002101700448016841F0010190
:100AA00001607047A889002004ED00E010E000E03C
:100AB0004FF0FF307047000040B10B490968B1FBAF
:100AC000F0F0411E0020B0EB116F02D04FF0FF306C
:100AD0007047064AFF231370054A062313605160CE
:100AE00004490870906070479085002023ED00E075
:100AF00010E000E0A88900202168D4E90223204604
:100B000000F059BA6FF00500704700210022064638
:100B1000002700F063BD6FF0050070476FF0030021
:100B200010BD204600F0B1BC10B5930712D400F1FF
:100B30002803D00715D153E8000F084203D1BFF3B3
:100B40002F8F002005E020EA010243E8002404B1D1
:100B5000F1E710BD806AD20700EA010312D1A3B900
:100B600012E053E8000F00EA01028A4203D0BFF30B
:100B70002F8F002005E020EA010243E8002404B1A1
:100B8000EFE710BD8B4200D0002010BDB0B5104A79
:100B90000023443215462C683CB12569A94209D38B
:100BA000491B04F10C052346F5E700240161C0E967
:100BB000023406E00161C0E90234A0602569691AC7
:100BC0002161002B18BF03F10C021060B0BD00BF03
:100BD00094850020C16829B1826803698A600A6926
:100BE0001A440A618068044A00F10C03002808BF17
:100BF00002F144031960704794850020EFF30580EB
:100C000048B9EFF3108030B9EFF3118018B9EFF362
:100C10001480C00702D10448007A7047DFF804C08E
:100C200000DF70477118000894850020EFF30580FD
:100C300028B9EFF3108010B9EFF3118010B1034819
:100C4000C0687047DFF808C000DF70479485002057
:100C50007D18000880B500F0F9F8EFF3058028B999
:100C6000EFF3108010B9EFF3118010B16FF00500B1
:100C700080BDDFF808C000DF80BD00BF8918000814
:100C8000EFF3058028B9EFF3108010B9EFF311806E
:100C900008B1FFF740BFDFF808C000DF704700BFB2
:100CA00089190008F8B50546EFF3058014460E468D
:100CB00028B9EFF3108010B9EFF31180F0B1D5B17E
:100CC0002878FA2817D16FF00300EEB1E3B928466F
:100CD000FFF777FEC8B16A6A074600F10C0130469B
:100CE000FFF7F4FC0CB1F87820703846FD6000F096
:100CF00075FA0020F8BD6FF00300F8BD2846DFF854
:100D000010C03146224600DFF8BD6FF00200F8BD8A
:100D1000151A0008EFF305832BB9EFF3108313B90D
:100D2000EFF311830BB100207047DFF808C000DF3C
:100D3000704700BFE11A00082DE9F0410646EFF3C5
:100D4000058090460D4628B9EFF3108010B9EFF3F7
:100D5000118018B3EEB13078FA281AD16FF003077A
:100D6000CDB1C3B906F10C0000F0E3F8F0B1726A3E
:100D700004460C302946FFF7A9FCF9200027C4E9F6
:100D8000015684F8038020702046A77000F026FAF0
:100D900001E06FF003073846BDE8F0813046DFF828
:100DA00014C02946424600DFBDE8F0816FF002071B
:100DB000F1E700BFF91B0008EFF305822AB9EFF352
:100DC000108212B9EFF3118212B16FF00500704773
:100DD000DFF804C000DF7047A51C0008EFF30581B1
:100DE00029B9EFF3108111B9EFF3118111B16FF04F
:100DF00005007047DFF804C000DF7047351D0008AC
:100E0000EFF3058129B9EFF3108111B9EFF31181E7
:100E100009B100207047DFF808C000DF704700BF4D
:100E2000E51D0008EFF3058129B9EFF3108111B931
:100E3000EFF3118111B16FF005007047DFF804C0C6
:100E400000DF70474D1E000804F097B87047F0B5FA
:100E5000A8B1002379B3032A2DD803460F3153F8E4
:100E6000085F21F007012C46EE1A5D6825F00307A4
:100E7000F61B8E4205D225682346002DF3D10023B0
:100E800019E0D0E900760E444660384450F8047CFE
:100E9000B74202D2083846605D6845B125F00300CC
:100EA0001143C450184418600346416002E041EA0F
:100EB0000200586008331846F0BDB0B560B159B1B2
:100EC00000F10804A1F108020023944206D025464F
:100ED00024682B46002CF8D10020B0BD51F8045CEA
:100EE000446825F00305641B446013B11068186062
:100EF00002E0002041F8040C0120B0BD18B1024608
:100F00000843400701D000207047002018290FD364
:100F100010B58B18A3F10804946043F8080C102452
:100F20009368C2E900145C60D0600120BDE8104005
:100F3000704710B5002817D0014600F1140252E89E
:100F4000000F10B9BFF32F8F04E0036842E80034AC
:100F500004B1F4E740B1043151E8002F531C41E8DB
:100F6000003404B1F8E710BD002010BDB0B5002872
:100F70001ED0C2688A421BD802698A4218D900F181
:100F8000140213680B60BFF35F8F52E8003F0C68D8
:100F90009C42F6D142E8001505B1F2E7043050E872
:100FA000001F4A1E40E8002303B1F8E70020B0BD4F
:100FB0006FF00300B0BDB0B598B191B18AB10446ED
:100FC00000209BB1C4E9001004F1080002FB0135C8
:100FD00063612CC0481E30B19918013819600B4666
:100FE000F9E70020B0BD002018600120B0BDF8B5C1
:100FF0000446807848B3E56821462846FFF72DFD72
:10100000002005F10C06214620703046FFF7AEFFA8
:10101000A868C8B13046FFF78CFFA8B1044628463F
:1010200000F033FAFFF771FD304600F089FA4168AD
:101030006A6A064604F10C00FFF748FBF920A77026
:101040002070B068E07021E0F8BDA568A868E8B13C
:10105000407883281AD1284600F017FAFFF755FD8B
:10106000304600F06DFA064640686A6A04F10C01E9
:10107000FFF72CFBB06808B1E1780170277005F12B
:101080000C002146BDE8F840FFF770BF2846214616
:10109000BDE8F840FFF7B5BC80B507480821D0E9A6
:1010A0001A2000F01DFD0549C8640021002808BF72
:1010B0004FF0FF31084680BD88610008948500200C
:1010C0002DE9F041044600274FF00108D4B1254630
:1010D0006469E8780007F9D5A8682F760028F5D06C
:1010E000284600F0D2F900210022064600F076FAE8
:1010F000F06AC5E90367686100B1056185F8188089
:10110000F562E3E7BDE8F081B0B5C278920718D583
:10111000C068C36A90F82120DC78A4070AD59C68CF
:101120008C4208BF8C682CB194F9204055B2AC4277
:10113000C8BFE2B25B69002BEED190F8201091425B
:1011400000D1B0BD80F82020BDE8B04000F0C6B9A5
:1011500070B5214C04F1560504F15A06B4F8540058
:10116000D5E85F1F11B9BFF32F8F04E04A1EC5E811
:10117000532F03B1F4E7090429D0D6E85F1F4A1CB6
:10118000904200D80022C6E8532F03B1F5E788B299
:10119000E16D51F82000D0B10178F1390829DDD88E
:1011A000DFE801F006050905050C0F051200D5E77B
:1011B000216E8847D2E7616E8847CFE7A16E8847E6
:1011C000CCE7E16E8847C9E7216F8847C6E7002072
:1011D000BDE8704000F0F4B89485002070B5014679
:1011E000194800F15603B0F85420D3E85F4FA242EB
:1011F00002D8BFF32F8F04E0651CC3E8565F06B129
:10120000F3E7A3B2934214D200F15803D3E85F4F3F
:10121000651CAA4200D80025C3E8565F06B1F5E771
:10122000A2B2C36D43F82210417A39B10121817213
:1012300070BD0220BDE87040FFF706BE03484FF0C6
:101240008051016070BD00BF9485002004ED00E076
:1012500010B5012190F9203041700A491C310A462D
:10126000896841B191F920409C42F8DCC0E9021242
:1012700090600C3104E00021C0E9021202F1080183
:10128000086010BD94850020B0B54A1C0DD01D4AE1
:1012900000232C3215462C68E4B1E569A94221D31C
:1012A000491B04F110052346F5E71649002301F117
:1012B000300214461946236803F11004002BF9D1BB
:1012C0004FF0FF33C3610023C0E90431C1B101F124
:1012D000100215E0C161C0E90443002B18BF03F1FF
:1012E00010020DE0002BC0E90443C16118BF03F1F7
:1012F000100210602CB1E269511A04F11402E1618C
:101300001060B0BD94850020C2690169531C0AD0E9
:1013100021B143694B61CB691A44CA6142693AB948
:10132000084AD16207E009B142694A6142692AB1BB
:101330000023116143610021C1617047014A1163BB
:10134000F9E700BF9485002070B5134DEC6A1CB11D
:10135000E0690138E06100D070BD04266078133880
:10136000B6EB301F08D120460178F12901D1C068C1
:10137000FAE72146FFF7C8FE204600F0A5F8204610
:1013800000F0D4F8246924B1E0690028E6D00020F8
:101390006061EC6270BD00BF94850020C178C90710
:1013A00008BF00F037B80021C16004214170034933
:1013B0004A6B826002B1D060486370479485002018
:1013C00070B5134E05467469307A65B1022805D1AF
:1013D00094F9200095F92010814211DC2846BDE8DF
:1013E000704000F0A3B8022810D1756A75B194F965
:1013F000200095F92010814208DD284600F064F8AD
:101400002046FFF725FF0220B561687070BD00BF60
:101410009485002010B5044600202080A078810724
:101420000DD5C00605D41048216B406FFFF745FD70
:1014300005E00D48216BD0F88400FFF797FDA078F8
:10144000C00708BF10BD0849D1F8880020B1214667
:10145000BDE81040FFF78ABDD1F880002146BDE805
:101460001040FFF72ABD00BF9485002010B5044648
:10147000806918B10021002200F0B0F860782328BC
:1014800002D1A0680021816110BD01468068826898
:101490008A6002B1D1600021C160704710B591F936
:1014A00020300246806840B190F920409C42F8DA32
:1014B000C1E9020291600C3004E00020C1E902029F
:1014C00002F10800016010BDC16831B182688A6014
:1014D000826802B1D1600021C1607047B0B5044696
:1014E000054625B12878F12802D1ED68F9E7B0BDAD
:1014F0002046FFF7E9FF28462146BDE8B040FFF748
:10150000CDBF10B50446407833280DD194F8232080
:10151000616A2046FFF708FB30B1014620460022F1
:10152000BDE8104000F05AB810BD0000014601208F
:10153000487002481C30FFF7B1BF00BF94850020FF
:1015400090F82210C9064FF0200158BF6021806B2F
:101550000844704770B50B4C0B480021A26D666EB5
:1015600000F068FD094DA86246B1B04740B9E96C8A
:10157000D4E9172000F05EFDA86408B1012070BD19
:10158000002070BD886100089B4F000894850020F2
:101590000249886102214170704700BF9485002094
:1015A00010B50D4C227A022A14D1626A92B1626996
:1015B00050701046FFF768FE606A8168616211B181
:1015C00004F11C02CA600221A06141700021C160C7
:1015D000012010BD002010BD94850020B0B5044648
:1015E00090F822001546C0064FF0200058BF60203A
:1015F000A26B81502046FFF787FE2046002DBDE8F4
:10160000B04008BFFFF792BFFFF7DABEB0B5FFF7F3
:1016100033FA1B4DE8680130E860FFF795FE0020C3
:10162000FFF7CEFE286D00B18047296C71B1A86923
:10163000EA6B904205D0C269E86322B9C1610A46EB
:1016400001E0C2691AB1511EC16100D0B0BD297A52
:101650000229FBD16C6A002CF8D090F8200094F895
:1016600020108142F2D12046FFF72EFFE86BFFF7F2
:101670005DFF2046FFF78CFF286CEC63E061B0BD96
:101680009485002080B5FFF707FD10B14FF0FF30C3
:1016900080BD024802490165002080BD948500207C
:1016A000C516000882B004466D4620462946002231
:1016B0004FF0FF33FFF7F6FA0028F6D1DDE900100E
:1016C0008847F2E72DE9F041194D6C6C74B320693D
:1016D0006E694FF001080138206134B3206920BBE6
:1016E000E06808B1A16881606864E86C04F11801E1
:1016F00000220023FFF720FB60B1D5E905702146E9
:1017000068610320FFF7A0FB696986EA07000843C8
:1017100008BF0646E078012811BF84F8018061699E
:101720002046FFF733FA6C6CD7E76E61BDE8F081B5
:1017300094850020DFF804C000DFFEE7011F0008E9
:10174000EFF3058129B9EFF3108111B9EFF311819E
:1017500009B1FFF7D7B9DFF808C000DF704700BF55
:101760004D1F0008B0B5EFF305822AB9EFF31082E0
:1017700012B9EFF31182DAB16FF00304B0B10029AE
:1017800014D40278F12A11D14278042A02D16FF0E0
:1017900002040BE000F1280252E8003F43EA010492
:1017A00042E8004505B1F7E7FFF718FD2046B0BD58
:1017B000DFF804C000DFB0BD811F0008EFF3058330
:1017C0002BB9EFF3108313B9EFF311830BB1FFF7CC
:1017D00099B9DFF808C000DF704700BFE91F0008B3
:1017E000EFF305832BB9EFF3108313B9EFF31183F4
:1017F0000BB100207047DFF808C000DF704700BF62
:101800003520000810B5EFF305842CB9EFF31084F0
:1018100014B9EFF311840CB1002010BDDFF804C03F
:1018200000DF10BD21220008EFF305822AB9EFF393
:10183000108212B9EFF3118212B16FF005007047F8
:10184000DFF804C000DF704799220008EFF305813C
:1018500029B9EFF3108111B9EFF3118111B16FF0D4
:1018600005007047DFF804C000DF7047E122000880
:101870000148007A704700BF948500200148C06885
:10188000704700BF948500202DE9F843DFF8EC8015
:1018900098F8080028B101286CD04FF0FF30BDE85F
:1018A000F883374F388AD7E90B41A8F85400D7E9B5
:1018B0000202C8F840002046C8F85C20FFF71EFB73
:1018C00008B1C8F88040D7E90541DFF8B890D7E9FA
:1018D00007562046C847D8F880100028284618BF69
:1018E0002146C8F874103146C847D8F8801000283F
:1018F00018BF2946C8F87810D7E909412046C847DB
:10190000D8F88010002818BF21467C6BC8F87C10DE
:101910001CB1FFF7F1F8C8F88440BC6B1CB1FFF7AD
:10192000EBF8C8F88840FC6B1CB1FFF7E5F8C8F885
:101930008C403C6C1CB1FFF7DFF8C8F890407C6C21
:101940001CB1FFF7D9F8C8F89440BC6C1CB1FFF784
:10195000D3F8C8F89840FC6C1CB1FFF7CDF8C8F874
:101960009C403C6D1CB1FFF7C7F8C8F8A0400120AF
:1019700088F808000020BDE8F88300BF94850020A7
:1019800088610008FD0E0008B0B51E4C207A0128C1
:101990001CD1FFF7DFFDC8B11B48FF211B4D81752E
:1019A000817D026881F0FF01C2F30222B1FA81F168
:1019B000C1F120018A4228BF511CFE2202FA01F126
:1019C000C17468681249FFF777F810B14FF0FF3023
:1019D000B0BDFFF76DF82061FFF754F804F11C006B
:1019E000FFF753FDFFF7D4FD2878C0070CBF032095
:1019F000022080F314880220BFF36F8F2072002032
:101A0000B0BD00BF948500200CED00E088610008A7
:101A1000870300082DE9F041002848D004460078EB
:101A2000FA2844D10F46002941D020461E461546CB
:101A3000FEF7C7FF00283FD0804620464146FFF70B
:101A40000CF8626A08F10C013846FEF73FFE15B14A
:101A500098F80300287004F10C0600254146304632
:101A600088F80050FFF782FAA06810B33046FFF7FD
:101A700060FA0025E8B10646FFF753F8002101227D
:101A80000746FFF7ABFD3846FFF75AFD4168626A2B
:101A9000074606F10C00FEF719FEF9203146B57035
:101AA0003070B868F0702046FEF7ABFF01E06FF0D1
:101AB00003052846BDE8F08166B183203146FFF773
:101AC0006FFD20B1054841692046FFF7E7FC6FF044
:101AD0000105EEE76FF00205EBE700BF94850020FB
:101AE0002DE9F84F48B10D4639B10446B0FA80F0FF
:101AF000B5FA85F10844202803D200263046BDE817
:101B0000F88F05F10F0020F0030808FB04F95AB123
:101B10009668D2F800A0D2E904707EB1B107ECD18A
:101B2000D1683429E9D30CE04FF0000A002730498E
:101B3000D1F8A00058B1FFF7FCF90EE0D1680029F8
:101B4000DBD157B3B907D8D14845D6D327E0D1F870
:101B5000800034210122FFF77AF906464FF0010B8D
:101B600067BB5EB3CDF800A0DFF884A04946002231
:101B7000DAF87C00FFF76BF9074620B13846494692
:101B8000FEF71BFE16E0BBF1000F12D0DAF8A00042
:101B900050B13146FFF7EAF90BE00028ADD1002E35
:101BA000C5D04FF0000BDBE7DAF880003146FFF7D5
:101BB00084F90026DDF800A00BF1020B002E3FF4A3
:101BC0009DAF0020214642463B4686F802B0C6E95A
:101BD0000950C6E90B00C6E901A0FA20307006F1F1
:101BE0000C00FFF7E8F902480249016786E700BFE9
:101BF00094850020EF0F00082DE9F04118B304464A
:101C00000078FA281FD10F46E9B1A0681E46904619
:101C1000F0B1407883281BD1FEF783FF0021012219
:101C200005460026FFF7DAFC2846FFF789FC054643
:101C30004068626A3946FEF749FDA86828B180F815
:101C40000080002601E06FF003063046BDE8F08119
:101C500004F10C00FFF76DF980B1626A05460C30A3
:101C60003946FEF733FDF9200026294685F8038022
:101C700028702046AE70FEF7C4FEE6E766B19320FA
:101C80003146FFF78DFC20B1054841692046FFF73A
:101C900005FC6FF00106D8E76FF00206D5E700BF3C
:101CA0009485002070B50446214845694DB32CB396
:101CB0002078F52822D1207E30B30E46E178CA077D
:101CC00002D0E268AA422BD066B388070AD5E06842
:101CD00095F9201090F920208A4203DA80F820102C
:101CE000FFF7FCFB53203146FFF75AFC18B12046A2
:101CF0002946FFF7D3FB6FF0010070BD6FF00300C2
:101D000070BD4FF0FF3070BD0020C4E90350E86A99
:101D1000606100B104610120EC622076002070BD9A
:101D2000FF2802D16FF0020070BD0130F5E700BF5F
:101D300094850020B0B520B304460078F52820D162
:101D4000207EC0B36169E06809B122690A6100F1CF
:101D50002C0223691546002B18BF03F114052960D6
:101D600090F8211012687AB1D3789B0707D5936851
:101D70002BB193F920304DB2AB42C8BFD9B2143267
:101D8000F0E76FF00300B0BD90F820208A420CD03D
:101D900080F82010FFF7A2FB07E02046FFF775FB55
:101DA0006FF002010022FFF719FCA0680028F4D1AF
:101DB0000020FFF705FBA17800202070C9070DD097
:101DC0000749D1F8940018B12146FFF7CFF804E095
:101DD000D1F880002146FFF770F80020B0BD00BFA9
:101DE0009485002070B550B18468D0E900657CB15D
:101DF000A10710D1C16800201C2917D270BD002591
:101E000000261149D1F8940038B1FFF792F80AE0A2
:101E1000C0680028F5D0002070BDD1F880001C21DA
:101E20000122FFF714F8044658B10120A070F520F4
:101E300011216660E570207004F10800FEF7DFFCF8
:101E400000E00024204670BD9485002070B5044653
:101E50002A48406970B154B12178F52907D1217E13
:101E600011B1E268824209D06FF0020404E06FF021
:101E7000030401E04FF0FF34204670BD01392176A4
:101E8000090601D00024F7E7616909B122690A61F6
:101E900000F12C0223691546002B18BF03F114052D
:101EA000296090F82110126862B1D3789B0707D59A
:101EB00093682BB193F920304DB2AB42C8BF19469D
:101EC0001432F0E780F82010A06888B12046FFF7B0
:101ED000DCFA0021002205460026FFF77FFBE86AB6
:101EE000C4E90356606100B104610120EC62207610
:101EF00000200024FFF764FABEE700BF94850020AD
:101F0000B0B5114D287A02281DD1686AD8B16C6924
:101F1000E06AFFF7D5F82046FFF7A8FA686A8168FB
:101F2000696211B105F11C02CA600221A861417009
:101F30000021C160EFF30980A06369612046BDE81C
:101F4000B040FFF72BBAB0BD9485002010B5014614
:101F50000A48406960B100290DD400F1280252E816
:101F6000000F20EA010342E8003404B1F7E710BD96
:101F70004FF0FF3010BDFEF7D1BD00BF94850020AB
:101F8000B0B56FF0030460B300292AD40546007889
:101F9000F12826D16878042802D16FF0020420E0ED
:101FA00005F1280050E8002F42EA010440E8004310
:101FB00003B1F7E76878332813D195F82320696ACD
:101FC0002846FEF7B1FD60B1014695F823000C46A6
:101FD00080075CBF686A21EA000428460122FFF7F7
:101FE000FDFA2046B0BD0000F8B505461048476927
:101FF00057B1002D0BD40E461446384629463246BA
:10200000FEF792FD30B1F8BD4FF0FF30F8BD6FF034
:102010000300F8BD4CB13320214687F823607D6270
:10202000FFF7BEFA6FF00100F8BD6FF00200F8BDD7
:10203000948500202DE9FE4F002800F0878005469A
:102040006AB102F110099668D2E9007399E81003A9
:10205000C6B1B0077AD1D068442816D276E04FF0E6
:10206000010B4FF01809002300244FF0000800274F
:10207000664A0293CDE90017D2F88800A8B1FEF7AE
:1020800058FF18E0D068002860D124B160075DD106
:10209000B8F1000F5AD0B9F1000F3BD0B9F1010FE0
:1020A00054DBB9F1380F37DD50E0D2F8800044211D
:1020B0000122FEF7CCFE06464FF0010A0027002C55
:1020C00053D1002E51D0BBF1000F0DD04F485049D5
:1020D000D0F88400D1F8548030B1FEF72AFF60B107
:1020E00004460AF1100A3EE0484841460022406F8B
:1020F000FEF7ADFE08B1044635E01FB14FF0000A0F
:1021000000242FE04149D1F8880018B33146FEF78A
:102110002DFF24E04FF01809B8F1000F08D05FEA56
:10212000487013D1B8F1480F10D3B8F1000F0DD497
:10213000B8FA88F0002E4FEA501B3FF499AFCDE972
:10214000001702934FF0000A0127B8E70026304637
:10215000BDE8FE8FD1F880003146FEF7AEFE0024C8
:102160004FF0010A00264AF0020A002EEFD0019833
:10217000182186F802A070600298F07040F2F11009
:10218000308006F10800FEF73AFB04EB080100205E
:10219000C6E90C48FD22009F86F8219086F8209021
:1021A0004039C6F82300C6F82700C6F82B0086F889
:1021B0002F0086F82220C6E90E1516492160144921
:1021C0000978490715D4B16B00220D2A03D041F8D4
:1021D00022000132F9E7104A4FF080700F62C863A5
:1021E0000A48C1E90D250D4901663046FFF7E8F8B8
:1021F000ADE76FF01001221D4FF0CC3301EB9801D9
:102200000029E0D008C20139FAE700BF9485002018
:1022100088610008A52E5AE235170008031500084A
:10222000F8B50E46002198B3012E31D81446054664
:102230004BB198681F6870B181070FD1DA6800212F
:10224000202A15D224E000271249D1F88C0038B199
:10225000FEF76FFE0AE0D8680028F5D0002117E0ED
:10226000D1F8800020210122FEF7F1FD70B101219B
:10227000002281704FF4F971C670C4610180C0E919
:102280000172C0E90322C0E9052500E000200146F3
:102290000846F8BD94850020B0B568B105460078C1
:1022A000F22809D10C4639B16878022807D12846AE
:1022B0006C61FEF78FFC08E06FF00300B0BD0748CB
:1022C000006D40B102206C61687028462146FEF71F
:1022D0005DFC0020B0BD6FF00200B0BD9485002011
:1022E00080B570B10178F2290BD1417802291CBF69
:1022F0006FF0020080BD01214170FEF76BFC0020F1
:1023000080BD6FF0030080BD10B502F0A3FE00BFDA
:10231000F1EE100A0149086010BD00003CEF00E03A
:1023200000B587B0142102A8FEF769FA282000F052
:102330002FFC00BF002001900D48006840F0040011
:102340000B4908600846006800F00400019000BFD7
:1023500000BF4FF4005002904FF488100390022009
:10236000049002A9034800F0A7FA07B000BD0000DE
:10237000303802400008024000BFFEE7704700000E
:102380001F49884206D11F49096821F480511D4A1E
:10239000116034E01C49884208D11A49091F0968B4
:1023A00021F48041174A121F116028E01749884222
:1023B00008D11449091F096821F40041114A121F6C
:1023C00011601CE01249884206D10E49096821F4C7
:1023D00000510C4A116012E00E49884206D10949A9
:1023E000096821F48011074A116008E00A4988420F
:1023F00005D10449096821F40011024A11607047AF
:10240000003001404438024000380040003C0040A9
:1024100000340140005001400054014010B502F06A
:10242000FFFA10BD08B5694988420FD100BF0021ED
:1024300000916749096841F00101654A1160114640
:10244000096801F00101009100BFBDE061498842C7
:102450000FD100BF002100915D49096841F00201E0
:102460005B4A11601146096801F00201009100BF4A
:10247000AAE0594988420FD100BF00210091544978
:10248000096841F00401524A11601146096801F0DF
:102490000401009100BF97E0504988420FD100BF6E
:1024A000002100914A49096841F00801484A116039
:1024B0001146096801F00801009100BF84E0484915
:1024C00088420FD100BF002100914149096841F0C5
:1024D00010013F4A11601146096801F01001009196
:1024E00000BF71E03F4988420FD100BF0021009139
:1024F0003749096841F02001354A116011460968E1
:1025000001F02001009100BF5EE0374988420FD101
:1025100000BF002100912E49096841F040012C4A7A
:1025200011601146096801F04001009100BF4BE0C5
:102530002E4988420FD100BF00210091244909682B
:1025400041F08001224A11601146096801F08001C2
:10255000009100BF38E0264988420FD100BF00211A
:1025600000911B49096841F48071194A11601146B4
:10257000096801F48071009100BF25E01D4988427F
:102580000FD100BF002100911149096841F4007189
:102590000F4A11601146096801F40071009100BFF3
:1025A00012E0154988420FD100BF0021009108496F
:1025B000096841F48061064A11601146096801F416
:1025C0008061009100BF00BF08BD00000000024014
:1025D000303802400004024000080240000C024073
:1025E000001002400014024000180240001C02408B
:1025F00000200240002402400028024008B53B4968
:1026000088420FD100BF002100913949096841F487
:102610008051374A11601146096801F480510091D8
:1026200000BF62E03349884211D100BF0021009110
:102630002F49091F096841F480412D4A121F11607A
:102640001146096801F48041009100BF4DE02A491C
:10265000884211D100BF002100912549091F096856
:1026600041F40041224A121F11601146096801F429
:102670000041009100BF38E0204988420FD100BFDF
:10268000002100911A49096841F40051184A11606B
:102690001146096801F40051009100BF25E0184976
:1026A00088420FD100BF002100911149096841F40F
:1026B00080110F4A11601146096801F480110091E0
:1026C00000BF12E00F4988420FD100BF00210091E6
:1026D0000749096841F40011054A1160114609686B
:1026E00001F40011009100BF00BF08BD003001409F
:1026F0004438024000380040003C004000340140B3
:10270000005001400054014000BFFEE7014691F82F
:102710003500022803D0802048650120704705203D
:1027200081F835000868006820F001000A68106030
:102730000020F3E7F0B50C4600250022002300211D
:102740009EE0012606FA01F504EA0502AA427CD1C0
:102750004D4E8F0856F827308E07370F0F26BE4094
:1027600033404A4EB04201D100262DE0484EB042DF
:1027700001D1012628E0474EB04201D1022623E0D4
:10278000454EB04201D103261EE0444EB04201D175
:10279000042619E0424EB04201D1052614E0414E14
:1027A000B04201D106260FE03F4EB04201D10726CC
:1027B0000AE03E4EB04201D1082605E03C4EB04250
:1027C00001D1092600E00A268F073F0FBE409E4236
:1027D00024D1384E36689643364F3E603E1D3668EB
:1027E00096433F1D3E60334E0C3636689643314F5C
:1027F0000C373E603E1F366896433F1F3E608E0793
:10280000370F0F2606FA07F31F4E8F0856F827607A
:102810009E431D4F4FEA910C47F82C6006684FEA23
:10282000410C032707FA0CF7BE430660CF0800F1FE
:10283000200656F827604F074FEAD76C0F2707FA94
:102840000CF7BE434FEAD10C00E018E000F120077E
:1028500047F82C60C6684FEA410C032707FA0CF7CB
:10286000BE43C660476801268E40B743476086680E
:102870004FEA410C032707FA0CF7BE438660491C58
:102880001029FFF45EAFF0BD08380140000002409F
:102890000004024000080240000C02400010024008
:1028A0000014024000180240001C024000200240B8
:1028B00000240240003C0140F8B502460B460025CA
:1028C000002400200021E0E0012606FA01F51E6840
:1028D00006EA0504AC4274D11E7906F00306012E07
:1028E00004D01E7906F00306022E13D190684F0023
:1028F0000326BE40B0434F00DE68BE4030439060C8
:10290000506801268E40B0431E79C6F300168E40F3
:10291000304350601E7906F00306032E09D0D068BC
:102920004F000326BE40B0434F009E68BE40304378
:10293000D0601E7906F00306022E13D1CF0802F1F3
:10294000200656F827004E07F70E0F26BE40B0436C
:102950004F07FF0E1E69BE403043CF0802F120062C
:1029600046F8270010684F000326BE40B0431E798A
:1029700006F003064F00BE40304310605E6806F468
:102980004036002E1DD000BF00260096414E36680E
:1029900046F480463F4F3E603E46366806F4804629
:1029A000009600BF00BF3C4E8F0856F827008E07E8
:1029B000370F0F26BE40B043384EB24202D1002638
:1029C0002EE061E0364EB24201D1012628E0354EBC
:1029D000B24201D1022623E0334EB24201D1032696
:1029E0001EE0324EB24201D1042619E0304EB2420E
:1029F00001D1052614E02F4EB24201D106260FE088
:102A00002D4EB24201D107260AE02C4EB24201D12E
:102A1000082605E02A4EB24201D1092600E00A2626
:102A20008F073F0FBE4030431B4E8F0846F82700EC
:102A3000244E3068A0435E6806F4801606B1204339
:102A4000204E3060361D3068A0435E6806F40016E4
:102A500006B120431B4E361D30601A4E361F3068BB
:102A6000A0435E6806F4003606B12043154E361FBB
:102A70003060361F3068A0435E6806F4803606B1C9
:102A80002043104E083E3060491C1029FFF41CAF53
:102A9000F8BD000044380240083801400000024000
:102AA0000004024000080240000C024000100240F6
:102AB0000014024000180240001C024000200240A6
:102AC00000240240083C01400AB1816101E00B048E
:102AD0008361704701480068000C7047002004E0E3
:102AE00010B5FEF78BF8022802D1FEF79FF810BD53
:102AF0000C480068840B0CE000BF00BF00BF00BFA3
:102B000000BF00BF00BF00BF00BF00BF00BF00BFCD
:102B1000641E002CF0D104480068401C0249086083
:102B2000E5E70000908500205085002010B50A4898
:102B3000006840F40070084908600846006840F4E6
:102B400080600860032000F037F80F2000F006F8DE
:102B500000F007F8002010BD003C024001460020B4
:102B60007047704710B50146084600280BDB00F09F
:102B70001F0301229A40054B440943F82420BFF368
:102B80004F8FBFF36F8F00BF10BD000080E100E0EA
:102B90000146084600280DDB00BF00BF00F01F0300
:102BA00001229A4043099B0003F1E023C3F800216E
:102BB00000BF00BF00BF704700BF00F00702064B18
:102BC00019684FF6FF031940044B0B4343EA0221F7
:102BD000014B196000BF70470CED00E00000FA05E2
:102BE00070B504460D460CB9012070BD5848006808
:102BF00000F00F00A84209D255490D700846006840
:102C000000F00F00A84201D00120EEE7207800F08C
:102C1000020002281DD1207800F00400042805D10C
:102C20004C48006840F4E0504A490860207800F0C1
:102C30000800082805D14748006840F4604045492D
:102C400008604448006820F0F000A168084341494A
:102C50000860207800F00100A8B36068012807D15F
:102C60003C4808380068C0F34040B8B90120BCE7D0
:102C70006068022802D06068032807D13548083808
:102C80000068C0F3406048B90120AEE73148083819
:102C90000068C0F3400008B90120A6E72D4800688D
:102CA00020F00300616808432A490860FFF718FF15
:102CB000064609E0FFF714FF801B41F28831884285
:102CC00002D9032091E707E02248006800F00C00D9
:102CD0006168B0EB810FEDD11D48006800F00F0076
:102CE000A84209D91A490D700846006800F00F0083
:102CF000A84201D0012078E7207800F004000428E1
:102D000007D11448006820F4E050E16808431149F5
:102D10000860207800F00800082808D10D480068F5
:102D200020F46040216940EAC1000A49086000F0CF
:102D30002FF808490968C1F30311074A515CC840DC
:102D40000649086006480068FFF708FF00204CE7C6
:102D5000003C0240083802405C6100089085002079
:102D60008885002001480068704700009085002099
:102D700000B5FFF7F7FF04490968C1F34231034A80
:102D8000515CC84000BD0000083802406C6100087A
:102D90002DE9F047002400250026A14625480068BB
:102DA00000F00C0020B1042805D008283AD105E035
:102DB000DFF8849039E0DFF8849036E01D48001F8A
:102DC000006800F03F041B48001F006800F480000A
:102DD00078B11A481749091F0968C1F38811A0FB87
:102DE00001700146224600233846FDF7DBFA05460E
:102DF0000EE011480F49091F0968C1F38811A0FBB3
:102E000001700146224600233846FDF7CBFA0546FD
:102E10000848001F0068C0F30140401C4600B5FB95
:102E2000F6F902E0DFF8109000BF00BF4846BDE8A9
:102E3000F0870000083802400024F40000127A00F5
:102E4000F8B504460CB90120F8BD207800F0010067
:102E5000002874D0F948006800F00C0004280DD058
:102E6000F648006800F00C00082813D1F348001F52
:102E7000006800F48000B0F5800F0BD1EF480838EF
:102E80000068C0F34040002859D06068002856D13F
:102E90000120D9E700BF6068B0F5803F08D1E7485E
:102EA0000838006840F48030E449083908601EE0C2
:102EB0006068B0F5A02F0DD1E0480838006840F4F4
:102EC0008020DE49083908600846006840F48030F8
:102ED00008600CE0D9480838006820F48030D749F1
:102EE000083908600846006820F48020086000BFA8
:102EF000606890B1FFF7F4FD054606E0FFF7F0FDCE
:102F0000401B642801D903209EE7CC48083800689C
:102F1000C0F340400028F1D011E0FFF7E1FD054685
:102F200006E0FFF7DDFD401B642801D903208BE795
:102F3000C24808380068C0F340400028F1D120782A
:102F400000F0020002285FD1BC48006800F00C00CD
:102F500058B1BA48006800F00C0008281CD1B748E6
:102F6000001F006800F48000B0B9B4480838006859
:102F7000C0F3400020B1E068012801D0012063E7E0
:102F8000AE480838006820F0F800216940EAC10026
:102F9000AA490839086037E0E06800B30120A84971
:102FA0000860FFF79DFD054606E0FFF799FD401B11
:102FB000022801D9032047E7A04808380068C0F379
:102FC00040000028F1D09D480838006820F0F80043
:102FD000216940EAC10099490839086014E00020DD
:102FE00097490860FFF77CFD054606E0FFF778FD8E
:102FF000401B022801D9032026E7904808380068C2
:10300000C0F340000028F1D1207800F00800082823
:103010002CD16069A8B101208A490860FFF760FDE2
:10302000054606E0FFF75CFD401B022801D903209E
:103030000AE782486C300068C0F340000028F1D0F5
:1030400014E000207F490860FFF74AFD054606E0CE
:10305000FFF746FD401B022801D90320F4E677481C
:103060006C300068C0F340000028F1D1207800F0F7
:103070000400042870D1002770483830006800F040
:10308000805090B900BF002000906C483830006834
:1030900040F080506949383108600846006800F007
:1030A0008050009000BF00BF01276748006800F40F
:1030B0008070B0B96448006840F48070624908606C
:1030C000FFF70EFD054606E0FFF70AFD401B02284C
:1030D00001D90320B8E65C48006800F4807000283D
:1030E000F2D000BFA068012808D1544868300068B9
:1030F00040F001005149683108601DE0A0680528D2
:103100000DD14E486830006840F004004B496831EA
:1031100008600846006840F0010008600CE047487D
:103120006830006820F001004449683108600846B2
:10313000006820F00400086000BFA068A8B1FFF795
:10314000CFFC054609E0FFF7CBFC401B41F288317C
:10315000884202D9032077E626E0384868300068C4
:10316000C0F340000028EED013E0FFF7B9FC05469D
:1031700008E0FFF7B5FC401B41F28831884201D9D5
:10318000032061E62D4868300068C0F34000002845
:10319000EFD1012F07D129483830006820F0805046
:1031A00026493831086000BFA069002845D023486F
:1031B000006800F00C0008285DD0A069022845D105
:1031C00000201F490866FFF78BFC054606E0FFF765
:1031D00087FC401B022801D9032035E61748083830
:1031E0000068C0F340600028F1D1D4E9070108432A
:1031F000616A40EA81110122A06AC2EB500041EAF3
:1032000000412C20005D41EA00600C49091F086064
:1032100001200B490866FFF763FC054606E0FFF74F
:103220005FFC401B022801D903200DE60348083843
:103230000068C0F340600028F1D049E0083802403F
:1032400000004742800E47420070004000202149A4
:103250000866FFF745FC054606E0FFF741FC401B0A
:10326000022801D90320EFE51B480068C0F3406045
:103270000028F2D12CE0A069012800D1E4E516482D
:10328000001D0668A069012820D006F48001E069CD
:1032900081421BD106F03F01206A814216D147F6D8
:1032A000C0703040616AB0EB811F0FD106F440312D
:1032B0000122A06AC2EB5000B1EB004F06D106F02C
:1032C00070612C20005DB1EB006F01D00120BBE5E7
:1032D0000020B9E5000047420038024070477047BF
:1032E00010B50446022084F83D0000BF2068006A43
:1032F00041F21111084050B92068006A8910084055
:1033000028B92068006820F001002168086000BF2B
:10331000204600F054F8002084F8460000BF84F8EE
:103320003E0000213F20015540200155412001551C
:1033300000BF00BF002084F8420043200155442014
:1033400001554520015500BF002084F83D0000BF15
:1033500084F83C0000BF10BD10B504460CB9012034
:1033600010BD94F83D0028B9002084F83C002046A8
:1033700000F026F8022084F83D00211D206801F0AD
:1033800057F9012084F8460000BF84F83E0001216F
:103390003F200155402001554120015500BF00BF8D
:1033A000012084F842004320015544200155452066
:1033B000015500BF012084F83D000020D0E7704790
:1033C00070470000014691F83D00012801D001201E
:1033D0007047022081F83D001A4B086898421BD0C4
:1033E0000868B0F1804F17D0174B0868984213D087
:1033F000164B086898420FD0154B086898420BD0BE
:10340000144B0868984207D0134B0868984203D0C1
:10341000124B086898420CD10868806800F00702D7
:10342000062A0CD00868006840F001000B6818609C
:1034300005E00868006840F001000B681860002093
:10344000C6E7000000000140000400400008004002
:10345000000C004000040140004001400018004002
:10346000014600BF0868006A41F21112104050B9CD
:103470000868006A9210104028B90868006820F0B7
:1034800001000A68106000BF012081F83D000020A3
:103490007047704710B5044620680069C0F34000CB
:1034A000D8B12068C068C0F34000B0B16FF002002E
:1034B00021680861012020772068806900F00300FE
:1034C00018B12046FFF7E5FF05E0204600F0ADF813
:1034D000204600F0ABF80020207720680069C0F398
:1034E0008000D8B12068C068C0F38000B0B16FF030
:1034F000040021680861022020772068806900F4B8
:10350000407018B12046FFF7C4FF05E0204600F0E8
:103510008CF8204600F08AF80020207720680069A7
:10352000C0F3C000D8B12068C068C0F3C000B0B11B
:103530006FF0080021680861042020772068C069C6
:1035400000F0030018B12046FFF7A3FF05E0204676
:1035500000F06BF8204600F069F800202077206822
:103560000069C0F30010D8B12068C068C0F3001033
:10357000B0B16FF010002168086108202077206842
:10358000C06900F4407018B12046FFF782FF05E0E3
:10359000204600F04AF8204600F048F80020207746
:1035A0002068006900F0010058B12068C06800F090
:1035B000010030B16FF0010021680861204600F081
:1035C00037F820680069C0F3C01058B12068C0689F
:1035D000C0F3C01030B16FF0800021680861204650
:1035E000FFF77CFE20680069C0F3801058B12068A6
:1035F000C068C0F3801030B16FF0400021680861EE
:10360000204600F025F820680069C0F3401058B14A
:103610002068C068C0F3401030B16FF0200021680E
:1036200008612046FFF75BFE10BD70477047000041
:1036300010B5044604492068884204D10421034897
:103640000068FEF78FF810BD000800405C85002080
:10365000704700BFFEE700BFFEE7704770B5044645
:103660000D46034A2946204600F06CF870BD000064
:103670000461000810B5024800F053FB10BD0000C3
:103680000461000808B5024800F04FFB009008BD37
:103690000461000810B5024800F05DFB10BD000099
:1036A0000461000810B504460249204600F0DCFB26
:1036B00010BD00000461000810B504460249204610
:1036C00000F0CEFC10BD00000461000870B5044697
:1036D0000D46034A2946204600F048FD70BD000013
:1036E0000461000870B504460D46034A2946204689
:1036F00000F0B2FD70BD00000461000870B5044622
:103700000D461646034B32462946204600F0EEFD94
:1037100070BD00000461000810B5024800F051FEC1
:1037200010BD0000046100080148006870470000F7
:10373000E060000808B502480068009008BD00007D
:10374000DC6000082DE9F04F87B0804689461446BA
:1037500000250026002700200690606A007A00F00D
:10376000020018B9681E07B0BDE8F08F08F0FF002E
:10377000142871D1206A48B12068406820F0020006
:1037800021684860216A0868FEF7C0FFE06950B10F
:103790002068406820F0010021684860E1690868FD
:1037A000FEF7B4FF05E02068406820F04000216883
:1037B0004860206807682068406806904FF0000B5A
:1037C00007E02068806800F0010000B105E00BF11F
:1037D000010B42F210708345F3D300BF4FF0000B92
:1037E00007E02068806800F0020000B105E00BF1FE
:1037F000010B42F210708345F3D300BF4FF0000B72
:1038000007E02068806800F0800000B905E00BF157
:10381000010B42F210708345F3D300BF20680068AB
:1038200020F0400021680860206800F087FB0698BF
:1038300040F040002168486027F04000216808609F
:103840001C21A06AFCF7DBFF0020616A0871206878
:103850000760002087E7FFE7606A007910B16FF02A
:10386000010080E708F0FF0004282BD007DC78B1C6
:1038700001281CD002281FD003287CD11FE010286B
:1038800023D0112850D0122857D01328F5D159E051
:1038900000BF2068006820F040002168086060696F
:1038A00018B1626903CAFEF745FF00205BE745F0E7
:1038B000010547F0040791E045F002058EE06FF046
:1038C000060050E76FF006004DE7606880478246CB
:1038D000002606E0701C2AFA00F0484500D802E0F5
:1038E000761C082EF6D300BF082E04D0701C2AFACE
:1038F00000F0484502D94FF0FF3034E720680068F7
:1039000020F04000216808602068006820F038003E
:1039100040EAC600216808602068006840F0400066
:103920002168086000201EE76068804721680968F8
:10393000C1F3C201491CC84015E7A16AA1F818905B
:10394000002010E7606A067B012E23D1606AC06800
:1039500000F4C0166069C0B1B6F5002F15D1B9F1F9
:10396000000F09D16269928891B2626910680122E0
:10397000FFF7AAF80CE02EE06269928891B26269C2
:1039800010680022FFF7A0F802E04FF0FF30EAE6EF
:103990000020E8E6022E1BD1606AC06800F4001621
:1039A000B6F5001F11D1B9F1010F06D120680068EA
:1039B00020F480702168086005E02068006840F409
:1039C0008070216808600020CDE64FF0FF30CAE625
:1039D0004FF0FF30C7E66FF00300C4E600BF08F405
:1039E000E060B0F5407F4CD007DC68B1B0F5807F77
:1039F0001DD0B0F5007F74D12EE0B0F5806F55D0AA
:103A0000B0F5A06F6DD169E0206940680190022097
:103A100002902069407B0490206980680590022014
:103A200003902169086801A9FEF746FF5CE047F0B2
:103A30000107206940680190022002902069407BC4
:103A4000049020698068059002200390216908682D
:103A500001A9FEF731FF47E047F0020720694068FF
:103A60000190022002902069407B049020698068C8
:103A70000590012003902169086801A9FEF71CFF49
:103A800032E047F00307206940680190022002906D
:103A90002069407B04902069806805900120039094
:103AA0002169086801A9FEF707FF1DE0069840F0AC
:103AB0001000069020694068019002200290206961
:103AC000407B049020698068059002200390216962
:103AD000086801A9FEF7F0FE06E002E06FF00700BB
:103AE00041E66FF007003EE600BF08F47C30B0F519
:103AF000004F03D0B0F5803F04D100E005E047F46B
:103B0000006702E06FF008002DE600BF08F4802097
:103B1000B0F5802F01D147F08007012D7DD108F449
:103B2000C01048B1B0F5002F30D0B0F5801F54D090
:103B3000B0F5C01F77D109E0606918B1626903CAA6
:103B4000FEF7F8FD47F4407700BF6FE06069B8B159
:103B500061690868FEF766FC6069406801900220B0
:103B600002906069007B03906069407B049060690B
:103B7000806805906169086801A9FEF79DFE02E072
:103B80006FF00A00EFE545F4C0154FE0606900B33F
:103B900061690868FEF746FC606940680190012091
:103BA00002906069007B03906069407B04906169CA
:103BB000086801A9FEF780FE6269928891B2626985
:103BC00010680122FEF780FF47F4407745F4002596
:103BD00002E06FF00A00C6E528E06069F8B16169AB
:103BE0000868FEF71FFC606940680190022002909F
:103BF0006069007B03906069407B04906069806825
:103C000005906169086801A9FEF756FE069840F024
:103C10000400069045F4801504E008E003E06FF02E
:103C20000A00A0E502E06FF00A009CE500BF022D4B
:103C300033D108F4001018B1B0F5001F29D11DE0F0
:103C40006069B8B161690868FEF7ECFB60694068BB
:103C50000190022002906069007B03906069407BC4
:103C600004906069806805906169086801A9FEF7A1
:103C700023FE02E06FF00A0075E50DE0606918B1FF
:103C8000626903CAFEF756FD47F4407745F4001514
:103C900002E06FF00A0066E500BF05F00100D0B158
:103CA000606880478246002606E0701C2AFA00F011
:103CB000484500D802E0761C082EF6D300BF082E37
:103CC00004D0701C2AFA00F0484502D94FF0FF30AA
:103CD00049E547EAC607606AC5602068006820F0C9
:103CE000400021680860069840F060002168486044
:103CF00020680760E8B230B9606A806820F004008C
:103D0000616A886005E0606A806840F00400616A6A
:103D100088602068006840F040002168086000204A
:103D200021E50146886AC068704708B50146486ABF
:103D30000279009862F300000090486A4279009886
:103D400062F341000090486A8279009862F3820031
:103D50000090009808BD2DE9F04104460025206838
:103D6000866806F06800002855D006F0400000285C
:103D70003CD02068006800F4006098B9206890F892
:103D80000C80A06AC068A16A0968884222D2A06A31
:103D90004068F8B1A06A4168481CA26A506081F886
:103DA000008017E020688789A06AC068A16A096856
:103DB00088420FD2A06A406860B1A06A4268501C75
:103DC000A36A586017703912A06A4268501CA36A2F
:103DD00058601170A06AC068401CA16AC860206861
:103DE00086680121606A417145F0020506F008000D
:103DF00020B10121606A417145F0020506F0200002
:103E000040B30121606A8171206800682168086000
:103E100045F004051EE006F00100D8B120684068B6
:103E200000F04000B0B1A16A206800F0E9F9054651
:103E30002DB9A16A206800F09AFA054604E0012D28
:103E400002D10020616A087105F0020010B1012161
:103E5000606A417135B1606A006818B1606A0168D2
:103E600028468847BDE8F08130B585B005460C4648
:103E7000606A007A00F0010010B1002005B030BD8A
:103E8000606A05600020616A08710021606A417102
:103E9000606A81711C21A06AFCF7B1FC2069B0B195
:103EA00021690868FEF7BEFA206940680090022088
:103EB00001902069007B02902069407B039020697B
:103EC00080680490216908686946FEF7F5FCA068DF
:103ED000B0B1A1680868FEF7A5FAA0684068009034
:103EE00002200190A068007B0290A068407B0390B4
:103EF000A06880680490A16808686946FEF7DCFC49
:103F0000E068B0B1E1680868FEF78CFAE0684068E4
:103F1000009002200190E068007B0290E068407B06
:103F20000390E06880680490E16808686946FEF7DD
:103F3000C3FC0120616A886000209FE741498842F4
:103F400006D14149096841F480513F4A116034E08B
:103F50003E49884208D13C49091F096841F4804123
:103F6000394A121F116028E03949884208D1364980
:103F7000091F096841F40041334A121F11601CE017
:103F80003449884206D13049096841F400512E4A2B
:103F9000116012E03049884206D12B49096841F48A
:103FA0008011294A116008E02C49884205D1264930
:103FB000096841F40011244A116000BF00BF00BF2E
:103FC00000BF2049884206D11F49096821F4805169
:103FD0001D4A116034E01D49884208D11A49091F61
:103FE000096821F48041184A121F116028E018491D
:103FF000884208D11449091F096821F40041124A76
:10400000121F11601CE01349884206D10E4909684D
:1040100021F400510C4A116012E00F49884206D188
:104020000949096821F48011074A116008E00B4929
:10403000884205D10449096821F40011024A11603F
:104040007047000000300140243802400038004032
:10405000003C004000340140005001400054014049
:1040600070B505460C46606A007A00F0010010B990
:104070004FF0FF3070BD35B1022D04D0012D02D0BC
:104080006FF00400F6E725B1012D67D0022D68D14D
:1040900024E0606A007920B1224600211420FFF755
:1040A00051FB2068FFF74AFF94F91800FEF75AFD0C
:1040B0002068FEF765F90020616A08710021606AD6
:1040C0004171606A81711C21A06AFCF798FB606AEB
:1040D000806820F00200616A886042E0606A007ACD
:1040E00000F0020008B10020C4E70020616A0871F6
:1040F0000021606A4171606A81711C21A06AFCF72D
:104100007EFB606A806840F00200616A8860206817
:10411000FEF774FA94F91800002807DB00F01F027C
:1041200001219140104A430942F8231000BF94F93D
:10413000180000280DDB00BF00BF00F01F020121A6
:1041400091404209920002F1E022C2F8001100BF42
:1041500000BF00BF2068FFF7F1FE02E06FF0030030
:1041600088E700BF002085E780E200E070B50546E3
:104170000E46144605B116B96FF0040070BD606AB2
:10418000007A00F0040010B94FF0FF30F6E7606AE3
:10419000007910B16FF00100F0E7E06818B1606AD3
:1041A000007B012805D0A06828B1606A007B022846
:1041B00001D1012000E0002010B94FF0FF30DDE711
:1041C0000120616A08710021606A4171606A817131
:1041D000A06A45600020A16A8860A06A066000208D
:1041E000A16AC860A16A08612068406840F0400088
:1041F00021684860A16A206800F0B9F80020BDE796
:10420000F0B50246CD680E68B54222D2156805F4B5
:1042100000653DB9147B4D6885B14E68751C4D60D5
:1042200034700BE093894D6845B14F687D1C4D603B
:104230003B701E124F687D1C4D603E70CD686D1C3A
:10424000CD60CD680E68B54201D1012003E00020A9
:1042500001E0157B0220F0BD70B505460E46144600
:1042600005B116B96FF0040070BD606A007A00F005
:10427000040010B94FF0FF30F6E7606A007910B122
:104280006FF00100F0E7A06818B1606A007B0128B8
:1042900005D0E06828B1606A007B022801D10120C6
:1042A00000E0002010B94FF0FF30DDE70120616A27
:1042B00008710021606A4171606A81710020A16A01
:1042C0004860A06A8560A06A06600020A16AC86094
:1042D000A16A08612068406840F040002168486099
:1042E000A16A206800F043F80020BDE72DE9F04105
:1042F00005460E4617461C460DB106B11FB96FF0B4
:104300000400BDE8F081606A007A00F0040010B992
:104310004FF0FF30F5E7606A007910B16FF00100EF
:10432000EFE7E06808B1A06810B94FF0FF30E8E7A8
:104330000120616A08710021606A4171606A8171BF
:10434000A06A4660A06A8560A06A07600020A16A32
:10435000C860A16A08612068406840F04000216898
:104360004860A16A206800F002F80020C9E770B533
:1043700002460D690E68B54221D2156805F4006544
:104380004DB98D6825B18E68751C8D60347800E05C
:104390000C7E14730EE08D6855B18E68751C8D60AF
:1043A00033788E68751C8D60357843EA052300E00C
:1043B0000B8B93810D696D1C0D61002000E00220C4
:1043C00070BD10B50446606A007A00F0020018B1B2
:1043D00021460020FFF744FEA06818B1A26803CA76
:1043E000FEF7A8F9E06818B1E26803CAFEF7A2F97F
:1043F000206918B1226903CAFEF79CF9606918B1F7
:10440000626903CAFEF796F9E06918B10020E16914
:1044100009680860206A18B10020216A09680860EC
:104420000020616A886010BD30B5B1FBF2F4631EF4
:104430004FF080740F4D2C6002240F4D2C600E4CF9
:10444000F03C23610D4C0E4D2C600E4C0E4D2C603B
:104450006C170D4D403D2C600B4C803C20604FF4A0
:104460008044074D50352C600024034DF03DC5F8C5
:10447000044330BDFCED00E0F00004E055CEACC5D7
:10448000B00F00E015007F00800E00E000B593B093
:1044900000BF002001902A48006840F08050284961
:1044A00008600846006800F08050019000BF00BF1F
:1044B00000BF002001902348006840F4404021499B
:1044C00008600846006800F44040019000BF00BF4B
:1044D00001200290000403900220089041050991F8
:1044E00004210A91A8210B9102210C9107210D9121
:1044F00002A8FEF7A5FC08B1FEF706F90F200E9002
:1045000002200F90002010904FF4A05011904FF413
:104510008050129005210EA8FEF762FB08B1FEF74D
:10452000F3F8FEF7D7FA41F20101884205D10648B7
:10453000006840F480700449086013B000BD0000BA
:104540004038024000700040003C024070B500203E
:104550000022022300240221274D2D6805F00C00C3
:1045600020B1042806D0082834D107E0234D244E7A
:10457000356033E0234D224E35602FE01E4D2D1F58
:104580002D68C5F380541C4D2D1F2D6805F03F018B
:1045900054B11C4DB5FBF1F5174E361F3668C6F306
:1045A000881605FB06F209E0144DB5FBF1F5124E35
:1045B000361F3668C6F3881605FB06F20E4D2D1F12
:1045C0002D68C5F301456D1C6B00B2FBF3F50C4E75
:1045D000356003E0094D0A4E356000BF00BF064D4F
:1045E0002D68C5F30315084E705D054D2D68C54057
:1045F000034E356070BD0000083802400024F4000E
:104600009085002000127A005C6100080348006871
:1046100040F47000014908607047000088ED00E038
:1046200010B50248FEF736FF10BD0000948600204A
:1046300010B50268294B98420ED0B0F1804F0BD0D4
:10464000274B984208D0274B984205D0264B9842DA
:1046500002D0264B984203D122F070024B681A43D5
:104660001E4B984220D0B0F1804F1DD01C4B984279
:104670001AD01C4B984217D01B4B984214D01B4B9E
:10468000984211D01A4B98420ED01A4B98420BD038
:10469000194B984208D0194B984205D0184B9842B4
:1046A00002D0184B984203D122F44072CB681A43CF
:1046B00022F080034C6943EA040202608B68C36203
:1046C0000B688362054B984202D0084B984201D197
:1046D0000B6903630123436110BD0000000001402A
:1046E0000004004000080040000C004000040140AD
:1046F00000400140004401400048014000180040D3
:10470000001C00400020004000BFFEE730380A28AF
:1047100001D2012070470020704710B5044600F018
:104720003FFC20B14FF0FF312068FCF745FB10BD86
:1047300010B504462068FCF751FB10BD70B5044667
:104740000020FCF75DFB2060206808B1012504E033
:10475000002521460520FCF777FB284670BD10B5E3
:10476000044600F01DFC10B12068FCF75BFB10BD97
:1047700010B5FCF76FFA10BD10B50446034909687F
:1047800008680121FCF7EEFF10BD000058850020ED
:1047900038B5044600BF002000901A48006840F079
:1047A0002000184908600846006800F020000090CA
:1047B00000BF00BF14481549086053204860601EC0
:1047C000C8600846FEF7C8FD1048FEF7FBFD00BFB5
:1047D0000E480068006900F001000028F8D06FF072
:1047E00001000A49096808610848FEF739FE0748D0
:1047F000FEF776FD0348006820F0200001490860BC
:1048000038BD0000403802400014004038860020C7
:1048100070B501460023002009E000221A4C225402
:104820000024194D00F18002AC54421C90B2884221
:10483000F3DB88B214E0FF240246C51700EB556590
:10484000ED11A0EBC515104E74550F25C41700EBE4
:104850005464E411A0EBC41480343555421C90B26A
:1048600001F108029042E6DB90B209E00022064C1A
:1048700022540024044D00F18002AC54421C90B23A
:104880008028F3DB70BD0000DC86002010B580249A
:104890001C480088FFF7BCFF1B4803781BA240217F
:1048A0001E48FBF7F7FD1D4800F0C0FB1B4800F059
:1048B000BDFB1B4800F030FB00231A4619491A487B
:1048C0000068FCF7EFF91748006805280BD10D4880
:1048D0000088782807D10C480078401C0A490870E5
:1048E0000020104908600748008808300549088002
:1048F0000888C11700EB5161C911A0EBC111014A31
:10490000118010BD748500207285002050756E7472
:10491000756163696F6E3A2025750000DC880020A0
:10492000DC860020788500206485002000B58BB0EF
:1049300014221B4906A8FBF70EFF14221849143154
:1049400001A8FBF708FF00BF002000901548006891
:1049500040F00200134908600846006800F00200B9
:10496000009000BF00BF00BF002000900846006814
:1049700040F0100008600846006800F01000009049
:1049800000BF00BF06A90848FDF796FF01A9074828
:10499000FDF792FF2820FEF7FBF80BB000BD0000EA
:1049A0004C60000830380240000402400010024011
:1049B00010B50446002221460348FCF711FF0349C5
:1049C0000860FFF7B3FF10BD914A00087C85002006
:1049D00010B5FDF7A5FC00F00FF80022042105201A
:1049E000FCF798F90349086008460068FFF7E0FF04
:1049F00010BD00006485002010B500221146064855
:104A0000FCF7EEFE054908600846006810B94FF053
:104A1000FF3010BD0020FCE7D54F00085C8500206A
:104A200070B500261848006800F45C45002416485C
:104A300005601648006800B970BD05F4805000B1EB
:104A4000012405F4804008B14020044305F40040EF
:104A500010B14FF48050044305F4806010B14FF45E
:104A60008020044305F4006010B14FF080700443CF
:104A70004FF080400443214604480068FCF772FE72
:104A8000064600BFD8E70000143C01407C850020AA
:104A90001CB505460024002001900026002301AA31
:104AA00019464348FCF7AEFE074600BFA846002063
:104AB00000907BE04FF0FF3200215008FCF77EFEB3
:104AC0000446761C6FF08040204001904B21384610
:104AD000FCF7AAFE00204FF0804204EA02010040E9
:104AE000002359405840014301D000265EE0062EC5
:104AF0005CD13846FCF7AAFE019800F47C30B0F592
:104B00007C3F02D10A20009044E0019800F460301C
:104B100010B1052000903DE0019800F47C60B0F5F4
:104B20007C6F02D10920009034E0019800F46060AD
:104B300010B1042000902DE0019800F03F003F28C4
:104B400002D10820009025E0019800F0380010B153
:104B5000032000901EE0019800F47C00B0F57C0F6B
:104B600002D10620009015E0019800F4600010B119
:104B7000012000900EE0019800F07C50B0F17C5FC5
:104B800002D10720009005E0019800F0605008B1C4
:104B900002200090009830B14FF47A7300226946E9
:104BA0004046FCF7C9F800200190009082E7000021
:104BB000B54B000870B50646356800241D480069ED
:104BC00000F4004010B14FF4805000E00020044693
:104BD0001848006900F4804008B1402000E000203F
:104BE00004431448006900F4805008B1012000E03B
:104BF000002004431048006800F4806010B14FF4B6
:104C0000802000E0002004430B48006800F40060AE
:104C100010B14FF0807000E00020044344EA4505E5
:104C20006FF080400540294604480068FCF79AFD73
:104C300070BD000000100240100402407C8500207E
:104C400070B580260024002500BF0DE0E0B200F022
:104C500009F9E50103E0002000F03AF96D1C601C41
:104C6000C001A842F7DC641C042CEFDB70BD00001F
:104C700010B504461548046000F060F8AE2000F05E
:104C800001F9A22000F0FEF8A02000F0FBF8C820F7
:104C900000F0F8F8222000F0F5F82F2000F0F2F8EC
:104CA000402000F0EFF8AF2000F0ECF8812000F099
:104CB000E9F8172000F0E6F8A42000F0E3F8A620B9
:104CC00000F0E0F8FFF7BCFF10BD000058850020A1
:104CD0002DE9F04104460D4602F0010003EB0020EF
:104CE000061902F0010003EB002080300719A5F13E
:104CF000200000EBC00C0CEB001081B2002012E091
:104D000001EB400C0CF1010CDFF82C8018F80CC002
:104D100006F800C001EB400C0CF1020C18F80CC0B6
:104D200007F800C0401C0C28EADB0348405C18442C
:104D300080B2BDE8F08100005E50000808B500BFF9
:104D4000002000903F48006840F008003D4908609E
:104D50000846006800F00800009000BF00BF012076
:104D60003949486088600220C860400308603748BD
:104D7000FDF7A2FD012291033448FDF7A5FE00BF17
:104D8000002000902F48006840F020002D49086066
:104D90000846006800F02000009000BF00BF01201E
:104DA0002949486088600220C860000308602848DC
:104DB000FDF782FD012251032548FDF785FE00BF66
:104DC000002000901F48006840F001001D49086065
:104DD0000846006800F00100009000BF00BF0120FD
:104DE0001949486088600220C8604020086019485E
:104DF000FDF762FD012240211648FDF765FE1648C9
:104E000000688168154888471348006801690220D6
:104E10008847114800681249426A48F201309047B9
:104E2000002240210B48FDF74FFE0120FFF7B0FCA8
:104E3000012240210748FDF747FE4FF47A70FFF743
:104E4000A7FC08BD3038024080860020000C0240DC
:104E500000140240000002405485002079470008F9
:104E6000002D310110B50446002000F00BF8102091
:104E700000F008F804F0030141F0B00000F002F87F
:104E800010BD000001B500224FF480410D48FDF730
:104E90001BFE00224FF400510B48FDF715FE0B4896
:104EA000006801214269684690474FF0FF320121B6
:104EB0000846FCF783FC012291030248FDF704FE3B
:104EC00008BD0000000C0240001402405485002080
:104ED00001B500224FF480410C48FDF7F5FD012299
:104EE00051030B48FDF7F0FD0A48006801214269B3
:104EF000684690474FF0FF3201210846FCF75EFC00
:104F0000012291030148FDF7DFFD08BD000C0240BE
:104F100000140240548500202DE9F0410646802708
:104F20000024002500BF0DE0E0B2FFF79BFFE50184
:104F300003E0705DFFF7CCFF6D1C601CC001A84250
:104F4000F7DC641C042CEFDBBDE8F081FDF7EEFD1F
:104F5000FFF79CFAFFF7FAFAFDF71AFF04464FF441
:104F60007A4221460120FFF75FFAFBF773FEFFF755
:104F70002FFDFBF785FE00BFFEE7062809D2DFE81C
:104F800000F008030405060704E003E002E001E086
:104F900000E000BF00BF00BFFEE700BFFEE700006B
:104FA00010B50648007830B9FBF728FE012802DD6D
:104FB0000120024908700148007810BD808500205A
:104FC00010B50446082102480068FCF7CBFB10BD71
:104FD0005C8500201148FFF74BFE00231A46012193
:104FE0000F48FCF70FFC0F4908604FF416710D488D
:104FF0000068FCF719FC4FF400710B48FBF7FFFB4E
:1050000000BF0E20FCF79CFB07E04FF0FF320121B0
:105010000820FCF7D3FBFFF739FCF6E75C8500209E
:10502000C14F000860850020DC86002070B5044672
:105030000025012607E021782B4632460448FFF779
:1050400047FE0546641C20780028F4D170BD00009E
:10505000DC8600204FF04070E1EE100A7047060039
:105060000000000000000000000000000000000040
:10507000000000000000000200007F0100000000AE
:105080000000000000000000000000000000000020
:1050900003070000000700000000000000000000FF
:1050A000000000000000000000072400A4017C00B4
:1050B000A7017C0027002400000000000000000081
:1050C0000000060000CE001101FF031101E2000004
:1050D00000000000000000000000000A00000E00B8
:1050E00011001101CE003800E60011011001E000AE
:1050F00000000000080000E0001E0111012901C6A7
:1051000000A00000010000000000000000020000FC
:105110000700000000000000000000000000000088
:10512000000000000000040000F800060301040075
:10513000000000000000000000000000000000036C
:1051400001040603F8000000000000000000000059
:1051500000000000000000000502000A0007000A2D
:10516000000200000000000000000000000000003D
:1051700000060000100010007C001000100000006D
:105180000000000000000000000002000000070016
:10519000000000000000000000000000000000000F
:1051A000000000032000200020000000000000009C
:1051B00000000000000000000000000002000000ED
:1051C00001000000000000000000000000000000DE
:1051D00000000000000380017C00030000000000CC
:1051E00000000000000000000000000000000600B9
:1051F00000FE00010101010101FE000000000000AD
:105200000000000000000006000004000200FF0192
:10521000000000000000000000000000000000008E
:1052200006000002018101410131010E0100000070
:1052300000000000000000000006000082000101E4
:1052400011011101EE00000000000000000000004C
:105250000000060000600058004600FF014000000A
:1052600000000000000000000000000600009C009C
:105270000B0109010901F10000000000000000001D
:1052800000000000060000FE00110109010901F202
:105290000000000000000000000000000006000008
:1052A0000100C101390007000100000000000000FA
:1052B000000000000000060000EE001101110111C5
:1052C00001EE0000000000000000000000000006E9
:1052D00000009E00210121011101FE0000000000DC
:1052E00000000000000000000200000401000000B7
:1052F00000000000000000000000000000000000AE
:105300000002000040070000000000000000000054
:10531000000000000000000000000600001000284F
:1053200000280044004400000000000000000000CD
:1053300000000006480048004800480048004800B7
:105340000000000000000000000000000600004413
:1053500000440028002800100000000000000000A9
:1053600000000000000600000600010061011100BD
:105370000E000000000000000000000000000C0013
:1053800000F0010C02E204120909090909F10919E6
:105390000902058604780207800170002E002100B2
:1053A0002E007000800100000000000000000000DE
:1053B000070000FF011101110111011101FE0000A0
:1053C0000000000000000000000800007C008200D7
:1053D0000101010101018200440000000000000001
:1053E0000000080000FF010101010101010101822B
:1053F000007C000000000000000000070000FF012A
:105400001101110111011101110100000000000042
:1054100000000000060000FF011100110011000152
:105420000000000000000000000000000008000074
:105430007C00820001010101110192007400000052
:10544000000000000000080000FF01100010001024
:105450000010001000FF010000000000000000022A
:105460000000FF010000000000000000000000003C
:10547000000000000000000005C000000100010065
:1054800001FF00000000000000000000000000001C
:1054900000080000FF0120001000280044008200E6
:1054A00001010000000000000000070000FF0100F3
:1054B00001000100010001000100000000000000E7
:1054C000000000080000FF0106007800800178005D
:1054D0000600FF010000000000000000080000FFBF
:1054E0000102000C00100060008000FF01000000BD
:1054F00000000000000800007C00820001010101A2
:10550000010182007C000000000000000000070094
:1055100000FF0111001100110011000E0000000039
:10552000000000000000000800007C008200010173
:105530004101410182007C010000000000000000E8
:10554000080000FF011100110011003100D1000E10
:10555000010000000000000000070000CE00110163
:10556000110111011101E60000000000000000001F
:10557000000007010001000100FF0101000100011E
:1055800000000000000000000000000800007F0094
:10559000800000010001000180007F000000000089
:1055A000000000000703001C006000800160001C78
:1055B000000300000000000000000000000B0700D6
:1055C0007800800170000E0001000E007000800164
:1055D0007C0003000000070101C60028001000281D
:1055E00000C60001010000000000000000000007EC
:1055F000010006000800F00108000600010000009C
:10560000000000000000000007000181016101119D
:10561000010D010301010100000000000000000075
:1056200000030000FF07010400000000000000006C
:10563000000000000000000000000303007C008068
:105640000100000000000000000000000000000059
:10565000000000020104FF0700000000000000003D
:105660000000000000000000000000000518000617
:10567000000100060018000000000000000000000B
:1056800000000000000700040004000400040004FF
:1056900000040004000000000000000000000300FF
:1056A00000010002000000000000000000000000F7
:1056B00000000000000000060000C80024012401D2
:1056C000A400F8010000000000000000000000003D
:1056D000060000FF01880004010401F8000000003A
:1056E000000000000000000000050000F8000401B8
:1056F000040188000000000000000000000000001D
:105700000000060000F800040104010801FF010088
:105710000000000000000000000000060000F8008B
:10572000240124012401B800000000000000000052
:1057300000000000040400FE01050001000000005C
:105740000000000000000000000000000006000053
:10575000F804040504058804FC03000000000000B0
:10576000000000000000060000FF01080004000423
:1057700000F801000000000000000000000000022E
:105780000000FD010000000000000000000000001B
:105790000000000000000000020004FD0300000003
:1057A00000000000000000000000000000000000F9
:1057B00000060000FF0120003000C80004010000C6
:1057C00000000000000000000000020000FF0100D7
:1057D00000000000000000000000000000000000C9
:1057E0000000000A0000FC01080004000400F801A9
:1057F000080004000400F80100000000060000FC9E
:1058000001080004000400F801000000000000008E
:105810000000000000060000F8000401040104017B
:10582000F80000000000000000000000000006007A
:1058300000FC07880004010401F8000000000000DB
:1058400000000000000000060000F8000401040150
:105850008800FC07000000000000000000000000BD
:10586000040000FC0108000400000000000000002B
:105870000000000000000000000600009800240165
:1058800024012401C8000000000000000000000006
:105890000000030400FF01040100000000000000FC
:1058A0000000000000000000000000060000FC00F6
:1058B000000100010001FC010000000000000000E8
:1058C00000000000050C007000800170000C00005A
:1058D00000000000000000000000000000090C00B3
:1058E0007000800170000C007000800170000C00DE
:1058F000000000000000050401D8002000D80004CA
:105900000100000000000000000000000000000591
:105910000C007004800370000C0000000000000008
:105920000000000000000000050401C40124011C67
:105930000104010000000000000000000000000061
:1059400000032000DE03010400000000000000004E
:1059500000000000000000000000020000FF07003F
:105960000000000000000000000000000000000037
:105970000000000400000104DE032000000000001D
:1059800000000000000000000000000007000020F0
:105990000010001000200020001000000000000097
:1059A0000000000000080000FE01020102010201E7
:1059B00002010201FE0100000000000000000000E2
:1059C00000000000000000000000000000000000D7
:1059D00000000000000000000000000000000000C7
:1059E00000000000000000000000000000000000B7
:1059F00000000000000000000000000000000000A7
:105F60000000000000000000060000000000001C0F
:105F70000022001C000000000000000000000000E3
:105F80000000000000000000000000000000000011
:105F90000000000000000000000000000000000001
:105FA00000000000000000000000000000000000F1
:105FB00000000000000000000000000000000000E1
:105FC00000000000000000000000000000000000D1
:105FD00000000000000000000000000000000000C1
:105FE00000000000000000000000000000000000B1
:105FF00000000000000000000000000000000000A1
:106000000000000000000000000000000000000090
:106010000000000000000000000000000000000080
:106020000000000000000000000000000000000070
:106030000000000000000000000000000000000060
