:020000040800F2
:10000000D8950020BD0200082D6100087D4600083B
:1000100029610008752A0008959300080000000077
:10002000000000000000000000000000FD020008C9
:10003000832B00080000000097030008A7030008B6
:10004000D7020008D7020008D7020008D70200082C
:10005000D7020008D7020008D7020008D70200081C
:10006000D7020008D7020008D7020008D70200080C
:10007000D7020008D7020008D7020008D7020008FC
:10008000D7020008D7020008D7020008D7020008EC
:10009000D7020008D7020008D7020008D7020008DC
:1000A000D7020008D7020008D7020008D7020008CC
:1000B000D7020008D7020008D7020008A9460008A6
:1000C00099460008D7020008D702000869610008B5
:1000D000D7020008D7020008D7020008CD7C00082C
:1000E000212C0008D7020008D7020008D702000818
:1000F000D7020008D7020008D7020008D70200087C
:10010000D7020008D7020008D7020008D70200086B
:10011000D7020008D7020008D7020008D70200085B
:10012000D7020008D7020008D7020008D70200084B
:10013000D7020008D7020008D7020008D70200083B
:10014000D7020008D7020008D7020008D70200082B
:10015000D7020008D7020008D7020008D70200081B
:10016000D7020008D7020008D7020008D70200080B
:10017000D7020008D7020008D702000800000000DC
:10018000D7020008D7020008D7020008D7020008EB
:10019000D7020008D7020008D7020008D7020008DB
:1001A000D7020008D7020008D702000800F002F8C2
:1001B00000F070F80AA090E8000C82448344AAF191
:1001C0000107DA4501D100F065F8AFF2090EBAE88F
:1001D0000F0013F0010F18BFFB1A43F0010318477B
:1001E00020AE000040AE00000A444FF0000C10F8B2
:1001F000013B13F0070408BF10F8014B1D1108BFA5
:1002000010F8015B641E05D010F8016B641E01F844
:10021000016BF9D113F0080F1EBF10F8014BAD1C94
:100220000C1B09D16D1E58BF01F801CBFAD505E0B2
:1002300014F8016B01F8016B6D1EF9D59142D6D30C
:10024000704700000023002400250026103A28BF34
:1002500078C1FBD8520728BF30C148BF0B60704738
:10026000642900F0ED81002070471FB502F0F6FB15
:100270009DE8030000F019FC00F0CEFD0400002012
:1002800000210AF08FF8401C60601FBD10B500F01F
:10029000C8FD10BD00F09BFD114603B409F0F6F84F
:1002A00003BCFFF7E2FF09F0E1FB00F0D0FD03B46F
:1002B000FFF7ECFF03BC00F0FBFC0000094880479F
:1002C00009480047FEE7FEE7FEE7FEE7FEE7FEE738
:1002D000FEE7FEE7FEE7FEE704480549054A064B50
:1002E000704700007D700008AD010008D88F002025
:1002F000D8950020D8910020D89100201EF0040F3E
:100300000CBFEFF30880EFF30980816911F8021C3C
:10031000002932D101B590E80F10E047BDE8005048
:10032000CCF80000244B93E80600914208BF7047C8
:100330001A6041B91EF0100F10D1204B186820F040
:10034000010018600AE02CE9F00F1EF0100F08BF42
:100350002CED108A81F822E0C1F838C0906B92F839
:10036000221061F0FF0E1EF0100F08BFB0EC108AD3
:10037000B0E8F00F80F309887047114A136899427A
:10038000FAD801B552F821C00FC8E047BDE80050C7
:10039000CCF80000704701B501F0CCF9BDE8014090
:1003A000EFF3098CBEE701B501F022FCBDE8014086
:1003B000EFF3098CB6E700BF3088002034EF00E08F
:1003C000A0AD00080B3020F0070070472DE9F04188
:1003D00017460E460446FFF7F5FFA042054633D9FF
:1003E000002F1CBF06F10C0009F025F83046746898
:1003F000F4B12168A94217D305F1080291423CBF2C
:100400006168416007D3626861194A602268521BC3
:100410000A6041602560002F1CBF06F10C0009F046
:100420002CF8201DBDE8F08120466468002CE0D146
:100430002946304600F025FB0028D7D1002F1CBFED
:1004400006F10C0009F019F80020BDE8F08110B5A4
:10045000044600F00BFB01682046BDE81040012275
:10046000B4E770B516460D46041F002808BF70BDDE
:10047000002E1CBF05F10C0008F0DDFF2B4658686C
:10048000002818BFA04238BF0346F8D31968CA181D
:10049000A24218BF5C6003D122681C461144196057
:1004A00021680A19824218BF606004D14268626004
:1004B000006808442060002E1CBF05F10C0008F005
:1004C000DCFF70BD10B5044600F0D0FA016820468C
:1004D000BDE810400122C4E753EA020C00F0698035
:1004E0002DE9F04B4FF00006002B1FBFB3FA83F548
:1004F00003FA05F424FA05F65E4012BF1643B2FA79
:1005000082F502FA05F4C5F120051EBF22FA05FCAA
:1005100044EA0C04203556EA044C4FEA144418BF50
:10052000641C4FF000084FF00009904271EB030C7F
:1005300039D3002919BFB1FA81F701FA07F6B0FAE9
:1005400080F700FA07F6C7F120071EBF20FA07FC64
:1005500046EA0C062037B6FBF4FCA7EB0507103F74
:1005600007F01F0BCBF120060CFA0BFB2CFA06F65A
:1005700044BFB3460026202FA4BF5E464FF0000BB9
:100580005BEA060C08BF4FF0010B19EB0B09ABFB44
:10059000027C48EB0608C01B06FB02CC0BFB03CC1D
:1005A00071EB0C01C1E70B46024641464846BDE8E7
:1005B000F08B13B54FF000004FF00001AFF3008057
:1005C000BDE81C40704700000FB41CB5074B06AADD
:1005D0007B4469460090059800F0FDFA00206946CA
:1005E00000F00CFB1CBC5DF814FB000029060000A9
:1005F00070B5044685690068C10601D5302600E063
:100600002026C00707D070BDD4E9012130469047AD
:10061000206A401C20626D1EF6D570BD70B5044680
:1006200085690078C00707D170BDD4E90121202079
:100630009047206A401C20626D1EF6D570BD0000F8
:100640002DE9F0410646002410687529314616A5AB
:1006500010D0AFF30080002802DA404213A507E073
:1006600031688A0701D512A502E0490704D511A512
:10067000012401E0AFF3008000210A2206F12407E3
:1006800009E0B0FBF2FCB0FBF2F302FB1C003030DF
:1006900078541846491C0028F3D123462A46304690
:1006A000BDE8F04100F039BA000000002D00000064
:1006B0002B000000200000002DE9F05F8946044671
:1006C0004FF0000ADFF824B1FB44C0F820A0204618
:1006D000E168884700287DD0252806D0D4E901218B
:1006E0009047206A401C2062F1E700255F462046C3
:1006F000E16888472028064607DB312E05D2B81965
:1007000010F8200C08B10543F1E7A80701D525F042
:100710000405C4F81CA00027C4F818A02A2E09D08C
:10072000304608F081FE38B304EB8708303EC8F845
:10073000186019E059F8041B204604EB8702916108
:10074000E1688847012F064618D1E069002820DAC1
:1007500025F020051DE0D8F8180000EB800006EB1E
:1007600040003038C8F818002046E168884706463F
:1007700008F05AFE0028EED1012F0AD02E2E08D103
:100780002046E16888477F1C0646022F45F0200579
:10079000C4DBA069002803DA404245F00105A061EE
:1007A000E80701D025F01005A6B1A6F141001928EF
:1007B00002D8203645F400654A4631462046256079
:1007C0004D46FFF74DFD60B1012807D0ED1D25F026
:1007D000070000E007E000F1080978E705F10409E7
:1007E00075E730467AE7206ABDE8F09F68A8000008
:1007F00070B5064600F03FF90468054630460A2207
:10080000002100F000FA2C6070BD00000EB5054616
:1008100014460E4613A000F039FA284600F036FAC6
:1008200016A000F033FA304600F030FA15A000F0C0
:100830002DFA00218DF80B100A210DF10A008DF818
:100840000A1008E094FBF1F201FB124294FBF1F470
:10085000303200F8012D002CF4DC00F017FA00F023
:100860000AFA00002A2A2A20617373657274696F7C
:100870006E206661696C65643A2000002C20666910
:100880006C6520002C206C696E652000401ECAB289
:1008900010F8011F8A4202D00029F9D100207047C8
:1008A00010B5431C02E010F8011B71B18107FAD1A9
:1008B0004FF0013202C88C1A8C4314EAC211F9D0ED
:1008C000C01A0A0603D0C01E10BDC01A10BD0A040B
:1008D00001D0801E10BD0902FCD0401E10BD032AAD
:1008E00040F2308010F0030C00F0158011F8013B4D
:1008F000BCF1020F624498BF11F801CB00F8013B34
:1009000038BF11F8013BA2F1040298BF00F801CBF7
:1009100038BF00F8013B11F0030300F02980083ACA
:10092000C0F0088051F8043B083A51F804CBA0E825
:100930000810F5E7121D5CBF51F8043B40F8043B7A
:10094000AFF30080D20724BF11F8013B11F801CBAF
:1009500048BF11F8012B24BF00F8013B00F801CB80
:1009600048BF00F8012B704701B5FFF7B8FF01BD84
:1009700010B5203AC0F00B80B1E81850203AA0E83A
:100980001850B1E81850A0E81850BFF4F5AF5FEA6E
:10099000027C24BFB1E81850A0E8185044BF18C921
:1009A00018C0BDE810405FEA827C24BF51F8043BC8
:1009B00040F8043B08BF7047D20728BF31F8023B1C
:1009C00048BF11F8012B28BF20F8023B48BF00F8B0
:1009D000012B70474FF000020429C0F0128010F084
:1009E000030C00F01B80CCF1040CBCF1020F18BF0B
:1009F00000F8012BA8BF20F8022BA1EB0C0100F09E
:100A00000DB85FEAC17C24BF00F8012B00F8012B70
:100A100048BF00F8012B70474FF0000200B51346A5
:100A200094469646203922BFA0E80C50A0E80C500E
:100A3000B1F12001BFF4F7AF090728BFA0E80C50BF
:100A400048BF0CC05DF804EB890028BF40F8042BB8
:100A500008BF704748BF20F8022B11F0804F18BF25
:100A600000F8012B704770477047704710B500F0D1
:100A700025F9083010BD08F0ABBC704770477047CF
:100A8000704738B504460A4600206946AFF3008037
:100A9000002808BF38BD02460099204600F01AF928
:100AA000012038BD012000F08AB9F8B5AFF300800D
:100AB000054600200C46102000BF0646A819A0429B
:100AC0000DD9324669460020AFF30080070008BF09
:100AD00000F075F90098A04218BF0546C419FFF749
:100AE000C5FF05600746F01D20F00700461928469F
:100AF00000F00AF8B44208BFF8BDA21B31463868BE
:100B0000BDE8F84000F0E6B800210160C0E901103E
:100B10000C3008F0A1BC102070472DE9F0470D46BD
:100B200099469246044600F124080168880604D5D7
:100B3000E06921F01001216000E00120A84201DD00
:100B4000471B00E00027A1697A1902EB0900081A87
:100B5000A0612078C00602D42046FFF749FD002698
:100B600008E0D4E901211AF806009047206A401CE9
:100B7000761C20624E45F4DB2078C0060AD520465C
:100B8000FFF736FD06E0D4E9012130209047206AC6
:100B9000401C2062381EA7F10107F4DC07E0D4E90D
:100BA000012118F805009047206A401C2062281E89
:100BB000A5F10105F3DC2046FFF730FD20780006A3
:100BC00002D50220BDE8F0870120FBE701694A1C3D
:100BD00002610878704700B58FB0CDE9013100217E
:100BE000059105497944CDE9031011466846FFF7A0
:100BF00063FD0FB000BD0000E5FFFFFF0A6802F8CB
:100C0000010B0A6070472DE9F04791460F46804678
:100C10000446002614F8015B2DB100F053F800687B
:100C2000405DC007F6D12B2D02D02D2D18D0641EAB
:100C30004A463946204600F06CF827B13968A1428F
:100C400001D1C7F800804FF0020471050BD5404276
:100C5000002803DDFFF70FFF0460A007BDE8F08761
:100C600046F48066E4E70028F8DAFFF704FF046042
:100C70006FF00040F2E710B5002000F099F8FFF7A0
:100C800005FBBDE81040012000F012B810B5044685
:100C900002E0641C00F004F820780028F9D110BDAF
:100CA00008B569468DF800000320ABBE08BD000002
:100CB00001491820ABBEFEE726000200004870473D
:100CC000748F002010B500F0A7F8001D10BD00BF04
:100CD000D596000030B404468C464368002B18BFFC
:100CE000634538BF1846F8D303681844604507D0F9
:100CF000C81C20F0070000F1040CACEB0100121A34
:100D00002146CCF8002030BC00220CF10400FFF793
:100D1000A8BB2DE9F05F824615468B4600270AF1F5
:100D20000104B9460078302801D09DB113E014F8D1
:100D3000010B0127782803D0582801D045B10AE0DB
:100D40000DB1102D07D1002714F8010B102502E07A
:100D5000082500E00A250026B0460EE005FB080045
:100D600005FB06F101271FFA80F801EB1046B6F5E6
:100D7000803F00D3B94614F8010B294600F059F81A
:100D80000028EBDABBF1000F05D00FB1641E00E0C4
:100D90005446CBF80040B9F1000F06D0FFF76BFEC8
:100DA00002210160C81EBDE8F09F48EA0640FAE74C
:100DB00010B500F05BF8BDE8104000F051B810B578
:100DC00000F06CF8BDE8104000F04AB87047754676
:100DD000FFF774FFAE4605006946534620F0070052
:100DE000854618B020B5FFF777FABDE820404FF0F0
:100DF00000064FF000074FF000084FF0000B21F005
:100E00000701AC46ACE8C009ACE8C009ACE8C009D1
:100E1000ACE8C0098D46704710B5FFF74FFF203092
:100E200010BD10B5FFF722FE0068BDE8104000F0CD
:100E30005DB83A2800D2303820F02002412A01D390
:100E4000A2F13700884201D34FF0FF30704710B550
:100E50000446AFF300802046BDE81040FFF727BAF4
:100E6000002801D0FFF724BF7047000010B5002113
:100E700002A000F040F8012010BD00005349474196
:100E80004252543A2041626E6F726D616C207465FB
:100E9000726D696E6174696F6E00000010B5012893
:100EA00005D0002103A000F026F8012010BD09A103
:100EB000F8E7000053494752544D454D3A204F75CD
:100EC00074206F662068656170206D656D6F727942
:100ED000000000003A2048656170206D656D6F72FA
:100EE0007920636F727275707465640010B50C3090
:100EF00008F0ACFA10BD70B505460C460A2000E0BB
:100F00006D1CFFF7CDFE35B128780028F8D102E03E
:100F1000641CFFF7C5FE14B120780028F8D1BDE8A5
:100F200070400A20FFF7BCBE4FF0013C50F8042B84
:100F300051F8043B9A4221D1A2EB0C03934313EAEC
:100F4000CC1317D150F8042B51F8043B9A4215D119
:100F5000A2EB0C03934313EACC130BD150F8042BF0
:100F600051F8043B9A4209D1A2EB0C03934313EAD4
:100F7000CC13DBD04FF00000704700BFD01A01BA8D
:100F8000B1FA81F101F0180122FA01F0CB40C1F170
:100F90002001DBB2C0B2C01A2CFA01F3D11A91437E
:100FA00011EAC311E6D1704710B500F1280151E8EC
:100FB000002F12B9BFF32F8F04E0531E41E8003415
:100FC00004B1F4E772B12C300121006850B1821CE9
:100FD000D2E84F3FC2E8441F04B1F9E71A0602D035
:100FE0000830F2E7002010BD70B5024652F8305FBD
:100FF0004DB1CC7800235DB12E46ED78A5420DD2DF
:1010000075683346F7E70023C162C1E901330DE09B
:101010000024C1E9014300F12C0403E0C1E90163AC
:1010200006F108042160002B18BF1A1D116028303A
:1010300050E8001F4A1C40E8002303B1F8E770BDE8
:10104000D1E9012312B193608B6800E0C362191DDE
:10105000002B08BF00F130010A60704701480068AA
:10106000704700BF10E000E007480178012905D172
:1010700006494FF080620A6000210170044801684F
:1010800041F0010101607047D48F002004ED00E0C1
:1010900010E000E04FF0FF307047000040B10B4916
:1010A0000968B1FBF0F0411E0020B0EB116F02D0D7
:1010B0004FF0FF307047064AFF231370054A06239E
:1010C00013605160044908709060704718880020D0
:1010D00023ED00E010E000E0D48F00202168D4E987
:1010E0000223204600F059BA6FF005007047002136
:1010F00000220646002700F063BD6FF00500704730
:101100006FF0030010BD204600F0B1BC10B593078E
:1011100012D400F12803D00715D153E8000F08427C
:1011200003D1BFF32F8F002005E020EA010243E83E
:10113000002404B1F1E710BD806AD20700EA010380
:1011400012D1A3B912E053E8000F00EA01028A426B
:1011500003D0BFF32F8F002005E020EA010243E80F
:10116000002404B1EFE710BD8B4200D0002010BD79
:10117000B0B5104A0023443215462C683CB12569AD
:10118000A94209D3491B04F10C052346F5E70024C5
:101190000161C0E9023406E00161C0E90234A060E7
:1011A0002569691A2161002B18BF03F10C02106038
:1011B000B0BD00BF1C880020C16829B182680369E6
:1011C0008A600A691A440A618068044A00F10C03C3
:1011D000002808BF02F14403196070471C880020F2
:1011E000EFF3058048B9EFF3108030B9EFF31180C9
:1011F00018B9EFF31480C00702D10448007A704791
:10120000DFF804C000DF70470D1F00081C880020B5
:10121000EFF3058028B9EFF3108010B9EFF31180D8
:1012200010B10348C0687047DFF808C000DF70479E
:101230001C880020191F000880B500F0F9F8EFF3B2
:10124000058028B9EFF3108010B9EFF3118010B1C9
:101250006FF0050080BDDFF808C000DF80BD00BF73
:10126000251F0008EFF3058028B9EFF3108010B9AF
:10127000EFF3118008B1FFF740BFDFF808C000DFCF
:10128000704700BF25200008F8B50546EFF305803C
:1012900014460E4628B9EFF3108010B9EFF3118011
:1012A000F0B1D5B12878FA2817D16FF00300EEB16C
:1012B000E3B92846FFF778FEC8B16A6A074600F12D
:1012C0000C013046FFF70BFB0CB1F8782070384664
:1012D000FD6000F075FA0020F8BD6FF00300F8BD66
:1012E0002846DFF810C03146224600DFF8BD6FF017
:1012F0000200F8BDB1200008EFF305832BB9EFF32E
:10130000108313B9EFF311830BB100207047DFF89E
:1013100008C000DF704700BF7D2100082DE9F041C3
:101320000646EFF3058090460D4628B9EFF310808E
:1013300010B9EFF3118018B3EEB13078FA281AD152
:101340006FF00307CDB1C3B906F10C0000F0E3F86C
:10135000F0B1726A04460C302946FFF7C0FAF92052
:101360000027C4E9015684F8038020702046A77046
:1013700000F026FA01E06FF003073846BDE8F0817F
:101380003046DFF814C02946424600DFBDE8F08150
:101390006FF00207F1E700BF95220008EFF3058226
:1013A0002AB9EFF3108212B9EFF3118212B16FF084
:1013B00005007047DFF804C000DF704741230008D4
:1013C000EFF3058129B9EFF3108111B9EFF3118122
:1013D00011B16FF005007047DFF804C000DF7047FF
:1013E000D1230008EFF3058129B9EFF3108111B97A
:1013F000EFF3118109B100207047DFF808C000DF6A
:10140000704700BF81240008EFF3058129B9EFF38D
:10141000108111B9EFF3118111B16FF00500704720
:10142000DFF804C000DF7047E924000808F0D8BCEA
:101430007047F0B5A8B1002379B3032A2DD803462D
:101440000F3153F8085F21F007012C46EE1A5D6852
:1014500025F00307F61B8E4205D225682346002D92
:10146000F3D1002319E0D0E900760E4446603844F9
:1014700050F8047CB74202D2083846605D6845B136
:1014800025F003001143C45018441860034641601E
:1014900002E041EA0200586008331846F0BDB0B5DA
:1014A00060B159B100F10804A1F10802002394428F
:1014B00006D0254624682B46002CF8D10020B0BD6C
:1014C00051F8045C446825F00305641B446013B1C3
:1014D0001068186002E0002041F8040C0120B0BD43
:1014E00018B102460843400701D000207047002091
:1014F00018290FD310B58B18A3F10804946043F892
:10150000080C10249368C2E900145C60D0600120CC
:10151000BDE81040704710B5002817D0014600F113
:10152000140252E8000F10B9BFF32F8F04E00368D4
:1015300042E8003404B1F4E740B1043151E8002F2F
:10154000531C41E8003404B1F8E710BD002010BD81
:10155000B0B500281ED0C2688A421BD802698A42F0
:1015600018D900F1140213680B60BFF35F8F52E8C3
:10157000003F0C689C42F6D142E8001505B1F2E745
:10158000043050E8001F4A1E40E8002303B1F8E78A
:101590000020B0BD6FF00300B0BDB0B598B191B1FF
:1015A0008AB1044600209BB1C4E9001004F1080090
:1015B00002FB013563612CC0481E30B19918013817
:1015C00019600B46F9E70020B0BD0020186001202B
:1015D000B0BDF8B50446807848B3E5682146284692
:1015E000FFF72EFD002005F10C0621462070304645
:1015F000FFF7AEFFA868C8B13046FFF78CFFA8B16F
:101600000446284600F033FAFFF771FD304600F03B
:1016100089FA41686A6A064604F10C00FFF75FF92F
:10162000F920A7702070B068E07021E0F8BDA568CF
:10163000A868E8B1407883281AD1284600F017FA44
:10164000FFF755FD304600F06DFA064640686A6ABD
:1016500004F10C01FFF743F9B06808B1E1780170BB
:10166000277005F10C002146BDE8F840FFF770BF78
:1016700028462146BDE8F840FFF7B6BC80B50748CC
:101680000821D0E91A2000F079FD0549C86400213D
:10169000002808BF4FF0FF31084680BD48AF000862
:1016A0001C8800202DE9F041044600274FF0010876
:1016B000D4B125466469E8780007F9D5A8682F7683
:1016C0000028F5D0284600F0D2F900210022064675
:1016D00000F076FAF06AC5E90367686100B1056158
:1016E00085F81880F562E3E7BDE8F081B0B5C2780F
:1016F000920718D5C068C36A90F82120DC78A40747
:101700000AD59C688C4208BF8C682CB194F92040A3
:1017100055B2AC42C8BFE2B25B69002BEED190F883
:101720002010914200D1B0BD80F82020BDE8B0402B
:1017300000F0C6B970B5214C04F1560504F15A0603
:10174000B4F85400D5E85F1F11B9BFF32F8F04E040
:101750004A1EC5E8532F03B1F4E7090429D0D6E89F
:101760005F1F4A1C904200D80022C6E8532F03B1E5
:10177000F5E788B2E16D51F82000D0B10178F13978
:101780000829DDD8DFE801F006050905050C0F057D
:101790001200D5E7216E8847D2E7616E8847CFE710
:1017A000A16E8847CCE7E16E8847C9E7216F88477B
:1017B000C6E70020BDE8704000F0F4B81C880020A7
:1017C00070B50146194800F15603B0F85420D3E82B
:1017D0005F4FA24202D8BFF32F8F04E0651CC3E81D
:1017E000565F06B1F3E7A3B2934214D200F1580357
:1017F000D3E85F4F651CAA4200D80025C3E8565FB6
:1018000006B1F5E7A2B2C36D43F82210417A39B1AF
:101810000121817270BD0220BDE87040FFF706BE55
:1018200003484FF08051016070BD00BF1C8800204C
:1018300004ED00E010B5012190F9203041700A4913
:101840001C310A46896841B191F920409C42F8DC7C
:10185000C0E9021290600C3104E00021C0E90212DC
:1018600002F10801086010BD1C880020B0B54A1CB8
:101870000DD01D4A00232C3215462C68E4B1E569D1
:10188000A94221D3491B04F110052346F5E7164967
:10189000002301F1300214461946236803F11004B5
:1018A000002BF9D14FF0FF33C3610023C0E90431AD
:1018B000C1B101F1100215E0C161C0E90443002B80
:1018C00018BF03F110020DE0002BC0E90443C16111
:1018D00018BF03F1100210602CB1E269511A04F133
:1018E0001402E1611060B0BD1C880020C26901696A
:1018F000531C0AD021B143694B61CB691A44CA61B8
:1019000042693AB9084AD16207E009B142694A61BD
:1019100042692AB10023116143610021C16170470E
:10192000014A1163F9E700BF1C88002070B5134D10
:10193000EC6A1CB1E0690138E06100D070BD04269A
:1019400060781338B6EB301F08D120460178F129B2
:1019500001D1C068FAE72146FFF7C8FE204600F033
:10196000A5F8204600F0D4F8246924B1E0690028E5
:10197000E6D000206061EC6270BD00BF1C880020D2
:10198000C178C90708BF00F037B80021C160042141
:10199000417003494A6B826002B1D060486370476E
:1019A0001C88002070B5134E05467469307A65B105
:1019B000022805D194F9200095F92010814211DC0C
:1019C0002846BDE8704000F0A3B8022810D1756A1F
:1019D00075B194F9200095F92010814208DD284660
:1019E00000F064F82046FFF725FF0220B56168701B
:1019F00070BD00BF1C88002010B504460020208068
:101A0000A07881070DD5C00605D41048216B406F22
:101A1000FFF745FD05E00D48216BD0F88400FFF786
:101A200097FDA078C00708BF10BD0849D1F888000D
:101A300020B12146BDE81040FFF78ABDD1F88000F3
:101A40002146BDE81040FFF72ABD00BF1C880020DA
:101A500010B50446806918B10021002200F0B0F8EA
:101A60006078232802D1A0680021816110BD014661
:101A7000806882688A6002B1D1600021C1607047CD
:101A800010B591F920300246806840B190F92040AD
:101A90009C42F8DAC1E9020291600C3004E00020B7
:101AA000C1E9020202F10800016010BDC16831B154
:101AB00082688A60826802B1D1600021C16070478B
:101AC000B0B50446054625B12878F12802D1ED6865
:101AD000F9E7B0BD2046FFF7E9FF28462146BDE8FB
:101AE000B040FFF7CDBF10B50446407833280DD184
:101AF00094F82320616A2046FFF708FB30B10146C5
:101B000020460022BDE8104000F05AB810BD000089
:101B100001460120487002481C30FFF7B1BF00BFEA
:101B20001C88002090F82210C9064FF0200158BFF1
:101B30006021806B0844704770B50B4C0B48002146
:101B4000A26D666E00F0D4FD094DA86246B1B047A3
:101B500040B9E96CD4E9172000F0CAFDA86408B1C7
:101B6000012070BD002070BD48AF0008019E000834
:101B70001C8800200249886102214170704700BF23
:101B80001C88002010B50D4C227A022A14D1626AFA
:101B900092B1626950701046FFF768FE606A816812
:101BA000616211B104F11C02CA600221A06141709E
:101BB0000021C160012010BD002010BD1C88002044
:101BC000B0B5044690F822001546C0064FF020003C
:101BD00058BF6020A26B81502046FFF787FE204649
:101BE000002DBDE8B04008BFFFF792BFFFF7DABE97
:101BF000B0B5FFF733FA1B4DE8680130E860FFF736
:101C000095FE0020FFF7CEFE286D00B18047296CBD
:101C100071B1A869EA6B904205D0C269E86322B944
:101C2000C1610A4601E0C2691AB1511EC16100D00A
:101C3000B0BD297A0229FBD16C6A002CF8D090F84B
:101C4000200094F820108142F2D12046FFF72EFFA9
:101C5000E86BFFF75DFF2046FFF78CFF286CEC6315
:101C6000E061B0BD1C88002080B5FFF707FD10B112
:101C70004FF0FF3080BD024802490165002080BD61
:101C80001C880020A91C000882B004466D4620462E
:101C9000294600224FF0FF33FFF7F6FA0028F6D16D
:101CA000DDE900108847F2E72DE9F041194D6C6C31
:101CB00074B320696E694FF001080138206134B3B4
:101CC000206920BBE06808B1A16881606864E86CA5
:101CD00004F1180100220023FFF720FB60B1D5E9D1
:101CE0000570214668610320FFF7A0FB696986EA59
:101CF0000700084308BF0646E078012811BF84F8B2
:101D0000018061692046FFF733FA6C6CD7E76E619A
:101D1000BDE8F0811C880020DFF804C000DFFEE78A
:101D20009D250008EFF3058129B9EFF3108111B962
:101D3000EFF3118109B1FFF7D7B9DFF808C000DF71
:101D4000704700BFE9250008EFF3058028B9EFF3DD
:101D5000108010B9EFF3118008B100207047DFF850
:101D600008C000DF704700BF1D260008B0B5EFF3C4
:101D700005822AB9EFF3108212B9EFF31182DAB1BA
:101D80006FF00304B0B1002914D40278F12A11D104
:101D90004278042A02D16FF002040BE000F128021D
:101DA00052E8003F43EA010442E8004505B1F7E785
:101DB000FFF706FD2046B0BDDFF804C000DFB0BD70
:101DC00031260008EFF305832BB9EFF3108313B925
:101DD000EFF311830BB1FFF787B9DFF808C000DF1D
:101DE000704700BF99260008EFF3058028B9EFF38C
:101DF000108010B9EFF3118010B1034840697047AB
:101E0000DFF808C000DF70471C880020E5260008C6
:101E1000EFF305832BB9EFF3108313B9EFF31183BD
:101E20000BB100207047DFF808C000DF704700BF2B
:101E3000F1260008EFF305822AB9EFF3108212B9F8
:101E4000EFF311820AB1FFF74FB9DFF808C000DFE6
:101E5000704700BFDD280008EFF3058028B9EFF3D5
:101E6000108010B9EFF3118008B1FFF73DB9DFF82A
:101E700008C000DF704700BF25290008EFF3058187
:101E800029B9EFF3108111B9EFF3118109B10020E5
:101E90007047DFF808C000DF704700BF5D29000809
:101EA00010B5EFF305842CB9EFF3108414B9EFF3F8
:101EB00011840CB1002010BDDFF804C000DF10BD9C
:101EC00075290008EFF305822AB9EFF3108212B9E1
:101ED000EFF3118212B16FF005007047DFF804C014
:101EE00000DF7047ED290008EFF3058129B9EFF312
:101EF000108111B9EFF3118111B16FF00500704736
:101F0000DFF804C000DF7047352A00080148007A76
:101F1000704700BF1C8800200148C068704700BFA0
:101F20001C8800202DE9F843DFF8EC8098F80800C1
:101F300028B101286CD04FF0FF30BDE8F883374F4F
:101F4000388AD7E90B41A8F85400D7E90202C8F84B
:101F500040002046C8F85C20FFF7C2FA08B1C8F874
:101F60008040D7E90541DFF8B890D7E90756204609
:101F7000C847D8F880100028284618BF2146C8F85E
:101F800074103146C847D8F88010002818BF294679
:101F9000C8F87810D7E909412046C847D8F880101A
:101FA000002818BF21467C6BC8F87C101CB1FFF7D5
:101FB00095F8C8F88440BC6B1CB1FFF78FF8C8F8DF
:101FC0008840FC6B1CB1FFF789F8C8F88C403C6C6A
:101FD0001CB1FFF783F8C8F890407C6C1CB1FFF788
:101FE0007DF8C8F89440BC6C1CB1FFF777F8C8F8CE
:101FF0009840FC6C1CB1FFF771F8C8F89C403C6D30
:102000001CB1FFF76BF8C8F8A040012088F8080061
:102010000020BDE8F88300BF1C88002048AF0008FE
:10202000E1140008B0B51E4C207A01281CD1FFF73E
:1020300083FDC8B11B48FF211B4D8175817D02685E
:1020400081F0FF01C2F30222B1FA81F1C1F1200156
:102050008A4228BF511CFE2202FA01F1C17468684D
:102060001249FFF71BF810B14FF0FF30B0BDFFF77A
:1020700011F82061FEF7F8FF04F11C00FFF7F7FCF0
:10208000FFF778FD2878C0070CBF0320022080F3FB
:1020900014880220BFF36F8F20720020B0BD00BFF4
:1020A0001C8800200CED00E048AF0008A7030008E2
:1020B0002DE9F041002848D004460078FA2844D1A0
:1020C0000F46002941D020461E461546FEF76CFFFC
:1020D00000283FD0804620464146FEF7B1FF626AA5
:1020E00008F10C013846FEF7FAFB15B198F8030029
:1020F000287004F10C0600254146304688F800504F
:10210000FFF726FAA06810B33046FFF704FA00255F
:10211000E8B10646FEF7F7FF002101220746FFF768
:102120004FFD3846FFF7FEFC4168626A074606F13C
:102130000C00FEF7D4FBF9203146B5703070B8685A
:10214000F0702046FEF750FF01E06FF003052846CF
:10215000BDE8F08166B183203146FFF713FD20B161
:10216000054841692046FFF78BFC6FF00105EEE75B
:102170006FF00205EBE700BF1C8800202DE9F84F47
:1021800048B10D4639B10446B0FA80F0B5FA85F190
:102190000844202803D200263046BDE8F88F05F118
:1021A0000F0020F0030808FB04F95AB19668D2F832
:1021B00000A0D2E904707EB1B107ECD1D168342916
:1021C000E9D30CE04FF0000A00273049D1F8A00015
:1021D00058B1FFF7A0F90EE0D1680029DBD157B361
:1021E000B907D8D14845D6D327E0D1F880003421AB
:1021F0000122FFF71EF906464FF0010B67BB5EB3E5
:10220000CDF800A0DFF884A049460022DAF87C006F
:10221000FFF70FF9074620B138464946FEF7DAFBCB
:1022200016E0BBF1000F12D0DAF8A00050B1314631
:10223000FFF78EF90BE00028ADD1002EC5D04FF08E
:10224000000BDBE7DAF880003146FFF728F90026BB
:10225000DDF800A00BF1020B002E3FF49DAF002033
:10226000214642463B4686F802B0C6E90950C6E917
:102270000B00C6E901A0FA20307006F10C00FFF750
:102280008CF902480249016786E700BF1C880020DC
:10229000D31500082DE9F04118B304460078FA2858
:1022A0001FD10F46E9B1A0681E469046F0B14078B4
:1022B00083281BD1FEF727FF0021012205460026B7
:1022C000FFF77EFC2846FFF72DFC05464068626A52
:1022D0003946FEF704FBA86828B180F80080002684
:1022E00001E06FF003063046BDE8F08104F10C0018
:1022F000FFF711F980B1626A05460C303946FEF7E6
:10230000EEFAF9200026294685F803802870204639
:10231000AE70FEF769FEE6E766B193203146FFF73F
:1023200031FC20B1054841692046FFF7A9FB6FF059
:102330000106D8E76FF00206D5E700BF1C88002031
:1023400070B50446214845694DB32CB32078F52873
:1023500022D1207E30B30E46E178CA0702D0E2686F
:10236000AA422BD066B388070AD5E06895F92010F9
:1023700090F920208A4203DA80F82010FFF7A0FBB2
:1023800053203146FFF7FEFB18B120462946FFF7E0
:1023900077FB6FF0010070BD6FF0030070BD4FF070
:1023A000FF3070BD0020C4E90350E86A606100B1ED
:1023B00004610120EC622076002070BDFF2802D16C
:1023C0006FF0020070BD0130F5E700BF1C880020EF
:1023D000B0B520B304460078F52820D1207EC0B3E4
:1023E0006169E06809B122690A6100F12C02236980
:1023F0001546002B18BF03F11405296090F8211031
:1024000012687AB1D3789B0707D593682BB193F9FB
:1024100020304DB2AB42C8BFD9B21432F0E76FF0F2
:102420000300B0BD90F820208A420CD080F8201024
:10243000FFF746FB07E02046FFF719FB6FF00201AC
:102440000022FFF7BDFBA0680028F4D10020FFF7B1
:10245000A9FAA17800202070C9070DD00749D1F84A
:10246000940018B12146FFF773F804E0D1F880001A
:102470002146FFF714F80020B0BD00BF1C880020E3
:1024800070B550B18468D0E900657CB1A10710D166
:10249000C16800201C2917D270BD002500261149F3
:1024A000D1F8940038B1FFF736F80AE0C068002888
:1024B000F5D0002070BDD1F880001C210122FEF76C
:1024C000B8FF044658B10120A070F52011216660C4
:1024D000E570207004F10800FEF79EFA00E0002489
:1024E000204670BD1C88002070B504462A4840690B
:1024F00070B154B12178F52907D1217E11B1E2687C
:10250000824209D06FF0020404E06FF0030401E09E
:102510004FF0FF34204670BD01392176090601D005
:102520000024F7E7616909B122690A6100F12C0210
:1025300023691546002B18BF03F11405296090F894
:102540002110126862B1D3789B0707D593682BB12D
:1025500093F920304DB2AB42C8BF19461432F0E7B0
:1025600080F82010A06888B12046FFF780FA00218B
:10257000002205460026FFF723FBE86AC4E903565C
:10258000606100B104610120EC622076002000242B
:10259000FFF708FABEE700BF1C880020B0B5114D58
:1025A000287A02281DD1686AD8B16C69E06AFFF701
:1025B00079F82046FFF74CFA686A8168696211B1C0
:1025C00005F11C02CA600221A86141700021C160AE
:1025D000EFF30980A06369612046BDE8B040FFF7D2
:1025E000CFB9B0BD1C88002010B501460A4840692B
:1025F00060B100290DD400F1280252E8000F20EA52
:10260000010342E8003404B1F7E710BD4FF0FF309A
:1026100010BDFEF775BD00BF1C880020034840694F
:1026200008B1806A70470020704700BF1C880020F6
:10263000B0B56FF0030460B300292AD405460078D2
:10264000F12826D16878042802D16FF0020420E036
:1026500005F1280050E8002F42EA010440E8004359
:1026600003B1F7E76878332813D195F82320696A16
:102670002846FEF74BFD60B1014695F823000C4655
:1026800080075CBF686A21EA000428460122FFF740
:1026900097FA2046B0BD0000F8B5054610484769D6
:1026A00057B1002D0BD40E46144638462946324603
:1026B000FEF72CFD30B1F8BD4FF0FF30F8BD6FF0E4
:1026C0000300F8BD4CB13320214687F823607D62BA
:1026D000FFF758FA6FF00100F8BD6FF00200F8BD87
:1026E0001C88002001484069704700BF1C880020FA
:1026F0002DE9FE4F002800F0878005466AB102F1FF
:1027000010099668D2E9007399E81003C6B1B007C2
:102710007AD1D068442816D276E04FF0010B4FF002
:102720001809002300244FF000080027664A02938E
:10273000CDE90017D2F88800A8B1FEF7ECFE18E04A
:10274000D068002860D124B160075DD1B8F1000FD6
:102750005AD0B9F1000F3BD0B9F1010F54DBB9F1F8
:10276000380F37DD50E0D2F8800044210122FEF717
:1027700060FE06464FF0010A0027002C53D1002EC0
:1027800051D0BBF1000F0DD04F485049D0F8840014
:10279000D1F8548030B1FEF7BEFE60B104460AF1B4
:1027A000100A3EE0484841460022406FFEF741FED5
:1027B00008B1044635E01FB14FF0000A00242FE0B5
:1027C0004149D1F8880018B33146FEF7C1FE24E034
:1027D0004FF01809B8F1000F08D05FEA487013D124
:1027E000B8F1480F10D3B8F1000F0DD4B8FA88F043
:1027F000002E4FEA501B3FF499AFCDE9001702932A
:102800004FF0000A0127B8E700263046BDE8FE8FEA
:10281000D1F880003146FEF742FE00244FF0010A55
:1028200000264AF0020A002EEFD00198182186F8FF
:1028300002A070600298F07040F2F110308006F152
:102840000800FEF7E9F804EB08010020C6E90C488F
:10285000FD22009F86F8219086F820904039C6F826
:102860002300C6F82700C6F82B0086F82F0086F84C
:102870002220C6E90E151649216014490978490736
:1028800015D4B16B00220D2A03D041F82200013289
:10289000F9E7104A4FF080700F62C8630A48C1E937
:1028A0000D250D4901663046FFF77CF8ADE76FF066
:1028B0001001221D4FF0CC3301EB98010029E0D02C
:1028C00008C20139FAE700BF1C88002048AF0008A1
:1028D000A52E5AE2191D0008E71A000810B530B1FC
:1028E0000278F12A03D1012901DB382903DD6FF0D9
:1028F0000304204610BD4278042A02D16FF002047E
:10290000F7E790F920208A4201D10024F1E780F80E
:10291000211080F82010FFF7D3F800200024FFF7E3
:1029200041F8E6E770B50C4E307A022811D1746A8E
:102930007CB1756994F8201095F82000814208D187
:102940002046FFF7B3F82846FFF7E2F80220B4610B
:102950006070002070BD00BF1C88002040B101786D
:10296000F22905D140780238B0FA80F0400970476A
:1029700000207047F8B50E46002198B3012E31D8DB
:10298000144605464BB198681F6870B181070FD196
:10299000DA680021202A15D224E000271249D1F854
:1029A0008C0038B1FEF7B7FD0AE0D8680028F5D0F2
:1029B000002117E0D1F8800020210122FEF739FD27
:1029C00070B10121002281704FF4F971C670C461A9
:1029D0000180C0E90172C0E90322C0E9052500E0D9
:1029E000002001460846F8BD1C880020B0B568B13B
:1029F00005460078F22809D10C4639B168780228DA
:102A000007D128466C61FEF7D7FB08E06FF00300A2
:102A1000B0BD0748006D40B102206C616870284667
:102A20002146FEF7A5FB0020B0BD6FF00200B0BD4F
:102A30001C88002080B570B10178F2290BD1417853
:102A400002291CBF6FF0020080BD01214170FEF71A
:102A5000B3FB002080BD6FF0030080BD10B507F010
:102A6000B7FC00BFF1EE100A0149086010BD00007C
:102A70003CEF00E000BFFEE701460878103818235D
:102A8000B0FBF3F20848805CC865032A05D90868E2
:102A90006FF30900001D886503E008686FF3090003
:102AA0008865886D7047000014AF0008014600205B
:102AB0008A6A8B69CBB932B1012A0DD0022A03D0C0
:102AC000032A10D10EE000BFCB6A03F08073B3F18C
:102AD000807F00D1012007E0CB6AB3F1C07F00D135
:102AE000012001E000E000BF34E08B69B3F5005F36
:102AF0001AD132B1012A07D0022A03D0032A11D1F8
:102B00000AE000BF01200EE0CB6A03F08073B3F14E
:102B1000807F00D1012006E0CB6AB3F1C07F00D1F5
:102B2000012000E000BF15E032B1012A05D0022AE1
:102B300004D0032A0CD103E000BF00BF012008E04D
:102B4000CB6A03F08073B3F1807F00D1012000E0F5
:102B500000BF00BF704730B50468246824F48024A7
:102B600005682C60046863608468402C04D10468A4
:102B7000A2600468E16003E00468A1600468E260A8
:102B800030BD70471F49884206D11F49096821F4AA
:102B900080511D4A116034E01C49884208D11A490D
:102BA000091F096821F48041174A121F116028E0AB
:102BB0001749884208D11449091F096821F40041C6
:102BC000114A121F11601CE01249884206D10E49B9
:102BD000096821F400510C4A116012E00E49884244
:102BE00006D10949096821F48011074A116008E0FB
:102BF0000A49884205D10449096821F40011024AB2
:102C000011607047003001404438024000380040F5
:102C1000003C00400034014000500140005401409D
:102C200010B54FF4806000F043FD4FF4805000F089
:102C30003FFD10BD08B5694988420FD100BF002192
:102C400000916749096841F00101654A1160114628
:102C5000096801F00101009100BFBDE061498842AF
:102C60000FD100BF002100915D49096841F00201C8
:102C70005B4A11601146096801F00201009100BF32
:102C8000AAE0594988420FD100BF00210091544960
:102C9000096841F00401524A11601146096801F0C7
:102CA0000401009100BF97E0504988420FD100BF56
:102CB000002100914A49096841F00801484A116021
:102CC0001146096801F00801009100BF84E04849FD
:102CD00088420FD100BF002100914149096841F0AD
:102CE00010013F4A11601146096801F0100100917E
:102CF00000BF71E03F4988420FD100BF0021009121
:102D00003749096841F02001354A116011460968C8
:102D100001F02001009100BF5EE0374988420FD1E9
:102D200000BF002100912E49096841F040012C4A62
:102D300011601146096801F04001009100BF4BE0AD
:102D40002E4988420FD100BF002100912449096813
:102D500041F08001224A11601146096801F08001AA
:102D6000009100BF38E0264988420FD100BF002102
:102D700000911B49096841F48071194A116011469C
:102D8000096801F48071009100BF25E01D49884267
:102D90000FD100BF002100911149096841F4007171
:102DA0000F4A11601146096801F40071009100BFDB
:102DB00012E0154988420FD100BF00210091084957
:102DC000096841F48061064A11601146096801F4FE
:102DD0008061009100BF00BF08BD000000000240FC
:102DE000303802400004024000080240000C02405B
:102DF000001002400014024000180240001C024073
:102E000000200240002402400028024008B5694921
:102E100088420FD100BF002100916749096841F045
:102E20000101654A11601146096801F00101009134
:102E300000BFBDE0614988420FD100BF0021009171
:102E40005D49096841F002015B4A11601146096859
:102E500001F00201009100BFAAE0594988420FD158
:102E600000BF002100915449096841F00401524A11
:102E700011601146096801F00401009100BF97E05C
:102E8000504988420FD100BF002100914A4909688A
:102E900041F00801484A11601146096801F0080133
:102EA000009100BF84E0484988420FD100BF002153
:102EB00000914149096841F010013F4A11601146F3
:102EC000096801F01001009100BF71E03F4988429C
:102ED0000FD100BF002100913749096841F020015E
:102EE000354A11601146096801F02001009100BFC8
:102EF0005EE0374988420FD100BF002100912E4982
:102F0000096841F040012C4A11601146096801F03E
:102F10004001009100BF4BE02E4988420FD100BF15
:102F2000002100912449096841F08001224A116082
:102F30001146096801F08001009100BF38E0264980
:102F400088420FD100BF002100911B49096841F45C
:102F50008071194A11601146096801F4807100916D
:102F600000BF25E01D4988420FD100BF002100911C
:102F70001149096841F400710F4A1160114609684E
:102F800001F40071009100BF12E0154988420FD191
:102F900000BF002100910849096841F48061064A98
:102FA00011601146096801F48061009100BF00BF03
:102FB00008BD00000000024030380240000402401A
:102FC00000080240000C02400010024000140240C1
:102FD00000180240001C0240002002400024024071
:102FE0000028024008B5564988420FD100BF002191
:102FF00000915449096841F00101524A116011469B
:10300000096801F00101009100BF00BF4E498842EC
:103010000FD100BF002100914A49096841F0020127
:10302000484A11601146096801F00201009100BF91
:1030300000BF464988420FD100BF0021009141499D
:10304000096841F004013F4A11601146096801F026
:103050000401009100BF00BF3D4988420FD100BF6D
:10306000002100913749096841F00801354A116093
:103070001146096801F00801009100BF00BF354901
:1030800088420FD100BF002100912E49096841F00C
:1030900010012C4A11601146096801F010010091DD
:1030A00000BF00BF2C4988420FD100BF0021009112
:1030B0002449096841F02001224A1160114609683B
:1030C00001F02001009100BF00BF244988420FD1C8
:1030D00000BF002100911B49096841F04001194AD5
:1030E00011601146096801F04001009100BF00BF66
:1030F0001B4988420FD100BF002100911149096886
:1031000041F080010F4A11601146096801F0800109
:10311000009100BF00BF134988420FD100BF0021BA
:1031200000910849096841F48071064A116011460E
:10313000096801F48071009100BF00BF08BD000064
:103140000000024030380240000402400008024003
:10315000000C02400010024000140240001802401F
:10316000001C02400020024008B53B4988420FD1B4
:1031700000BF002100913949096841F48051374A64
:1031800011601146096801F48051009100BF62E0AE
:103190003349884211D100BF002100912F49091FF6
:1031A000096841F480412D4A121F116011460968D7
:1031B00001F48041009100BF4DE02A49884211D1BD
:1031C00000BF002100912549091F096841F4004111
:1031D000224A121F11601146096801F40041009152
:1031E00000BF38E0204988420FD100BF0021009184
:1031F0001A49096841F40051184A116011460968DA
:1032000001F40051009100BF25E0184988420FD118
:1032100000BF002100911149096841F480110F4A53
:1032200011601146096801F48011009100BF12E09D
:103230000F4988420FD100BF00210091074909685A
:1032400041F40011054A11601146096801F40011AA
:10325000009100BF00BF08BD00300140443802406B
:1032600000380040003C0040003401400050014064
:103270000054014000BFFEE770B50446A56D00F0A4
:103280004BFB064694F83500022808D08020606584
:1032900000BF002084F8340000BF012070BD20680A
:1032A000006820F01600216808602068406920F05E
:1032B000800021684861206C08B9A06C28B12068A2
:1032C000006820F00800216808602068006820F08D
:1032D00001002168086010E000F01EFB801B05283B
:1032E0000BD920206065032084F8350000BF002042
:1032F00084F8340000BF0320D0E72068006800F0A5
:1033000001000028E8D194F85C103F208840A860B4
:10331000012084F8350000BF002084F8340000BF8D
:1033200000BFBBE7014691F83500022803D080209A
:10333000486501207047052081F83500086800685D
:1033400020F001000A6810600020F3E72DE9F04149
:103350000446002500F0E0FA074614B90120BDE854
:10336000F081606A00B100BF022084F8350000BF20
:10337000002084F8340000BF2068006820F00100BD
:10338000216808600AE000F0C7FAC01B052805D9CB
:1033900020206065032084F83500E0E7206800689D
:1033A00000F001000028EED12068056821480540A2
:1033B000D4E901010843E1680843216908436169D0
:1033C0000843A1690843E1690843216A08430543AA
:1033D000606A042803D1D4E90B010843054320683F
:1033E00005602068456925F00705606A0543606A45
:1033F00004280DD1A06A0543E06A48B12046FFF7D2
:1034000055FB28B140206065012084F83500A6E70F
:10341000206845612046FFF72FFB064694F85C10B4
:103420003F208840B06000206065012084F83500AE
:10343000002094E73F8010F02DE9F04704460D4648
:1034400016461F464FF00008D4F8589000BF94F875
:103450003400012802D10220BDE8F087012084F861
:10346000340000BF94F83500012825D1022084F8EB
:103470003500002060653B46324629462046FFF76E
:103480006AFB94F85C103F208840C9F80800206867
:10349000006840F0160021680860206C28B12068A0
:1034A000006840F00800216808602068006840F06B
:1034B00001002168086006E000BF002084F83400A5
:1034C00000BF4FF002084046C6E7000070B5044652
:1034D00000F022FA06462546681C10B10448007820
:1034E000054400BF00F018FA801BA842FAD370BD53
:1034F00014880020F0B50C4600250022002300218E
:103500009EE0012606FA01F504EA0502AA427CD1F2
:103510004D4E8F0856F827308E07370F0F26BE40C6
:1035200033404A4EB04201D100262DE0484EB04211
:1035300001D1012628E0474EB04201D1022623E006
:10354000454EB04201D103261EE0444EB04201D1A7
:10355000042619E0424EB04201D1052614E0414E46
:10356000B04201D106260FE03F4EB04201D10726FE
:103570000AE03E4EB04201D1082605E03C4EB04282
:1035800001D1092600E00A268F073F0FBE409E4268
:1035900024D1384E36689643364F3E603E1D36681D
:1035A00096433F1D3E60334E0C3636689643314F8E
:1035B0000C373E603E1F366896433F1F3E608E07C5
:1035C000370F0F2606FA07F31F4E8F0856F82760AD
:1035D0009E431D4F4FEA910C47F82C6006684FEA56
:1035E000410C032707FA0CF7BE430660CF0800F131
:1035F000200656F827604F074FEAD76C0F2707FAC7
:103600000CF7BE434FEAD10C00E018E000F12007B0
:1036100047F82C60C6684FEA410C032707FA0CF7FD
:10362000BE43C660476801268E40B7434760866840
:103630004FEA410C032707FA0CF7BE438660491C8A
:103640001029FFF45EAFF0BD0838014000000240D1
:103650000004024000080240000C0240001002403A
:103660000014024000180240001C024000200240EA
:1036700000240240003C014010B5044600200949E6
:103680000870B4F5806F01D107490870B4F5805F08
:1036900002D1012004490870042104480068FEF7A3
:1036A00065FB10BD808700207087002068870020A0
:1036B00010B5044604480068204020B10248046068
:1036C0002046FFF7D9FF10BD143C0140F8B5024673
:1036D0000B460025002400200021E0E0012606FA28
:1036E00001F51E6806EA0504AC4274D11E7906F0A5
:1036F0000306012E04D01E7906F00306022E13D114
:1037000090684F000326BE40B0434F00DE68BE40C5
:1037100030439060506801268E40B0431E79C6F356
:1037200000168E40304350601E7906F00306032ECB
:1037300009D0D0684F000326BE40B0434F009E68BA
:10374000BE403043D0601E7906F00306022E13D12E
:10375000CF0802F1200656F827004E07F70E0F2675
:10376000BE40B0434F07FF0E1E69BE403043CF0836
:1037700002F1200646F8270010684F000326BE40DD
:10378000B0431E7906F003064F00BE403043106080
:103790005E6806F44036002E1DD000BF002600965D
:1037A000414E366846F480463F4F3E603E4636689E
:1037B00006F48046009600BF00BF3C4E8F0856F8C6
:1037C00027008E07370F0F26BE40B043384EB24257
:1037D00002D100262EE061E0364EB24201D1012630
:1037E00028E0354EB24201D1022623E0334EB242E8
:1037F00001D103261EE0324EB24201D1042619E067
:10380000304EB24201D1052614E02F4EB24201D112
:1038100006260FE02D4EB24201D107260AE02C4EBB
:10382000B24201D1082605E02A4EB24201D1092652
:1038300000E00A268F073F0FBE4030431B4E8F0823
:1038400046F82700244E3068A0435E6806F48016D0
:1038500006B12043204E3060361D3068A0435E68BC
:1038600006F4001606B120431B4E361D30601A4E7A
:10387000361F3068A0435E6806F4003606B1204368
:10388000154E361F3060361F3068A0435E6806F460
:10389000803606B12043104E083E3060491C102986
:1038A000FFF41CAFF8BD0000443802400838014066
:1038B000000002400004024000080240000C0240E8
:1038C000001002400014024000180240001C024098
:1038D0000020024000240240083C014002461369D7
:1038E0000B400BB1012000E00020704710B5426989
:1038F00021EA020302EA010443EA0443836110BDA2
:103900000AB1816101E00B048361704701480068DE
:10391000000C7047002004E010B5FDF761FC0228A0
:1039200002D1FDF775FC10BD0C480068840B0CE05B
:1039300000BF00BF00BF00BF00BF00BF00BF00BF8F
:1039400000BF00BF00BF00BF641E002CF0D10448C0
:103950000068401C02490860E5E700001888002064
:103960009C87002010B50A48006840F400700849A0
:1039700008600846006840F480600860032000F09A
:10398000ABF80F2000F006F800F02AF8002010BD78
:10399000003C024070B504460E4800784FF47A713E
:1039A000B1FBF0F00C490968B1FBF0F5284600F0D6
:1039B00035FC08B1012070BD102C07D20022214631
:1039C000501E00F04BF80548046001E00120F2E7CA
:1039D0000020F0E7148800201888002010880020BC
:1039E0007047000010B501460846002807DB00F0CC
:1039F0001F0301229A40034B440943F8242000BFCF
:103A000010BD000080E200E010B501460846002825
:103A10000BDB00F01F0301229A40054B440943F8D9
:103A20002420BFF34F8FBFF36F8F00BF10BD000086
:103A300080E100E00146084600280DDB00BF00BF22
:103A400000F01F0301229A4043099B0003F1E02389
:103A5000C3F8002100BF00BF00BF70472DE9F05F31
:103A600080460D461646002705F096FC0746394667
:103A70002A46334601F00700C0F1070ABAF1040FE5
:103A800002D94FF0040A01E0C0F1070AD14600F163
:103A9000040ABAF1070F02D24FF0000A01E0A0F1C8
:103AA000030AD4464FF0010A0AFA09FAAAF1010AF8
:103AB0000AEA020A0AFA0CFA4FF0010B0BFA0CFBA5
:103AC000ABF1010B0BEA030B4AEA0B04214640461B
:103AD00005F06AFCBDE8F09F00BF00F00702064B4E
:103AE00019684FF6FF031940044B0B4343EA0221C8
:103AF000014B196000BF70470CED00E00000FA05B3
:103B000070B504460D460CB9012070BD58480068D8
:103B100000F00F00A84209D255490D700846006810
:103B200000F00F00A84201D00120EEE7207800F05D
:103B3000020002281DD1207800F00400042805D1DD
:103B40004C48006840F4E0504A490860207800F092
:103B50000800082805D14748006840F460404549FE
:103B600008604448006820F0F000A168084341491B
:103B70000860207800F00100A8B36068012807D130
:103B80003C4808380068C0F34040B8B90120BCE7A1
:103B90006068022802D06068032807D135480838D9
:103BA0000068C0F3406048B90120AEE731480838EA
:103BB0000068C0F3400008B90120A6E72D4800685E
:103BC00020F00300616808432A490860FFF7A4FE5B
:103BD000064609E0FFF7A0FE801B41F288318842CB
:103BE00002D9032091E707E02248006800F00C00AA
:103BF0006168B0EB810FEDD11D48006800F00F0047
:103C0000A84209D91A490D700846006800F00F0053
:103C1000A84201D0012078E7207800F004000428B1
:103C200007D11448006820F4E050E16808431149C6
:103C30000860207800F00800082808D10D480068C6
:103C400020F46040216940EAC1000A49086000F0A0
:103C50003FF808490968C1F30311074A515CC8409D
:103C60000649086006480068FFF794FE00204CE70C
:103C7000003C0240083802401CAF000818880020B1
:103C80001088002001480068704700001888002054
:103C900000B5FFF7F7FF04490968C1F38221034A21
:103CA000515CC84000BD0000083802402CAF00083D
:103CB00000B5FFF7E7FF04490968C1F34231034A41
:103CC000515CC84000BD0000083802402CAF00081D
:103CD0002DE9F047002400250026A146254800686C
:103CE00000F00C0020B1042805D008283AD105E0E6
:103CF000DFF8849039E0DFF8849036E01D48001F3B
:103D0000006800F03F041B48001F006800F48000BA
:103D100078B11A481749091F0968C1F38811A0FB37
:103D200001700146224600233846FCF7D5FB0546C4
:103D30000EE011480F49091F0968C1F38811A0FB63
:103D400001700146224600233846FCF7C5FB0546B4
:103D50000848001F0068C0F30140401C4600B5FB46
:103D6000F6F902E0DFF8109000BF00BF4846BDE85A
:103D7000F0870000083802400024F40000127A00A6
:103D8000F8B504460CB90120F8BD207800F0010018
:103D9000002874D0F948006800F00C0004280DD009
:103DA000F648006800F00C00082813D1F348001F03
:103DB000006800F48000B0F5800F0BD1EF480838A0
:103DC0000068C0F34040002859D06068002856D1F0
:103DD0000120D9E700BF6068B0F5803F08D1E7480F
:103DE0000838006840F48030E449083908601EE073
:103DF0006068B0F5A02F0DD1E0480838006840F4A5
:103E00008020DE49083908600846006840F48030A8
:103E100008600CE0D9480838006820F48030D749A1
:103E2000083908600846006820F48020086000BF58
:103E3000606890B1FFF770FD054606E0FFF76CFD86
:103E4000401B642801D903209EE7CC48083800684D
:103E5000C0F340400028F1D011E0FFF75DFD0546BA
:103E600006E0FFF759FD401B642801D903208BE7CA
:103E7000C24808380068C0F340400028F1D12078DB
:103E800000F0020002285FD1BC48006800F00C007E
:103E900058B1BA48006800F00C0008281CD1B74897
:103EA000001F006800F48000B0B9B448083800680A
:103EB000C0F3400020B1E068012801D0012063E791
:103EC000AE480838006820F0F800216940EAC100D7
:103ED000AA490839086037E0E06800B30120A84922
:103EE0000860FFF719FD054606E0FFF715FD401BCA
:103EF000022801D9032047E7A04808380068C0F32A
:103F000040000028F1D09D480838006820F0F800F3
:103F1000216940EAC10099490839086014E000208D
:103F200097490860FFF7F8FC054606E0FFF7F4FC48
:103F3000401B022801D9032026E790480838006872
:103F4000C0F340000028F1D1207800F008000828D4
:103F50002CD16069A8B101208A490860FFF7DCFC18
:103F6000054606E0FFF7D8FC401B022801D90320D4
:103F70000AE782486C300068C0F340000028F1D0A6
:103F800014E000207F490860FFF7C6FC054606E004
:103F9000FFF7C2FC401B022801D90320F4E6774852
:103FA0006C300068C0F340000028F1D1207800F0A8
:103FB0000400042870D1002770483830006800F0F1
:103FC000805090B900BF002000906C4838300068E5
:103FD00040F080506949383108600846006800F0B8
:103FE0008050009000BF00BF01276748006800F4C0
:103FF0008070B0B96448006840F48070624908601D
:10400000FFF78AFC054606E0FFF786FC401B022806
:1040100001D90320B8E65C48006800F480700028ED
:10402000F2D000BFA068012808D154486830006869
:1040300040F001005149683108601DE0A068052882
:104040000DD14E486830006840F004004B4968319B
:1040500008600846006840F0010008600CE047482E
:104060006830006820F00100444968310860084663
:10407000006820F00400086000BFA068A8B1FFF746
:104080004BFC054609E0FFF747FC401B41F2883135
:10409000884202D9032077E626E038486830006875
:1040A000C0F340000028EED013E0FFF735FC0546D2
:1040B00008E0FFF731FC401B41F28831884201D90A
:1040C000032061E62D4868300068C0F340000028F6
:1040D000EFD1012F07D129483830006820F08050F7
:1040E00026493831086000BFA069002845D0234820
:1040F000006800F00C0008285DD0A069022845D1B6
:1041000000201F490866FFF707FC054606E0FFF799
:1041100003FC401B022801D9032035E61748083864
:104120000068C0F340600028F1D1D4E907010843DA
:10413000616A40EA81110122A06AC2EB500041EAA3
:1041400000412C20005D41EA00600C49091F086015
:1041500001200B490866FFF7DFFB054606E0FFF785
:10416000DBFB401B022801D903200DE60348083879
:104170000068C0F340600028F1D049E008380240F0
:1041800000004742800E4742007000400020214955
:104190000866FFF7C1FB054606E0FFF7BDFB401BC5
:1041A000022801D90320EFE51B480068C0F34060F6
:1041B0000028F2D12CE0A069012800D1E4E51648DE
:1041C000001D0668A069012820D006F48001E0697E
:1041D00081421BD106F03F01206A814216D147F689
:1041E000C0703040616AB0EB811F0FD106F44031DE
:1041F0000122A06AC2EB5000B1EB004F06D106F0DD
:1042000070612C20005DB1EB006F01D00120BBE597
:104210000020B9E5000047420038024070B504466E
:104220002546681EB0F1807F01D301200FE0681E93
:104230004FF0E02148610F214FF0FF3005F0B4F856
:1042400000204FF0E021886107200861002070BD48
:1042500010B50446022084F83D0000BF2068006AC3
:1042600041F21111084050B92068006A89100840D5
:1042700028B92068006820F001002168086000BFAC
:10428000204600F054F8002084F8460000BF84F86F
:104290003E0000213F20015540200155412001559D
:1042A00000BF00BF002084F8420043200155442095
:1042B00001554520015500BF002084F83D0000BF96
:1042C00084F83C0000BF10BD10B504460CB90120B5
:1042D00010BD94F83D0028B9002084F83C00204629
:1042E00000F026F8022084F83D00211D206802F02D
:1042F000D3FE012084F8460000BF84F83E0001216F
:104300003F200155402001554120015500BF00BF0D
:10431000012084F8420043200155442001554520E6
:10432000015500BF012084F83D000020D0E7704710
:1043300070470000014691F83D00012801D001209E
:104340007047022081F83D001A4B086898421BD044
:104350000868B0F1804F17D0174B0868984213D007
:10436000164B086898420FD0154B086898420BD03E
:10437000144B0868984207D0134B0868984203D042
:10438000124B086898420CD10868806800F0070258
:10439000062A0CD00868006840F001000B6818601D
:1043A00005E00868006840F001000B681860002014
:1043B000C6E7000000000140000400400008004083
:1043C000000C004000040140004001400018004083
:1043D000014600BF0868006A41F21112104050B94E
:1043E0000868006A9210104028B90868006820F038
:1043F00001000A68106000BF012081F83D00002024
:1044000070472DE9F04104460D461646002700BFCF
:1044100094F83C00012802D10220BDE8F08101207F
:1044200084F83C0000BF36B1042E1BD0082E31D0DA
:104430000C2E5ED145E02946206802F0ABFE2068D4
:10444000806940F00800216888612068806920F058
:10445000040021688861206880692969084321680F
:10446000886148E02946206802F0CCFE2068806917
:1044700040F40060216888612068806920F48060D1
:104480002168886120688069296940EA01202168E3
:10449000886130E02946206802F0F2FE2068C06999
:1044A00040F008002168C8612068C06920F004005D
:1044B0002168C8612068C069296908432168C8610A
:1044C00019E02946206802F017FF2068C06940F40F
:1044D00000602168C8612068C06920F4806021689C
:1044E000C8612068C069296940EA01202168C86163
:1044F00001E0012700BF00BF00BF002084F83C009E
:1045000000BF384689E710B504460CB9012010BD3C
:1045100094F83D0028B9002084F83C00204600F0C3
:1045200025F8022084F83D00211D206802F0B4FD2A
:10453000012084F8460000BF84F83E0001213F209E
:104540000155402001554120015500BF00BF012009
:1045500084F842004320015544200155452001556F
:1045600000BF012084F83D000020D0E77047000024
:1045700070B504460D4615B994F83E000BE0042DC5
:1045800002D13F20005D06E0082D02D14020005DF1
:1045900001E04120005D012801D0012070BD1DB95E
:1045A000022084F83E000EE0042D03D102213F20BA
:1045B000015508E0082D03D102214020015502E0F9
:1045C00002214120015501222946206802F0D0FD38
:1045D00023492068884203D022492068884201D1BB
:1045E000012000E0002028B12068406C40F4004029
:1045F000216848641A49206888421BD02068B0F1BD
:10460000804F17D018492068884213D01749206876
:1046100088420FD01649206888420BD01149206883
:10462000884207D013492068884203D01249206885
:1046300088420CD12068806800F00706062E0CD056
:104640002068006840F001002168086005E02068EB
:10465000006840F001002168086000209EE700002B
:104660000000014000040140000400400008004038
:10467000000C0040004001400018004000BFFEE771
:1046800070B504460D46034A2946204600F086F8D8
:1046900070BD0000ACAD000810B5024800F024FA6F
:1046A00010BD0000ACAD000810B5024800F01FFBC3
:1046B00010BD0000ACAD000810B5024800F075FE5A
:1046C00010BD0000ACAD000808B5024800F087FE40
:1046D000009008BDACAD000810B504460249204664
:1046E00000F082FE10BD0000ACAD0008F8B5044635
:1046F0000D4616461F4604483B4632462946009062
:10470000204600F051FFF8BDACAD0008F8B50446F6
:104710000D4616461F4604483B4632462946009041
:10472000204600F0E3FFF8BDACAD000810B504462C
:104730000249204601F070F810BD0000ACAD000841
:1047400070B504460D46034A2946204601F0BAF9E1
:1047500070BD0000ACAD000870B504460D46034ABC
:104760002946204601F0F2F970BD0000ACAD00080A
:1047700010B5024801F02EFA10BD0000ACAD0008E3
:104780000148006870470000A8AD000808B502485D
:104790000068009008BD0000A4AD00082DE9F04FAE
:1047A00085B082460E461446E06A90F8220000F07A
:1047B000020020B94FF0FF3005B0BDE8F08FBAF12C
:1047C000010F09D0BAF1020F2DD0BAF1030F7AD040
:1047D000BAF1040F78D10EE106F4004030B1206840
:1047E000006840F040002168086005E0206800682B
:1047F00020F040002168086006F4806050B1F0B2FB
:1048000040F440404FF4407101EA460108432168FA
:10481000886007E040F2FF3000EA460040F4804044
:10482000216888604FE1FFF733FA0546012E02D078
:10483000022E4AD115E0A548854202D96FF0030047
:10484000BAE7A348854202D26FF00300B4E7A1485B
:10485000B5FBF0F04708A048B5FBF0F000F1010906
:1048600036E09A48854202D96FF00300A4E79B48DE
:10487000854202D26FF003009EE7994885420DD32E
:10488000B5FBF0F100FB115040B99648B5FBF0F0D4
:104890001921B0FBF1F040F4404707E09148B5FB27
:1048A000F0F00321B0FBF1F040F400478A48B5FB7B
:1048B000F0F04FF4967148434FF47A71B0FBF1F089
:1048C00000F1010904E02AE0FAE06FF0030073E769
:1048D00000BF2068006820F001002168086020689F
:1048E000406820F03F00216848607B48B5FBF0F04D
:1048F000216849680843216848602068C7612068CA
:10490000C0F820902068006840F00100216808602D
:104910002068006840F4806021680860D3E01120BE
:1049200001900020029001200390A08A0090694627
:10493000E068FEF7CBFEE08A009069462069FEF74A
:10494000C5FEA18A0122E068FEF7DAFFE18A0122B2
:104950002069FEF7D5FF0220FEF7B8FD4FF00008F2
:1049600018E0E18A2069FEF7B9FF012800D114E0C0
:10497000A18A0122E068FEF7C3FF0120FEF7A6FD31
:10498000A18A0022E068FEF7BBFF0120FEF79EFD32
:1049900008F10108B8F1090FE3D300BFE18A2069EB
:1049A000FEF79CFF83461220019001200390A08A0D
:1049B0000090A0690290206A04906946E068FEF7C2
:1049C00085FEE08A0090E0690290606A0490694682
:1049D0002069FEF77BFEE06A006820B1E06A0168AA
:1049E0004FF480708847BBF1010F01D10020E3E64E
:1049F0004FF0FF30E0E62068406820F460602168F6
:104A00004860606888B1A06878B161680868FEF79E
:104A100033FC10B14FF0FF30CEE6A1680868FEF716
:104A20002BFC10B14FF0FF30C6E62068006840F460
:104A30000070216808600021E06AC160E06A0161DD
:104A4000E06A8161E06AC1610020E16A0884E16A8C
:104A50004862E06A406820F00100E16A4860E06A6C
:104A6000406820F00200E16A4860E06A406820F097
:104A70000400E16A4860E06A406820F00800E16AEA
:104A80004860E06A406820F01000E16A4860E06A2F
:104A9000406820F02000E16A48602068006820F04B
:104AA0000100216808602068006840F0010021686A
:104AB00008602068006840F480602168086002E0B7
:104AC0004FF0FF3078E600BF002075E680F0FA0274
:104AD00080841E00A086010040420F0000093D00B6
:104AE00080969800801A06002DE9F0410446E56A98
:104AF0002068D0F814800026002708F4004008B190
:104B000047F4004708F4804008B147F4804708F4B0
:104B1000805008B147F4805708F4006008B147F4AA
:104B2000006708F4806000287FD047F480676868D9
:104B3000C0F3400080B32068406820F480602168A2
:104B400048602068006840F4007021680860012611
:104B5000E06A90F8240000F0400008B946F0100622
:104B6000E06A90F8240000F0080008B946F0020658
:104B7000E06A4068C0F3C00008B146F0200600219A
:104B8000A96100206862686820F0010068606868B8
:104B900020F00200686048E0FFE795F8220000F08E
:104BA000080020BB2068406820F4806021684860CD
:104BB00095F8240000F00900012836D10326E06AA8
:104BC0004068C0F3C00008B146F0200620680068C5
:104BD00040F40070216808600021A961002068622B
:104BE00085F82300686820F0010068601DE095F8F2
:104BF000240000F08900012817D10326E06A4068EC
:104C0000C0F3C00008B146F020062068006840F4F8
:104C10000070216808600021A9610020686285F8A1
:104C20002300686820F00100686008F4007000B399
:104C300047F40077E06A406820F00100E16A4860CC
:104C4000E06A406820F00200E16A4860E06A40687B
:104C500020F010001030E16A48604126E06A90F8C8
:104C6000240000F0080008B946F002060020E16ABE
:104C7000486208F48070F8B147F48077E06A4068D1
:104C800020F020002030E16A48608126E06A90F838
:104C9000240000F0080008B946F00206E06A406807
:104CA000C0F3400040B9E06A406820F00100E16ACA
:104CB00048600020E16A4862A06848B1606838B185
:104CC000A1680868FEF7D8FA61680868FEF7D4FAA8
:104CD00020684069B8432168486136B1E06A0068DD
:104CE00018B1E06A016830468847BDE8F0812DE9D7
:104CF000F05F0546E86A00F10806E86A00F114076B
:104D0000EC6A286840691FFA80F909F0010020B3B5
:104D1000208C00F4806098B1208C0E2101EAA01054
:104D200040F0F00A606A00F0200090B1606A20F064
:104D3000200060626068C0F3800040EA0A0A08E070
:104D4000208C40064FEA106A6068C0F3800040EA99
:104D50000A0A2868C0F810A025E309F0080068B125
:104D6000208CC0B2296808616068C0F38000002808
:104D7000F2D0606A40F01000606214E309F00200B3
:104D800000286FD06068C0F34000002873D06068CE
:104D9000C0F3800000284DD07068012805D1286834
:104DA000006820F4806029680860286840692868E5
:104DB0008069606A00F0100070B1606A20F0100035
:104DC00060622868006840F4807029680860606A42
:104DD00040F02000606235E0706801280AD1606A06
:104DE00000F0020008BB2868006840F400702968E1
:104DF00008601AE07068022810D12868006820F462
:104E00008060296808602868006840F400602968AC
:104E10000860606A40F48070606206E07068032891
:104E200003D1606A40F480706062606A40F04000C4
:104E3000606207E02868406928688069606A40F01D
:104E400040006062606A00F04000002884D068681A
:104E500050B1A86840B12868406840F400602968F3
:104E60004860A0E28AE006E02868406840F480607C
:104E70002968486097E2012084F823002868406987
:104E80001FFA80F9286880691FFA80FB0BF0040084
:104E900020B1606820F00400606004E0606820F0E9
:104EA0000400001D60600BF0100028B1606820F065
:104EB00008000830606003E0606820F0080060606F
:104EC000206820B34FF000086068C0F3C00008B14C
:104ED00048F020086068C0F3800060B9B86879685D
:104EE000884214D1606820F00100606048F004003E
:104EF000216888470BE0B0687168884207D1606814
:104F000020F00100606048F0080021688847606870
:104F100020F00100401C6060606A012813D1E86A3B
:104F200090F8220000F0080030B12868406840F492
:104F300000602968486036E22868406840F4806074
:104F4000296848602FE26068C0F3800078B1286863
:104F5000806800F4004000288CD1606A012889D064
:104F60002868006820F48060296808601BE22868CF
:104F7000406840F480602968486014E209F010003D
:104F800000B3002084F823002868006840F48060A3
:104F900029680860606820F00100606020680028CF
:104FA000C9D0606A00F009000128C4D14FF003089D
:104FB0006068C0F3C00008B148F02008216840468E
:104FC0008847F0E12868406800F4806000287ED0BF
:104FD0006068C0F34000F0B309F08000B0B13868F9
:104FE000B968405C29680861B868401CB860B86856
:104FF000796888429FD1606A40F008006062286842
:10500000406820F4806029684860CCE109F04000E5
:10501000002890D07068012802D07068032807D952
:1050200029680969CAB2B068411CB16031680A5484
:105030007068012820D12868406820F480602968C1
:105040004860606A00F0020038B12868406820F4C7
:105050000070296800E01EE04860606820F00100F0
:105060006060606820F0020060602068002884D0E2
:1050700021680120884796E17068022804D0B16851
:105080007068C01E81429CD12868406820F480600E
:105090002968486087E109F0800090B3032084F814
:1050A0002300B868796888422CD23868B968405CB7
:1050B00029680861B868401CB860B8687968884297
:1050C000A3D1606A40F008006062286800E054E004
:1050D000406820F4806029684860606820F0010022
:1050E00060602068002890D04FF00108E86A4068AE
:1050F000C0F3C00008B148F0200821684046884746
:1051000051E103E0FF20296808614CE109F040000B
:105110000028B0D0022084F823002868006900F03D
:10512000FF0AB06871688842A5D23068B16800F89B
:1051300001A0B068401CB060B068716888429AD124
:10514000606A40F0080060622868406820F480606F
:1051500029684860606820F00100606020680028CD
:1051600089D04FF001086068C0F3C00008B148F072
:10517000200821684046884715E109F0040000280E
:1051800088D02868406800F480600028B8D1606A40
:1051900000F08000E8B36068C0F3400008B3606AC4
:1051A00000F0020030B12868406820F400702968DF
:1051B000486005E02868006840F4007029680860CD
:1051C00028680069606820F001006060606820F075
:1051D000020060602068002892D021680120884782
:1051E000E1E0606820F001006060606820F002008B
:1051F0006060286800692068A8B14FF00408606802
:10520000C0F3C00008B148F0200821684046884734
:1052100000E016E0606A012805D12868406840F483
:10522000006029684860606A012805D02868006825
:1052300040F4007029680860606A40F040006062D5
:10524000B1E06068C0F34000C8B309F0800000B36B
:10525000606A00F0020030B12868406820F40070F5
:105260002968486005E02868006840F400702968F3
:10527000086028680069606820F00100606060686C
:1052800020F0020060602068E8B3216801208847B0
:1052900089E009F04000B0B37068022804D0B1681A
:1052A0007068801E814237D1606A00F0020038B118
:1052B0002868406820F400702968486006E03AE0F9
:1052C0002868006840F40070296808602968096946
:1052D000CAB2B068411CB16031680A5429680969D2
:1052E000CAB2B068411CB16031680A54606820F0ED
:1052F00001006060606820F002006060286800685B
:1053000020F4006000E03BE0296808602068B8B342
:1053100021680120884746E02868006820F4806002
:105320002968086029680969CAB2B068411CB1607F
:1053300031680A5437E009F0800010B394F8230074
:10534000032830D1606A00F00800C8B12068B8B105
:105350004FF004086068C0F3C00008B148F02008AE
:10536000216840468847606A01281CD12868406847
:1053700040F4806029684860606A40F040006062E4
:1053800011E009F0400070B12868806800F4004026
:1053900028B12868006820F48060296808602868BF
:1053A000006900F0FF0ABDE8F09F0146CA6A526832
:1053B000C2F3400242B9CA6A92F8242002F04002C5
:1053C00012B94FF0FF3009E0CA6A5268C2F3800296
:1053D00012B9CA6AD06901E0CA6A10697047014609
:1053E000C86A40687047000070B586B006460C4633
:1053F000E06A90F8220000F0010010B1002006B031
:1054000070BD01251220029001200490E068FDF794
:1054100011FCA08A0190A0690390206A059001A95F
:10542000E068FEF753F92069FDF704FCE08A01907B
:10543000E0690390606A059001A92069FEF746F9CA
:10544000606800287ED0A0680028FBD06068C06833
:10545000616809680860A068C068A1680968086098
:1054600000BF002000904F48006840F400104D49F4
:1054700008600846006800F40010009000BF00BFFC
:105480006068406961680968486000216068006878
:10549000816060680068C160A9026068006801619D
:1054A000002160680068416160680068816160682F
:1054B0000068C161606881690068016200216068FC
:1054C00000684162032160680068816200216068B1
:1054D0000068C16260680068016361680868FDF780
:1054E00035FF08B1A81E8AE7A0684069A16809686D
:1054F00048604021A068006881600021A0680068C1
:10550000C1604FF48061A068006801610021A0685B
:1055100000684161A06800688161A0680068C1619D
:10552000A0688169006801620021A068006841628A
:105530000321A068006881620021A0680068C16240
:10554000A06800E009E000680163A1680868FDF751
:10555000FDFE10B14FF0FF3051E76068B8B1A068B0
:10556000A8B16068406861680968C863606880685D
:1055700061680968C864A0684068A1680968C86370
:10558000A0688068A1680968C86445F008052821FA
:10559000E06AFBF741FAE06A0660E06A80F82250B0
:1055A00000202CE7303802402DE9F04707460D4631
:1055B00016469946089C05B11EB96FF00400BDE877
:1055C000F08727F40440B0F5806F02D36FF0040039
:1055D000F5E7E06A406800F0010010B16FF00100EB
:1055E000EDE7E06A90F8240000F00200C8B9FEF789
:1055F00093F9804600BF2068806900F0020000B97E
:1056000006E0FEF789F9A0EB0800B0F57A7FF2D347
:1056100000BF2068806900F0020010B16FF0010047
:10562000CDE7E06A406820F00100401CE16A486074
:10563000E06A406820F00200801CE16A4860E06A8D
:10564000406820F00400001DE16A4860E06A40689C
:1056500020F02000E16A4860E06A406820F0100015
:10566000E16A4860E16A0F840021E06A0161E06A52
:105670008560E06AC6600020E16A4862B9F1000F07
:1056800005D0E06A406A40F00200E16A48622068A2
:10569000006840F4806021680860606890B122680A
:1056A00002F110016268334610682A46FDF7C4FE15
:1056B00010B14FF0FF3082E72068406840F480501E
:1056C000216848602068406820F4007021684860C4
:1056D0002068006840F48070216808602068406895
:1056E00040F4007021684860002068E72DE9F04729
:1056F00006460F4615469946089C07B11DB96FF03E
:105700000400BDE8F08726F40440B0F5806F02D3B2
:105710006FF00400F5E7E06A406800F0010010B1A6
:105720006FF00100EDE7E06A90F8240000F002005D
:10573000C8B9FEF7F1F8804600BF2068806900F024
:10574000020000B906E0FEF7E7F8A0EB0800B0F5AC
:105750007A7FF2D300BF2068806900F0020010B1A8
:105760006FF00100CDE7E06A406820F00100401CC6
:10577000E16A4860E06A406820F00200801CE16A4B
:105780004860E06A406820F00400E16A4860E06A2E
:10579000406820F02000E16A4860E06A406820F03C
:1057A0001000E16A4860E16A0E840021E06AC1618C
:1057B000E06A4761E06A85610020E16A4862B9F108
:1057C000000F05D0E06A406A40F00200E16A4862DA
:1057D000A06860B1216801F11002A1682B46086839
:1057E0003946FDF729FE10B14FF0FF3089E72068F8
:1057F000406820F40070216848602068006840F428
:105800008070216808602068406840F4007021685A
:105810004860002075E7000038B505460C4625B104
:10582000012D7DD0022D7CD182E09E4920688842E6
:105830000FD100BF002000909B48006840F400108A
:10584000994908600846006800F40010009000BF05
:1058500002E04FF0FF3038BD00202168086094F965
:105860002800FEF7D1F894F92900FEF7CDF8E06A98
:1058700090F8220000F00800C8B160680068006875
:1058800040B161680868FDF7F7FC616891F91000A4
:10589000FEF7BAF8A0680068006840B1A16808681F
:1058A000FDF7EAFCA16891F91000FEF7ADF87D491B
:1058B0002068884206D17C48006820F400107A49AC
:1058C000086002E04FF0FF30C5E7E06A406820F072
:1058D0000100E16A4860E06A406820F00200E16A85
:1058E0004860E06A406820F00400E16A4860E06ACD
:1058F000406820F00800E16A4860E06A406820F0F3
:105900001000E16A4860E06A406820F02000E16A27
:105910004860E06A90F8220020F00200E16A01E0AD
:1059200003E0BBE081F82200B8E06FF0030092E7EB
:10593000E06A90F8220000F0010010B94FF0FF304B
:1059400089E7E06A90F8220000F0020008B1002028
:1059500081E75449206888420FD100BF00200090A1
:105960005148006840F400104F490860084600683C
:1059700000F40010009000BF02E04FF0FF306AE733
:10598000E06A90F8220000F0080048B1616891F9DF
:105990001000FEF74FF8A16891F91000FEF74AF8E1
:1059A00014F9280FFEF71EF894F90100FEF71AF813
:1059B00094F90000FEF73EF894F90100FEF73AF87A
:1059C00054F8280D3749884214D1374820380068E8
:1059D00040F4001034492039086000BF00BF00BF08
:1059E00000BF31482038006820F400102E492039CB
:1059F00008602CE02D492068884214D12A482038BC
:105A0000006840F4800028492039086000BF00BFCA
:105A100000BF00BF24482038006820F480002249DD
:105A20002039086013E020482038006840F4000066
:105A30001D492039086000BF00BF00BF00BF1A48E1
:105A40002038006820F400001749203908602068D9
:105A5000406840F44070216848602068406820F445
:105A60008060216848602068006820F0800021681C
:105A700008602068006840F0010021680860206824
:105A8000006840F4806021680860E06A90F82200B5
:105A900040F00200E16A81F8220000BF00BF002050
:105AA000D9E6000000540040403802400058004051
:105AB00010B50446214602480068FCF757F910BDAE
:105AC000F487002070B505460E46144605B116B998
:105AD0006FF0040070BDE06A406800F0010010B192
